:020000040800F2
:10000000100F0020E1450008890800088B0800084F
:100010008F080008930800089708000800000000F7
:100020000000000000000000000000009B08000825
:100030009D080008000000009F080008A1080008B3
:10004000FB450008FB450008FB450008FB45000890
:10005000FB450008FB450008FB450008FB45000880
:10006000BF1F0008FD1F0008FB450008FB450008F6
:10007000FB450008FB450008FB450008FB45000860
:10008000FB450008FB450008FB450008FB45000850
:10009000FB450008FB450008FB450008FB45000840
:1000A000FB450008FB450008FB450008FB45000830
:1000B000FB4500084129000869290008FB450008A4
:1000C000FB450008FB450008FB450008FB45000810
:1000D000FB45000855450008591D0008FB45000870
:1000E000FB450008FB450008FB45000800F002F84E
:1000F00000F071F80AA090E8000C82448344AAF151
:100100000107DA4501D100F066F8AFF2090EBAE84E
:100110000F0013F0010F18BFFB1A43F0010318473B
:100120007CA700009CA7000010F8013B0A4413F0D4
:10013000030408BF10F8014B1D1108BF10F8015B44
:10014000641E05D010F8016B641E01F8016BF9D133
:10015000002D15D010F8014B03F00C030C2BA1EB74
:1001600004040ABF10F8013BA4EB8314A4EB03249E
:1001700005F1010314F8016B5B1E01F8016BF9D561
:10018000914238BF10F8013BD1D3704700230024BF
:1001900000250026103A28BF78C1FBD8520728BF97
:1001A00030C148BF0B607047662909F0738000209A
:1001B00070471FB506F042FF04000020002108F040
:1001C0000BFB401C60600020002108F0EFFAE060AB
:1001D0001FBD10B510BD07F05DF81146FFF7E9FF30
:1001E00000F008F807F000FB03B4FFF7F2FF03BCD0
:1001F00004F056F996B0342109A806F01DFCF6A0CB
:100200000068089000BF00210691079104F0DEF815
:100210004FF4A06004F088FF01F08EFE00F009FEAC
:1002200000F030FC02F036FC03F0FAFA41F61F4110
:10023000C72002F01DFB4FF4165001F0BBFD41F644
:100240001F41272002F040FB4FF6FF70E349088072
:100250000020E34908804FF6FF7000F00CFF0120FA
:100260001021E0A2CDE900210290DC480388DC489F
:1002700002880A21052001F0A2FB1F20D84908802E
:1002800001201021DAA2CDE900210290D348038891
:10029000D34802881E21052001F091FB4FF47840DD
:1002A000CF49088001201021D5A2CDE9002102907C
:1002B000CA480388CA4802883221052001F07FFB22
:1002C0004BF64040C649088001201021CFA2CDE95D
:1002D00000210290C1480388C14802885A210520A4
:1002E00001F06DFB4FF6FF70BD490880CA48CBA1F5
:1002F0000CC809A806F0D0FA08A909A806F090FBD6
:10030000C848C949C94ACA4BCDE90132CDE90310F1
:10031000C848C94BC94AC049009003C901F0DAFE78
:10032000C749087008460078052804D006282DD053
:10033000072869D14DE01020012300226E21009092
:10034000052001F05AF91020012300226E210090AF
:100350000D2001F052F91020012300226E2100909F
:10036000152001F04AF94BF640409D4908800120D4
:10037000102109AACDE900210290984803889848E5
:1003800002886E211D2001F01AFB50E0102001238D
:1003900000226E210090052001F02FF9102001238A
:1003A00000226E2100900D2001F027F94BF640400D
:1003B0008B4908800120102109AACDE90021029073
:1003C00086480388864802886E21152001F0F7FAD6
:1003D0002DE01020012300226E210090052001F065
:1003E0000CF94BF640407E4908800120102109AAF3
:1003F000CDE90021029079480388794802886E216E
:100400000D2001F0DCFA12E04BF640407449088000
:100410000120102109AACDE9002102906F4803882C
:100420006F4802886E21052001F0C9FA00BF00BFA5
:100430004FF4007003F015FAFBE1824800780028C1
:100440007AD14BF64040664908807648007808F03B
:100450009FFC04467C4A7D4B08F0EAFCCDE9040190
:100460007148007808F094FC0446794A794B08F00A
:10047000DFFC82468B466D48007808F089FC064612
:10048000754A764B08F0D4FC04460D466B49097852
:100490004FF47A725143684A127802EBC20303EBBD
:1004A000021201EB8201634A127802EB820201EB35
:1004B00042015F4A1278881808F053FC80462246B1
:1004C0002B4608F0D1F952465B46CDE9000108F011
:1004D000CBF9CDE90201DDE9042308F0C5F94E4A64
:1004E00003C24FF6FF707E2364226E210090052028
:1004F00000F0F4FD0A2003F0A6FF4FF6FF70384924
:10050000088048484849494A494BCDE90132CDE97C
:1005100003104848484B494A3F49009003C901F03D
:10052000D9FD4749087008460078052805D00628F7
:100530002ED007284FD193E0CAE0102001230022DB
:100540006E210090052001F058F8102001230022B0
:100550006E2100900D2001F050F8102001230022A0
:100560006E210090152001F048F84BF640401C49E0
:1005700008800120102109AACDE900210290174826
:100580000388174802886E211D2001F018FA95E0B3
:100590001020012300226E210090052001F02DF88B
:1005A0001020012300226E2100900D2001F025F87B
:1005B0004BF640400A4908800120102109AACDE9E4
:1005C0000021029005480388054802886E21152005
:1005D00001F0F5F972E05EE06D6C00005E00002055
:1005E0005C000020B2C9D1F9CAFDD6B53A000000BE
:1005F000B2C9D1F9B5E7D1B93A302E303030560012
:10060000C6F8B7A7C1F7C1BF3A000000C9E8B6A84D
:10061000C1F7C1BF3A00000000000020252E33665C
:10062000000000001A00002019000020180000201F
:1006300017000020160000201500002014000020E4
:100640001D0000201B000020FCA9F1D24D62503F8C
:100650007B14AE47E17A843F9A9999999999B93F69
:100660001020012300226E210090052000F0C5FF1C
:100670004BF640406F4908800120102109AACDE9BE
:10068000002102906C4803886A4802886E210D2080
:1006900001F095F912E04BF64040664908800120D0
:1006A000102109AACDE9002102906348038861481E
:1006B00002886E21052001F082F900BF00BF0120F1
:1006C0005E4908705E4903C902F07CFF5D4A03C2BF
:1006D0005D485E495E4A5F4BCDE90032CDE90210CC
:1006E0005D4B5E4A5E495F48007801F09EFD03F075
:1006F00095FD0A21084600F01EFA5B49088010208B
:1007000006AB0090084602880A214E2001F02CFA20
:100710004C49DDE9062303C902F05DFF534A03C2D9
:100720005249DDE9062303C908F0C2FC0446DDE9AD
:10073000062308F055F94E4A03C24C49DDE9062369
:1007400003C908F0B5FC21F000410446DDE90623A9
:1007500008F046F9464A03C24449DDE9062303C9C5
:1007600008F0A6FC21F000410446424A424B08F042
:100770005DFC23D23D49DDE9062303C908F056FCA0
:100780001CD201203D49087039480CC800203C4962
:1007900008F06AF8804689463A48008808F0F8FA76
:1007A000064642464B4608F043FB044608F0ACFAC6
:1007B000344908800020314908702DE02B49DDE9DB
:1007C000062303C908F074FC21F000410446294ABD
:1007D000294B08F02BFC1FD22449DDE9062303C96D
:1007E00008F0EAFA18D200202449087020480CC802
:1007F0000020234908F05CFC06460F46214800888B
:1008000008F0C6FA804632463B4608F011FB044623
:1008100008F07AFA1B4908801A480088B0F5006F82
:1008200004DC1848008803F01CF802E0002003F004
:1008300018F802E65C0000205E0000201B0000208B
:1008400000000020080000201A00002019000020ED
:1008500018000020170000201600002015000020BE
:10086000140000201D0000201000002020000020A7
:10087000400000208DEDB5A0F7C6B03E3800002046
:100880000000F03F12000020704700BFFEE700BFED
:10089000FEE700BFFEE700BFFEE770477047704706
:1008A000704700000CB50020019000906C48006873
:1008B00040F480306A49086000BF6948006800F46D
:1008C000003000900198401C0190009818B90198E0
:1008D000B0F5A06FF1D16248006800F4003010B1AB
:1008E0000120009001E0002000900098012843D1F1
:1008F0005C48006840F010005A49086008460068EB
:1009000020F0030008600846006840F0020008601C
:100910005348406852494860084640684860084665
:10092000406840F4806048600846406820F47C10CD
:1009300048600846406840F4E8104860084600688F
:1009400040F08070086000BF4548006800F000700B
:100950000028F9D04248406820F003004049486030
:100960000846406840F00200486000BF3C484068CC
:1009700000F00C000828F9D10CBD10B5FFF792FF6C
:1009800010BD10B53648006840F0010034490860D9
:1009900008464068344908403149486008460068C4
:1009A000324908402E4908600846006820F480203B
:1009B00008600846406820F4FE0048604FF41F00BD
:1009C0008860FFF7DAFF4FF000602949086010BD2A
:1009D00010B5002100200022214B5B6803F00C01C0
:1009E00021B1042906D0082928D107E0214B224C47
:1009F000236027E01F4B204C236023E0184B5B68EB
:100A000003F47010164B5B6803F48032022303EB8F
:100A1000904022B9194B4343174C23600DE0104B13
:100A20005B6803F4003323B1144B4343124C23603F
:100A300003E0104B4343104C236003E00D4B0E4C7E
:100A4000236000BF00BF064B5B68C3F303130C4C6D
:100A5000E15C094B1B68CB40074C236010BD0000D4
:100A600000100240002002400000FFF8FFFFF6FEE9
:100A700008ED00E000127A004800002000093D0067
:100A80004C00002000B587B001214FF4047004F041
:100A9000E3F84FF4004004F043F80120ADF80400FF
:100AA00000208DF8070001A92E4803F019FE2E48FA
:100AB00004F0A8FB002002908DF80C008DF80D00CA
:100AC0004FF4602004900020059001208DF818005C
:100AD00002A9254804F0BDFB0121234804F0E5FBF1
:100AE000214804F004FC00BF1F4804F005FC002866
:100AF000FAD11D4804F00AFC00BF1B4804F00BFCAF
:100B00000028FAD107B000BD10B504460723012222
:100B10002146154804F035FC0121134804F005FC7A
:100B200000BF0221104804F071FD0028F9D00E48E2
:100B300004F08EFC10BD2DE9F04107460C4600255F
:100B4000002608E03846FFF7DFFF0544052003F0E4
:100B50007AFC701CC6B2A642F4DBB5FBF4F080B29E
:100B6000BDE8F0810010014000240140002108216F
:100B700014E000F0800222B14FF40072FE4B1A61C3
:100B800003E04FF40072FC4B5A614FF48072FA4B51
:100B90005A611A614206100E4A1ED1B20029E8DCE1
:100BA0007047024600BF108900F002000028FAD00A
:100BB000918100BF108900F001000028FAD09089CF
:100BC000C0B2704702884FF6C7731A4002800129ED
:100BD00002D10288028003E0028842F020020280F3
:100BE000028842F040020280704700B587B00121C0
:100BF000092004F031F84FF42040ADF80400032040
:100C00008DF8060018208DF8070001A9DB4803F0D5
:100C100067FD4FF48040ADF8040048208DF80700D0
:100C200003208DF8060001A9D44803F059FD41F2D4
:100C30000200ADF8040003208DF8060010208DF8A6
:100C4000070001A9CD4803F04BFD4FF48051CB487C
:100C500003F0F5FD0221C94803F0F1FD01218803ED
:100C600004F007F80020ADF808004FF48270ADF8EA
:100C70000A000020ADF80C00ADF80E00ADF8100031
:100C80004FF40070ADF812000020ADF81400ADF87C
:100C900016000720ADF8180002A9B94804F000FDBD
:100CA0000121B74804F0A1FD07B000BD10B504460E
:100CB0004FF48070B1491431086002200860E0B23E
:100CC000FFF754FF4FF48070AC491031086010BD3D
:100CD00010B504464FF48070A84914310860022012
:100CE000091F08602046FFF741FF4FF48070A349B9
:100CF0001031086010BD10B504464FF480709F4954
:100D0000143108600220091F08602012FFF72EFF2F
:100D1000E0B2FFF72BFF4FF4807098491031086064
:100D200010BD30B505460C462846FFF7BFFFE0B2C0
:100D3000FFF7CEFF30BD00B592490889FFF7B6FF37
:100D400000BDF0B504460D4616461F468D4948893C
:100D5000FFF7ACFF2012FFF7BBFFA11CC8B2FFF7E3
:100D6000B7FF3012FFF7B4FFB11CC8B2FFF7B0FFF6
:100D700084498889FFF79AFF2812FFF7A9FFE91C29
:100D8000C8B2FFF7A5FF3812FFF7A2FFF91CC8B2DF
:100D9000FFF79EFFFFF7CFFFF0BD30B504460D46CD
:100DA0002B46224629462046FFF7CBFF30BD30B503
:100DB00004460D4629462046FFF7EFFF724800889B
:100DC000FFF799FF30BD08B50121182003F044FF5B
:100DD0004FF4E060ADF8000003208DF80200102011
:100DE0008DF803006946644803F07AFC4FF4817083
:100DF000ADF800006946614803F072FC08BD10B50B
:100E0000642003F020FB322003F01DFB10BD00B571
:100E10002C205C490881002088718020088048804F
:100E20002A2048812B208881C8213620FFF779FFAE
:100E300000BD10B5FFF7C7FFFFF7E1FF1120FFF777
:100E400035FF782003F0FFFAB120FFF72FFF0120D4
:100E5000FFF73EFF2C20FFF73BFF2D20FFF738FF69
:100E6000B220FFF723FF0120FFF732FF2C20FFF70E
:100E70002FFF2D20FFF72CFFB320FFF717FF0120D6
:100E8000FFF726FF2C20FFF723FF2D20FFF720FF81
:100E90000120FFF71DFF2C20FFF71AFF2D20FFF781
:100EA00017FFB420FFF702FF0720FFF711FFC02054
:100EB000FFF7FCFEA220FFF70BFF0220FFF708FF61
:100EC0008420FFF705FFC120FFF7F0FEC520FFF7E4
:100ED000FFFEC220FFF7EAFE0A20FFF7F9FE00201E
:100EE000FFF7F6FEC320FFF7E1FE8A20FFF7F0FED2
:100EF0002A20FFF7EDFEC420FFF7D8FE8A20FFF777
:100F0000E7FEEE20FFF7E4FEC520FFF7CFFE0E2040
:100F1000FFF7DEFE3620FFF7C9FEC820FFF7D8FE38
:100F2000E020FFF7C3FE0F20FFF7D2FE1A20FFF7E5
:100F3000CFFE0F20FFF7CCFE1820FFF7C9FE2F20B1
:100F4000FFF7C6FE2820FFF7C3FE2020FFF7C0FEF4
:100F50002220FFF7BDFE1F20FFF7BAFE1B20FFF780
:100F6000B7FE2320FFF7B4FE3720FFF7B1FE0020C5
:100F7000FFF7AEFE072009E000100140000C014021
:100F800000380040C80600205C000020FFF7A0FEEB
:100F90000220FFF79DFE1020FFF79AFEE120FFF7E9
:100FA00085FE0F20FFF794FE1B20FFF791FE0F2018
:100FB000FFF78EFE1720FFF78BFE3320FFF788FE2A
:100FC0002C20FFF785FE2920FFF782FE2E20FFF759
:100FD0007FFE3020FFF77CFE3020FFF779FE3920BE
:100FE000FFF776FE3F20FFF773FE0020FFF770FE4D
:100FF0000720FFF76DFE0320FFF76AFE1020FFF7C2
:1010000067FE2A20FFF752FE0020FFF761FE002056
:10101000FFF75EFE0020FFF75BFE7F20FFF758FE24
:101020002B20FFF743FE0020FFF752FE0020FFF7C2
:101030004FFE0020FFF74CFE9F20FFF749FEF020F7
:10104000FFF734FE0120FFF743FEF620FFF72EFEE8
:101050000020FFF73DFE3A20FFF728FE0520FFF7AE
:1010600037FE2920FFF722FEFFF7D1FE4FF4805014
:101070001249086010BD70B5064611484088401EF0
:1010800083B20F480088401E82B200210846FFF755
:1010900058FE00240CE0002504E03046FFF72BFE4C
:1010A000681C85B206484088A842F6DC601C84B201
:1010B00003480088A042EEDC70BD0000100C014027
:1010C000C806002070B505460E461446314628462F
:1010D000FFF763FE2046FFF70EFE70BD2DE9F05FBF
:1010E00006460F4614461D46A01B401C1FFA80FAF8
:1010F000E81B401C1FFA80FB681E83B2601E82B290
:1011000039463046FFF71DFE4FF000080FE04FF064
:10111000000906E00A98FFF7EEFD09F101001FFA49
:1011200080F9D145F6DB08F101001FFA80F8D845B7
:10113000EDDBFD484088401E83B2FB480088401E1E
:1011400082B200210846FFF7FCFDBDE8F09F2DE9C3
:10115000FF4F85B081468A4600200490039007988F
:10116000A0EB09050898A0EB0A06CDF80890CDF889
:1011700004A0002D01DD012705E00DB9002702E0E4
:101180004FF0FF376D42002E02DD4FF0010806E000
:1011900016B94FF0000802E04FF0FF387642B54232
:1011A00001DD2C4600E034464FF0000B21E0019AAF
:1011B00091B2029A90B2FFF7FAFD04982844049085
:1011C0000398304403900498A04205DD0498001B66
:1011D00004900298384402900398A04205DD0398D9
:1011E000001B03900198404401900BF101001FFA8D
:1011F00080FB601C8345DADD09B0BDE8F08F2DE986
:10120000F04104460D4616461F462B4632462946F7
:101210002046FFF79CFF3B46224629462046FFF723
:1012200096FF3B46324639462046FFF790FF3B4645
:10123000324629463046FFF78AFFBDE8F081F8B50F
:1012400004460D4616461F46B84800883B463246BF
:10125000294600902046FFF741FFF8BD2DE9F041F7
:1012600004460D4616461F46DDF81880EA1991B26D
:10127000A21990B24246FFF725FFEA1991B2A21BCC
:1012800090B24246FFF71EFFEA1B91B2A21990B23C
:101290004246FFF717FFEA1B91B2A21B90B24246EB
:1012A000FFF710FFAA1991B2E21990B24246FFF778
:1012B00009FFAA1991B2E21B90B24246FFF702FF62
:1012C000AA1B91B2E21990B24246FFF7FBFEAA1B9D
:1012D00091B2E21B90B24246FFF7F4FEBDE8F08106
:1012E0002DE9FF4F81B0824617469846DDF838B0A9
:1012F000002445464FEA4800C0F10306BBF1000F49
:101300001FD01BE0A14608E04B46224600975046FE
:101310000299FFF7A3FF09F10109A945F4DD002EA9
:1013200004DA042000FB0460861D06E0601B042133
:1013300001FB006000F10A066D1E641CAC42E1DD99
:1013400018E015E02B462246009750460299FFF719
:1013500085FF002E04DA042000FB0460861D06E0F1
:10136000601B042101FB006000F10A066D1E641C75
:10137000AC42E7DD05B0BDE8F08F2DE9FF4F83B04B
:1013800081468A469346DDE91064684800880290E9
:10139000A6F12000C6B204EBD47009EB6000401E39
:1013A00082B20AEB0400401E83B2514648460194C3
:1013B000FFF7C7FC129860BB002527E00C2C07D173
:1013C00006EB46005A4901EB800010F8058004E066
:1013D000584800EB061010F8058000270FE008F0D1
:1013E000010020B10BF0FF00FFF772FC03E006994B
:1013F000C8B2FFF76DFC4FEA6808781CC7B204EB6F
:10140000D471B7EB610FEADB681CC5B2A542D5DB2E
:101410002DE0002529E00C2C07D106EB46004449BD
:1014200001EB800010F8058004E0424800EB061054
:1014300010F80580002711E03C48A0F800B008F043
:10144000010038B10AEB050291B209EB070290B234
:10145000FFF7ADFC4FEA6808781CC7B204EBD47103
:10146000B7EB610FE8DB681CC5B2A542D3DB2F499F
:10147000029808802C484088401E83B22A48008881
:10148000401E82B200210846FFF75BFC07B0BDE8B2
:10149000F08F2DE9FE4F04460E4691460C9F2348DF
:1014A0000088029001940096002561E01E480088A3
:1014B000401EA04204DB1C484088401EB04201DAB6
:1014C000BDE8FE8F3D783A2D01D10A2506E02E2D8C
:1014D00001D10B2502E0A5F13000C5B201944FF017
:1014E000000837E005EB4500134901EB001010F848
:1014F00008A04FF0000B25E00C48A0F800900AF07F
:10150000800018B131462046FFF751FC4FF6FF70BE
:1015100000EA4A0A601C84B20198201A0C280DD1F6
:10152000019C701C86B210E0C80600205C00002000
:101530009493000808980008F89D00080BF101003A
:1015400000F0FF0BBBF1080FD6DB00BF08F1010074
:1015500000F0FF08B8F1300FC4DB0A2D03DA04F104
:10156000100084B202E004F1080084B2009E7F1CE7
:1015700038787E2802DC3878202897DAFB490298F0
:10158000088000BF9CE72DE9FE4306460F4615463E
:101590001C46DDF828801DE0F5480088401EB0425A
:1015A00004DBF3484088401EB84201DABDE8FE8300
:1015B00020788DE82101EF480388EC4802883946FD
:1015C0003046FFF7DAFE284605EBD07106EB6101E5
:1015D0008EB2641C20787E2802DC20782028DBDA9A
:1015E00000BFE3E710B50246012000E050430B1EA8
:1015F000A1F10104E1B2F9D110BD2DE9FF4F83B093
:10160000074691461E46109C4FF0000A002543E015
:10161000701B401EC1B20A20FFF7E4FFB9FBF0F0D7
:101620000A21B0FBF1F201FB1208BAF1000F1BD145
:10163000701EA84218DDB8F1000F13D1012020213F
:10164000A346CDE90014029004EBDB71491001FBC5
:10165000057188B2C7490B88C4490A880499FFF705
:101660008CFE17E04FF0010A012108F13000C0B2F2
:10167000A346CDE90141009004EBDB71491001FB69
:10168000057188B2BB490B88B8490A880499FFF7ED
:1016900074FE00BF681CC5B2B542B9DB07B0BDE837
:1016A000F08F2DE9FC5F0546884691469A46DDF8A5
:1016B00030B000951020019000245FE004EB04108E
:1016C000AD4911F810009BF80010884253D104EB8B
:1016D0000410A94901EB400040789BF801108842B2
:1016E00049D108F10F0083B205F10F0082B24146E3
:1016F0002846FFF726FB00263BE0002734E00D9844
:1017000090B904EB04109C4901EB4000801C805D03
:1017100080213941084018B14846FFF7ECFA21E032
:101720005046FFF7E8FA1DE09048A0F8009004EB5F
:101730000410914901EB4000801C805D80213941FB
:10174000084018B141462846FFF731FB681C85B2B6
:101750000098281A102805D1009D08F101001FFAF1
:1017600080F803E0781CC7B2082FC8DB00BF701CEC
:10177000C6B2202EC1DB00BF601C84B20198844237
:101780009CDB7B484088401E83B279480088401E1D
:1017900082B200210846FFF7D4FABDE8FC9F2DE98C
:1017A000FC5F0546884691469A46DDF830B00095C4
:1017B0000B200190002467E004EB840000EB441050
:1017C0006E4911F810009BF80010884259D104EBC3
:1017D000840000EB4410694901EB400040789BF81D
:1017E000011088424DD108F1170083B205F11700AE
:1017F00082B241462846FFF7A4FA00263FE00027C0
:1018000038E00D98A0B904EB840000EB44105B496C
:1018100001EB4000801C805D80213941084018B1F7
:101820004846FFF768FA23E05046FFF764FA1FE0E6
:101830004E48A0F8009004EB840000EB44104F49A0
:1018400001EB4000801C805D80213941084018B1C7
:1018500041462846FFF7ABFA681C85B20098281A63
:10186000182805D1009D08F101001FFA80F803E057
:10187000781CC7B2082FC4DB00BF701CC6B2482E4C
:10188000BDDB00BF601C84B20198844294DB384801
:101890004088401E83B236480088401E82B2002134
:1018A0000846FFF74EFABDE8FC9F2DE9FC5F0546B0
:1018B000884691469A46DDF830B0009501200190A7
:1018C00000246BE004EB84102D4911F810009BF804
:1018D000001088425FD104EB8410294901EB4000DD
:1018E00040789BF80110884255D108F11F0083B25F
:1018F00005F11F0082B241462846FFF722FA002672
:1019000047E0002740E00D9890B904EB84101C4993
:1019100001EB4000801C805D80213941084018B1F6
:101920004846FFF7E8F92DE05046FFF7E4F929E0D3
:101930000E48A0F8009004EB8410114901EB400020
:10194000801C805D80213941084018B141462846FD
:10195000FFF72DFA681C85B20098281A202811D1AB
:10196000009D08F101001FFA80F80FE05C000020E4
:10197000C80600205E00002038A0000858A2000819
:1019800086A50008781CC7B2082FBCDB00BF701CFE
:10199000C6B2802EB5DB00BF601C84B201988442C1
:1019A00090DBDF484088401E83B2DD480088401E3F
:1019B00082B200210846FFF7C4F9BDE8FC9F2DE97B
:1019C000FF4F83B0064688469146DDE91147109DDA
:1019D000B2464FF0000B73E0BBF1000F42D104EBB5
:1019E000D471CF4A1288A2EB6101B14204DBCC4929
:1019F0004988091B414502DA07B0BDE8F08F287815
:101A0000802802DD4FF0010B5AE028780D2806D11E
:101A100008EB04001FFA80F856466D1C20E00C2CE1
:101A200001D0102C0FD128788DE891004A4641460C
:101A30003046069BFFF7A1FC204604EBD07106EB75
:101A400061018EB20CE0102128788DE883004A46AF
:101A500041463046069BFFF790FC06F1080086B22F
:101A60006D1C2DE0AE480088001BB04204DBAC4882
:101A70004088001B404500DABEE74FF0000B202CE9
:101A800008D1CDE900574A4641463046069BFFF74C
:101A90000CFF12E0182C08D1CDE900574A46414608
:101AA0003046069BFFF77BFE07E0CDE900574A462C
:101AB00041463046069BFFF7F4FDAD1C301986B257
:101AC0002878002888D100BF96E72DE9FF4F83B022
:101AD00004460F469046DDE9119A109D284604F011
:101AE00080FF86B28E490988A1EBC60000EBD07159
:101AF000C1F34F0B04EB0B0188B28DE82006424680
:101B00003946069BFFF75BFF07B0BDE8F08F2DE974
:101B1000F04706460F46154607F1270083B206F147
:101B2000270082B239463046FFF70BF900240AE05D
:101B300015F8149005EB440090F8018049EA08205C
:101B4000FFF7D9F8641CB4F5C86FF1DB744840881E
:101B5000401E83B272480088401E82B200210846AF
:101B6000FFF7EFF8BDE8F0872DE9F04F89B0814627
:101B70000C4693469A46002005900690079069A06F
:101B80000068049068A000680390002067490880FE
:101B90001FFA8BF008904FF6FF70009004F11400CC
:101BA00083B209F13C0082B221464846FFF796FA1B
:101BB00012980423009021464846089AFFF71DFD1D
:101BC000089807F0E5F85A4A5A4BCDE9000107F0AA
:101BD0002FF907468846CAE900783A46434656A197
:101BE00005A804F059FE03A905A804F019FF4FF653
:101BF000FF70009004F1280083B209F1500082B216
:101C000004F1140081B24846FFF768FA1F204749E3
:101C100008800120102105AACDE90021029004F1DD
:101C2000140081B246480388404802884846FFF7BE
:101C3000C6FEDAE90021104601F0BBFC05460E465F
:101C40000022404B2846314607F032FA21F000418D
:101C50003D4A3E4BCDE9000107F0E8F908D20022E9
:101C6000384B2846314607F0E1F901D20025354EC0
:101C70004FF6FF70009004F1500083B209F150005C
:101C800082B204F13C0081B20520FFF727FA2A4610
:101C9000334629A105A804F0FFFD04A905A804F016
:101CA000BFFE4FF4784021490880002213462846A1
:101CB000314607F0FDF921F00041234A234BCDE9DD
:101CC000000107F0B3F917D2002213462846314627
:101CD00007F072F810D2012010211DA2CDE90021D9
:101CE000029004F13C0081B2154803880F48028835
:101CF0000520FFF764FE0FE00120102105AACDE9C1
:101D00000021029004F13C0081B20D48038807488D
:101D100002880520FFF753FE09B0BDE8F08F0000F0
:101D2000C80600206D6C0000560000005C0000201A
:101D300052B81E85EB515A3F252E33660000000035
:101D40005E0000200058BB408DEDB5A0F7C6B03E48
:101D5000B4EDCEF30000000070B540F2255170489C
:101D600003F09EF928B307216D4803F083F908B109
:101D7000012400E000246A4803F012F9C5B2694862
:101D80000088402815DAA4B967486649098845548F
:101D900064480088401C634908800121634804F0BE
:101DA00077FD0021614804F02DFD01215F4804F01A
:101DB00095FA70BD10B586B004460121042002F0EA
:101DC0004BFF0121084602F047FF0121480402F0C1
:101DD00050FF0420ADF8140018208DF817000320E0
:101DE0008DF8160005A9524802F07AFC04215048EB
:101DF00002F023FD0820ADF8140048208DF81700EC
:101E000005A94B4802F06CFC4020ADF814001020EE
:101E10008DF8170005A9464802F062FC40214448AD
:101E200002F00DFD0121480402F03DFF00214FF4B6
:101E3000003002F038FF01940020ADF80800ADF842
:101E40000A00ADF80C00ADF810000C20ADF80E0043
:101E500001A9334802F0A7FF40F22551304803F0B2
:101E600049F9012240F225512D4803F034F826208B
:101E70008DF8000002208DF801008DF8020001208D
:101E80008DF80300684603F054F90121244803F05B
:101E900016F800202749086006B010BD70B5054649
:101EA0000E4601202349086000240CE000BF802179
:101EB0001B4803F0DFF80028F9D0295D184803F02B
:101EC0006BF8601CC4B2B442F0DB00BF4021144880
:101ED00003F0D0F80028F9D070BD2DE9F041074695
:101EE0000D46104806780024002028700A2002F0D1
:101EF000AAFA0C48008886420FD176B100BF04E0F0
:101F00000948005D3855601CC4B2B442F8DB05488E
:101F100000782870002003490880BDE8F0810000A7
:101F20000044004062000020D6060020000400406B
:101F300000080140980121420EB500F07FF8012110
:101F4000084602F089FE0221084602F0DFFC042068
:101F5000019000208DF808000C208DF80900012068
:101F60008DF80A0001A803F009FD0321022002F008
:101F7000CDFC0820019001208DF80A0001A803F093
:101F8000FDFC08208DF8000002208DF801000320E0
:101F90008DF8020001208DF80300684603F0C9F8AF
:101FA00009208DF8000002208DF8010001208DF835
:101FB00002008DF80300684603F0BBF80EBD10B5B3
:101FC000042003F041FD012814D10A2002F03BFA5D
:101FD0000421144802F017FC60B90120124908706E
:101FE000124908700121124804F078F900211148C3
:101FF00004F074F9042003F038FD10BD10B50A2078
:1020000002F021FA0821074802F0FDFB28B9064832
:102010000078012801D108490870082003F025FD47
:1020200010BD000000100140660000206800002084
:1020300000080040000400406900002008B50121AC
:10204000102002F009FE0C20ADF8000048208DF8A9
:10205000030069461D4802F043FB08BD10B5044665
:1020600014B101201A49087019480078E8B1042118
:10207000164802F0C8FB20B10821144802F0C3FB47
:1020800098B90A2002F0DFF90020114908700421F4
:102090000E4802F0B8FB08B9012010BD08210B481A
:1020A00002F0B1FB78B90220F7E70421074802F0FB
:1020B000AAFB012807D10821044802F0A4FB01284B
:1020C00001D1034908700020E7E70000001001403B
:1020D000670000202DE9FF5F86B014461D4614AE50
:1020E00096E8C00700200590834602900390049074
:1020F00002A80190FEA1DDE9062304F0CDFB02A8B1
:1021000004F06FFCC0B205902E2102A804F05FFC21
:10211000019002A90198401A00F0FF0BBBF1010FDA
:1021200009D0BBF1020F1ED0BBF1030F36D0BBF1BB
:10213000040F72D150E000202070287030709DF89C
:102140000800303838709DF80A00303888F80000F0
:102150009DF80B00303889F800009DF80C003038ED
:102160008AF800005AE00020207028709DF80800CE
:10217000303830709DF80900303838709DF80B0009
:10218000303888F800009DF80C00303889F80000DD
:102190009DF80D0030388AF800003FE000202070E4
:1021A0009DF80800303828709DF8090030383070EC
:1021B0009DF80A00303838709DF80C00303888F8E7
:1021C00000009DF80D00303889F800009DF80E00E1
:1021D00030388AF8000021E09DF80800303820707F
:1021E0009DF80900303828709DF80A0030383070AA
:1021F0009DF80B00303838709DF80D00303888F8A5
:1022000000009DF80E00303889F800009DF80F009E
:1022100030388AF8000001E0FFE700BF00BF00206F
:10222000019005980AB0BDE8F09F2DE9F84F83466C
:102230000C4615461E460AAF97E88007AE48007860
:102240000B2804D00C287DD00D287CD108E3012078
:10225000AA490870AA480078401CA9490870084695
:102260000078082801DB012008704FF6FF70A549AF
:1022700008804BF64040A449088010200090227846
:1022800001236E210520FFF7B8F9102000902A786D
:1022900001236E210D20FFF7B0F910200090327855
:1022A00001236E211520FFF7A8F9102000903A783D
:1022B00001236E211D20FFF7A0F91020009098F84F
:1022C000002001236E212D20FFF797F910200090A8
:1022D00099F8002001236E213520FFF78EF9102098
:1022E00000909AF8002001236E213D20FFF785F928
:1022F0008348007808287DD2DFE800F07C04396C40
:10230000A1D3F9F84FF6FF707E4908804BF64040A4
:102310007D4908804FF6FF707E230D226E210090CC
:102320000520FEF7DBFE10200090227801236E21AD
:102330000520FFF762F90020724908804FF47840C9
:10234000714901E057E18FE2088000207E23452299
:102350006E2100903D20FEF7C1FE102000909AF8FB
:10236000002001236E213D20FFF747F93EE14FF6A3
:10237000FF70644908804BF64040634908804FF67F
:10238000FF707E2345226E2100903D20FEF7A6FEC1
:10239000102000909AF8002001236E213D20FFF7C5
:1023A0002CF90020574908804FF47840564908809E
:1023B00000207E233D226E2100903520FEF78EFE08
:1023C0001020009099F8002001236E213520FFF79E
:1023D00014F90BE14FF6FF704A4908804BF6404074
:1023E000494908804FF6FF707E233D226E21009000
:1023F000352000E0F9E0FEF771FE1020009099F81A
:10240000002001236E213520FFF7F7F800203D4919
:1024100008804FF478403C49088000207E23352214
:102420006E2100902D20FEF759FE1020009098F8A4
:10243000002001236E212D20FFF7DFF8D6E04FF6B4
:10244000FF70304908804BF640402F4908804FF616
:10245000FF707E2335226E2100902D20FEF73EFE78
:102460001020009098F8002001236E212D20FFF706
:10247000C4F80020234908804FF47840224908809E
:1024800000207E2325226E2100901D20FEF726FECF
:10249000102000903A7801236E211D20FFF7ADF83F
:1024A000A4E04FF6FF70174908804BF640401649EC
:1024B00008804FF6FF707E2325226E2100901D209C
:1024C000FEF70CFE102000903A7801236E211D20AB
:1024D000FFF793F800200B4908804FF478400A4931
:1024E000088000207E231D226E210FE04CE01AE0C0
:1024F000252E3366000000006B0000201B0000202A
:10250000710000205E0000205C000020009015207B
:10251000FEF7E4FD10200090327801236E21152093
:10252000FFF76BF862E04FF6FF70FE4908804BF64C
:102530004040FD4908804FF6FF707E231D226E212A
:1025400000901520FEF7CAFD10200090327801237C
:102550006E211520FFF751F80020F24908804FF452
:102560007840F149088000207E2315226E210090DA
:102570000D20FEF7B3FD102000902A7801236E2174
:102580000D20FFF73AF831E04FF6FF70E54908807B
:102590004BF64040E44908804FF6FF707E23152239
:1025A0006E2100900D20FEF799FD102000902A78F2
:1025B00001236E210D20FFF720F80020D949088063
:1025C0004FF47840D849088000207E230D226E21E8
:1025D00000900520FEF782FD102000902278012354
:1025E0006E210520FFF709F800E000BF00BF0020C2
:1025F000CE49087039E1CE48007808287ED2DFE85D
:1026000000F07D042F5A87AFD7FD9AF80000C94922
:10261000087008460078401C0870084600780A28B0
:1026200001DB00200870C34800788AF80000002011
:10263000BC4908804FF47840BB49088000207E23C5
:1026400045226E2100903D20FEF748FD10200090AD
:102650009AF8002001236E213D20FEF7CEFFFAE01C
:1026600099F80000B349087008460078401C0870CB
:10267000084600780A2801DB00200870AD48007881
:1026800089F800000020A74908804FF47840A64947
:10269000088000207E233D226E2100903520FEF729
:1026A0001DFD1020009099F8002001236E21352097
:1026B000FEF7A3FFCFE098F800009E490870084697
:1026C0000078401C0870084600780A2801DB0020CA
:1026D00008709848007888F8000000209149088028
:1026E0004FF478409049088000207E2335226E21E7
:1026F00000902D20FEF7F2FC102000E0AAE00090F0
:1027000098F8002001236E212D20FEF776FFA2E02D
:1027100038788849087008460078401C08700846D8
:1027200000780A2801DB00200870824800783870A1
:1027300000207C4908804FF478407B4908800020C5
:102740007E2325226E2100901D20FEF7C7FC10205D
:1027500000903A7801236E211D20FEF74EFF7AE0AB
:1027600030787449087008460078401C08700846A4
:1027700000780A2801DB002008706E48007830706D
:102780000020684908804FF478406749088000209D
:102790007E231D226E2100901520FEF79FFC102045
:1027A0000090327801236E211520FEF726FF52E0BB
:1027B00028786049087008460078401C0870084670
:1027C00000780A2801DB002008705A480078287039
:1027D0000020544908804FF4784053490880002075
:1027E0007E2315226E2100900D20FEF777FC10202D
:1027F00000902A7801236E210D2000E002E0FEF710
:10280000FCFE28E020784B49087008460078401C00
:102810000870084600780A2801DB00200870454847
:102820000078207000203F4908804FF478403E49EE
:10283000088000207E230D226E2100900520FEF7E7
:102840004DFC10200090227801236E210520FEF718
:10285000D4FE00E000BF00BF00203449087004E04F
:1028600000203249087000E000BF00BFBDE8F88FCB
:102870007FB505460C460121042002F0FAF9ADF8B7
:102880000850ADF804400020ADF80A00ADF806008D
:1028900001A9294803F0C6F901221146264803F090
:1028A00038FD0121244803F0F3FF1E208DF80000BD
:1028B00002208DF8010001208DF802008DF8030040
:1028C000684602F036FC7FBD7FB505460C46012107
:1028D000022002F0CEF9ADF80850ADF80440002017
:1028E000ADF80A00ADF8060001A9144803F09AF902
:1028F00001221146114803F00CFD01210F4803F09D
:10290000C7FF1D208DF8000002208DF80100032074
:102910008DF8020001208DF80300684602F009FCE2
:102920007FBD00005E0000205C0000206B000020E6
:1029300071000020720000200008004000040040E8
:1029400010B50121454803F092FF60B101214348D1
:1029500003F09EFF0021414803F0C0FC01204049E4
:1029600008604049087010BD10B501213E4803F0D1
:102970007EFF00286CD03D480078012826D1042134
:102980003B4801F040FF60B900203A4908703A48DE
:10299000006846281FD838480068401C364908603F
:1029A00019E035480068032808D90B20334908701E
:1029B0000020314908602D4908700CE000202E49A4
:1029C00008602E4908702949087004E029480078F9
:1029D000401C284908702A480078012825D1082180
:1029E000234801F010FF60B90020224908702248F6
:1029F0000068462819D820480068401C1E49086015
:102A000013E01D480068032808D90C201B490870F2
:102A10000020194908601A49087006E0002016498C
:102A20000860164908701649087012480078FA289C
:102A30000EDB002013490870134908701349087011
:102A4000134908700B4908700021074803F046FC41
:102A50000121054803F01CFF10BD000000040040E8
:102A60009801214273000020000800406800002007
:102A70000010014078000020740000206B0000204E
:102A80006900002066000020710000207200002014
:102A90001B0000200021FE4A116051609160D1604E
:102AA000116151619161D1619163D163116451648C
:102AB000F849F948C2E90810F849F948C2E90A108A
:102AC000F848F949C2E90C010021F848C2E912109E
:102AD0001165516570472DE9FC5F04460D4691462E
:102AE0004FF00008B9F1010F03D0B9F1020F7DD109
:102AF000B6E2302743E007EB080000EBD0714E1040
:102B0000EB4800EBC600D0E900A352462046294618
:102B100006F0CEFA21F00041E64AE74BCDE900018C
:102B200006F04AF905D8E54800EBC60103C9BDE83F
:102B3000FC9FDF4800EBC600D0E900A352462046C8
:102B4000294606F0B5FADB4ADB4BCDE9000106F079
:102B50006DFA02D206F1010811E0D54800EBC6007B
:102B6000D0E900A352462046294606F095FAD14AFC
:102B7000D14BCDE9000106F059FA00D2771EB845D5
:102B8000B9DDC84A5242CE4B2046294606F090FA9B
:102B90008246C84AC84B06F049FA17D8C94ACA4BF8
:102BA0002046294606F078FA8246C24AC24B06F011
:102BB0003DFA0BD2C54AC64B2046294606F078FAA4
:102BC0008246C44AC44B05F00BFFB0E7BD4ABE4B7A
:102BD0002046294606F06CFA8246B64AB64B06F005
:102BE00025FA19D8BD4ABE4B204600E0DCE3294651
:102BF00006F052FA8246AF4AAF4B06F017FA0BD2F4
:102C0000B84AB94B2046294606F052FA8246B74ADE
:102C1000B74B05F0E5FE8AE7B04AB14B204629469E
:102C200006F046FA8246A34AA34B06F0FFF917D8EE
:102C3000B04AB14B2046294606F02EFA82469D4AFC
:102C40009D4B06F0F3F90BD2AC4AAD4B204629461A
:102C500006F02EFA8246AB4AAB4B05F0C1FE66E7A2
:102C6000A44AA54B2046294606F022FA8246914AFC
:102C7000914B06F0DBF917D8A44AA54B204629460C
:102C800006F00AFA82468B4A8B4B06F0CFF90BD23C
:102C9000A04AA14B2046294606F00AFA82469F4ADE
:102CA0009F4B05F09DFE42E7984A994B20462946E6
:102CB00006F0FEF982467F4A7F4B06F0B7F917D837
:102CC000984A994B2046294606F0E6F98246794A09
:102CD000794B06F0ABF90BD2944A954B2046294626
:102CE00006F0E6F98246934A934B05F079FE1EE71B
:102CF0008C4A8D4B2046294606F0DAF982466D4A09
:102D00006D4B06F093F917D88C4A8D4B2046294617
:102D100006F0C2F98246674A674B06F087F90BD284
:102D2000884A894B2046294606F0C2F98246874ADE
:102D3000874B05F055FEFAE6804A814B204629462E
:102D400006F0B6F982465B4A5B4B06F06FF917D87E
:102D50000022804B2046294606F09EF98246554ABD
:102D6000554B06F063F90BD24A4A7B4B2046294665
:102D700006F09EF98246794A794B05F031FED6E697
:102D80000022744B2046294606F092F98246494AB1
:102D9000494B06F04BF917D8724A734B2046294627
:102DA00006F07AF98246434A434B06F03FF90BD8C6
:102DB0006E4A6F4B2046294606F07AF982466D4AE4
:102DC0006D4B05F00DFEB2E6664A674B204629467C
:102DD00006F06EF98246374A374B06F027F917D8C6
:102DE000664A674B2046294606F056F98246314A24
:102DF000314B06F01BF90BD8624A634B204629463B
:102E000006F056F98246614A614B05F0E9FD8EE60F
:102E10005A4A5B4B2046294606F04AF98246254A23
:102E2000254B06F003F917D8564A5A4B2046294637
:102E300006F032F982461F4A1F4B06F0F7F80BD80E
:102E4000554A564B2046294606F032F98246544AE6
:102E5000544B05F0C5FD6AE64A4A4E4B20462946CA
:102E600006F026F98246134A134B06F0DFF80DD818
:102E7000444A4D4B2046294606F00EF982460D4A3B
:102E80000D4B06F0D3F801D8484A91E09BE00000D2
:102E9000900700209A9999999999B93F1B2FDD24A1
:102EA0000681853F7B14AE47E17A943F00002440C1
:102EB000900300208DEDB5A0F7C6B03E18050020A8
:102EC0001E85F13F8195438B6CE7F13F894160E5B9
:102ED000D022F13F691D554D10752F3F273108ACA9
:102EE0001C5AF23F355EBA490C02F13FD2FBC6D7FD
:102EF0009E59323F37894160E5D0F23FF6285C8F1A
:102F0000C2F5F03F1A170E846401333F1D5A643B2B
:102F1000DF4FF33FA245B6F3FDD4F03FA94D9CDC53
:102F2000EF50343F91ED7C3F355EF43F79E9263137
:102F300008ACF03F38842A357BA0353F6DE7FBA90C
:102F4000F1D2F53FA69BC420B072F03FC7BAB88D4E
:102F500006F0363F0000F63F9999F13F2F6EA3012E
:102F6000BC05323F0C022B8716D9F83FE7FBA9F1CD
:102F7000D24DF03F58FE7C5BB054373F022B871692
:102F8000D9CEFB3F560E2DB29DEFEF3F56F146E6F0
:102F9000913F383F9DEF0340B0726891ED7CEF3F69
:102FA000D5EAABAB02B5383F9DEF09405839B4C8FC
:102FB000FE4B2046294606F07BF88246FC4AFD4B34
:102FC00005F00EFDB3E5FC4AFC4B2046294606F011
:102FD0006FF88246FA4AFB4B06F028F817D8FA4AEF
:102FE000FA4B2046294606F057F88246F44AF54B3C
:102FF00006F01CF80BD8F64AF64B2046294606F098
:1030000057F88246F44AF54B05F0EAFC8FE5EE4AA4
:10301000EE4B2046294606F04BF88246E84AE94B3B
:1030200006F004F817D8E44AED4B2046294606F08E
:1030300033F88246E24AE34B05F0F8FF0BD8E94A41
:10304000E94B2046294605F00FFC8246D84AE74B5B
:1030500005F0C6FC6BE5E64800EBC60103C966E572
:10306000302742E007EB080000EBD0714E10E0483B
:1030700000EBC600D0E900A352462046294606F0E0
:1030800017F821F00041CE4ACE4BCDE9000105F002
:1030900093FE04D8D74800EBC60103C947E5D448DE
:1030A00000EBC600D0E900A352462046294605F0B1
:1030B000FFFFC34AC34BCDE9000105F0B7FF02D2C1
:1030C00006F1010811E0CA4800EBC601D1E900A3EE
:1030D00052462046294605F0DFFFB94AB94BCDE9F3
:1030E000000105F0A3FF00D2771EB845BADD00222B
:1030F000C14B2046294605F0DBFF8246B04AB14B62
:1031000005F094FF17D80022BC4B2046294605F055
:10311000C3FF8246AA4AAB4B05F088FF0BD2B84AE0
:10312000B84B2046294605F083FE8246B64AB74B87
:1031300005F09AFBFBE40022B04B2046294605F03F
:10314000B7FF82469E4A9F4B05F070FF17D80022BA
:10315000AF4B2046294605F09FFF8246984A994B7F
:1031600005F064FF0BD2AB4AAB4B2046294605F075
:103170005FFE8246A94AAA4B05F076FBD7E40022FF
:10318000A34B2046294605F093FF82468C4A8D4B7F
:1031900005F04CFF17D80022A24B2046294605F027
:1031A0007BFF8246864A874B05F040FF0BD29E4A42
:1031B0009E4B2046294605F03BFE82469C4A9D4B8D
:1031C00005F052FBB3E40022964B2046294605F059
:1031D0006FFF82467A4A7B4B05F028FF17D8002202
:1031E000954B2046294605F057FF8246744A754B99
:1031F00005F01CFF0BD2914A914B2046294605F061
:1032000017FE82468F4A904B05F02EFB8FE400227A
:10321000894B2046294605F04BFF8246684A694B98
:1032200005F004FF17D80022884B2046294605F0F8
:1032300033FF8246624A634B05F0F8FE0BD2844AA4
:10324000844B2046294605F0F3FD8246824A834B93
:1032500005F00AFB6BE400227C4B2046294605F072
:1032600027FF8246564A574B05F0E0FE17D800224A
:103270007B4B2046294605F00FFF8246504A514BB2
:1032800005F0D4FE0BD2774A774B2046294605F04D
:10329000CFFD8246754A764B05F0E6FA47E40022F8
:1032A0006F4B2046294605F003FF8246444A454BB2
:1032B00005F0BCFE17D800226E4B2046294605F0CB
:1032C000EBFE82463E4A3F4B05F0B0FE0BD26A4A07
:1032D0006A4B2046294605F0ABFD8246684A694B99
:1032E00005F0C2FA23E40022624B2046294605F08D
:1032F000DFFE8246324A334B05F098FE18D8002292
:10330000614B2046294605F0C7FE82462C4A2D4BCC
:1033100005F08CFE0CD25D4A5D4B2046294605F037
:1033200087FD8246284A52425A4B05F09DFA4CE4EA
:103330000022554B2046294605F0BAFE8246204A17
:10334000204B05F073FE17D80022534B2046294628
:1033500005F0A2FE82461A4A1A4B05F067FE0BD80A
:103360004E4A4F4B2046294605F062FD8246124ADE
:103370004C4B05F079FA28E40022474B20462946B9
:1033800005F096FE82460E4A0E4B05F04FFE0CD815
:103390000022454B2046294605F07EFE8246084A1B
:1033A000084B05F043FE81E0FEE08CE076BEEF3F87
:1033B000FA7E6ABC7493383F560E2DB29DEF0940D9
:1033C0008DEDB5A0F7C6B03E1904560E2DB20C40D7
:1033D0001D5A643BDF4FF13F0FD6FF39CC97373F83
:1033E0009DEF0C4054E3A59BC420FA3F7493483FE3
:1033F000180500209003002000005940000069409B
:10340000691D554D10752F3F894160E5D022F13F70
:1034100000C07240D2FBC6D79E59323F355EBA49D2
:103420000C02F13F000079401A170E846401333F0B
:10343000F6285C8FC2F5F03F00407F40A94D9CDC30
:10344000EF50343FA245B6F3FDD4F03F00E0854095
:1034500038842A357BA0353F79E9263108ACF03F26
:1034600000008E40C7BAB88D06F0363FA69BC42038
:10347000B072F03F00408F402F6EA301BC05323F79
:103480009A9999999999F13F0070974058FE7C5B01
:10349000B054373FD24DF03F00409F4056F146E6D2
:1034A000913F383F9DEFEF3F0040AF400BD8C24AFD
:1034B000C24B2046294605F0BBFC8246C04AC14BA0
:1034C00005F0D2F913E40022BF4B2046294605F04F
:1034D000EFFD8246BD4ABE4B05F0A8FD17D800227D
:1034E000BC4B2046294605F0D7FD8246B74AB84B6B
:1034F00005F09CFD0BD8B84AB84B2046294605F08C
:1035000097FC8246B64AB74B05F0AEF913E40022A9
:10351000B04B2046294605F0CBFD8246AB4AAC4B6A
:1035200005F084FD17D80022AF4B2046294605F050
:10353000B3FD8246A54AA64B05F078FD0BD8AB4AF1
:10354000AB4B2046294605F073FC8246A94AAA4B9C
:1035500005F08AF913E40022A34B2046294605F022
:10356000A7FD8246994A9A4B05F060FD17D80022C4
:10357000A24B2046294605F08FFD8246934A944B84
:1035800005F054FD0BD8944A9D4B2046294605F082
:103590004FFC82469B4A9C4B05F08AFD13E49B48F6
:1035A00000EBC60103C90EE400BF00BF00200146C6
:1035B00009E470B504460D46012220462946FFF76E
:1035C0008AFA70BD70B504460D460222204629468F
:1035D000FFF781FA70BD2DE9F04F8DB004460D461E
:1035E00016461F468A4830C00838C0E90267D0E94D
:1035F00002B35A46D0E90081404605F059FD844A9D
:10360000C2E9040110460146D0E91283D1E902B1B2
:103610004246584605F00AFD25D27D49D1E904818C
:1036200021F000417B4A7C4B404605F0FFFC02D272
:103630004FF0000A65E04FF0010A7549D1E90481B5
:1036400000221346404605F0B7FB5AD27048D0E935
:1036500004B35A46D0E91081404605F005F96C4A9A
:10366000C2E910014DE06A49D1E91483D1E902B100
:103670004246584605F0A0FB26D26549D1E90481AF
:1036800021F00041634A644B404605F0CFFC02D272
:103690004FF0000A35E04FF0010A5D49D1E904819D
:1036A00000221346404605F0C1FC2AD25848014684
:1036B000D0E90483D1E910B14246584605F0D4F868
:1036C000534AC2E910011CE05149D1E9048121F0BB
:1036D0000041504A504B404605F0A8FC02D24FF042
:1036E000000A0EE04FF0010A49490846D1E9048377
:1036F0004246D0E910B1584605F0B6F8444AC2E94E
:1037000010014348D0E906834246D0E904B1584647
:1037100005F0CEFCCDE906013D48D0E90C834246D8
:10372000069805F085FBCDE90A01504605F019FB26
:10373000CDE900013649D1E90A834246019905F0F5
:1037400077FBCDE902013248D0E910834246029866
:1037500005F06EFBCDE906012D48D0E90483424611
:10376000D0E908B1584605F063FBCDE902012848CD
:10377000D0E900834246029805F076F8CDE90401CD
:10378000DDE9062305F070F8CDE90801DDE90A233B
:1037900005F06AF81E4AC2E90E011046D0E904108D
:1037A000C2E9061000201D4908701146D1E90E013A
:1037B0000DB0BDE8F08F0000D5EAABAB02B5383FE5
:1037C000B0726891ED7CEF3F0040AF408DEDB5A049
:1037D000F7C6B03E0070B740FA7E6ABC7493383FBB
:1037E0005839B4C876BEEF3F0030BB400FD6FF3922
:1037F000CC97373F1D5A643BDF4FF13F0058BB4029
:103800007493483F54E3A59BC420FA3F90030020E3
:10381000900700209A9999999999C93F1C00002016
:1038200010B500F027F810BD70B505460C4600F045
:1038300038F8B02000F0F1F800F074F8022000F041
:10384000ECF800F06FF8284600F0E7F800F06AF8AE
:10385000204600F0E2F800F065F800F046F800209D
:1038600070BD70B50446E5B2261231462846FFF712
:10387000DBFF70BD08B50121042001F0EDF9302017
:10388000ADF8000010208DF8030001208DF8020033
:103890006946D44800F024FF3021D24800F0CDFF23
:1038A00008BD10B5CF48006820F47000CD4908600D
:1038B0000846006840F4401008600120CA490860CA
:1038C000052000F09CFD0120C849C1F890010520A9
:1038D00000F095FD0020C4490860052000F08FFD30
:1038E0000020C249C1F8900110BD10B5BD48006864
:1038F00020F47000BB4908600846006840F440109E
:1039000008600020B8490860052000F078FD01201B
:10391000B649C1F89001052000F071FD0120B249BF
:10392000086010BD10B50024AE48006820F4700097
:10393000AC4908600846006840F4000008600020B8
:10394000A949091F0860052000F059FD0120A74979
:10395000C1F89401A449091F0860052000F04FFD3B
:1039600007E0601CC4B2FA2C03DDFFF7BEFF0120A4
:1039700010BD9D48803800680028F2D19A49091F7F
:10398000086000BFF4E710B59648006820F47000A6
:10399000944908600846006840F440100860002020
:1039A0009149091F08609149C1F89401052000F070
:1039B00026FD01208C49091F0860052000F01FFD2D
:1039C00000208A49C1F89001052000F018FD002070
:1039D0008549086010BD10B58248006820F4700069
:1039E000804908600846006840F4401008600120E3
:1039F0007D49086000207D49C1F89001052000F054
:103A0000FEFC01207849091F0860052000F0F7FC42
:103A100000207649C1F8900110BD70B50446714888
:103A2000006820F470006F4908600846006840F4A0
:103A300040100860002518E000206B49091F08604D
:103A4000052000F0DCFCE0096849C1F8940105207C
:103A500000F0D5FC01206449091F0860052000F032
:103A6000CEFC6006040E681CC5B2082DE4DB002005
:103A70005D49091F086070BD70B5054600245948AE
:103A8000006820F47000574908600846006840F458
:103A90000000086000261AE000205349091F086052
:103AA000052000F0ACFC01205049C1F89001052030
:103AB00000F0A5FC6006040E4B488038006808B191
:103AC000601CC4B2012000F09AFC701CC6B2082E23
:103AD000E2DB15B9FFF77FFF01E0FFF754FF204657
:103AE00070BD70B504463F48006820F470003D4941
:103AF00008600846006840F440100860002518E09F
:103B000000203949091F0860052000F078FCE00911
:103B10003649C1F89401052000F071FC01203249BA
:103B2000091F0860052000F06AFC6006040E681C8E
:103B3000C5B2082DE4DB00202B49091F086070BDC9
:103B400070B500252748006820F4700025490860FA
:103B50000846006840F40000086000202249091F60
:103B60000860052000F04BFC01202049C1F89401B9
:103B70001D49091F0860052000F041FC04E0681C95
:103B8000C5B219480068C4B217480068012801D1BD
:103B9000FF2DF4DB00201449091F0860204670BD8A
:103BA00070B50446FFF77DFEB020FFF79AFFFFF7E0
:103BB000C7FF0220FFF795FFFFF7C2FF2546E11779
:103BC00004EB11610912A4EB0121C8B2FFF789FFD0
:103BD000FFF7B6FF2012FFF784FFFFF7B1FFFFF7F3
:103BE00084FE70BD00080140940121420000214282
:103BF00010B5FB484079FA49097940EA0120F949B2
:103C00000880F948008809880844032849D1F44805
:103C10000078F6490870F24840784870F14800781A
:103C20004006000E887000240FE0F1480078032160
:103C300001EB4401ED4A5054ED480088000A04218C
:103C400001EB44015054601CC4B2E6480088844231
:103C5000EBDBE4480088032202EB400081B2E3483A
:103C600000F090FBE349088008460178DD480088B1
:103C7000032202EB4000DD4A1154DE480088010AAD
:103C8000D8480088042202EB4000D84A1154D54895
:103C90000078052202EB4000C1B2D448FEF7FEF8DE
:103CA0000EE0CF480078D1490870CD48407840F008
:103CB00080004870022088700321CC48FEF7EEF89F
:103CC00010BD10B5C6484079C549097940EA0120C0
:103CD000C4490880C448008809880844022849D19A
:103CE000BF480078C1490870BD4840784870BD4859
:103CF00000784006000E887000240FE0BE4800786F
:103D0000032101EB4401B94A5054BB480088000A22
:103D1000042101EB44015054601CC4B2B148008836
:103D20008442EBDBAF480088032202EB400081B203
:103D3000AE4800F027FBAF49088008460178A94843
:103D40000088032202EB4000A84A1154A9480088C9
:103D5000010AA4480088042202EB4000A34A11543F
:103D6000A0480078052202EB4000C1B29F48FEF750
:103D700095F80EE09A4800789C4908709848407879
:103D800040F0800048700220887003219748FEF7B9
:103D900085F810BD10B59448008802283AD19048A3
:103DA00040798F49097940EA0120914908808C487F
:103DB00000788E4908708A48407848708848807832
:103DC00088708748C078C870854800790871844831
:103DD000407948710621854800F0D4FA8549088069
:103DE000084600788149887182480088000AC871B5
:103DF00008217E48FEF752F87D480088B0F5006F34
:103E000004DC7B480088FFF72CFD12E00020FFF760
:103E100028FD0EE0724800787449087070484078B8
:103E200040F0800048700220887003216F48FEF740
:103E300035F810BD2DE9F04395B000201290139095
:103E40001490342105A802F0F7FD6548867902F048
:103E5000C8FD00F0FF09624840796149097940EAEC
:103E600001206049088060480088098808440428C7
:103E70007ED1052E7CDC32465949C91D12A802F0BC
:103E800002FE12A804F016FC04460D465B4A5C4B89
:103E90002046294605F00CF907465A4A5A4B05F0C8
:103EA000C5F866D822462B465848594905F000F90E
:103EB0000746544A544B05F0B9F8F2D8554830C07B
:103EC0004748007849490870454840784870444858
:103ED000807888704248C078C8704148007908717D
:103EE0003F48407948710621404800F04BFA41496B
:103EF0000880084600783D4988713E480088000ADD
:103F0000C87108213948FDF7C9FF4BF640404249C6
:103F10000880404903C9FFF74CFB404A03C23F48B1
:103F20003FA10CC805A802F0B7FC3FA105A802F00C
:103F300077FD4FF6FF707E2364226E2100900520EE
:103F4000FDF7CCF84FF6FF70334908803748384901
:103F5000384A394BCDE90132CDE903103748384BA7
:103F6000384A2E49009003C9FEF7B4F8814601E0B3
:103F7000D0E0BFE0B9F1050F06D0B9F1060F65D06A
:103F8000B9F1070F7ED186E01020012300226E21B7
:103F900000900520FDF731FB1020012300226E2147
:103FA00000900D20FDF729FB1020012300226E2137
:103FB00000901520FDF721FB4BF640401649088084
:103FC0000120102105AACDE9002102901E48038896
:103FD000114802886E211D20FDF7F1FC89E035E0D3
:103FE000D6060020A6060020A00600201607002006
:103FF00012000020A406002010000020DF4F8D9743
:104000006E12F13F8DEDB5A0F7C6B03E8B6CE7FBAD
:10401000A9F10C40080000205C00002000000020F6
:10402000252E3366000000006D6C00001A00002091
:1040300019000020180000201700002016000020A2
:1040400015000020140000205E0000201020012335
:1040500000226E2100900520FDF7CFFA10200123E9
:1040600000226E2100900D20FDF7C7FA4BF640406C
:10407000B84908800120102105AACDE9002102904D
:10408000B54800E022E00388B24802886E2115207E
:10409000FDF795FC2DE01020012300226E210090F9
:1040A0000520FDF7AAFA4BF64040AA4908800120F6
:1040B000102105AACDE900210290A7480388A54850
:1040C00002886E210D20FDF77AFC12E04BF640408D
:1040D000A04908800120102105AACDE90021029005
:1040E0009D4803889B4802886E210520FDF767FCE8
:1040F00000BF37E0994800789949087097484078A0
:1041000040F0800048700520887003219448FDF736
:10411000C5FE27E09348008893490988084404288D
:104120000FD08E4800788E4908708C48407840F057
:10413000800048700220887003218948FDF7AEFE98
:1041400010E0052E0EDD854800788549087083480B
:10415000407840F080004870032088700321804838
:10416000FDF79CFE15B0BDE8F0833EB50020009041
:10417000019002900025794840797849097940EA10
:104180000120794908807748008809880844042874
:1041900034D17648AFF278110CC8684602F07CFB47
:1041A000684602F01EFCC4B26C4800786C49087086
:1041B0006A48407848700846847000BF06E01DF8E1
:1041C0000510E81C664A1154681CC5B2A542F6DB0E
:1041D000E11C634800F0D6F865490880084601787C
:1041E0005F4AE01C115462480088010A201D1154E6
:1041F000601DC1B21046FDF751FE0EE05748007831
:10420000574908705548407840F0800048700220B7
:10421000887003215248FDF741FE3EBD10B5554858
:10422000007801287ED14D480078534909788842AA
:1042300057D14A48407803280FD04848407804288E
:104240000BD046484078062807D0444840781728C5
:1042500003D042484078182865D14048C0783F498B
:10426000897840EA01203F490880084600880428F0
:1042700048DA42480088801E81B2384800F082F84F
:104280003B4908803D480088801E3449095C3B4812
:104290000088401E314A105C41EA002434480088FE
:1042A000A0421FD110464078062810D004DC032815
:1042B00007D0042814D107E017280BD018280FD1F5
:1042C0000BE0FFF795FC0CE0FFF7FBFC09E0FFF7C4
:1042D00061FD06E0FFF7AEFD03E0FFF746FF00E0FB
:1042E00000BF2FE01D4800781D4908701B4840782A
:1042F00040F0800048700420887003211848FDF7C2
:10430000CDFD1FE015480078154908701348407826
:1043100040F0800048700220887003211048FDF7AB
:10432000BDFD0FE015E00D4800780D4908700B4801
:10433000407840F0800048700120887003210848D0
:10434000FDF7ACFD00200B4908700C4908800C49B2
:10435000086010BD5C0000205E000020D606002032
:1043600016070020A0060020A60600200800002056
:10437000A406002073000020A20600206200002096
:1043800098012142F0B502460B460020FF24FF258C
:1043900009E012F8016B86EA05010A4E765C86EAAE
:1043A0000405094E745C1E1EA3F10107BBB2F0D1D7
:1043B0004619B0B24FF6FF7606EA00200619B0B2F1
:1043C000F0BD000008A6000808A7000810B56FF0AF
:1043D000040000F0F8FE2E4800682E49B0FBF1F012
:1043E0002D4908700846007800EB4001C1EBC01071
:1043F0004FF6FF7101EAC0002849088010BD014650
:10440000254A12784A434FF0E0235A6100229A610C
:104410001A46126942F001021A6100BF4FF0E02211
:10442000106900F001021AB100F48032002AF5D0C0
:104430004FF0E022126922F001024FF0E0231A61EE
:1044400000229A6170470146144A12884A434FF08D
:10445000E0235A6100229A611A46126942F0010271
:104460001A6100BF4FF0E022106900F001021AB19A
:1044700000F48032002AF5D04FF0E022126922F0D9
:1044800001024FF0E0231A6100229A617047000098
:104490004800002000127A00A8060020AA0600208A
:1044A00000BF704700BF4A4A128802F04002002A4B
:1044B000F9D0C2B2464B1B1D1A80704710B586B0AA
:1044C0000446012144F2040000F0C6FB4FF40070E2
:1044D000ADF8140003208DF8160018208DF8170091
:1044E00005A93C4800F0FCF84FF48060ADF81400DA
:1044F00004208DF8170005A9364800F0F1F82520B2
:104500008DF8000003208DF801008DF802000120D5
:104510008DF80300684600F00CFE01940020ADF811
:104520000800ADF80A00ADF80C00ADF810000C2042
:10453000ADF80E0001A9264800F035FC012240F23A
:104540002551234800F0C7FC0121214800F0B7FCA9
:1045500006B010BD10B540F225511D4800F0A0FD79
:1045600010B31B4800F01CFDC4B21B48008800F4C7
:104570000040C8B91848008800F4804060B10A2C97
:1045800003D000201449088020E01348008840F43C
:1045900000401149088019E00D2C06D10E48008812
:1045A00040F480400C49088010E00B480088C0F3BC
:1045B0000D000A490C5408480088401C0649088030
:1045C00008460088C72801DD0020088010BD0000D3
:1045D0000038014000080140B0060020E807002034
:1045E0000948804709480047FEE7FEE7FEE7FEE787
:1045F000FEE7FEE7FEE7FEE7FEE7FEE704480549C3
:10460000054A064B7047000083090008ED000008CA
:1046100010090020100F0020100B0020100B0020AC
:1046200010B50446CC48844208D10121042000F092
:104630002DFB0021042000F029FB46E0C7488442FE
:1046400008D10121082000F021FB0021082000F002
:104650001DFB3AE0C248844208D10121102000F03D
:1046600015FB0021102000F011FB2EE0BD48844214
:1046700008D10121202000F009FB0021202000F0BA
:1046800005FB22E0B848844208D10121402000F017
:10469000FDFA0021402000F0F9FA16E0B348844208
:1046A00008D10121802000F0F1FA0021802000F0E3
:1046B000EDFA0AE0AE48844207D10121801500F0EE
:1046C000E5FA0021A01500F0E1FA10BD10B50121B6
:1046D000084600F0DBFA0021012000F0D7FA10BDF7
:1046E0002DE9F04102460025002600200023002489
:1046F000002791F803C00CF00F0591F803C00CF0EF
:10470000100CBCF1000F03D091F802C04CEA050573
:1047100091F800C0BCF1000F31D0146800202BE0EC
:104720004FF0010C0CFA00F3B1F800C00CEA0306DC
:104730009E4220D183004FF00F0C0CFA03F7BC43CC
:1047400005FA03FC4CEA040491F803C0BCF1280FFD
:1047500006D14FF0010C0CFA00FCC2F814C00AE0BC
:1047600091F803C0BCF1480F05D14FF0010C0CFAD1
:1047700000FCC2F810C0401C0828D1D31460B1F866
:1047800000C0BCF1FF0F34DD546800202EE000F1C2
:10479000080C4FF0010808FA0CF3B1F800C00CEA5D
:1047A00003069E4221D183004FF00F0C0CFA03F751
:1047B000BC4305FA03FC4CEA040491F803C0BCF1C5
:1047C000280F05D100F1080C08FA0CF8C2F8148083
:1047D00091F803C0BCF1480F07D100F1080C4FF06D
:1047E000010808FA0CF8C2F81080401C0828CED343
:1047F0005460BDE8F0814FF6FF71018002218170A5
:104800000421C17070470246002093680B400BB131
:10481000012000E0002070470146886880B27047A0
:1048200002460020D3680B400BB1012000E00020BD
:1048300070470146C86880B27047016170474161A6
:1048400070470AB1016100E041617047C160704783
:104850004FF480320A438261816182618269826998
:10486000704702460020434B18684FF6807318408B
:1048700040EA021008433F4B186070473E49C86148
:104880007047F0B50A46002300240021002500F0FF
:104890000046B6F1004F02D1364EF16901E0354EC7
:1048A0007168C0F3034583B200F44016B6F5401FAB
:1048B00008D121F070612F4E766826F070662D4F7A
:1048C0007E6012E000F48016B6F5801F06D1032644
:1048D00006FA05F4A14341F0706106E0460D360189
:1048E00003FA06F6B14341F0706122B1460D36017C
:1048F00003FA06F6314300F00046B6F1004F02D14C
:104900001C4EF16101E01B4E7160F0BD30B500221C
:104910008B071C0F0F2303FA04F2164B08338C107D
:1049200053F824309343134C08348D1044F8253049
:1049300023468C1053F824308C07240F00FA04F41B
:1049400023430C4C08348D1044F8253030BD0A49FF
:10495000DC3108607047000000080140000C014095
:10496000001001400014014000180140001C0140EB
:10497000002001400000014000002042DF480068A4
:1049800040F00100DD49086008464068DC49084005
:10499000DA49486008460068DA490840D7490860A3
:1049A0000846006820F4802008600846406820F42B
:1049B000FE0048604FF41F0088607047CF490968C7
:1049C00021F48031CD4A11601146096821F480211B
:1049D0001160B0F5803F03D0B0F5802F0ED106E016
:1049E000C649096841F48031C44A116007E0C349EF
:1049F000096841F4A021C14A116000E000BF00BF76
:104A0000704710B501460022002300204A11012AF8
:104A100002D1BA4C236806E0022A02D1B74C236ABD
:104A200001E0B64C636A01F01F02012494401C406F
:104A30000CB1012000E0002010BD38B5002000902E
:104A40000024002500BF3120FFF7DBFF054600985A
:104A5000401C00900098B0F5A06F01D0002DF2D05E
:104A60003120FFF7CEFF08B1012400E000242046EA
:104A700038BD01460020A14A106820F0F80040EA45
:104A8000C10010607047A0490860704702460020CE
:104A90009A4B586820F47C1042EA01031843974B64
:104AA0005860704798490866704701460020934A4D
:104AB000506820F003000843506070478F484068FA
:104AC00000F00C007047014600208C4A506820F02E
:104AD000F00008435060704701460020874A506844
:104AE00020F4E06008435060704701460020834A8C
:104AF000506820F4605040EAC1005060704729B10E
:104B00007E4A527A02437D4B5A7204E07B4A527AC3
:104B100082437A4B5A7270477B49D831086070479C
:104B200001460020754A506820F440400843506018
:104B300070470021714A20321170704A82F82010AB
:104B4000012802D004280AD104E001216B4A203256
:104B5000117005E00521694A2032117000E000BFA4
:104B600000BF70476949086070476449096A01439A
:104B7000624A11627047654944390860704730B530
:104B800000210022002400235C4D6D6805F00C011B
:104B900021B1042905D0082923D105E05C4D056029
:104BA00022E05B4D05601FE0544D6D6805F4701206
:104BB000524D6D6805F48034022505EB92421CB914
:104BC000544D554305600BE04C4D6D6805F40035C0
:104BD0001DB1504D5543056002E04D4D55430560F4
:104BE00002E04B4D056000BF00BF444D6D6805F00D
:104BF000F0010909484D6B5C0568DD4045603F4D9B
:104C00006D6805F4E061090A434D6B5C4568DD4061
:104C100085603A4D6D6805F46051C90A3E4D6B5C84
:104C20004568DD40C560354D6D6805F44041890B30
:104C30003A4D6B5CC568B5FBF3F5056130BD29B134
:104C40002E4A526902432D4B5A6104E02B4A5269A5
:104C500082432A4B5A61704729B1284A926902431C
:104C6000264B9A6104E0254A92698243234B9A615C
:104C7000704729B1214AD2690243204BDA6104E02E
:104C80001E4AD26982431D4BDA61704729B11B4A23
:104C9000D2680243194BDA6004E0184AD2688243B2
:104CA000164BDA60704729B1144A12690243134B5C
:104CB0001A6104E0114A12698243104B1A6170476D
:104CC00012494039086070470F49C86470470B4962
:104CD000C87170470948406A40F0807007494862CF
:104CE000704701460020054A92680A400AB1012037
:104CF00000E00020704701498872704700100240B0
:104D00000000FFF8FFFFF6FE00004242800442422E
:104D100000127A0000093D00B2060020C206002001
:104D200010B50446FB48844209D101218803FFF7EE
:104D3000ADFF00214FF48040FFF7A8FF32E0F648B6
:104D4000844209D101214804FFF7ADFF00214FF44F
:104D50000030FFF7A8FF25E0F048844209D1012187
:104D60008804FFF7A0FF00214FF48020FFF79BFF8E
:104D700018E0EB48844209D10121C804FFF793FFF2
:104D800000214FF40020FFF78EFF0BE0E54884423E
:104D900008D101210805FFF786FF00214FF480109C
:104DA000FFF781FF10BD2DE9F04786B005460E469E
:104DB0000024A24600BFA1460027B08900B100BF71
:104DC0002F462C8A4CF6FF700440F08804432C8256
:104DD000AC894EF6F3100440B088318908437189DC
:104DE00008430443AC81AC8A4FF6FF400440B089CD
:104DF0000443AC8201A8FFF7C2FEC648874202D135
:104E0000DDF810A001E0DDF80CA0A88900F4004056
:104E100040B10AEBCA0000EB0A1031684900B0FB50
:104E2000F1F807E00AEBCA0000EB0A1031688900CC
:104E3000B0FBF1F86420B8FBF0F004012009642114
:104E400001FB1089A88900F4004040B1322000EB3A
:104E5000C900B0FBF1F000F00700044308E0322085
:104E600000EB09106421B0FBF1F000F00F000443E7
:104E70002C8106B0BDE8F0874FF416510160002187
:104E80008180C18001810C21418100218181704795
:104E900010B502460020108A4FF2FF0318400B881D
:104EA0004C8823438C882343CC88234318431082A7
:104EB00010BD0021018041808180C180704721B1F7
:104EC000828942F40052828104E082894DF6FF73A8
:104ED0001A4082817047F0B5034600240026002561
:104EE000002040F66A17B94200D100BF1846C1F34E
:104EF000421401F01F06012707FA06F5012C01D123
:104F00000C3004E0022C01D1103000E014301AB152
:104F100007682F43076002E00768AF430760F0BDF2
:104F20001AB1838A0B43838202E0838A8B43838294
:104F30007047028A4FF6F0731A400282028A0A43CF
:104F40000282704782894FF2FF731A408281828900
:104F50000A438281704721B1828942F00202828134
:104F600004E082894FF6FD731A4082817047028AFD
:104F70004FF6DF731A400282028A0A4302827047A8
:104F800021B1028A42F48042028204E0028A4BF696
:104F9000FF731A4002827047C1F308028280704793
:104FA00001468888C0F308007047818941F00101FB
:104FB00081817047028BD2B20283028B42EA0122C6
:104FC00002837047028B02F47F420283028B0A4302
:104FD0000283704721B1828A42F02002828204E07B
:104FE000828A4FF6DF731A408282704721B1828A2B
:104FF00042F01002828204E0828A4FF6EF731A4078
:105000008282704721B1828A42F00802828204E0E3
:10501000828A4FF6F7731A408282704721B18289E3
:1050200042F40042828103E08289C2F30E0282814F
:10503000704721B1828A42F40062828204E0828A4F
:105040004FF2FF731A4082827047828A4FF6FB73D9
:105050001A408282828A0A438282704721B1828A00
:1050600042F00202828204E0828A4FF6FD731A4007
:105070008282704702460020B1F5007F00D100BF58
:1050800013880B400BB1012000E00020704701F4B1
:105090000072B2F5007F00D100BFCA4302807047A2
:1050A00070B50246002400230025002040F66A1651
:1050B000B14200D100BFC1F3421501F01F03012628
:1050C00006FA03F3012D02D19689334006E0022D42
:1050D00002D1168A334001E0968A33400C12012631
:1050E00006FA04F41688344013B10CB1012000E034
:1050F000002070BD10B50022002340F66A14A142C2
:1051000000D100BF0A1201249440A3B2DC43048002
:1051100010BD00000038014000440040004800403D
:10512000004C00400050004031490143314A1160B9
:10513000704770B5002100230F22C47804B32D4CB2
:10514000246804F4E064C4F5E064210AC1F10403B6
:10515000CA40447804FA03F18478144021430901D9
:10516000254C0678A155047804F01F050124AC40B5
:1051700005786D11AD0005F1E025C5F8004109E0A5
:10518000047804F01F050124AC401C4D067876110C
:1051900045F8264070BD1A4A0A400243154B1B1FB2
:1051A0001A60704739B1134A121D12680243114B3D
:1051B0001B1D1A6006E00F4A121D126882430D4B38
:1051C0001B1D1A607047042808D14FF0E0210969BF
:1051D00041F004014FF0E022116107E04FF0E021BF
:1051E000096921F004014FF0E022116170470000CD
:1051F0000000FA050CED00E000E400E080E100E0D2
:1052000080FFFF1F10B50446FA48844208D10121EF
:105210004015FFF73BFD00216015FFF737FD17E054
:10522000F548844208D101210015FFF72FFD002128
:105230002015FFF72BFD0BE0F048844208D1012137
:10524000C803FFF723FD00214FF40040FFF71EFDC8
:1052500010BD30B50246002000235068E84C2040C5
:105260000D790C6844EA0524204350609068E54CB1
:105270002040D1E902542C434D7944EA45042043AF
:105280009060D06A20F470000C7C641EE4B223436A
:1052900040EA0350D06230BD0021016001714171CC
:1052A0008160C16001210174704721B1826842F0C0
:1052B0000102826003E0826822F00102826070478E
:1052C00021B1826842F48072826003E0826822F435
:1052D00080728260704710B50023CBB21AB1446867
:1052E0001C43446002E044689C43446010BD8168F4
:1052F00041F0080181607047014600208A6802F091
:1053000008020AB1012000E000207047816841F0E6
:10531000040181607047014600208A6802F004029F
:105320000AB1012000E00020704721B1826842F4F8
:10533000A002826003E0826822F4A00282607047CB
:10534000014600208A6802F480020AB1012000E0D0
:105350000020704710B50A4600210023416821F45F
:105360006041531E41EA4331416010BD21B14268A2
:1053700042F40062426003E0426822F4006242604C
:105380007047F0B504460D4600200021092D11DDBF
:10539000E068A5F10A0606EB4607072606FA07F1BC
:1053A0008843A5F10A0606EB460603FA06F1084310
:1053B000E0600CE0206905EB4507072606FA07F1D7
:1053C000884305EB450603FA06F108432061072AE6
:1053D0000FDA606B561E06EB86071F2606FA07F1EA
:1053E0008843561E06EB860605FA06F108436063FD
:1053F00022E00D2A0FDA206BD61F06EB86071F2648
:1054000006FA07F18843D61F06EB860605FA06F171
:105410000843206310E0E06AA2F10D0606EB860760
:105420001F2606FA07F18843A2F10D0606EB860651
:1054300005FA06F10843E062F0BD21B1826842F44A
:105440008012826003E0826822F4801282607047DA
:105450000146C86C80B2704766484C30006870479F
:1054600021B1426842F48062426003E0426822F463
:1054700080624260704721B1426842F480524260CB
:1054800003E0426822F48052426070470A460021DD
:10549000816821F4E04111438160704721B1826845
:1054A00042F40042826003E0826822F4004282609B
:1054B000704721B1826842F40212826003E0826880
:1054C00022F4021282607047014600208A6802F4CA
:1054D00000120AB1012000E000207047F0B5044638
:1054E0001546002000220026092911DDE068A1F1FF
:1054F0000A0707EB470C072707FA0CF29043A1F1C4
:105500000A0707EB470703FA07F21043E0600CE0D5
:10551000206901EB410C072707FA0CF2904301EBDD
:10552000410703FA07F210432061A06BC0F3015654
:10553000EF1C06F1010CA7EB0C0707EB870C1F27EC
:1055400007FA0CF29043EF1C06F1010CA7EB0C07D5
:1055500007EB870701FA07F21043A063F0BD10B50F
:105560000A4600210023816B21F44011531E41EAB9
:105570000351816310BD08B5002300930090009B88
:105580000B440093009B1A6008BD08B5024600203A
:105590000090009201F12800009B184400900098B0
:1055A000006880B208BD0A4600214168164B1940C8
:1055B0001143416070474162826270470A46002190
:1055C000416821F01F0111434160704740B1094912
:1055D0000831096841F40001064A0832116007E009
:1055E00004490831096821F40001024A08321160B7
:1055F000704700000024014000280140003C0140A9
:10560000FFFEF0FFFDF7F1FFFFFD3FFF0246002028
:1056100013680B400BB1012000E000207047CA4323
:105620000260704770B502460020002300240B1270
:105630005568CEB205EA060415681D4015B10CB1D7
:10564000012000E0002070BD00220A12D343036055
:105650007047000010B50446BE48844208D10121BD
:105660008014FFF713FB0021A014FFF70FFB16E0D7
:10567000B948844208D101210014FFF714FB00212E
:105680002014FFF710FB0AE0B448844207D101213F
:10569000C013FFF708FB0021E013FFF704FB10BD68
:1056A00010B50022028802F441520B884C88234333
:1056B0008C882343CC8823430C8923434C89234380
:1056C0008C892343CC8923431A430280838B4FF276
:1056D000FF74234083830B8A038210BD2DE9F04FB2
:1056E00085B005460C464FF0000902274FF0000830
:1056F0004FF0010B0026B246A88B4FF24001084044
:10570000A88302202884B5F81C90A068022801D143
:1057100000BF38E0A08810B94FF0010B01E04FF056
:10572000020B8D48854200D100E000BF6846FFF7BC
:1057300026FADDF800A0E088B0F5007F0AD14FEA34
:105740001A2000EB80004000A168B0FBF1F0401D82
:1057500086B20BE04FEA4B10BAFBF0F000EB800092
:105760004000A168B0FBF1F0401D86B20A20B6FBF4
:10577000F0F606F00108A6EB0800C0F34F074FF65D
:10578000FF7000EA0828022F01DBFF2F02DD02274D
:105790004FF00008E08840EA080038432884A088D9
:1057A000A1890843618808432188084340F40060C8
:1057B00040EA0909A5F81C9005B0BDE8F08F00216A
:1057C000018041808180C180018141818181C181CD
:1057D0000721018270470021018041808180C180C2
:1057E0000221816000218181704721B1028842F04D
:1057F0004002028004E002884FF6BF731A40028024
:10580000704721B1828B42F48062828304E0828BF4
:105810004FF6FF331A408283704730B500240023CF
:105820000C110125A540ABB21AB185881D438580B6
:1058300002E085889D43858030BD1AB183880B4383
:10584000838002E083888B43838070478181704727
:105850000146888970474FF6FF62914204D0028862
:1058600042F48072028004E002884FF6FF631A401F
:105870000280704721B1828842F00402828004E0F5
:1058800082884FF6FB731A408280704702884FF27D
:10589000FF731A40028002880A4302807047018821
:1058A00041F480510180704721B1028842F40052D6
:1058B000028004E002884DF6FF731A4002807047B0
:1058C00002460020012901D0108B00E0908A704729
:1058D0000146088A7047B1F5804F04D1028842F42E
:1058E0008042028004E002884BF6FF731A40028077
:1058F00070470246002013890B400BB1012000E0E5
:1059000000207047CA4302817047F0B5024600206C
:1059100000240023002501F00F070126BE40B4B289
:105920000B1101269E40B3B2968806EA030516893C
:10593000264016B10DB1012000E00020F0BD10B5E9
:10594000002201F00F040123A3409AB2D343038144
:1059500010BD00000030014000380040003C004015
:10596000002044490860091D0860091D0860091DE0
:10597000086041483F4914310860704700213D49A3
:105980008279002A3AD00A46126803689A430B4685
:105990001A600A1D126803689A430B1D1A60027987
:1059A00011440A6803681A430A60324A08321268CE
:1059B00003689A432F4B08331A601A1D1268036854
:1059C0009A432C4B0C331A604279102A0ED11A1FBD
:1059D000126803681A43274B08331A601A1D1268AD
:1059E00003681A43234B0C331A600DE021494279B6
:1059F00011440A6803681A430A6005E002791144F9
:105A00000A6803689A430A607047002101600171C7
:105A10000C214171002181717047164910310968CC
:105A20000143144A10321160704701460020114AA8
:105A3000143212680A400AB1012000E000207047C9
:105A40000C49143108607047014600200022094BC0
:105A50001B6803EA0102074B14331B680B4013B1A8
:105A60000AB1012000E000207047024914310860AB
:105A70007047000000040140FFFF0F0010B504460E
:105A8000FE48844208D10121C014FFF7FFF800212D
:105A9000E014FFF7FBF8C4E0B4F1804F08D1012116
:105AA0000846FFF700F900210120FFF7FCF8B8E0F5
:105AB000F348844208D101210220FFF7F4F80021C5
:105AC0000220FFF7F0F8ACE0EE48844208D1012153
:105AD0000420FFF7E8F800210420FFF7E4F8A0E035
