:020000040800F2
:10000000380400204901000845070008DB04000807
:1000100069060008BD010008EF0F0008000000009D
:10002000000000000000000000000000E5080008DB
:10003000C101000800000000CD070008F909000810
:100040006301000863010008630100086301000800
:100050006301000863010008C5010008630100088E
:100060000D0200083D020008890200086301000833
:1000700063010008630100086301000863010008D0
:1000800063010008630100086301000863010008C0
:1000900063010008630100086301000863010008B0
:1000A00063010008630100086301000863010008A0
:1000B0006301000863010008990A00086301000851
:1000C0006301000863010008630100086301000880
:1000D000630100082D0D000863010008630100089A
:1000E0006301000863010008630100086301000860
:1000F0006301000863010008630100086301000850
:10010000630100086301000863010008630100083F
:10011000630100086301000863010008630100082F
:10012000630100086301000863010008630100081F
:10013000DFF810D000F030F800480047F91100084F
:10014000AFF3008038040020064880470648004787
:10015000FEE7FEE7FEE7FEE7FEE7FEE7FEE7FEE777
:10016000FEE7FEE7390A00083101000830B50B460A
:10017000014600202022012409E021FA02F59D42D7
:1001800005D303FA02F5491B04FA02F52844151EAB
:10019000A2F10102F1DC30BD064C074D06E0E0683B
:1001A00040F0010394E8070098471034AC42F6D3BE
:1001B000FFF7C2FF581200087812000800BFFEE7E0
:1001C0007047000010B5012000F07CF801280ED126
:1001D0000A2000F0D9FF0A48006801280BD101214C
:1001E000084800F02AFD01200749087003E00021BB
:1001F000044800F022FD012000F05EF810BD000070
:1002000000012142000800401800002010B5042021
:1002100000F058F8012808D10A2000F0B5FF054881
:10022000006810B9012004490860042000F044F877
:1002300010BD0000080123428801224210B50820A9
:1002400000F040F801280FD10A2000F09DFF0A4875
:10025000006868B90120094908600949087001214E
:10026000084800F0EAFC03E00021064800F0E5FC45
:10027000082000F021F810BD0C0123428401224225
:10028000190000200008004010B5102000F01AF8F6
:10029000012808D10A2000F077FF0548006810B94E
:1002A000002004490860102000F006F810BD00008E
:1002B0001001234288012242014908607047000072
:1002C00014040140014600200022074B1B6803EA8A
:1002D0000102054B14331B680B4013B10AB1012016
:1002E00000E0002070470000000401400021234985
:1002F0008279002A3AD00A46126803689A430B466C
:100300001A600A1D126803689A430B1D1A6002796D
:1003100011440A6803681A430A60184A08321268CE
:1003200003689A43154B08331A601A1D1268036854
:100330009A43124B0C331A604279102A0ED11A1FBD
:10034000126803681A430D4B08331A601A1D1268AD
:1003500003681A43094B0C331A600DE007494279D0
:1003600011440A6803681A430A6005E002791144DF
:100370000A6803689A430A6070470000000401405D
:1003800030B500228B071C0F0F2303FA04F20B4B2E
:100390008C1053F824309343084C8D1044F82530CA
:1003A00023468C1053F824308C07240F00FA04F4F1
:1003B0002343024C8D1044F8253030BD0800014025
:1003C0002DE9F041024600250026002000230024EC
:1003D000002791F803C00CF00F0591F803C00CF052
:1003E000100CBCF1000F03D091F802C04CEA0505D7
:1003F00091F800C0BCF1000F31D0146800202BE050
:100400004FF0010C0CFA00F3B1F800C00CEA03063F
:100410009E4220D183004FF00F0C0CFA03F7BC432F
:1004200005FA03FC4CEA040491F803C0BCF1280F60
:1004300006D14FF0010C0CFA00FCC2F814C00AE01F
:1004400091F803C0BCF1480F05D14FF0010C0CFA34
:1004500000FCC2F810C0401C0828D1D31460B1F8C9
:1004600000C0BCF1FF0F34DD546800202EE000F125
:10047000080C4FF0010808FA0CF3B1F800C00CEAC0
:1004800003069E4221D183004FF00F0C0CFA03F7B4
:10049000BC4305FA03FC4CEA040491F803C0BCF128
:1004A000280F05D100F1080C08FA0CF8C2F81480E6
:1004B00091F803C0BCF1480F07D100F1080C4FF0D0
:1004C000010808FA0CF8C2F81080401C0828CED3A6
:1004D0005460BDE8F0810161704700BFFEE7000095
:1004E00008B50121442000F083F90120ADF8000097
:1004F00028208DF8030003208DF802006946084883
:10050000FFF75EFF1C20ADF8000048208DF80300C7
:1005100003208DF8020069460248FFF751FF08BD2D
:10052000000801400018014010B504462248007838
:10053000012826D12148006801280AD020480068F7
:1005400038B11F48001F006818B11D48001D006821
:10055000B8B9282000F018FE002017490870174885
:100560000068012800D110BD1548006808B90220B4
:10057000F9E71348001F006808B90320F3E70420D7
:10058000F1E70E48006878B90D48006801280BD1E2
:100590000B48001F0068012806D10948001D0068AB
:1005A000012801D104490870012C02D1012002491F
:1005B00008700020D7E70000280000200001214239
:1005C0000C012342194800780B2804D00C280ED0C7
:1005D0000D2828D119E01648006808B9012000E06C
:1005E0000020134908600020104908701CE01048E2
:1005F000001D006808B9012000E000200C49091D19
:1006000008600020094908700EE0094808300068B9
:1006100008B9012000E000200549083108600020E9
:100620000249087000E000BF00BF70471B000020B7
:100630009401224208B50121102000F0D9F8FF20D2
:10064000ADF8000010208DF8030003208DF80200A3
:1006500069460448FFF7B4FEFF210248FFF73BFF5D
:1006600008BD00000010014000BFFEE70EB50121EB
:10067000084600F0BDF802210420FFF781FE0321A7
:100680000420FFF77DFE04210846FFF779FE0021D4
:100690000846FFF775FE06208DF8080002208DF849
:1006A000090003208DF80A0001208DF80B0002A834
:1006B00000F04AF808208DF8080002208DF80900A3
:1006C0008DF80A0001208DF80B0002A800F03CF81C
:1006D00009208DF8080002208DF8090001208DF80E
:1006E0000A008DF80B0002A800F02EF80A208DF801
:1006F000080002208DF8090000208DF80A00012072
:100700008DF80B0002A800F01FF8012000900020D7
:100710008DF8040008208DF8050001208DF80600F2
:100720006846FFF7E3FD1C20009000208DF80400D0
:100730000C208DF8050001208DF806006846FFF7B3
:10074000D5FD0EBD7047000070B5002100230F22BB
:10075000C47804B3154C246804F4E064C4F5E06480
:10076000210AC1F10403CA40447804FA03F18478F1
:100770001440214309010E4C0678A155047804F079
:100780001F050124AC4005786D11AD0005F1E02591
:10079000C5F8004109E0047804F01F050124AC40CD
:1007A000044D0678761145F8264070BD0CED00E04A
:1007B00000E400E080E100E002490143024A1160E8
:1007C000704700000000FA050CED00E070470000E3
:1007D00029B1064AD2690243044BDA6104E0034AB4
:1007E000D2698243014BDA61704700000010024079
:1007F00029B1064A92690243044B9A6104E0034A14
:1008000092698243014B9A617047000000100240D8
:1008100030B500210022002400232D4D6D6805F025
:100820000C0121B1042905D0082923D105E0294D67
:10083000056022E0274D05601FE0254D6D6805F439
:100840007012234D6D6805F48034022505EB924249
:100850001CB9214D554305600BE01D4D6D6805F435
:1008600000351DB11C4D5543056002E0194D55433F
:10087000056002E0174D056000BF00BF144D6D68B4
:1008800005F0F0010909154D6B5C0568DD40456018
:100890000F4D6D6805F4E061090A104D6B5C456809
:1008A000DD4085600A4D6D6805F46051C90A0B4D45
:1008B0006B5C4568DD40C560054D6D6805F44041E1
:1008C000890B074D6B5CC568B5FBF3F5056130BD61
:1008D0000010024000127A0000093D0002000020D2
:1008E00012000020704710B500F002F810BD0000A3
:1008F0000CB50020019000903348006840F480302F
:100900003149086000BF3048006800F400300090B2
:100910000198401C0190009818B90198B0F5A06F9B
:10092000F1D12948006800F4003010B10120009096
:1009300001E0002000900098012843D1234800687E
:1009400040F01000214908600846006820F00300CC
:1009500008600846006840F0020008601A484068D5
:10096000194948600846406848600846406840F4B5
:10097000806048600846406820F47C104860084663
:10098000406840F4E81048600846006840F0807015
:10099000086000BF0C48006800F000700028F9D023
:1009A0000948406820F0030007494860084640684D
:1009B00040F00200486000BF0348406800F00C00AF
:1009C0000828F9D10CBD00000010024000200240B0
:1009D000042808D14FF0E021096941F004014FF0EB
:1009E000E022116107E04FF0E021096921F00401E4
:1009F0004FF0E022116170477047000010B50446C7
:100A00006FF00400FFF7E4FFE11704EB5171C1F34D
:100A1000C701074A11701046007800EB4001C1EB96
:100A2000C0104FF6FF7101EAC0000249088010BDF6
:100A30002A0000202C00002010B51348006840F068
:100A400001001149086008464068104908400E49F5
:100A50004860084600680E4908400B49086008468F
:100A6000006820F4802008600846406820F4FE00FA
:100A700048604FF41F008860FFF735FF4FF00060BB
:100A80000449086010BD0000001002400000FFF89B
:100A9000FFFFF6FE08ED00E010B50121424800F02E
:100AA000D8F800287AD041480078012864D140481D
:100AB0000068012842D100203E4908703E48006885
:100AC000462805D83C480068401C3B49086024E0A3
:100AD000002036490870384908603649087037499F
:100AE00008600C20364908700120FFF71DFD3549CC
:100AF00008700CE034480088401C334908800846E0
:100B0000018832A000F076FA0F2000F03DFB284863
:100B100000682C4909788842ECD0284800680328EE
:100B20002AD9264800681E2826D2002023490860BA
:100B3000214908600D20224908701DE01E48006808
:100B400003280ED900201C4908600B201C4908709E
:100B500000201649087019490860012015490870DD
:100B60000AE000201449086014490860144908701C
:100B70000E4908700F4908700E48007820B10F48E0
:100B80000068401C0D4908600C480068B0F5FA7F09
:100B900004D900200949086006490870012102486B
:100BA00000F048F810BD00000008004018000020C8
:100BB000000121421A000020200000202400002013
:100BC0001B0000201D0000200000002025640A0DED
:100BD000000000007FB505460C4601210420FFF708
:100BE000F7FDADF80850ADF804400020ADF80A005C
:100BF000ADF8060001A90E4800F046F801221146A2
:100C00000B4800F037F80121094800F013F81E20C6
:100C10008DF8000002208DF8010003208DF80200FD
:100C200001208DF803006846FFF78EFD7FBD0000B0
:100C300000080040CA430282704721B1028842F096
:100C40000102028004E002884FF6FE731A4002801F
:100C5000704730B50246002000230024158A05EABB
:100C60000103958905EA010413B10CB1012000E0EC
:100C7000002030BD1AB183890B43838102E0838950
:100C80008B43838170470000002202881D4B9842ED
:100C90000ED01D4B98420BD0B0F1804F08D01B4BAB
:100CA000984205D01A4B984202D01A4B984204D170
:100CB0004FF68F731A404B881A43174B984207D050
:100CC000164B984204D04FF6FF431A40CB881A4384
:100CD00002808B8883850B8803850A4B98420BD052
:100CE000094B984208D00E4B984205D00D4B9842C4
:100CF00002D00D4B984201D10B7A038601238382E7
:100D000070470000002C0140003401400004004006
:100D100000080040000C004000100040001400409B
:100D200000400140004401400048014010B540F23D
:100D300025510C4800F096F870B10A4800F04EF9C1
:100D4000C4B22146074800F04EF900BF40210548D3
:100D500000F07BF80128F9D14021024800F060F84A
:100D600010BD00000038014010B586B004460121D6
:100D70000420FFF73DFD01218803FFF739FD012124
:100D80000846FFF735FD4FF40070ADF8140003205E
:100D90008DF8160018208DF8170005A91E48FFF7DA
:100DA0000FFB4FF48060ADF8140004208DF817009D
:100DB00005A91948FFF704FB01940020ADF80800CD
:100DC000ADF80A00ADF80C00ADF810000C20ADF83D
:100DD0000E0001A9114800F095F801210F4800F01C
:100DE00028F840210D4800F01BF8012240F225515F
:100DF0000A4800F061F825208DF8000003208DF8E6
:100E0000010002208DF8020001208DF803006846E1
:100E1000FFF79AFC06B010BD000801400038014001
:100E200001F40072B2F5007F00D100BFCA43028016
:100E3000704721B1828942F40052828104E08289A4
:100E40004DF6FF731A408281704702460020B1F5CB
:100E5000007F00D100BF13880B400BB1012000E0E0
:100E60000020704770B502460024002300250020B2
:100E700040F66A16B14200D100BFC1F3421501F03D
:100E80001F03012606FA03F3012D02D19689334090
:100E900006E0022D02D1168A334001E0968A3340E3
:100EA0000C12012606FA04F41688344013B10CB172
:100EB000012000E0002070BDF0B5034600240026AC
:100EC0000025002040F66A17B94200D100BF18463D
:100ED000C1F3421401F01F06012707FA06F5012CA1
:100EE00001D10C3004E0022C01D1103000E01430AC
:100EF0001AB107682F43076002E00768AF43076035
:100F0000F0BD00002DE9F04786B005460E460024EE
:100F1000A24600BFA1460027B08900B100BF2F46FE
:100F20002C8A4CF6FF700440F08804432C82AC8974
:100F30004EF6F3100440B0883189084371890843A4
:100F40000443AC81AC8A4FF6FF400440B0890443AF
:100F5000AC8201A8FFF75CFC1F48874202D1DDF894
:100F600010A001E0DDF80CA0A88900F4004040B119
:100F70000AEBCA0000EB0A1031684900B0FBF1F837
:100F800007E00AEBCA0000EB0A1031688900B0FBE9
:100F9000F1F86420B8FBF0F004012009642101FBA2
:100FA0001089A88900F4004040B1322000EBC9004C
:100FB000B0FBF1F000F00700044308E0322000EB42
:100FC00009106421B0FBF1F000F00F0004432C8104
:100FD00006B0BDE8F087000000380140014688886F
:100FE000C0F308007047C1F308028280704700BF59
:100FF000FEE700000FB4054B10B503A9044A0298A0
:1010000000F018F810BC5DF814FB0000D5110008C2
:101010003000002002E008C8121F08C1002AFAD1DF
:1010200070477047002001E001C1121F002AFBD168
:10103000704700002DE9FF4F89B09B46044600250C
:1010400006E025280BD05A460B999047641C6D1C6E
:1010500020780028F5D10DB02846BDE8F08F002794
:10106000B8460122474900E0074314F8013F203BFE
:1010700002FA03F00842F7D120782E2819D114F88B
:10108000010F47F004072A280ED06FF02F022078B6
:10109000A0F1300109290CD808EB880102EB4101CD
:1010A00000EB0108641CF2E70A98641C50F8048BFA
:1010B0000A9020780028CED0642808D0692806D06D
:1010C00075281ED05A460B9990476D1C58E00A9916
:1010D0004FF00A0901C90A91002802DA40422D2185
:1010E00002E0390504D52B218DF82010012103E001
:1010F000F90704D02021F7E78A4608AE0DE0002169
:10110000FAE70A994FF00A0901C90A91F7E7494637
:10111000FFF72CF8303106F8011D0028F7D1ADEBB0
:10112000060000F12009780701D44FF00108C845F6
:1011300002DDA8EB090000E000208046002706E061
:1011400008A85A46C05D0B9990476D1C7F1C5745F7
:10115000F6DB04E030205A460B9990476D1CB8F13D
:101160000001A8F10108F5DC05E016F8010B5A466C
:101170000B9990476D1CB9F10001A9F10109F4DC4C
:10118000641C65E7092801000146114A12884A4398
:101190004FF0E0235A6100229A611A46126942F028
:1011A00001021A6100BF4FF0E022106900F0010255
:1011B0001AB100F48032002AF5D04FF0E022126913
:1011C00022F001024FF0E0231A6100229A61704779
:1011D0002C00002070B504460D46E1B20548FFF72B
:1011E00002FF00BF80210348FFF72FFE0028F9D03F
:1011F000204670BD003801404820FFF7FFFB4FF448
:10120000A060FFF7D9FAFFF715FAFFF769F9FFF7C2
:101210002DFA4FF41650FFF7A7FD41F61F41C720E6
:10122000FFF7D8FC14E0601CC4B2FFF7CBF9142020
:1012300094FBF0F100FB114038B90648006808B98A
:10124000012000E00020034908600A20FFF79CFF0E
:10125000E9E7000080012242781200080000002027
:101260003400000014100008AC1200083400002004
:101270000404000024100008000000000000010227
:10128000030401020304060708090204060800001B
:10129000000000000000000000000000000000004E
:0C12A00001000000000000000000000041
:0400000508000131BD
:00000001FF
