:020000040800F2
:1000000098090020812D0008F9030008FB0300086F
:10001000FF030008030400080704000800000000B4
:100020000000000000000000000000000B040008B9
:100030000D040008000000000F040008110400086F
:100040009B2D00089B2D00089B2D00089B2D000870
:100050009B2D00089B2D00089B2D00089B2D000860
:10006000BF1A0008F51A00089B2D00089B2D0008F8
:100070009B2D00089B2D00089B2D00089B2D000840
:100080009B2D00089B2D00089B2D00089B2D000830
:100090009B2D00089B2D00089B2D00089B2D000820
:1000A0009B2D00089B2D00089B2D00089B2D000810
:1000B0009B2D00089B2D0008CD2300089B2D0008D8
:1000C0009B2D00089B2D00089B2D00089B2D0008F0
:1000D0009B2D0008F52C00089D1800089B2D00089A
:1000E0009B2D00089B2D00089B2D000800F002F8B6
:1000F00000F06DF80AA090E8000C82448344AAF155
:100100000107DA4501D100F062F8AFF2090EBAE852
:100110000F0013F0010F18BFFB1A43F0010318473B
:10012000CC910000EC9100000A444FF0000C10F854
:10013000013B13F0070408BF10F8014B1D1108BF65
:1001400010F8015B641E05D010F8016B641E01F805
:10015000016BF9D113F0080F1EBF10F8014BAD1C55
:100160000C1B09D16D1E58BF01F801CBFAD505E073
:1001700014F8016B01F8016B6D1EF9D59142D6D3CD
:10018000704700000023002400250026103A28BFF5
:1001900078C1FBD8520728BF30C148BF0B607047F9
:1001A000662907F09F86002070471FB505F0E8FA22
:1001B00004000020002106F0B5FE401C6060002015
:1001C000002106F099FEE0601FBD10B510BD05F0DE
:1001D00007FC1146FFF7E9FF00F008F805F0AAFE5A
:1001E00003B4FFF7F2FF03BC02F02AFD96B000BF94
:1001F00000BF0024342106A804F0FAFF66A00068BE
:1002000005900020049000BF02F0B0FC4FF4A06005
:1002100003F05AFB01F010FC00F0C3FB00F0EAF918
:1002200002F0BCFA41F61F41C72002F0A3F84FF4D8
:10023000165001F04CFB4FF6FF7058490880002023
:10024000574908804FF6FF7000F0CDFC01201021C7
:1002500054A2CDE9002102905048038850480288FA
:100260000A21052001F063F91F204D490880012073
:1002700010214FA2CDE90021029048480388484848
:1002800002881E21052001F052F94FF478404449BC
:100290000880012010214AA2CDE9002102903F48A8
:1002A00003883F4802883221052001F040F94BF6CF
:1002B00040403B4908800120102144A2CDE90021A3
:1002C000029036480388364802885A21052001F0FA
:1002D0002EF960E004A913A801F081FB9DF810003D
:1002E000002845D013A806F08BFD054606F030FE29
:1002F000394908600846006807F034FB05462A467D
:100300000B4636A106A804F0A3FE05A906A804F032
:1003100063FF0020049006A804F03FFFC5B2294601
:1003200006A801F038FB2C48006802F024F92D499A
:1003300008600846006807F015FB05462A460B468C
:1003400026A106A804F084FE27A106A804F044FF15
:10035000032126A001F01FFB06A804F01EFFC5B272
:10036000294606A801F017FB022121A001F013FB8A
:100370001948006802F0FFF8814607F0F3FA0746D3
:1003800000221C4B07F0D0F8054607F063F884B252
:10039000204602F024FA9DE76D6C00002A00002040
:1003A00028000020B2C9D1F9CAFDD6B53A00000034
:1003B000B2C9D1F9B5E7D1B93A302E303030560054
:1003C000C6F8B7A7C1F7C1BF3A000000C9E8B6A890
:1003D000C1F7C1BF3A00000000000020252E33669F
:1003E0000000000010000020560000002D2D2D0000
:1003F0000D0A000000987940704700BFFEE700BF7B
:10040000FEE700BFFEE700BFFEE77047704770479A
:10041000704700000CB50020019000906C48006807
:1004200040F480306A49086000BF6948006800F401
:10043000003000900198401C0190009818B9019874
:10044000B0F5A06FF1D16248006800F4003010B13F
:100450000120009001E0002000900098012843D185
:100460005C48006840F010005A490860084600687F
:1004700020F0030008600846006840F002000860B1
:1004800053484068524948600846406848600846FA
:10049000406840F4806048600846406820F47C1062
:1004A00048600846406840F4E81048600846006824
:1004B00040F08070086000BF4548006800F00070A0
:1004C0000028F9D04248406820F0030040494860C5
:1004D0000846406840F00200486000BF3C48406861
:1004E00000F00C000828F9D10CBD10B5FFF792FF01
:1004F00010BD10B53648006840F00100344908606E
:100500000846406834490840314948600846006858
:10051000324908402E4908600846006820F48020CF
:1005200008600846406820F4FE0048604FF41F0051
:100530008860FFF7DAFF4FF000602949086010BDBE
:1005400010B5002100200022214B5B6803F00C0154
:1005500021B1042906D0082928D107E0214B224CDB
:10056000236027E01F4B204C236023E0184B5B687F
:1005700003F47010164B5B6803F48032022303EB24
:10058000904022B9194B4343174C23600DE0104BA8
:100590005B6803F4003323B1144B4343124C2360D4
:1005A00003E0104B4343104C236003E00D4B0E4C13
:1005B000236000BF00BF064B5B68C3F303130C4C02
:1005C000E15C094B1B68CB40074C236010BD000069
:1005D00000100240002002400000FFF8FFFFF6FE7E
:1005E00008ED00E000127A001400002000093D0030
:1005F0001800002000B587B001214FF4047002F00C
:10060000FBFE4FF4004002F05BFE0120ADF8040059
:1006100000208DF8070001A92E4802F031FC2E4879
:1006200003F0C0F9002002908DF80C008DF80D0049
:100630004FF4602004900020059001208DF81800F0
:1006400002A9254803F0D5F90121234803F0FDF95B
:10065000214803F01CFA00BF1F4803F01DFA0028D0
:10066000FAD11D4803F022FA00BF1B4803F023FA19
:100670000028FAD107B000BD10B5044607230122B7
:100680002146154803F04DFA0121134803F01DFAE5
:1006900000BF0221104803F089FB0028F9D00E4862
:1006A00003F0A6FA10BD2DE9F04107460C460025DF
:1006B000002608E03846FFF7DFFF0544052002F07A
:1006C00092FA701CC6B2A642F4DBB5FBF4F080B21D
:1006D000BDE8F08100100140002401400021082104
:1006E00014E000F0800222B14FF40072FE4B1A6158
:1006F00003E04FF40072FC4B5A614FF48072FA4BE6
:100700005A611A614206100E4A1ED1B20029E8DC75
:100710007047024600BF108900F002000028FAD09E
:10072000918100BF108900F001000028FAD0908963
:10073000C0B2704702884FF6C7731A400280012981
:1007400002D10288028003E0028842F02002028087
:10075000028842F040020280704700B587B0012154
:10076000092002F049FE4FF42040ADF804000320B8
:100770008DF8060018208DF8070001A9DB4802F06B
:100780007FFB4FF48040ADF8040048208DF807004F
:1007900003208DF8060001A9D44802F071FB41F254
:1007A0000200ADF8040003208DF8060010208DF83B
:1007B000070001A9CD4802F063FB4FF48051CB48FC
:1007C00002F00DFC0221C94802F009FC0121880356
:1007D00002F01FFE0020ADF808004FF48270ADF863
:1007E0000A000020ADF80C00ADF80E00ADF81000C6
:1007F0004FF40070ADF812000020ADF81400ADF811
:1008000016000720ADF8180002A9B94803F018FB3C
:100810000121B74803F0B9FB07B000BD10B504468D
:100820004FF48070B1491431086002200860E0B2D2
:10083000FFF754FF4FF48070AC491031086010BDD1
:1008400010B504464FF48070A849143108600220A6
:10085000091F08602046FFF741FF4FF48070A3494D
:100860001031086010BD10B504464FF480709F49E8
:10087000143108600220091F08602012FFF72EFFC4
:10088000E0B2FFF72BFF4FF48070984910310860F9
:1008900010BD30B505460C462846FFF7BFFFE0B255
:1008A000FFF7CEFF30BD00B592490889FFF7B6FFCC
:1008B00000BDF0B504460D4616461F468D494889D1
:1008C000FFF7ACFF2012FFF7BBFFA11CC8B2FFF778
:1008D000B7FF3012FFF7B4FFB11CC8B2FFF7B0FF8B
:1008E00084498889FFF79AFF2812FFF7A9FFE91CBE
:1008F000C8B2FFF7A5FF3812FFF7A2FFF91CC8B274
:10090000FFF79EFFFFF7CFFFF0BD30B504460D4661
:100910002B46224629462046FFF7CBFF30BD30B597
:1009200004460D4629462046FFF7EFFF724800882F
:10093000FFF799FF30BD08B50121182002F05CFDDA
:100940004FF4E060ADF8000003208DF802001020A5
:100950008DF803006946644802F092FA4FF4817002
:10096000ADF800006946614802F08AFA08BD10B58A
:10097000642002F038F9322002F035F910BD00B5DC
:100980002C205C49088100208871802008804880E4
:100990002A2048812B208881C8213620FFF779FF43
:1009A00000BD10B5FFF7C7FFFFF7E1FF1120FFF70C
:1009B00035FF782002F017F9B120FFF72FFF012053
:1009C000FFF73EFF2C20FFF73BFF2D20FFF738FFFE
:1009D000B220FFF723FF0120FFF732FF2C20FFF7A3
:1009E0002FFF2D20FFF72CFFB320FFF717FF01206B
:1009F000FFF726FF2C20FFF723FF2D20FFF720FF16
:100A00000120FFF71DFF2C20FFF71AFF2D20FFF715
:100A100017FFB420FFF702FF0720FFF711FFC020E8
:100A2000FFF7FCFEA220FFF70BFF0220FFF708FFF5
:100A30008420FFF705FFC120FFF7F0FEC520FFF778
:100A4000FFFEC220FFF7EAFE0A20FFF7F9FE0020B2
:100A5000FFF7F6FEC320FFF7E1FE8A20FFF7F0FE66
:100A60002A20FFF7EDFEC420FFF7D8FE8A20FFF70B
:100A7000E7FEEE20FFF7E4FEC520FFF7CFFE0E20D5
:100A8000FFF7DEFE3620FFF7C9FEC820FFF7D8FECD
:100A9000E020FFF7C3FE0F20FFF7D2FE1A20FFF77A
:100AA000CFFE0F20FFF7CCFE1820FFF7C9FE2F2046
:100AB000FFF7C6FE2820FFF7C3FE2020FFF7C0FE89
:100AC0002220FFF7BDFE1F20FFF7BAFE1B20FFF715
:100AD000B7FE2320FFF7B4FE3720FFF7B1FE00205A
:100AE000FFF7AEFE072009E000100140000C0140B6
:100AF00000380040F001002028000020FFF7A0FE91
:100B00000220FFF79DFE1020FFF79AFEE120FFF77D
:100B100085FE0F20FFF794FE1B20FFF791FE0F20AC
:100B2000FFF78EFE1720FFF78BFE3320FFF788FEBE
:100B30002C20FFF785FE2920FFF782FE2E20FFF7ED
:100B40007FFE3020FFF77CFE3020FFF779FE392052
:100B5000FFF776FE3F20FFF773FE0020FFF770FEE1
:100B60000720FFF76DFE0320FFF76AFE1020FFF756
:100B700067FE2A20FFF752FE0020FFF761FE0020EB
:100B8000FFF75EFE0020FFF75BFE7F20FFF758FEB9
:100B90002B20FFF743FE0020FFF752FE0020FFF757
:100BA0004FFE0020FFF74CFE9F20FFF749FEF0208C
:100BB000FFF734FE0120FFF743FEF620FFF72EFE7D
:100BC0000020FFF73DFE3A20FFF728FE0520FFF743
:100BD00037FE2920FFF722FEFFF7D1FE4FF48050A9
:100BE0001249086010BD70B5064611484088401E85
:100BF00083B20F480088401E82B200210846FFF7EA
:100C000058FE00240CE0002504E03046FFF72BFEE0
:100C1000681C85B206484088A842F6DC601C84B295
:100C200003480088A042EEDC70BD0000100C0140BB
:100C3000F001002070B505460E46144631462846A0
:100C4000FFF763FE2046FFF70EFE70BD2DE9F05F53
:100C500006460F4614461D46A01B401C1FFA80FA8C
:100C6000E81B401C1FFA80FB681E83B2601E82B224
:100C700039463046FFF71DFE4FF000080FE04FF0F9
:100C8000000906E00A98FFF7EEFD09F101001FFADE
:100C900080F9D145F6DB08F101001FFA80F8D8454C
:100CA000EDDBFD484088401E83B2FB480088401EB3
:100CB00082B200210846FFF7FCFDBDE8F09F2DE958
:100CC000FF4F85B081468A46002004900390079824
:100CD000A0EB09050898A0EB0A06CDF80890CDF81E
:100CE00004A0002D01DD012705E00DB9002702E079
:100CF0004FF0FF376D42002E02DD4FF0010806E095
:100D000016B94FF0000802E04FF0FF387642B542C6
:100D100001DD2C4600E034464FF0000B21E0019A43
:100D200091B2029A90B2FFF7FAFD04982844049019
:100D30000398304403900498A04205DD0498001BFA
:100D400004900298384402900398A04205DD03986D
:100D5000001B03900198404401900BF101001FFA21
:100D600080FB601C8345DADD09B0BDE8F08F2DE91A
:100D7000F04104460D4616461F462B46324629468C
:100D80002046FFF79CFF3B46224629462046FFF7B8
:100D900096FF3B46324639462046FFF790FF3B46DA
:100DA000324629463046FFF78AFFBDE8F081F8B5A4
:100DB00004460D4616461F46B84800883B46324654
:100DC000294600902046FFF741FFF8BD2DE9F0418C
:100DD00004460D4616461F46DDF81880EA1991B202
:100DE000A21990B24246FFF725FFEA1991B2A21B61
:100DF00090B24246FFF71EFFEA1B91B2A21990B2D1
:100E00004246FFF717FFEA1B91B2A21B90B242467F
:100E1000FFF710FFAA1991B2E21990B24246FFF70C
:100E200009FFAA1991B2E21B90B24246FFF702FFF6
:100E3000AA1B91B2E21990B24246FFF7FBFEAA1B31
:100E400091B2E21B90B24246FFF7F4FEBDE8F0819A
:100E50002DE9FF4F81B0824617469846DDF838B03D
:100E6000002445464FEA4800C0F10306BBF1000FDD
:100E70001FD01BE0A14608E04B4622460097504693
:100E80000299FFF7A3FF09F10109A945F4DD002E3E
:100E900004DA042000FB0460861D06E0601B0421C8
:100EA00001FB006000F10A066D1E641CAC42E1DD2E
:100EB00018E015E02B462246009750460299FFF7AE
:100EC00085FF002E04DA042000FB0460861D06E086
:100ED000601B042101FB006000F10A066D1E641C0A
:100EE000AC42E7DD05B0BDE8F08F2DE9FF4F83B0E0
:100EF00081468A469346DDE910646848008802907E
:100F0000A6F12000C6B204EBD47009EB6000401ECD
:100F100082B20AEB0400401E83B251464846019457
:100F2000FFF7C7FC129860BB002527E00C2C07D107
:100F300006EB46005A4901EB800010F8058004E0FA
:100F4000584800EB061010F8058000270FE008F065
:100F5000010020B10BF0FF00FFF772FC03E00699DF
:100F6000C8B2FFF76DFC4FEA6808781CC7B204EB03
:100F7000D471B7EB610FEADB681CC5B2A542D5DBC3
:100F80002DE0002529E00C2C07D106EB4600444952
:100F900001EB800010F8058004E0424800EB0610E9
:100FA00010F80580002711E03C48A0F800B008F0D8
:100FB000010038B10AEB050291B209EB070290B2C9
:100FC000FFF7ADFC4FEA6808781CC7B204EBD47198
:100FD000B7EB610FE8DB681CC5B2A542D3DB2F4934
:100FE000029808802C484088401E83B22A48008816
:100FF000401E82B200210846FFF75BFC07B0BDE847
:10100000F08F2DE9FE4F04460E4691460C9F234873
:101010000088029001940096002561E01E48008837
:10102000401EA04204DB1C484088401EB04201DA4A
:10103000BDE8FE8F3D783A2D01D10A2506E02E2D20
:1010400001D10B2502E0A5F13000C5B201944FF0AB
:10105000000837E005EB4500134901EB001010F8DC
:1010600008A04FF0000B25E00C48A0F800900AF013
:10107000800018B131462046FFF751FC4FF6FF7053
:1010800000EA4A0A601C84B20198201A0C280DD18B
:10109000019C701C86B210E0F001002028000020A6
:1010A000E47F000858840008488A00080BF101001A
:1010B00000F0FF0BBBF1080FD6DB00BF08F1010009
:1010C00000F0FF08B8F1300FC4DB0A2D03DA04F199
:1010D000100084B202E004F1080084B2009E7F1C7C
:1010E00038787E2802DC3878202897DAFB49029885
:1010F000088000BF9CE72DE9FE4306460F461546D3
:101100001C46DDF828801DE0F5480088401EB042EE
:1011100004DBF3484088401EB84201DABDE8FE8394
:1011200020788DE82101EF480388EC480288394691
:101130003046FFF7DAFE284605EBD07106EB610179
:101140008EB2641C20787E2802DC20782028DBDA2E
:1011500000BFE3E710B50246012000E050430B1E3C
:10116000A1F10104E1B2F9D110BD2DE9FF4F83B027
:10117000074691461E46109C4FF0000A002543E0AA
:10118000701B401EC1B20A20FFF7E4FFB9FBF0F06C
:101190000A21B0FBF1F201FB1208BAF1000F1BD1DA
:1011A000701EA84218DDB8F1000F13D101202021D4
:1011B000A346CDE90014029004EBDB71491001FB5A
:1011C000057188B2C7490B88C4490A880499FFF79A
:1011D0008CFE17E04FF0010A012108F13000C0B287
:1011E000A346CDE90141009004EBDB71491001FBFE
:1011F000057188B2BB490B88B8490A880499FFF782
:1012000074FE00BF681CC5B2B542B9DB07B0BDE8CB
:10121000F08F2DE9FC5F0546884691469A46DDF839
:1012200030B000951020019000245FE004EB041022
:10123000AD4911F810009BF80010884253D104EB1F
:101240000410A94901EB400040789BF80110884246
:1012500049D108F10F0083B205F10F0082B2414677
:101260002846FFF726FB00263BE0002734E00D98D8
:1012700090B904EB04109C4901EB4000801C805D98
:1012800080213941084018B14846FFF7ECFA21E0C7
:101290005046FFF7E8FA1DE09048A0F8009004EBF4
:1012A0000410914901EB4000801C805D8021394190
:1012B000084018B141462846FFF731FB681C85B24B
:1012C0000098281A102805D1009D08F101001FFA86
:1012D00080F803E0781CC7B2082FC8DB00BF701C81
:1012E000C6B2202EC1DB00BF601C84B201988442CC
:1012F0009CDB7B484088401E83B279480088401EB2
:1013000082B200210846FFF7D4FABDE8FC9F2DE920
:10131000FC5F0546884691469A46DDF830B0009558
:101320000B200190002467E004EB840000EB4410E4
:101330006E4911F810009BF80010884259D104EB57
:10134000840000EB4410694901EB400040789BF8B1
:10135000011088424DD108F1170083B205F1170042
:1013600082B241462846FFF7A4FA00263FE0002754
:1013700038E00D98A0B904EB840000EB44105B4901
:1013800001EB4000801C805D80213941084018B18C
:101390004846FFF768FA23E05046FFF764FA1FE07B
:1013A0004E48A0F8009004EB840000EB44104F4935
:1013B00001EB4000801C805D80213941084018B15C
:1013C00041462846FFF7ABFA681C85B20098281AF8
:1013D000182805D1009D08F101001FFA80F803E0EC
:1013E000781CC7B2082FC4DB00BF701CC6B2482EE1
:1013F000BDDB00BF601C84B20198844294DB384896
:101400004088401E83B236480088401E82B20021C8
:101410000846FFF74EFABDE8FC9F2DE9FC5F054644
:10142000884691469A46DDF830B00095012001903B
:1014300000246BE004EB84102D4911F810009BF898
:10144000001088425FD104EB8410294901EB400071
:1014500040789BF80110884255D108F11F0083B2F3
:1014600005F11F0082B241462846FFF722FA002606
:1014700047E0002740E00D9890B904EB84101C4928
:1014800001EB4000801C805D80213941084018B18B
:101490004846FFF7E8F92DE05046FFF7E4F929E068
:1014A0000E48A0F8009004EB8410114901EB4000B5
:1014B000801C805D80213941084018B14146284692
:1014C000FFF72DFA681C85B20098281A202811D140
:1014D000009D08F101001FFA80F80FE028000020AD
:1014E000F00100202A000020888C0008A88E000847
:1014F000D6910008781CC7B2082FBCDB00BF701C57
:10150000C6B2802EB5DB00BF601C84B20198844255
:1015100090DBD4484088401E83B2D2480088401EE9
:1015200082B200210846FFF7C4F9BDE8FC9F2DE90F
:10153000FF4F83B0064688469146DDE91147109D6E
:10154000B2464FF0000B73E0BBF1000F42D104EB49
:10155000D471C44A1288A2EB6101B14204DBC149D3
:101560004988091B414502DA07B0BDE8F08F2878A9
:10157000802802DD4FF0010B5AE028780D2806D1B3
:1015800008EB04001FFA80F856466D1C20E00C2C76
:1015900001D0102C0FD128788DE891004A464146A1
:1015A0003046069BFFF7A1FC204604EBD07106EB0A
:1015B00061018EB20CE0102128788DE883004A4644
:1015C00041463046069BFFF790FC06F1080086B2C4
:1015D0006D1C2DE0A3480088001BB04204DBA1482D
:1015E0004088001B404500DABEE74FF0000B202C7E
:1015F00008D1CDE900574A4641463046069BFFF7E1
:101600000CFF12E0182C08D1CDE900574A4641469C
:101610003046069BFFF77BFE07E0CDE900574A46C0
:1016200041463046069BFFF7F4FDAD1C301986B2EB
:101630002878002888D100BF96E72DE9FF4F83B0B6
:1016400004460F469046DDE9119A109D284603F0A6
:10165000A4FD86B283490988A1EBC60000EBD071D6
:10166000C1F34F0B04EB0B0188B28DE82006424614
:101670003946069BFFF75BFF07B0BDE8F08F2DE909
:10168000F04706460F46154607F1270083B206F1DC
:10169000270082B239463046FFF70BF900240AE0F2
:1016A00015F8149005EB440090F8018049EA0820F1
:1016B000FFF7D9F8641CB4F5C86FF1DB69484088BE
:1016C000401E83B267480088401E82B2002108464F
:1016D000FFF7EFF8BDE8F0872DE9F04F8BB0054636
:1016E0000C4691461E4600200690079008905EA08A
:1016F000006805905DA00068049000205C490880A7
:101700001FFA89FB4FF6FF70009004F1140083B2BA
:1017100005F13C0082B221462846FFF797FA14985B
:1017200004235A46214600902846FFF71EFD5846DE
:1017300006F01AFA019006F015F94E4A4E4BCDE923
:10174000020105F0F1FE074605F002FC8246C6F8EC
:1017500000A0504606F006F907463A460B4647A158
:1017600006A803F075FC04A906A803F035FD4FF6A2
:10177000FF70009004F1280083B205F1500082B29E
:1017800004F1140081B22846FFF760FA1F2038499F
:1017900008800120102106AACDE90021029004F161
:1017A000140081B237480388314802882846FFF781
:1017B000BEFE306800F0CAFE0990099806F0D2F823
:1017C0000746314A314B05F0ADFF01D23048099050
:1017D0004FF6FF70009004F1500083B205F1500005
:1017E00082B204F13C0081B20520FFF72FFA09987C
:1017F00006F0B8F807463A460B4620A106A803F0C3
:1018000027FC05A906A803F0E7FC4FF47840184927
:1018100008800021099806F0BBF910D201201021A0
:101820001CA2CDE90021029004F13C0081B21548D0
:1018300003880F4802880520FFF779FE0FE001209A
:10184000102106AACDE90021029004F13C0081B2EA
:101850000C480388064802880520FFF768FE0BB095
:10186000BDE8F08FF00100206D6C00005600000014
:101870002800002052B81E85EB515A3F252E3366B2
:10188000000000002A0000205A643BDFFF87C340AD
:10189000FF3F1C46B4EDCEF30000000010B540F24F
:1018A0002551604801F0CCFF80B15E4801F048FF4F
:1018B000C4B25D480078402808DA5C485A49097883
:1018C000445459480078401C5749087010BD10B561
:1018D00086B004460121042001F08EFD0121480458
:1018E00001F097FD4020ADF8140010208DF817008E
:1018F00003208DF8160005A94D4801F0C1FA042017
:10190000ADF8140018208DF8170005A9484801F01B
:10191000B7FA0820ADF8140004208DF8170005A9C7
:10192000434801F0ADFA0121480401F08CFD00218B
:101930004FF4003001F087FD01940020ADF808005D
:10194000ADF80A00ADF80C00ADF810000C20ADF8B1
:101950000E0001A9334801F0F6FD26208DF80000A5
:1019600001208DF8010003208DF8020001208DF880
:101970000300684601F0ADFF012240F225512948DD
:1019800001F079FE0121274801F069FE0020294974
:10199000086006B010BD70B505460E460120254909
:1019A000086000240CE000BF40211E4801F032FF17
:1019B0000028F9D0295D1B4801F0BEFE601CC4B2AE
:1019C000B442F0DB00BF4021164801F023FF00289D
:1019D000F9D00020144908701649086070BD2DE93F
:1019E000F04107460D461048067800240020287074
:1019F0000A2001F0F8F80C48007886420FD176B141
:101A000000BF04E00948005D3855601CC4B2B44210
:101A1000F8DB054800782870002003490870BDE80D
:101A2000F0810000004400402E000020FE01002054
:101A300000080140980121420EB500F079F801211B
:101A4000084601F0D9FC0221084601F02FFB0420D2
:101A5000019000208DF808000C208DF8090001206D
:101A60008DF80A0001A802F059FB0321022001F0C1
:101A70001DFB0820019001208DF80A0001A802F04A
:101A80004DFB08208DF8000002208DF80100032096
:101A90008DF8020001208DF80300684601F019FF5F
:101AA00009208DF8000002208DF8010001208DF83A
:101AB00002008DF80300684601F00BFF0EBD10B563
:101AC000042002F091FB012810D10A2001F08BF8CC
:101AD0000421124801F067FA40B90120104908704A
:101AE000104908700121104802F0C8FF042002F0DC
:101AF0008CFB10BD10B50A2001F075F808210748CD
:101B000001F051FA28B906480078012801D10749A7
:101B10000870082002F079FB10BD000000100140A1
:101B20002F00002034000020000800403500002075
:101B300008B50121102001F05FFC0C20ADF8000079
:101B400048208DF8030069461D4801F099F908BD49
:101B500010B5044614B101201A49087019480078DC
:101B6000E8B10421164801F01EFA20B108211448FA
:101B700001F019FA98B90A2001F035F8002011494E
:101B8000087004210E4801F00EFA08B9012010BDBA
:101B900008210B4801F007FA78B90220F7E7042181
:101BA000074801F000FA012807D10821044801F094
:101BB000FAF9012801D1034908700020E7E7000085
:101BC00000100140300000202DE9FF4F89B00C4685
:101BD00015461E4616AF97E88007002007908346FB
:101BE000069003900490059003A80290099805F0D0
:101BF000B9FE02460B46CDE90001FEA103A803F0A1
:101C000027FA03A803F0C9FAC0B207902E2103A84F
:101C100003F0B9FA029003A90298401A00F0FF0BF2
:101C2000BBF1010F09D0BBF1020F1ED0BBF1030FB6
:101C300036D0BBF1040F72D150E000202070287024
:101C400030709DF80C00303838709DF80E00303838
:101C500088F800009DF80F00303889F800009DF8E2
:101C6000100030388AF800005AE0002020702870F8
:101C70009DF80C00303830709DF80D003038387009
:101C80009DF80F00303888F800009DF810003038BB
:101C900089F800009DF8110030388AF800003FE014
:101CA000002020709DF80C00303828709DF80D0041
:101CB000303830709DF80E00303838709DF81000C4
:101CC000303888F800009DF81100303889F800009D
:101CD0009DF8120030388AF8000021E09DF80C00D1
:101CE000303820709DF80D00303828709DF80E00B7
:101CF000303830709DF80F00303838709DF8110082
:101D0000303888F800009DF81200303889F800005B
:101D10009DF8130030388AF8000001E0FFE700BFAB
:101D200000BF0020029007980DB0BDE8F08F2DE9AC
:101D3000F84F83460C4615461E460AAF97E88007C3
:101D4000AE4800780B2804D00C287DD00D287CD11B
:101D500008E30120AA490870AA480078401CA94954
:101D6000087008460078082801DB012008704FF64B
:101D7000FF70A54908804BF64040A4490880102018
:101D80000090227801236E210520FFF7EEF9102044
:101D900000902A7801236E210D20FFF7E6F910202C
:101DA0000090327801236E211520FFF7DEF9102014
:101DB00000903A7801236E211D20FFF7D6F91020FC
:101DC000009098F8002001236E212D20FFF7CDF917
:101DD0001020009099F8002001236E213520FFF794
:101DE000C4F9102000909AF8002001236E213D20B4
:101DF000FFF7BBF98348007808287DD2DFE800F0C0
:101E00007C04396CA1D3F9F84FF6FF707E49088045
:101E10004BF640407D4908804FF6FF707E230D222F
:101E20006E2100900520FEF711FF1020009022780F
:101E300001236E210520FFF798F9002072490880E0
:101E40004FF47840714901E057E18FE208800020AB
:101E50007E2345226E2100903D20FEF7F7FE1020E4
:101E600000909AF8002001236E213D20FFF77DF9B4
:101E70003EE14FF6FF70644908804BF640406349ED
:101E800008804FF6FF707E2345226E2100903D2092
:101E9000FEF7DCFE102000909AF8002001236E214E
:101EA0003D20FFF762F90020574908804FF4784041
:101EB0005649088000207E233D226E210090352067
:101EC000FEF7C4FE1020009099F8002001236E2137
:101ED0003520FFF74AF90BE14FF6FF704A490880B9
:101EE0004BF64040494908804FF6FF707E233D2263
:101EF0006E210090352000E0F9E0FEF7A7FE1020EB
:101F0000009099F8002001236E213520FFF72DF96C
:101F100000203D4908804FF478403C49088000206B
:101F20007E2335226E2100902D20FEF78FFE10209B
:101F3000009098F8002001236E212D20FFF715F95D
:101F4000D6E04FF6FF70304908804BF640402F49ED
:101F500008804FF6FF707E2335226E2100902D20E1
:101F6000FEF774FE1020009098F8002001236E21E7
:101F70002D20FFF7FAF80020234908804FF478401D
:101F80002249088000207E2325226E2100901D20FA
:101F9000FEF75CFE102000903A7801236E211D2090
:101FA000FFF7E3F8A4E04FF6FF70174908804BF6FF
:101FB0004040164908804FF6FF707E2325226E218F
:101FC00000901D20FEF742FE102000903A78012379
:101FD0006E211D20FFF7C9F800200B4908804FF43F
:101FE00078400A49088000207E231D226E210FE0E0
:101FF0004CE01AE0252E3366000000003700002078
:102000000B0000203D0000202A00002028000020B6
:1020100000901520FEF71AFE102000903278012360
:102020006E211520FFF7A1F862E04FF6FF70FC4922
:1020300008804BF64040FB4908804FF6FF707E2336
:102040001D226E2100901520FEF700FE102000904A
:10205000327801236E211520FFF787F80020F04920
:1020600008804FF47840EF49088000207E23152235
:102070006E2100900D20FEF7E9FD102000902A78D7
:1020800001236E210D20FFF770F831E04FF6FF704D
:10209000E34908804BF64040E24908804FF6FF7064
:1020A0007E2315226E2100900D20FEF7CFFD10201B
:1020B00000902A7801236E210D20FFF756F80020AA
:1020C000D74908804FF47840D649088000207E2305
:1020D0000D226E2100900520FEF7B8FD1020009023
:1020E000227801236E210520FFF73FF800E000BFB2
:1020F00000BF0020CC49087039E1CC48007808289E
:102100007ED2DFE800F07D042F5A87AFD7FD9AF822
:102110000000C749087008460078401C087008464F
:1021200000780A2801DB00200870C14800788AF88E
:1021300000000020BA4908804FF47840B94908806F
:1021400000207E2345226E2100903D20FEF77EFD7B
:10215000102000909AF8002001236E213D20FFF707
:1021600004F8FAE099F80000B149087008460078D0
:10217000401C0870084600780A2801DB002008701F
:10218000AB48007889F800000020A54908804FF48A
:102190007840A449088000207E233D226E210090D3
:1021A0003520FEF753FD1020009099F80020012300
:1021B0006E213520FEF7D9FFCFE098F800009C494A
:1021C000087008460078401C0870084600780A2805
:1021D00001DB002008709648007888F80000002095
:1021E0008F4908804FF478408E49088000207E2374
:1021F00035226E2100902D20FEF728FD102000E0F2
:10220000AAE0009098F8002001236E212D20FEF70F
:10221000ACFFA2E038788649087008460078401C78
:102220000870084600780A2801DB00200870804802
:102230000078387000207A4908804FF47840794956
:10224000088000207E2325226E2100901D20FEF7AD
:10225000FDFC102000903A7801236E211D20FEF72E
:1022600084FF7AE030787249087008460078401C94
:102270000870084600780A2801DB002008706C48C6
:10228000007830700020664908804FF47840654936
:10229000088000207E231D226E2100901520FEF76D
:1022A000D5FC10200090327801236E211520FEF716
:1022B0005CFF52E028785E49087008460078401CB0
:1022C0000870084600780A2801DB0020087058488A
:1022D000007828700020524908804FF47840514916
:1022E000088000207E2315226E2100900D20FEF72D
:1022F000ADFC102000902A7801236E210D2000E013
:1023000002E0FEF732FF28E02078494908700846CD
:102310000078401C0870084600780A2801DB00207D
:10232000087043480078207000203D4908804FF431
:1023300078403C49088000207E230D226E210090C9
:102340000520FEF783FC10200090227801236E21E7
:102350000520FEF70AFF00E000BF00BF0020324961
:10236000087004E000203049087000E000BF00BFA2
:10237000BDE8F88F7FB505460C460121042001F029
:1023800048F8ADF80850ADF804400020ADF80A0058
:10239000ADF8060001A9274802F014F80122114601
:1023A000244802F086FB0121224802F041FE1E2053
:1023B0008DF8000003208DF801008DF80200012047
:1023C0008DF80300684601F084FA7FBD10B5012145
:1023D000184802F01CFE00287ED01748007801281B
:1023E0003AD10421154800F0DEFD60B900201449FF
:1023F000087014480068462833D812480068401C0A
:10240000104908602DE00F48006803281CD90B20F4
:102410000549087000200B4908600749087020E052
:102420002A00002028000020370000203D00002066
:102430003E00002000080040340000200010014051
:10244000440000204000002000202849086028495E
:1024500008702849087004E027480078401C264985
:10246000087026480078012825D10821244800F06A
:102470009AFD60B90020204908701C480068462871
:1024800019D81A480068401C1849086013E017481A
:102490000068032808D90C2015490870002013494A
:1024A00008601649087006E00020104908601049CD
:1024B00008701249087010480078FA2810DB0020D4
:1024C00010490870104908701049087010490870C8
:1024D00009490870002100E002E00E4802F0CEFA3F
:1024E00001210C4802F0A4FD10BD000040000020B6
:1024F0003700002034000020440000203500002078
:10250000001001402F0000203D0000203E00002070
:102510000B0000200008004010B58DA002F08CFDDB
:1025200000209049086048608860C860C8610862FF
:102530008D4808618D4848618D4888618D484862A2
:10254000002088628CA002F077FD10BD2DE9F047D5
:102550008246504605F006FA80468B4A8B4B05F0C2
:1025600017F906468A4A8B4B04F0E0FD044604F056
:10257000EFFCBDE8F0872DE9F0478246504605F0B4
:10258000F1F98046824A834B04F0CEFF06467E4A2C
:102590007E4B04F00FFD044604F0DAFCBDE8F08742
:1025A0002DE9F84F07460D463846FFF7E4FF6D4921
:1025B00008600A465168106805F01CFC694988608B
:1025C0000A46516A506805F0E3FB1BD265498868EA
:1025D00005F096FA061E01DB304600E07042022844
:1025E00001DD002445E001245E498868002105F0F2
:1025F000CFFA3ED25B4A9168106A05F0DFF959497B
:10260000086236E0574A916A506805F0C1FA1BD259
:102610005449886805F074FA061E01DB304600E074
:102620007042022801DD002423E001244D4988681E
:10263000002105F0ADFB1CD24A4A9168106A05F0F2
:10264000BDF94849086214E04649886805F058FA1F
:10265000061E01DB304600E07042022801DD002446
:1026600007E001243F4A9168106A05F0A7F93D4947
:1026700008623C4AD168906805F0BCFB8146394845
:102680008169484605F0B8FA0646204605F054FA36
:10269000834634484169584605F0AEFA82463148CF
:1026A000016A504605F0A8FA81462E4A91681069E1
:1026B00005F0A2FA4946009005F080F980463146BF
:1026C00005F07CF92749C86108468068C86008465B
:1026D0004560C069BDE8F88F2DE9F0470746002640
:1026E0004FF03008102500BF22E0A8EB060000EBF9
:1026F000D07106EB6104384605F01EFA8246600090
:10270000254A52F82010504605F0C6F900D111E0D4
:10271000384605F011FA824660001F4A52F8201030
:10272000504605F035FB01D2264600E0A0466D1E5E
:10273000002DDAD100BF35B1012000EB440016496D
:1027400051F8200000E0002081464846BDE8F087AF
:102750005049445F696E697420626567696E200A3A
:102760000000000040020020CDCCCC3D9A99193EDB
:10277000CDCC4C3E000020415049445F696E6974E5
:1027800020656E64200A00004A0C022B8716F13F78
:102790002D431CEBE2363A3F4800002010B500F014
:1027A00027F810BD70B505460C4600F038F8B0208B
:1027B00000F0F1F800F074F8022000F0ECF800F0FE
:1027C0006FF8284600F0E7F800F06AF8204600F0BD
:1027D000E2F800F065F800F046F8002070BD70B532
:1027E0000446E5B2261231462846FFF7DBFF70BDEE
:1027F00008B50121042000F0FFFD3020ADF80000F5
:1028000010208DF8030001208DF802006946D4489D
:1028100000F036FB3021D24800F0DFFB08BD10B5D8
:10282000CF48006820F47000CD4908600846006871
:1028300040F4401008600120CA490860052000F0FB
:10284000AEF90120C849C1F89001052000F0A7F9B0
:102850000020C4490860052000F0A1F90020C24909
:10286000C1F8900110BD10B5BD48006820F470009B
:10287000BB4908600846006840F44010086000202A
:10288000B8490860052000F08AF90120B649C1F86E
:102890009001052000F083F90120B249086010BDC5
:1028A00010B50024AE48006820F47000AC49086000
:1028B0000846006840F4000008600020A949091F8C
:1028C0000860052000F06BF90120A749C1F89401C8
:1028D000A449091F0860052000F061F907E0601CA9
:1028E000C4B2FA2C03DDFFF7BEFF012010BD9D48E6
:1028F000803800680028F2D19A49091F086000BF9B
:10290000F4E710B59648006820F470009449086018
:102910000846006840F44010086000209149091FF3
:1029200008609149C1F89401052000F038F90120B0
:102930008C49091F0860052000F031F900208A4900
:10294000C1F89001052000F02AF9002085490860AF
:1029500010BD10B58248006820F4700080490860FE
:102960000846006840F44010086001207D49086076
:1029700000207D49C1F89001052000F010F90120E8
:102980007849091F0860052000F009F90020764900
:10299000C1F8900110BD70B504467148006820F47C
:1029A00070006F4908600846006840F440100860F5
:1029B000002518E000206B49091F0860052000F081
:1029C000EEF8E0096849C1F89401052000F0E7F845
:1029D00001206449091F0860052000F0E0F8600646
:1029E000040E681CC5B2082DE4DB00205D49091FF8
:1029F000086070BD70B5054600245948006820F491
:102A00007000574908600846006840F400000860FC
:102A100000261AE000205349091F0860052000F035
:102A2000BEF801205049C1F89001052000F0B7F828
:102A30006006040E4B488038006808B1601CC4B2C0
:102A4000012000F0ACF8701CC6B2082EE2DB15B90C
:102A5000FFF77FFF01E0FFF754FF204670BD70B520
:102A600004463F48006820F470003D49086008466D
:102A7000006840F440100860002518E00020394943
:102A8000091F0860052000F08AF8E0093649C1F8FE
:102A90009401052000F083F801203249091F0860E5
:102AA000052000F07CF86006040E681CC5B2082DF5
:102AB000E4DB00202B49091F086070BD70B50025BC
:102AC0002748006820F4700025490860084600681F
:102AD00040F40000086000202249091F086005201A
:102AE00000F05DF801202049C1F894011D49091F3B
:102AF0000860052000F053F804E0681CC5B21948CE
:102B00000068C4B217480068012801D1FF2DF4DB2A
:102B100000201449091F0860204670BD70B50446A6
:102B2000FFF77DFEB020FFF79AFFFFF7C7FF0220F7
:102B3000FFF795FFFFF7C2FF2546E11704EB116190
:102B40000912A4EB0121C8B2FFF789FFFFF7B6FF16
:102B50002012FFF784FFFFF7B1FFFFF784FE70BD7F
:102B600000080140940121420000214210B56FF09D
:102B7000040000F0F8FE2E4800682E49B0FBF1F08A
:102B80002D4908700846007800EB4001C1EBC010E9
:102B90004FF6FF7101EAC0002849088010BD0146C8
:102BA000254A12784A434FF0E0235A6100229A6185
:102BB0001A46126942F001021A6100BF4FF0E0228A
:102BC000106900F001021AB100F48032002AF5D039
:102BD0004FF0E022126922F001024FF0E0231A6167
:102BE00000229A6170470146144A12884A434FF006
:102BF000E0235A6100229A611A46126942F00102EA
:102C00001A6100BF4FF0E022106900F001021AB112
:102C100000F48032002AF5D04FF0E022126922F051
:102C200001024FF0E0231A6100229A617047000010
:102C30001400002000127A00D0010020D2010020F0
:102C400000BF704700BF4A4A128802F04002002AC3
:102C5000F9D0C2B2464B1B1D1A80704710B586B022
:102C60000446012144F2040000F0C6FB4FF400705A
:102C7000ADF8140003208DF8160018208DF8170009
:102C800005A93C4800F0FCF84FF48060ADF8140052
:102C900004208DF8170005A9364800F0F1F825202A
:102CA0008DF8000003208DF801008DF8020001204E
:102CB0008DF80300684600F00CFE01940020ADF88A
:102CC0000800ADF80A00ADF80C00ADF810000C20BB
:102CD000ADF80E0001A9264800F035FC012240F2B3
:102CE0002551234800F0C7FC0121214800F0B7FC22
:102CF00006B010BD10B540F225511D4800F0A0FDF2
:102D000010B31B4800F01CFDC4B21B48008800F43F
:102D10000040C8B91848008800F4804060B10A2C0F
:102D200003D000201449088020E01348008840F4B4
:102D300000401149088019E00D2C06D10E4800888A
:102D400040F480400C49088010E00B480088C0F334
:102D50000D000A490C5408480088401C06490880A8
:102D600008460088C72801DD0020088010BD00004B
:102D70000038014000080140D80100206C0200200A
:102D80000948804709480047FEE7FEE7FEE7FEE7FF
:102D9000FEE7FEE7FEE7FEE7FEE7FEE7044805493B
:102DA000054A064B70470000F3040008ED000008D8
:102DB000980300209809002098050020980500201D
:102DC00010B50446CC48844208D10121042000F00B
:102DD0002DFB0021042000F029FB46E0C748844277
:102DE00008D10121082000F021FB0021082000F07B
:102DF0001DFB3AE0C248844208D10121102000F0B6
:102E000015FB0021102000F011FB2EE0BD4884428C
:102E100008D10121202000F009FB0021202000F032
:102E200005FB22E0B848844208D10121402000F08F
:102E3000FDFA0021402000F0F9FA16E0B348844280
:102E400008D10121802000F0F1FA0021802000F05B
:102E5000EDFA0AE0AE48844207D10121801500F066
:102E6000E5FA0021A01500F0E1FA10BD10B501212E
:102E7000084600F0DBFA0021012000F0D7FA10BD6F
:102E80002DE9F04102460025002600200023002401
:102E9000002791F803C00CF00F0591F803C00CF067
:102EA000100CBCF1000F03D091F802C04CEA0505EC
:102EB00091F800C0BCF1000F31D0146800202BE065
:102EC0004FF0010C0CFA00F3B1F800C00CEA030655
:102ED0009E4220D183004FF00F0C0CFA03F7BC4345
:102EE00005FA03FC4CEA040491F803C0BCF1280F76
:102EF00006D14FF0010C0CFA00FCC2F814C00AE035
:102F000091F803C0BCF1480F05D14FF0010C0CFA49
:102F100000FCC2F810C0401C0828D1D31460B1F8DE
:102F200000C0BCF1FF0F34DD546800202EE000F13A
:102F3000080C4FF0010808FA0CF3B1F800C00CEAD5
:102F400003069E4221D183004FF00F0C0CFA03F7C9
:102F5000BC4305FA03FC4CEA040491F803C0BCF13D
:102F6000280F05D100F1080C08FA0CF8C2F81480FB
:102F700091F803C0BCF1480F07D100F1080C4FF0E5
:102F8000010808FA0CF8C2F81080401C0828CED3BB
:102F90005460BDE8F0814FF6FF710180022181701D
:102FA0000421C17070470246002093680B400BB1AA
:102FB000012000E0002070470146886880B2704719
:102FC00002460020D3680B400BB1012000E0002036
:102FD00070470146C86880B270470161704741611F
:102FE00070470AB1016100E041617047C1607047FC
:102FF0004FF480320A438261816182618269826911
:10300000704702460020434B18684FF68073184003
:1030100040EA021008433F4B186070473E49C861C0
:103020007047F0B50A46002300240021002500F077
:103030000046B6F1004F02D1364EF16901E0354E3F
:103040007168C0F3034583B200F44016B6F5401F23
:1030500008D121F070612F4E766826F070662D4FF2
:103060007E6012E000F48016B6F5801F06D10326BC
:1030700006FA05F4A14341F0706106E0460D360101
:1030800003FA06F6B14341F0706122B1460D3601F4
:1030900003FA06F6314300F00046B6F1004F02D1C4
:1030A0001C4EF16101E01B4E7160F0BD30B5002295
:1030B0008B071C0F0F2303FA04F2164B08338C10F6
:1030C00053F824309343134C08348D1044F82530C2
:1030D00023468C1053F824308C07240F00FA04F494
:1030E00023430C4C08348D1044F8253030BD0A4978
:1030F000DC3108607047000000080140000C01400E
:10310000001001400014014000180140001C014063
:10311000002001400000014000002042DF4800681C
:1031200040F00100DD49086008464068DC4908407D
:10313000DA49486008460068DA490840D74908601B
:103140000846006820F4802008600846406820F4A3
:10315000FE0048604FF41F0088607047CF4909683F
:1031600021F48031CD4A11601146096821F4802193
:103170001160B0F5803F03D0B0F5802F0ED106E08E
:10318000C649096841F48031C44A116007E0C34967
:10319000096841F4A021C14A116000E000BF00BFEE
:1031A000704710B501460022002300204A11012A71
:1031B00002D1BA4C236806E0022A02D1B74C236A36
:1031C00001E0B64C636A01F01F02012494401C40E8
:1031D0000CB1012000E0002010BD38B500200090A7
:1031E0000024002500BF3120FFF7DBFF05460098D3
:1031F000401C00900098B0F5A06F01D0002DF2D0D7
:103200003120FFF7CEFF08B1012400E00024204662
:1032100038BD01460020A14A106820F0F80040EABD
:10322000C10010607047A049086070470246002046
:103230009A4B586820F47C1042EA01031843974BDC
:103240005860704798490866704701460020934AC5
:10325000506820F003000843506070478F48406872
:1032600000F00C007047014600208C4A506820F0A6
:10327000F00008435060704701460020874A5068BC
:1032800020F4E06008435060704701460020834A04
:10329000506820F4605040EAC1005060704729B186
:1032A0007E4A527A02437D4B5A7204E07B4A527A3C
:1032B00082437A4B5A7270477B49D8310860704715
:1032C00001460020754A506820F440400843506091
:1032D00070470021714A20321170704A82F8201024
:1032E000012802D004280AD104E001216B4A2032CF
:1032F000117005E00521694A2032117000E000BF1D
:1033000000BF70476949086070476449096A014312
:10331000624A11627047654944390860704730B5A8
:1033200000210022002400235C4D6D6805F00C0193
:1033300021B1042905D0082923D105E05C4D0560A1
:1033400022E05B4D05601FE0544D6D6805F470127E
:10335000524D6D6805F48034022505EB92421CB98C
:10336000544D554305600BE04C4D6D6805F4003538
:103370001DB1504D5543056002E04D4D554305606C
:1033800002E04B4D056000BF00BF444D6D6805F085
:10339000F0010909484D6B5C0568DD4045603F4D13
:1033A0006D6805F4E061090A434D6B5C4568DD40DA
:1033B00085603A4D6D6805F46051C90A3E4D6B5CFD
:1033C0004568DD40C560354D6D6805F44041890BA9
:1033D0003A4D6B5CC568B5FBF3F5056130BD29B1AD
:1033E0002E4A526902432D4B5A6104E02B4A52691E
:1033F00082432A4B5A61704729B1284A9269024395
:10340000264B9A6104E0254A92698243234B9A61D4
:10341000704729B1214AD2690243204BDA6104E0A6
:103420001E4AD26982431D4BDA61704729B11B4A9B
:10343000D2680243194BDA6004E0184AD26882432A
:10344000164BDA60704729B1144A12690243134BD4
:103450001A6104E0114A12698243104B1A617047E5
:1034600012494039086070470F49C86470470B49DA
:10347000C87170470948406A40F080700749486247
:10348000704701460020054A92680A400AB10120AF
:1034900000E0002070470149887270470010024028
:1034A0000000FFF8FFFFF6FE0000424280044242A7
:1034B00000127A0000093D00DA010020EA01002034
:1034C00010B50446FB48844209D101218803FFF767
:1034D000ADFF00214FF48040FFF7A8FF32E0F6482F
:1034E000844209D101214804FFF7ADFF00214FF4C8
:1034F0000030FFF7A8FF25E0F048844209D1012100
:103500008804FFF7A0FF00214FF48020FFF79BFF06
:1035100018E0EB48844209D10121C804FFF793FF6A
:1035200000214FF40020FFF78EFF0BE0E5488442B6
:1035300008D101210805FFF786FF00214FF4801014
:10354000FFF781FF10BD2DE9F04786B005460E4616
:103550000024A24600BFA1460027B08900B100BFE9
:103560002F462C8A4CF6FF700440F08804432C82CE
:10357000AC894EF6F3100440B08831890843718954
:1035800008430443AC81AC8A4FF6FF400440B08945
:103590000443AC8201A8FFF7C2FEC648874202D1AD
:1035A000DDF810A001E0DDF80CA0A88900F40040CF
:1035B00040B10AEBCA0000EB0A1031684900B0FBC9
:1035C000F1F807E00AEBCA0000EB0A103168890045
:1035D000B0FBF1F86420B8FBF0F00401200964218D
:1035E00001FB1089A88900F4004040B1322000EBB3
:1035F000C900B0FBF1F000F00700044308E03220FE
:1036000000EB09106421B0FBF1F000F00F0004435F
:103610002C8106B0BDE8F0874FF4165101600021FF
:103620008180C18001810C2141810021818170470D
:1036300010B502460020108A4FF2FF0318400B8895
:103640004C8823438C882343CC882343184310821F
:1036500010BD0021018041808180C180704721B16F
:10366000828942F40052828104E082894DF6FF7320
:103670001A4082817047F0B50346002400260025D9
:10368000002040F66A17B94200D100BF1846C1F3C6
:10369000421401F01F06012707FA06F5012C01D19B
:1036A0000C3004E0022C01D1103000E014301AB1CB
:1036B00007682F43076002E00768AF430760F0BD6B
:1036C0001AB1838A0B43838202E0838A8B4383820D
:1036D0007047028A4FF6F0731A400282028A0A4348
:1036E0000282704782894FF2FF731A408281828979
:1036F0000A438281704721B1828942F002028281AD
:1037000004E082894FF6FD731A4082817047028A75
:103710004FF6DF731A400282028A0A430282704720
:1037200021B1028A42F48042028204E0028A4BF60E
:10373000FF731A4002827047C1F30802828070470B
:1037400001468888C0F308007047818941F0010173
:1037500081817047028BD2B20283028B42EA01223E
:1037600002837047028B02F47F420283028B0A437A
:103770000283704721B1828A42F02002828204E0F3
:10378000828A4FF6DF731A408282704721B1828AA3
:1037900042F01002828204E0828A4FF6EF731A40F0
:1037A0008282704721B1828A42F00802828204E05C
:1037B000828A4FF6F7731A408282704721B182895C
:1037C00042F40042828103E08289C2F30E028281C8
:1037D000704721B1828A42F40062828204E0828AC8
:1037E0004FF2FF731A4082827047828A4FF6FB7352
:1037F0001A408282828A0A438282704721B1828A79
:1038000042F00202828204E0828A4FF6FD731A407F
:103810008282704702460020B1F5007F00D100BFD0
:1038200013880B400BB1012000E00020704701F429
:103830000072B2F5007F00D100BFCA43028070471A
:1038400070B50246002400230025002040F66A16C9
:10385000B14200D100BFC1F3421501F01F030126A0
:1038600006FA03F3012D02D19689334006E0022DBA
:1038700002D1168A334001E0968A33400C120126A9
:1038800006FA04F41688344013B10CB1012000E0AC
:10389000002070BD10B50022002340F66A14A1423A
:1038A00000D100BF0A1201249440A3B2DC4304807B
:1038B00010BD0000003801400044004000480040B6
:1038C000004C00400050004031490143314A116032
:1038D000704770B5002100230F22C47804B32D4C2B
:1038E000246804F4E064C4F5E064210AC1F104032F
:1038F000CA40447804FA03F1847814402143090152
:10390000254C0678A155047804F01F050124AC402D
:1039100005786D11AD0005F1E025C5F8004109E01D
:10392000047804F01F050124AC401C4D0678761184
:1039300045F8264070BD1A4A0A400243154B1B1F2A
:103940001A60704739B1134A121D12680243114BB5
:103950001B1D1A6006E00F4A121D126882430D4BB0
:103960001B1D1A607047042808D14FF0E021096937
:1039700041F004014FF0E022116107E04FF0E02137
:10398000096921F004014FF0E02211617047000045
:103990000000FA050CED00E000E400E080E100E04A
:1039A00080FFFF1F10B50446FA48844208D1012168
:1039B0004015FFF73BFD00216015FFF737FD17E0CD
:1039C000F548844208D101210015FFF72FFD0021A1
:1039D0002015FFF72BFD0BE0F048844208D10121B0
:1039E000C803FFF723FD00214FF40040FFF71EFD41
:1039F00010BD30B50246002000235068E84C20403E
:103A00000D790C6844EA0524204350609068E54C29
:103A10002040D1E902542C434D7944EA4504204327
:103A20009060D06A20F470000C7C641EE4B22343E2
:103A300040EA0350D06230BD002101600171417144
:103A40008160C16001210174704721B1826842F038
:103A50000102826003E0826822F001028260704706
:103A600021B1826842F48072826003E0826822F4AD
:103A700080728260704710B50023CBB21AB14468DF
:103A80001C43446002E044689C43446010BD81686C
:103A900041F0080181607047014600208A6802F009
:103AA00008020AB1012000E000207047816841F05F
:103AB000040181607047014600208A6802F0040218
:103AC0000AB1012000E00020704721B1826842F471
:103AD000A002826003E0826822F4A0028260704744
:103AE000014600208A6802F480020AB1012000E049
:103AF0000020704710B50A4600210023416821F4D8
:103B00006041531E41EA4331416010BD21B142681A
:103B100042F40062426003E0426822F400624260C4
:103B20007047F0B504460D4600200021092D11DD37
:103B3000E068A5F10A0606EB4607072606FA07F134
:103B40008843A5F10A0606EB460603FA06F1084388
:103B5000E0600CE0206905EB4507072606FA07F14F
:103B6000884305EB450603FA06F108432061072A5E
:103B70000FDA606B561E06EB86071F2606FA07F162
:103B80008843561E06EB860605FA06F10843606375
:103B900022E00D2A0FDA206BD61F06EB86071F26C0
:103BA00006FA07F18843D61F06EB860605FA06F1EA
:103BB0000843206310E0E06AA2F10D0606EB8607D9
:103BC0001F2606FA07F18843A2F10D0606EB8606CA
:103BD00005FA06F10843E062F0BD21B1826842F4C3
:103BE0008012826003E0826822F480128260704753
:103BF0000146C86C80B2704766484C300068704718
:103C000021B1426842F48062426003E0426822F4DB
:103C100080624260704721B1426842F48052426043
:103C200003E0426822F48052426070470A46002155
:103C3000816821F4E04111438160704721B18268BD
:103C400042F40042826003E0826822F40042826013
:103C5000704721B1826842F40212826003E08268F8
:103C600022F4021282607047014600208A6802F442
:103C700000120AB1012000E000207047F0B50446B0
:103C80001546002000220026092911DDE068A1F177
:103C90000A0707EB470C072707FA0CF29043A1F13C
:103CA0000A0707EB470703FA07F21043E0600CE04E
:103CB000206901EB410C072707FA0CF2904301EB56
:103CC000410703FA07F210432061A06BC0F30156CD
:103CD000EF1C06F1010CA7EB0C0707EB870C1F2765
:103CE00007FA0CF29043EF1C06F1010CA7EB0C074E
:103CF00007EB870701FA07F21043A063F0BD10B588
:103D00000A4600210023816B21F44011531E41EA31
:103D10000351816310BD08B5002300930090009B00
:103D20000B440093009B1A6008BD08B502460020B2
:103D30000090009201F12800009B18440090009828
:103D4000006880B208BD0A4600214168164B194040
:103D50001143416070474162826270470A46002108
:103D6000416821F01F0111434160704740B109498A
:103D70000831096841F40001064A0832116007E081
:103D800004490831096821F40001024A083211602F
:103D9000704700000024014000280140003C014021
:103DA000FFFEF0FFFDF7F1FFFFFD3FFF02460020A1
:103DB00013680B400BB1012000E000207047CA439C
:103DC0000260704770B502460020002300240B12E9
:103DD0005568CEB205EA060415681D4015B10CB150
:103DE000012000E0002070BD00220A12D3430360CE
:103DF0007047000010B50446BE48844208D1012136
:103E00008014FFF713FB0021A014FFF70FFB16E04F
:103E1000B948844208D101210014FFF714FB0021A6
:103E20002014FFF710FB0AE0B448844207D10121B7
:103E3000C013FFF708FB0021E013FFF704FB10BDE0
:103E400010B50022028802F441520B884C882343AB
:103E50008C882343CC8823430C8923434C892343F8
:103E60008C892343CC8923431A430280838B4FF2EE
:103E7000FF74234083830B8A038210BD2DE9F04F2A
:103E800085B005460C464FF0000902274FF00008A8
:103E90004FF0010B0026B246A88B4FF240010840BC
:103EA000A88302202884B5F81C90A068022801D1BC
:103EB00000BF38E0A08810B94FF0010B01E04FF0CF
:103EC000020B8D48854200D100E000BF6846FFF735
:103ED00026FADDF800A0E088B0F5007F0AD14FEAAD
:103EE0001A2000EB80004000A168B0FBF1F0401DFB
:103EF00086B20BE04FEA4B10BAFBF0F000EB80000B
:103F00004000A168B0FBF1F0401D86B20A20B6FB6C
:103F1000F0F606F00108A6EB0800C0F34F074FF6D5
:103F2000FF7000EA0828022F01DBFF2F02DD0227C5
:103F30004FF00008E08840EA080038432884A08851
:103F4000A1890843618808432188084340F4006040
:103F500040EA0909A5F81C9005B0BDE8F08F0021E2
:103F6000018041808180C180018141818181C18145
:103F70000721018270470021018041808180C1803A
:103F80000221816000218181704721B1028842F0C5
:103F90004002028004E002884FF6BF731A4002809C
:103FA000704721B1828B42F48062828304E0828B6D
:103FB0004FF6FF331A408283704730B50024002348
:103FC0000C110125A540ABB21AB185881D4385802F
:103FD00002E085889D43858030BD1AB183880B43FC
:103FE000838002E083888B438380704781817047A0
:103FF0000146888970474FF6FF62914204D00288DB
:1040000042F48072028004E002884FF6FF631A4097
:104010000280704721B1828842F00402828004E06D
:1040200082884FF6FB731A408280704702884FF2F5
:10403000FF731A40028002880A4302807047018899
:1040400041F480510180704721B1028842F400524E
:10405000028004E002884DF6FF731A400280704728
:1040600002460020012901D0108B00E0908A7047A1
:104070000146088A7047B1F5804F04D1028842F4A6
:104080008042028004E002884BF6FF731A400280EF
:1040900070470246002013890B400BB1012000E05D
:1040A00000207047CA4302817047F0B502460020E5
:1040B00000240023002501F00F070126BE40B4B202
:1040C0000B1101269E40B3B2968806EA03051689B5
:1040D000264016B10DB1012000E00020F0BD10B562
:1040E000002201F00F040123A3409AB2D3430381BD
:1040F00010BD00000030014000380040003C00408E
:10410000002044490860091D0860091D0860091D58
:10411000086041483F4914310860704700213D491B
:104120008279002A3AD00A46126803689A430B46FD
:104130001A600A1D126803689A430B1D1A600279FF
:1041400011440A6803681A430A60324A0832126846
:1041500003689A432F4B08331A601A1D12680368CC
:104160009A432C4B0C331A604279102A0ED11A1F35
:10417000126803681A43274B08331A601A1D126825
:1041800003681A43234B0C331A600DE0214942792E
:1041900011440A6803681A430A6005E00279114471
:1041A0000A6803689A430A60704700210160017140
:1041B0000C21417100218171704716491031096845
:1041C0000143144A10321160704701460020114A21
:1041D000143212680A400AB1012000E00020704742
:1041E0000C49143108607047014600200022094B39
:1041F0001B6803EA0102074B14331B680B4013B121
:104200000AB1012000E00020704702491431086023
:104210007047000000040140FFFF0F0010B5044686
:10422000FE48844208D10121C014FFF7FFF80021A5
:10423000E014FFF7FBF8C4E0B4F1804F08D101218E
:104240000846FFF700F900210120FFF7FCF8B8E06D
:10425000F348844208D101210220FFF7F4F800213D
:104260000220FFF7F0F8ACE0EE48844208D10121CB
:104270000420FFF7E8F800210420FFF7E4F8A0E0AD
:10428000E948844208D101210820FFF7DCF8002129
:104290000820FFF7D8F894E0E448844208D10121CF
:1042A0001020FFF7D0F800211020FFF7CCF888E0AD
:1042B000DF48844208D101212020FFF7C4F8002103
:1042C0002020FFF7C0F87CE0DA48844208D10121C1
:1042D0004014FFF7ABF800216014FFF7A7F870E077
:1042E000D548844209D10121C804FFF79FF8002175
:1042F0004FF40020FFF79AF863E0D048844209D1D8
:1043000001210805FFF792F800214FF48010FFF714
:104310008DF856E0CA48844209D101214805FFF7CB
:1043200085F800214FF40010FFF780F849E0C548F8
:10433000844208D101214020FFF785F80021402068
:10434000FFF781F83DE0C048844208D10121802078
:10435000FFF779F800218020FFF775F831E0BB48BE
:10436000844208D101218015FFF76DF80021A015C6
:10437000FFF769F825E0B648844209D10121080415
:10438000FFF754F800214FF48030FFF74FF818E0A2
:10439000B048844209D101214804FFF747F80021C1
:1043A0004FF40030FFF742F80BE0AB48844208D1ED
:1043B00001218804FFF73AF800214FF48020FFF72D
:1043C00035F810BD00220288944B98420ED0994BCC
:1043D00098420BD0B0F1804F08D0914B984205D055
:1043E000904B984202D0904B984204D14FF68F7375
:1043F0001A404B881A438D4B984207D08C4B9842F9
:1044000004D04FF6FF431A40CB881A4302808B88B2
:1044100083850B880385814B98420BD0854B98424E
:1044200008D08B4B984205D08A4B984202D08A4BD9
:10443000984201D10B7A038601238382704770B5BD
:10444000002400220023058C4FF6FE7635400584BB
:10445000028C8388048B4FF68F752C40B51E2C4040
:104460000D882C43751E2A400D892A434D882A4306
:104470006A4DA8420BD06F4DA84208D0744DA84297
:1044800005D0744DA84202D0734DA84213D14FF607
:10449000F7752A404D892A434FF6FB752A408D88CF
:1044A0002A434FF6FF652B404FF6FF552B408D8971
:1044B0002B43CD892B4383800483CD88858602845A
:1044C00070BD70B5002400220023058C4FF6EF76F6
:1044D00035400584028C8388048B48F6FF752C4098
:1044E0004FF6FF452C400D884FF6FF7606EA05256E
:1044F0002C434FF6DF752A400D8906EA05152A433D
:104500004D8806EA05152A43444DA84202D0494D7C
:10451000A8421DD14FF67F752A404D894FF6FF7690
:1045200006EA05152A434FF6BF752A408D8806EA2C
:1045300005152A434FF6FF352B404FF2FF752B40F0
:104540008D8906EA85052B43CD8906EA85052B432F
:1045500083800483CD880587028470BD70B50024F4
:1045600000220023058C4FF6FF6635400584028C3F
:104570008388848B4FF68F752C404FF6FC752C404A
:104580000D882C434FF6FF552A400D894FF6FF76D4
:1045900006EA05252A434D8806EA05252A431F4DCC
:1045A000A84202D0234DA8421DD14FF2FF752A40E8
:1045B0004D894FF6FF7606EA05252A434FF6FF356B
:1045C0002A408D8806EA05252A434EF6FF752B40C2
:1045D0004DF6FF752B408D8906EA05152B43CD89D5
:1045E00006EA05152B4383808483CD888587028462
:1045F00070BD70B5002200230024058C4EF6FF76B6
:1046000035400584038C8488828B48F6FF752A40E8
:104610004FF6FF452A400D8820E00000002C0140A5
:104620000004004000080040000C00400010004062
:104630000014004000340140004C01400050014093
:104640000054014000180040001C004000200040C1
:104650000040014000440140004801404FF6FF7611
:1046600006EA05252A434DF6FF752B400D8906EA1B
:1046700005352B434D8806EA05352B43FA4DA842F4
:1046800002D0FA4DA84208D14BF6FF752C408D8917
:104690004FF6FF7606EA85152C4384808283CD8809
:1046A000A0F84050038470BD828B4FF2FF331A4054
:1046B0008283828B4FF6FF7303EA01231A438283BE
:1046C0007047F0B50C461546002200210026078CE5
:1046D0004EF6FF7C07EA0C070784828B018C4FF6AD
:1046E000FF7707EA043640F6FF473A404FF6FF7778
:1046F00007EA05273A434FF6FF7707EA03373A43BD
:10470000D94FB8420ED0D94FB8420BD0B0F1804F3C
:1047100008D0D74FB84205D0D64FB84202D0D64FB6
:10472000B84206D14DF6FF77394046F480573943F9
:1047300005E047F6FF57394044F4805739438283F8
:104740000184F0BD828B4FF6F3731A408283828B13
:104750000A4382837047F0B50C46154600220021BB
:104760000026078C4FF6FF6C07EA0C070784828B44
:10477000018C4FF6FF7707EA04264FF60C773A4094
:104780004FF6FF7707EA03172F433A43B64FB84275
:104790000ED0B64FB8420BD0B0F1804F08D0B44F16
:1047A000B84205D0B34FB84202D0B34FB84206D199
:1047B0004FF6FF57394046F48077394305E04FF212
:1047C000FF57394044F48077394382830184F0BD38
:1047D000028B4FF2FF331A400283028B4FF6FF73B6
:1047E00003EA01231A4302837047F0B50C461546CD
:1047F000002200210026078C4FF6EF7C07EA0C0709
:104800000784028B018C4FF6FF7707EA041640F607
:10481000FF473A404FF6FF7707EA03373A434FF630
:10482000FF7707EA05273A438F4FB8420ED08F4FE4
:10483000B8420BD0B0F1804F08D08D4FB84205D0B0
:104840008C4FB84202D08C4FB84206D14FF6DF777A
:10485000394046F01007394305E04FF65F7739409D
:1048600044F01007394302830184F0BD028B4FF6F8
:10487000F3731A400283028B0A4302837047F0B538
:104880000C46154600220021068C4FF6FE773E406E
:104890000684028B018C4FF60C7632407E1C06EAB1
:1048A00003162E433243704EB0420ED06F4EB042CC
:1048B0000BD0B0F1804F08D06D4EB04205D06D4E98
:1048C000B04202D06C4EB04206D14FF6FD76314078
:1048D00044F00106314305E04FF6F576314044F0EF
:1048E0000106314302830184F0BD70B505460C46D4
:1048F0005D4885420ED05D4885420BD0B5F1804FB2
:1049000008D05B48854205D05A48854202D05A48B3
:10491000854200D100E000BF208850B92389A288D9
:1049200061882846FFF7ABFFE1882846FFF79EFF26
:1049300025E0208804280AD12389A2886188284696
:10494000FFF753FFE1882846FFF742FF17E0208872
:1049500008280AD12389A28861882846FFF7FBFE30
:10496000E1882846FFF7EEFE09E02389A2886188E6
:104970002846FFF7A6FEE1882846FFF795FE70BDA2
:104980002DE9F04105460C4600260127608808B94C
:10499000022600E00026A088012801D1022700E0BD
:1049A00001272088A0B92389A28861882846FFF7BB
:1049B00066FFE1882846FFF759FF23893A463146CA
:1049C0002846FFF712FFE1882846FFF701FF13E0B2
:1049D0002389A28861882846FFF707FFE1882846D7
:1049E000FFF7F6FE23893A4631462846FFF747FF90
:1049F000E1882846FFF73AFFBDE8F0810A884B8836
:104A00001A438B881A43CB881A430B891A434B8964
:104A10001A438B891A43A0F8442070474FF6FF7160
:104A2000818000210180C180418001727047002196
:104A3000018041808180C180018141818181C1816A
:104A40007047002101804180012181800021C180C7
:104A5000018170470021018041808180C1800181F6
:104A60004181818170470000002C014000340140E9
:104A70000004004000080040000C004021B1028802
:104A800042F00102028004E002884FF6FE731A40F1
:104A90000280704731B1B0F8442042F40042A0F8DF
:104AA000442005E0B0F84420C2F30E02A0F84420F0
:104AB00070471AB183890B43838102E083898B435A
:104AC000838170478182704741EA0203A0F8483031
:104AD00070471AB183890B43838102E083898B433A
:104AE0008381704701894FF6F87211400181704748
:104AF0000A46002101894FF68F7319401143018145
:104B0000704730B504460D4629462046FFF7F0FFB2
:104B1000208940F00700208130BD2DE9F041044696
:104B20000D4616461F46602D06D13B4601223146F2
:104B30002046FFF75AFE05E03B460122314620465B
:104B4000FFF79DFE29462046FFF7D2FF208940F05F
:104B500007002081BDE8F08130B50C4600210189B5
:104B6000C9B24FF6FF7505EA0325154325432943CE
:104B7000018130BD2DE9F04105460E4617469846A5
:104B8000002443463A4631462846FFF7E5FF2C8984
:104B90004FF6F870044044F007044FF68F7004405D
:104BA00044F070042C81BDE8F081F0B504460D4658
:104BB00016461F463B46324629462046FFF7CCFFA5
:104BC000208940F480402081F0BD018582827047B9
:104BD0000A46002101884FF68F7319401143018066
:104BE0007047F0B50C4615461E46002100220023F2
:104BF0000189028B038C4FF6F877394021434FF639
:104C0000FC473A4040F201173A434FF6DD773B400C
:104C10004FF6FF7707EA06172F433B4301810283D4
:104C20000384F0BD0A460021018B4FF68F731940B3
:104C30001143018370470A460021018B48F6FF7338
:104C400019404FF6FF7303EA0223194301837047AB
:104C50000A460021818B4FF68F73194011438183DF
:104C600070470A460021818B48F6FF7319404FF6C2
:104C7000FF7303EA022319438183704721B102883D
:104C800042F08002028004E002884FF67F731A40EF
:104C90000280704721B1828842F00402828004E0E1
:104CA00082884FF6FB731A408280704721B1828858
:104CB00042F00802828004E082884FF6F7731A40BF
:104CC0008280704721B1828842F00102828004E034
:104CD00082884FF6FE731A40828070470A46002190
:104CE000018B4FF6F77319401143018370470A4651
:104CF0000021018B4FF2FF7319404FF6FF7303EA57
:104D000002231943018370470A460021818B4FF625
:104D1000F77319401143818370470A460021818B44
:104D20004FF2FF7319404FF6FF7303EA0223194352
:104D3000818370470A460021018B4FF6FB731940AF
:104D40001143018370470A460021018B4FF6FF3360
:104D500019404FF6FF7303EA02231943018370479A
:104D60000A460021818B4FF6FB7319401143818362
:104D700070470A460021818B4FF6FF3319404FF6EA
:104D8000FF7303EA02231943818370470A46002117
:104D9000018B4FF67F7319401143018370470A4618
:104DA0000021018BC1F30E014FF6FF7303EA0223CA
:104DB0001943018370470A460021818B4FF67F73A8
:104DC00019401143818370470A460021818BC1F34A
:104DD0000E014FF6FF7303EA0223194381837047E4
:104DE0000A460021018C4FF6FD73194011430184DE
:104DF00070470A460021018C4FF6F77319401143A2
:104E0000018470470A460021018C4FF6DF73194078
:104E10004FF6FF7303EA02131943018470470A46F1
:104E20000021018C4FF67F7319404FF6FF7303EAA0
:104E300002131943018470470A460021018C4FF682
:104E4000FF5319404FF6FF7303EA0223194301840D
:104E500070470A460021018C4FF2FF7319404FF64C
:104E6000FF7303EA02231943018470470A460021B5
:104E7000018C4DF6FF7319404FF6FF7303EA0233BE
:104E800019430184704730B5002301248C40A3B23C
:104E9000048C9C430484048C02FA01F5ADB22C43CB
:104EA000048430BD30B5002304248C40A3B2048CAC
:104EB0009C430484048C02FA01F5ADB22C430484B3
:104EC00030BD70B503460020002418461830012577
:104ED0008D40ACB21D8CA5431D8409B1082909D1B0
:104EE00000EB6100056825F0700505600568154355
:104EF00005600EE00D1FC5F34E052844056825F436
:104F0000E045056005684FF6FF7606EA0226354360
:104F1000056070BD21B1028842F00202028004E007
:104F200002884FF6FD731A400280704721B1028853
:104F300042F00402028004E002884FF6FB731A403C
:104F40000280704721B1828842F08002828004E0B2
:104F500082884FF67F731A408280704702884FF62E
:104F6000F7731A40028002880A43028070478288E1
:104F70004FF68F731A40828082880A43828070477E
:104F800002894FF6F8731A40028102890A430281AE
:104F9000704702894FF67F731A40028102890A43E3
:104FA0000281704781847047818570478186704790
:104FB0000187704781877047A0F8401070470288CA
:104FC0004FF6FF431A40028002880A43028070476E
:104FD0000146888E70470146088F70470146888FCA
:104FE00070470146B1F8400070470146888C704711
:104FF0000146088D704702460020138A0B400BB112
:10500000012000E000207047CA430282704730B59B
:105010000246002000230024158A05EA0103958931
:1050200005EA010413B10CB1012000E0002030BDFD
:10503000CA430282704770470FB4044910B503AAEF
:10504000029800F039FB10BC5DF814FBD40100207D
:105050000FB41CB5074B06AA7B446946009005981F
:1050600000F011FB0020694600F020FB1CBC5DF83D
:1050700014FB0000510600002DE9F0474FF0000A34
:1050800089460446C0F820A02046E16888470028E9
:1050900076D0252806D0D4E901219047206A401C0B
:1050A0002062F1E7E168204600258847C4F81CA08B
:1050B00006460027C4F818A02A2E09D0304601F071
:1050C00098FE38B304EB8708303EC8F8186019E042
:1050D00059F8041B204604EB87029161E168884778
:1050E000012F064618D1E069002820DA25F02005B6
:1050F0001DE0D8F8180000EB800006EB40003038C7
:10510000C8F818002046E1688847064601F071FE9D
:105110000028EED1012F0AD02E2E08D12046E168BA
:1051200088477F1C0646022F45F02005C4DBA06996
:10513000002803DA404245F00105A061E80701D0EC
:1051400025F01005B6B1A6F14100192802D8203685
:1051500045F400654A463146204625604D46FBF73A
:105160001FF858B1012806D0ED1D25F0070000F109
:10517000080989E704E005F1040985E730468AE774
:10518000206ABDE8F087401ECAB210F8011F8A42AB
:1051900002D00029F9D10020704710B5431C02E06D
:1051A00010F8011B71B18107FAD14FF0013202C82A
:1051B0008C1A8C4314EAC211F9D0C01A0A0603D023
:1051C000C01E10BDC01A10BD0A0401D0801E10BD43
:1051D0000902FCD0401E10BD421E12F8013F002BF8
:1051E000FBD111F8013B002B02F8013BF9D17047CC
:1051F0004FF0000200B5134694469646203922BF70
:10520000A0E80C50A0E80C50B1F12001BFF4F7AFBA
:10521000090728BFA0E80C5048BF0CC05DF804EB9C
:10522000890028BF40F8042B08BF704748BF20F80A
:10523000022B11F0804F18BF00F8012B7047704708
:1052400070477047704710B500F09EFA006810BDB7
:1052500010B5044600F098FA046010BD70472DE9BF
:10526000FF4F0C461E464FF0FF378BB0D2E90001CE
:10527000DDF860800A908A46C1F30A5505B93D46BB
:10528000002108464FF00000BAF1000F00F4400082
:1052900005DA00EB80004FF4400101EA50004FEACC
:1052A0009059B9F1010F00DDB9460A9850EA4A0059
:1052B0000ED044F61050A5F2FF3545432F14B8F137
:1052C000000F1ED07542291E1EDDC9F100021CE030
:1052D000B8F1010F4FF0000001D0302103E0F2439C
:1052E00005E02154401CB042FBDB30460022002187
:1052F00021540B99C1F80880C1E900200FB0BDE826
:10530000F08FBD1B6D1CDEE74A4600DA694206A835
:1053100000F0ECFA06AB93E8070003AB83E8070064
:1053200050460A9901F09BF88DE80700A0F500505F
:105330001F3800900398002D0ADD42F21F014A46F3
:105340000844002303A90390684601F047FB09E0E5
:10535000A0F500504A461F38002303A90390684671
:1053600001F066FB8DE807000004000C03D04FF04D
:10537000FF30410800E01046B8F1000F03D00022D2
:10538000009215461EE0751E05D400F001FA303279
:1053900062556D1EF9D5B3460122084302D00022A2
:1053A0007F1C04E02078302801D100227F1E002AD3
:1053B000099784D01DE0112D07DA00F0E9F93032A9
:1053C00062556D1C50EA0102F5D1084302D00098E5
:1053D000C8B10EE00021681E05E0235C625C6354E6
:1053E0002254401E491C8142F7DBAB46A81B401EDD
:1053F0000990002004F80B000B98099AC0F8088067
:10540000C0E9002B7AE711264FF0000857E72DE995
:10541000F04F88460446D21D22F0070191B0D1E931
:105420000001CDE90A0101F04FFC02460B98C00FC4
:1054300001D02D2007E02068810701D52B2002E054
:10544000202101EAC000032A099001D0072A05DBC8
:1054500003464146204600F0E9F90BE1207880063A
:1054600001D5E06900E00620B8F1650F814606D05D
:10547000B8F1660F18D0B8F1670F70D131E0002095
:10548000B9F1110F009001DB112301E009F10103D3
:105490000AAA01A90CA8FFF7E2FEDDE90C700026BC
:1054A00009F10105834647E001204B4600904FF08B
:1054B00000470AAA01A90CA8FFF7D1FEDDE90DB04B
:1054C0000C995D46002610B909F101000D18B9EBE1
:1054D000050003D4C0F1FF3609F10105A5EB090071
:1054E0002BE0B9F1010F01DA4FF001090020B9F109
:1054F000110F0090484601DD112300E003460AAA7F
:1055000001A90CA8FFF7ABFEDDE90C704D460026A3
:105510008346207800070AD4AB4500DA5D4601A82F
:10552000012D04DD411911F8011C302907D04F4528
:1055300002DA17F1040F04DA012082460FE06D1E33
:10554000EEE7002F02DCED1B3E4403E0781CA8428E
:1055500000DD7D1CB81B00F1010A4FF000472078E8
:10556000000703D4AA4501DB4FF0FF3A0021B7F151
:10557000004F0DF143088DF8431024D002202B2357
:10558000002F01DA7F422D230A21021EA0F1010023
:1055900000DC5FB197FBF1FC97FBF1F201FB1C7C97
:1055A00017460CF1300C08F801CDEEE7A8F1010028
:1055B00003702188090501D5452100E06521A0F18E
:1055C000010800F8011C09980FA9A1EB0807FF1DAD
:1055D00000B10120411901EBEA70A1693844081AB1
:1055E000401EA0612078C00602D42046AFF30080A0
:1055F000099828B1D4E901219047206A401C206213
:105600002078C00622D52046AFF300801EE0002E91
:1056100004DBB34502DD01A8805D00E03020D4E961
:1056200001219047206A401C2062761CAAF10100EB
:105630005FEA000A0AD100F0A3F8C0680168405C84
:10564000D4E901219047206A401C2062281EA5F160
:105650000105DCDC07E0D4E9012118F8010B9047D3
:10566000206A401C2062381EA7F10107F3DC2046A7
:10567000AFF30080032011B041E6000001694A1C2D
:1056800002610878704700B58FB0CDE90131002183
:10569000059105497944CDE9031011466846FFF7A5
:1056A000EBFC0FB000BD0000E5FFFFFF0A6802F849
:1056B000010B0A6070470000074B70B50D467B4434
:1056C000FFF7E1FF0446284600F082F910B14FF0E1
:1056D000FF3070BD204670BD83D5FFFF0FB400239F
:1056E00000B589B00CA900910B99CB60214B7B448C
:1056F0000693214B7B44079304236FF00042CDE9CE
:1057000001321E4A7A446B4608920246002002F09B
:105710004BFC09B05DF814FB70B506464FF0FF3046
:1057200015460C46324686B00091CDE90101694626
:105730000020049004A8FFF7D1FF02460498211826
:1057400025B108B1084600E02046286004980028EA
:105750000DD0002A02DD0098884208D03246081B8E
:1057600069460094CDE9010404A8FFF7B7FF06B02D
:1057700070BD0000BB010000D30100001301000058
:10578000004870475403002000487047340300204D
:1057900030B5B0F10A024FEA900E71F100034EEA03
:1057A000817EB0EB0E0061EB91014FEA101E4EEAD4
:1057B000017E10EB0E0041EB11114FEA102E4EEA64
:1057C000016E10EB0E0041EB11214FEA104E4EEA34
:1057D000014E10EB0E0041EB1141401841F1000168
:1057E0004FEAD00040EA41704FEAD10110EB80054A
:1057F0004FEA810444EA907444EB01046D1944EBD0
:105800000404521BA3414FF0000348BF0A3200D5E5
:1058100030BD401C41F1000130BD10B5044600F020
:1058200005F90068005D00F0010010BD2DE9F041B0
:105830001F46044603260168072A01F4006004DBC2
:1058400008B116A505E016A503E008B115A500E00E
:1058500015A521F010002060A069C01EA0610FB145
:10586000401EA0612046AFF300804FB1D4E9012172
:1058700038469047206A401C2062C01C206206E027
:10588000206AFAE7D4E9012115F8010B9047761E4A
:10589000F8D22046AFF30080BDE8F0814E414E00C3
:1058A0006E616E00494E4600696E6600426842B104
:1058B000016811F8013B23B1521EC0E900121846DD
:1058C00070470121C160881E704742685AB1C368A1
:1058D000016843B983688B4205D0491E521CC0E958
:1058E0000012002070474FF0FF3070472DE9F0475D
:1058F000814616468AB0354878440DC88DE80D00BB
:1059000032487844801C03AC0DC884E80D0041F691
:105910009B300844372190FBF1F290FBF1F5A5F1A3
:10592000800501FB12041B3C02D56442012000E00B
:105930000020DFF898A080460027FA44AAF1BE0AAA
:105940000EE0E0070AD03246684607EB4701012324
:105950000AEB810101F06CF88DE8070064107F1CF0
:10596000002CEED1194F7F44AE3F19E0E80715D067
:1059700007EB04100DF1180A90E80E008AE80E00FB
:10598000C068F04201D1981908903246012306A957
:1059900003A801F04DF803AB83E807006D10641C09
:1059A000002DE3D14FF0010332466946B8F1000FF4
:1059B00003A802D001F012F801E001F039F8C9E9BA
:1059C0000001C9F808200AB0BDE8F087D839000006
:1059D000007B00F0800070470048704734030020CF
:1059E0007546FFF7F9FFAE4605006946534620F0BD
:1059F0000700854618B020B5FDF7D0F9BDE8204076
:105A00004FF000064FF000074FF000084FF0000B7A
:105A100021F00701AC46ACE8C009ACE8C009ACE82D
:105A2000C009ACE8C0098D467047000010B5FFF70B
:105A3000A7FE001D10BD00BFED1400002DE9FF4FB3
:105A400006468BB00878FF2806D0491C2D2805D0C3
:105A500000244FF0000908E000200CE00124F8E7E2
:105A600009EB8903491C00EB43090878FF28F7D1AB
:105A700014B1C9F100008146107800252C46AA46D1
:105A800029462D2801D02B2804D1521C2D2813D0B3
:105A9000002082468B461078FF280FD04FF0000C74
:105AA0000A21521CA5FB017804FB018105FB0C11A6
:105AB000C5194BEB0104EEE70120EAE70021084697
:105AC0004FF00000BAF1000F02D000EB8000400858
:105AD000C0F38157012F01DD4FF0FF370E9955EAD2
