:020000040800F2
:10000000C80E002071430008410D0008430D000890
:10001000470D00084B0D00084F0D000800000000C0
:10002000000000000000000000000000530D000868
:10003000550D000800000000570D0008590D00087C
:100040008B4300088B4300088B4300088B43000858
:100050008B4300088B4300088B4300088B43000848
:100060003B240008792400088B4300088B430008D8
:100070008B4300088B4300088B4300088B43000828
:100080008B4300088B4300088B4300088B43000818
:100090008B4300088B4300088B4300088B43000808
:1000A0008B4300088B4300088B4300088B430008F8
:1000B0008B430008C72D0008112E00088B43000851
:1000C0008B4300088B4300088B4300088B430008D8
:1000D0008B430008E5420008112200088B4300080A
:1000E0008B4300088B4300088B43000800F002F8A4
:1000F00000F074F80AA090E8000C82448344AAF14E
:100100000107DA4501D100F069F8AFF2090EBAE84B
:100110000F0013F0010F18BFFB1A43F0010318473B
:1001200048A4000068A4000010F8013B0A4413F042
:10013000030408BF10F8014B1D1108BF10F8015B44
:10014000641E05D010F8016B641E01F8016BF9D133
:10015000002D15D010F8014B03F00C030C2BA1EB74
:1001600004040ABF10F8013BA4EB8314A4EB03249E
:1001700005F1010314F8016B5B1E01F8016BF9D561
:10018000914238BF10F8013BD1D3704700230024BF
:1001900000250026103A28BF78C1FBD8520728BF97
:1001A00030C148BF0B607047662908F0D9876429C1
:1001B00006F04E82002070471FB506F0A5FE040031
:1001C0000020002108F06EFA401C60600020002131
:1001D00008F052FAE0601FBD10B510BD06F0C0FF78
:1001E0001146FFF7E9FF00F0DFF807F063FA03B408
:1001F000FFF7F2FF03BC04F01BF8000070B50446E3
:10020000254600262E21204606F0E5FA054615B1C2
:10021000281BC6B200E00026304670BD2DE9F04133
:1002200005468846164600BF6C1E0120074608E0BA
:10023000611E715C79430846641E07EB870040002D
:100240000746002CF4DABDE8F08110B50346002023
:1002500004E0541E241A1C5D0C54401C9042F8D338
:1002600000240C5410BDF0B58DB006460F46344640
:100270001422FEA108A806F007FB002508E004F000
:100280000F0008A90A5C28466D1C04A90A54240919
:10029000002CF4D1002004A948552A46694604A838
:1002A000FFF7D3FF6946384606F09FFA0DB0F0BD60
:1002B00030B5034600201946002270E012BB0C78CE
:1002C000413C062C16D2DFE804F00306090C0F129D
:1002D0004FF4206015E04FF4306012E04FF44060BE
:1002E0000FE04FF450600CE04FF4606009E04FF411
:1002F000706006E00C78303C4FF6FF7505EA04208C
:1003000000BF49E0012A21D10C78413C062C16D2CD
:10031000DFE804F00306090C0F1240F0A00014E01F
:1003200040F0B00011E040F0C0000EE040F0D0001E
:100330000BE040F0E00008E040F0F00005E00C7851
:10034000303C40EA0414A0B200BF25E0022A20D1CC
:100350000C78413C062C16D2DFE804F00306090CA9
:100360000F1240F00A0013E040F00B0010E040F0E4
:100370000C000DE040F00D000AE040F00E0007E038
:1003800040F00F0004E00C78303C0443A0B200BF02
:1003900002E0032A00D105E0491C541CE2B20C78AB
:1003A000002C8BD100BF30BDA4B0002023901F9043
:1003B000342112A806F09AFAB1A00068119000202A
:1003C00010900E900F9003F0C9FE4FF4A06004F05F
:1003D00073FD01F0EFFF00F088FF00F0AFFD02F0C9
:1003E000B1FD03F0D3FC41F61F41C72002F07FFCB2
:1003F0004FF4165001F025FF4FF6FF70A149088019
:100400000020A14908804FF6FF7001F090F801200C
:1004100010219EA2CDE9002102909A4803889A48B3
:1004200002880A21052001F026FD1F209649088038
:100430000120102198A2CDE9002102909148038863
:10044000914802881E21052001F015FD4FF47840E7
:100450008D4908800120102193A2CDE9002102904E
:1004600088480388884802883221052001F003FD6E
:100470004BF6404084490880012010218DA2CDE92F
:10048000002102907F4803887F4802885A21052076
:1004900001F0F1FC4FF6FF707B490880884889A184
:1004A0000CC812A806F0C0F811A912A806F0E0F9CD
:1004B00086488749874A884BCDE90132CDE9031048
:1004C0008648874B874A7E49009003C902F040F86E
:1004D0008549087008460078052804D006282DD0E4
:1004E000072869D14DE01020012300226E210090E1
:1004F000052001F0DEFA1020012300226E21009079
:100500000D2001F0D6FA1020012300226E21009068
:10051000152001F0CEFA4BF640405B4908800120DF
:10052000102112AACDE900210290564803885648AE
:1005300002886E211D2001F09EFC50E01020012356
:1005400000226E210090052001F0B3FA1020012353
:1005500000226E2100900D2001F0ABFA4BF64040D6
:10056000494908800120102112AACDE900210290FA
:1005700044480388444802886E21152001F07BFC22
:100580002DE01020012300226E210090052001F0B3
:1005900090FA4BF640403C4908800120102112AAF5
:1005A000CDE90021029037480388374802886E2140
:1005B0000D2001F060FC12E04BF64040324908800B
:1005C0000120102112AACDE9002102902D480388B4
:1005D0002D4802886E21052001F04DFC00BF00BFB0
:1005E000374903C903F046FA0022404BCDE90A011E
:1005F00008F084FBCDE90C0108F0ECFA80B21F9002
:100600003BA112A81F9A06F00FF812A806F011F9E4
:10061000C0B201460D9012A801F07BFE4FF40060BD
:1006200003F0D5FB6DE33348007800286CD14BF61E
:100630004040154908802548007808F00FFB2E4AF5
:100640002E4BCDE9080108F059FBCDE90C012048FB
:10065000007808F003FB2A4A2A4BCDE9040108F090
:100660004DFBCDE908011B4800784EE030313233B4
:10067000343536373839414243444546000000009E
:100680006D6C00005E0000205C000020B2C9D1F952
:10069000CAFDD6B53A000000B2C9D1F9B5E7D1B963
:1006A0003A302E3030305600C6F8B7A7C1F7C1BF78
:1006B0003A000000C9E8B6A8C1F7C1BF3A0000007F
:1006C00000000020252E33660000000016000020E8
:1006D000150000201400002013000020120000204C
:1006E000110000201000002019000020009879401F
:1006F0002564000017000020FCA9F1D24D62503F94
:100700007B14AE47E17A843FFBE008F0A7FAFE4A8B
:10071000FE4BCDE9000108F0F1FACDE90401FC48F7
:1007200000784FF47A714843FA49097801EBC10225
:1007300002EB011100EB8100F749097801EB81011F
:1007400000EB4101F54800780844019008F06FFA89
:10075000CDE90201DDE9042307F0ECFFCDE9060154
:10076000DDE9082307F0E6FFCDE90A01DDE90C2306
:1007700007F0E0FFEA4A03C2E948AFF2B8010CC84B
:1007800012A805F051FFE7A112A806F071F812A80F
:1007900006F04FF8C0B201460D9012A801F0B9FD65
:1007A0004FF6FF707E2364226E210090052000F03A
:1007B000F1FE0A2003F00FFD4FF6FF70DB490880C1
:1007C000DB48DC49DC4AD54BCDE90132CDE90310E9
:1007D000D148D04BCE4AD249009003C901F0B8FEAF
:1007E000D649087008460078052804D006282DD080
:1007F000072869D14DE01020012300226E210090CE
:10080000052001F056F91020012300226E210090EE
:100810000D2001F04EF91020012300226E210090DE
:10082000152001F046F94BF64040C04908800120F0
:10083000102112AACDE900210290C1480388BB48CB
:1008400002886E211D2001F016FB50E010200123CC
:1008500000226E210090052001F02BF910200123C9
:1008600000226E2100900D2001F023F94BF640404C
:10087000AE4908800120102112AACDE90021029082
:10088000AF480388A94802886E21152001F0F3FAC9
:100890002DE01020012300226E210090052001F0A0
:1008A00008F94BF64040A14908800120102112AA06
:1008B000CDE900210290A24803889C4802886E215D
:1008C0000D2001F0D8FA12E04BF64040974908801D
:1008D0000120102112AACDE9002102909848038836
:1008E000924802886E21052001F0C5FA00BF00BFC2
:1008F0000120944908708A4903C903F0BBF8924A61
:1009000003C28B488B498C4A844BCDE90032CDE938
:100910000210814B7F4A7E498848007801F0C4FE6E
:1009200010A920A801F019FD642003F054FC9DF8E3
:100930004000002871D04BF640407C4908800020E0
:1009400020A99DF84020885420A807F019FE7E4A6F
:1009500003C27D4903C903F084F8714A03C2704899
:10096000AFF2A0210CC812A805F05EFE11A912A8D2
:1009700005F07EFF4FF6FF707E2364226E2100900B
:10098000052000F007FE4FF6FF70684908806848B0
:100990006849694A614BCDE90132CDE903105E48EF
:1009A0005C4B5B4A5E49009003C901F0D1FD63498D
:1009B000087008460078052804D006282ED007289D
:1009C0006AD14EE01020012300226E210090052004
:1009D00001F06FF81020012300226E2100900D20FD
:1009E00001F067F81020012300226E2100901520ED
:1009F00001F05FF84BF640404C490880012010217F
:100A000012AACDE9002102904D4803884748028888
:100A10006E211D2001F02FFA51E053E01020012338
:100A200000226E210090052001F043F810200123E0
:100A300000226E2100900D2001F03BF84BF6404063
:100A40003A4908800120102112AACDE90021029024
:100A50003B480388354802886E21152001F00BFAC7
:100A60002DE01020012300226E210090052001F0CE
:100A700020F84BF640402D4908800120102112AA91
:100A8000CDE9002102902E480388284802886E2173
:100A90000D2001F0F0F912E04BF6404023490880A8
:100AA0000120102112AACDE90021029024480388D8
:100AB0001E4802886E21052001F0DDF900BF00BF4D
:100AC000002010900A21084600F091FA239010208F
:100AD0000EAB00900A214E20239A01F0A1FA1BA12F
:100AE00012A8DDE90E2305F09FFD1DA112A805F057
:100AF000BFFE12A805F09DFEC0B201460D9012A8DF
:100B000001F007FC10492DE09A9999999999B93FFC
:100B1000100000201100002012000020130000200F
:100B2000000000206D6C0D0A000000005C00002039
:100B300016000020150000201400002019000020DD
:100B40005E0000201700002008000020766F6C7403
:100B50006167655F6164633A252E336600000000BB
:100B60000D0A0000DDE90E2303C902F08CFF654A7F
:100B700003C26448AFF220010CC812A805F054FD6E
:100B800061A112A805F074FE12A805F052FEC0B2D1
:100B900001460D9012A801F0BCFB5A49DDE90E2375
:100BA00003C908F0EBF9CDE90C01DDE90E2307F0EC
:100BB0007DFE564A03C2554855A10CC812A805F03F
:100BC00033FDAFF2640112A805F052FE12A805F041
:100BD00030FEC0B201460D9012A801F09AFB4949BF
:100BE000DDE90E2303C908F0C9F921F00041CDE980
:100BF0000C01DDE90E2307F059FE444A03C24149C6
:100C0000DDE90E2303C908F0B9F921F00041444A97
:100C1000444BCDE90C0108F06FF924D23949DDE9E4
:100C20000E2303C908F068F91DD201203E4908705F
:100C300036480CC800203D4907F07CFDCDE90A018B
:100C40001F9808F00BF8CDE90801DDE90A2308F048
:100C500055F8CDE90C0107F0BDFF80B21F900020D0
:100C6000314908702FE02749DDE90E2303C908F058
:100C700085F921F000412A4A2A4BCDE90C0108F000
:100C80003BF920D21F49DDE90E2303C907F0FAFF23
:100C900019D20020244908701C480CC800202349A0
:100CA00008F06CF9CDE90A011F9807F0D7FFCDE9EC
:100CB0000801DDE90A2308F021F8CDE90C0107F06D
:100CC00089FF80B21F901AA112A81F9A05F0ACFCF0
:100CD000AFF2741112A805F0CBFD12A805F0A9FD22
:100CE000C0B201460D9012A801F013FB1F98B0F599
:100CF000006F03DC1F9803F06AF802E0002003F0A5
:100D000066F890E420000020760D0A0040000020E4
:100D100070657263656E746167653A252E3366008F
:100D20008DEDB5A0F7C6B03E380000200000F03FC2
:100D3000496E7075745F76616C75653A2564000064
:100D4000704700BFFEE700BFFEE700BFFEE700BF41
:100D5000FEE7704770477047704700000CB50020F1
:100D6000019000906C48006840F480306A49086047
:100D700000BF6948006800F4003000900198401CF2
:100D80000190009818B90198B0F5A06FF1D16248B0
:100D9000006800F4003010B10120009001E0002054
:100DA00000900098012843D15C48006840F0100092
:100DB0005A4908600846006820F0030008600846A9
:100DC000006840F00200086053484068524948609B
:100DD0000846406848600846406840F480604860C3
:100DE0000846406820F47C1048600846406840F49B
:100DF000E81048600846006840F08070086000BF56
:100E00004548006800F000700028F9D0424840686A
:100E100020F00300404948600846406840F0020066
:100E2000486000BF3C48406800F00C000828F9D139
:100E30000CBD10B5FFF792FF10BD10B53648006825
:100E400040F00100344908600846406834490840D1
:100E50003149486008460068324908402E49086018
:100E60000846006820F4802008600846406820F4A6
:100E7000FE0048604FF41F008860FFF7DAFF4FF074
:100E800000602949086010BD10B500210020002233
:100E9000214B5B6803F00C0121B1042906D008291D
:100EA00028D107E0214B224C236027E01F4B204C28
:100EB000236023E0184B5B6803F47010164B5B68EB
:100EC00003F48032022303EB904022B9194B4343D1
:100ED000174C23600DE0104B5B6803F4003323B123
:100EE000144B4343124C236003E0104B4343104C1C
:100EF000236003E00D4B0E4C236000BF00BF064B88
:100F00005B68C3F303130C4CE15C094B1B68CB40DB
:100F1000074C236010BD000000100240002002407A
:100F20000000FFF8FFFFF6FE08ED00E000127A0077
:100F30004800002000093D004C00002000B587B0AB
:100F400001214FF4047003F04FFD4FF4004003F013
:100F5000AFFC0120ADF8040000208DF8070001A9C6
:100F60002E4803F085FA2E4804F014F80020029071
:100F70008DF80C008DF80D004FF4602004900020D7
:100F8000059001208DF8180002A9254804F029F8E1
:100F90000121234804F051F8214804F070F800BF03
:100FA0001F4804F071F80028FAD11D4804F076F8C3
:100FB00000BF1B4804F077F80028FAD107B000BD45
:100FC00010B50446072301222146154804F0A1F874
:100FD0000121134804F071F800BF0221104804F009
:100FE000DDF90028F9D00E4804F0FAF810BD2DE91B
:100FF000F04107460C460025002608E03846FFF77A
:10100000DFFF0544052003F0E6F8701CC6B2A642D7
:10101000F4DBB5FBF4F080B2BDE8F08100100140D4
:10102000002401400021082114E000F0800222B1D8
:101030004FF40072FE4B1A6103E04FF40072FC4B58
:101040005A614FF48072FA4B5A611A614206100ECF
:101050004A1ED1B20029E8DC7047024600BF108961
:1010600000F002000028FAD0918100BF108900F042
:1010700001000028FAD09089C0B2704702884FF66C
:10108000C7731A400280012902D10288028003E05E
:10109000028842F020020280028842F04002028070
:1010A000704700B587B00121092003F09DFC4FF483
:1010B0002040ADF8040003208DF8060018208DF8BC
:1010C000070001A9DB4803F0D3F94FF48040ADF8E5
:1010D000040048208DF8070003208DF8060001A9C0
:1010E000D44803F0C5F941F20200ADF80400032032
:1010F0008DF8060010208DF8070001A9CD4803F0F7
:10110000B7F94FF48051CB4803F061FA0221C94886
:1011100003F05DFA0121880303F073FC0020ADF8B1
:1011200008004FF48270ADF80A000020ADF80C0002
:10113000ADF80E00ADF810004FF40070ADF81200DD
:101140000020ADF81400ADF816000720ADF8180027
:1011500002A9B94804F06CF90121B74804F00DFA6E
:1011600007B000BD10B504464FF48070B14914318A
:10117000086002200860E0B2FFF754FF4FF480706F
:10118000AC491031086010BD10B504464FF48070B2
:10119000A849143108600220091F08602046FFF7A3
:1011A00041FF4FF48070A3491031086010BD10B5A5
:1011B00004464FF480709F49143108600220091FD3
:1011C00008602012FFF72EFFE0B2FFF72BFF4FF46D
:1011D000807098491031086010BD30B505460C4646
:1011E0002846FFF7BFFFE0B2FFF7CEFF30BD00B5E6
:1011F00092490889FFF7B6FF00BDF0B504460D46D9
:1012000016461F468D494889FFF7ACFF2012FFF7AD
:10121000BBFFA11CC8B2FFF7B7FF3012FFF7B4FF46
:10122000B11CC8B2FFF7B0FF84498889FFF79AFF65
:101230002812FFF7A9FFE91CC8B2FFF7A5FF381273
:10124000FFF7A2FFF91CC8B2FFF79EFFFFF7CFFF21
:10125000F0BD30B504460D462B46224629462046B1
:10126000FFF7CBFF30BD30B504460D46294620467A
:10127000FFF7EFFF72480088FFF799FF30BD08B510
:101280000121182003F0B0FB4FF4E060ADF800003E
:1012900003208DF8020010208DF803006946644891
:1012A00003F0E6F84FF48170ADF80000694661483C
:1012B00003F0DEF808BD10B5642002F08CFF322088
:1012C00002F089FF10BD00B52C205C490881002088
:1012D00088718020088048802A2048812B208881BE
:1012E000C8213620FFF779FF00BD10B5FFF7C7FF13
:1012F000FFF7E1FF1120FFF735FF782002F06BFFC9
:10130000B120FFF72FFF0120FFF73EFF2C20FFF752
:101310003BFF2D20FFF738FFB220FFF723FF01200E
:10132000FFF732FF2C20FFF72FFF2D20FFF72CFFB8
:10133000B320FFF717FF0120FFF726FF2C20FFF750
:1013400023FF2D20FFF720FF0120FFF71DFF2C209A
:10135000FFF71AFF2D20FFF717FFB420FFF702FF5A
:101360000720FFF711FFC020FFF7FCFEA220FFF7C8
:101370000BFF0220FFF708FF8420FFF705FFC120C5
:10138000FFF7F0FEC520FFF7FFFEC220FFF7EAFEE1
:101390000A20FFF7F9FE0020FFF7F6FEC320FFF753
:1013A000E1FE8A20FFF7F0FE2A20FFF7EDFEC420C1
:1013B000FFF7D8FE8A20FFF7E7FEEE20FFF7E4FEF6
:1013C000C520FFF7CFFE0E20FFF7DEFE3620FFF729
:1013D000C9FEC820FFF7D8FEE020FFF7C3FE0F20AC
:1013E000FFF7D2FE1A20FFF7CFFE0F20FFF7CCFE4B
:1013F0001820FFF7C9FE2F20FFF7C6FE2820FFF7B1
:10140000C3FE2020FFF7C0FE2220FFF7BDFE1F20F5
:10141000FFF7BAFE1B20FFF7B7FE2320FFF7B4FE4D
:101420003720FFF7B1FE0020FFF7AEFE072009E0EE
:1014300000100140000C014000380040C0060020B0
:101440005C000020FFF7A0FE0220FFF79DFE1020A9
:10145000FFF79AFEE120FFF785FE0F20FFF794FECD
:101460001B20FFF791FE0F20FFF78EFE1720FFF7DE
:101470008BFE3320FFF788FE2C20FFF785FE292006
:10148000FFF782FE2E20FFF77FFE3020FFF77CFE65
:101490003020FFF779FE3920FFF776FE3F20FFF777
:1014A00073FE0020FFF770FE0720FFF76DFE03209C
:1014B000FFF76AFE1020FFF767FE2A20FFF752FEB3
:1014C0000020FFF761FE0020FFF75EFE0020FFF71F
:1014D0005BFE7F20FFF758FE2B20FFF743FE002026
:1014E000FFF752FE0020FFF74FFE0020FFF74CFEF3
:1014F0009F20FFF749FEF020FFF734FE0120FFF7A1
:1015000043FEF620FFF72EFE0020FFF73DFE3A20B7
:10151000FFF728FE0520FFF737FE2920FFF722FE00
:10152000FFF7D1FE4FF480501249086010BD70B52E
:10153000064611484088401E83B20F480088401E6E
:1015400082B200210846FFF758FE00240CE0002577
:1015500004E03046FFF72BFE681C85B20648408841
:10156000A842F6DC601C84B203480088A042EEDC8E
:1015700070BD0000100C0140C006002070B505468B
:101580000E46144631462846FFF763FE2046FFF715
:101590000EFE70BD2DE9F05F06460F4614461D464F
:1015A000A01B401C1FFA80FAE81B401C1FFA80FB9E
:1015B000681E83B2601E82B239463046FFF71DFEB8
:1015C0004FF000080FE04FF0000906E00A98FFF71F
:1015D000EEFD09F101001FFA80F9D145F6DB08F1B3
:1015E00001001FFA80F8D845EDDBFD484088401E19
:1015F00083B2FB480088401E82B200210846FFF7F4
:10160000FCFDBDE8F09F2DE9FF4F85B081468A467D
:101610000020049003900798A0EB09050898A0EB20
:101620000A06CDF80890CDF804A0002D01DD0127B1
:1016300005E00DB9002702E04FF0FF376D42002EA4
:1016400002DD4FF0010806E016B94FF0000802E095
:101650004FF0FF387642B54201DD2C4600E03446BB
:101660004FF0000B21E0019A91B2029A90B2FFF77D
:10167000FAFD049828440490039830440390049899
:10168000A04205DD0498001B0490029838440290A3
:101690000398A04205DD0398001B03900198404485
:1016A00001900BF101001FFA80FB601C8345DADD1D
:1016B00009B0BDE8F08F2DE9F04104460D4616460D
:1016C0001F462B46324629462046FFF79CFF3B46E5
:1016D000224629462046FFF796FF3B4632463946CA
:1016E0002046FFF790FF3B46324629463046FFF73B
:1016F0008AFFBDE8F081F8B504460D4616461F4640
:10170000B84800883B463246294600902046FFF7FD
:1017100041FFF8BD2DE9F04104460D4616461F462F
:10172000DDF81880EA1991B2A21990B24246FFF78B
:1017300025FFEA1991B2A21B90B24246FFF71EFFA5
:10174000EA1B91B2A21990B24246FFF717FFEA1BBB
:1017500091B2A21B90B24246FFF710FFAA1991B2B4
:10176000E21990B24246FFF709FFAA1991B2E21BB3
:1017700090B24246FFF702FFAA1B91B2E21990B263
:101780004246FFF7FBFEAA1B91B2E21B90B2424613
:10179000FFF7F4FEBDE8F0812DE9FF4F81B08246EE
:1017A00017469846DDF838B0002445464FEA480011
:1017B000C0F10306BBF1000F1FD01BE0A14608E0FB
:1017C0004B462246009750460299FFF7A3FF09F1C6
:1017D0000109A945F4DD002E04DA042000FB0460B1
:1017E000861D06E0601B042101FB006000F10A0673
:1017F0006D1E641CAC42E1DD18E015E02B4622466C
:10180000009750460299FFF785FF002E04DA042066
:1018100000FB0460861D06E0601B042101FB0060E4
:1018200000F10A066D1E641CAC42E7DD05B0BDE8A0
:10183000F08F2DE9FF4F83B081468A469346DDE95C
:101840001064684800880290A6F12000C6B204EB3C
:10185000D47009EB6000401E82B20AEB0400401E07
:1018600083B2514648460194FFF7C7FC129860BB0B
:10187000002527E00C2C07D106EB46005A4901EB66
:10188000800010F8058004E0584800EB061010F8BE
:10189000058000270FE008F0010020B10BF0FF00E9
:1018A000FFF772FC03E00699C8B2FFF76DFC4FEA40
:1018B0006808781CC7B204EBD471B7EB610FEADBA0
:1018C000681CC5B2A542D5DB2DE0002529E00C2C13
:1018D00007D106EB4600444901EB800010F8058073
:1018E00004E0424800EB061010F80580002711E0E4
:1018F0003C48A0F800B008F0010038B10AEB05023E
:1019000091B209EB070290B2FFF7ADFC4FEA68080D
:10191000781CC7B204EBD471B7EB610FE8DB681C2D
:10192000C5B2A542D3DB2F49029808802C484088D5
:10193000401E83B22A480088401E82B20021084619
:10194000FFF75BFC07B0BDE8F08F2DE9FE4F0446C2
:101950000E4691460C9F2348008802900194009601
:10196000002561E01E480088401EA04204DB1C48A0
:101970004088401EB04201DABDE8FE8F3D783A2D26
:1019800001D10A2506E02E2D01D10B2502E0A5F19B
:101990003000C5B201944FF0000837E005EB450078
:1019A000134901EB001010F808A04FF0000B25E0E0
:1019B0000C48A0F800900AF0800018B1314620468B
:1019C000FFF751FC4FF6FF7000EA4A0A601C84B230
:1019D0000198201A0C280DD1019C701C86B210E0D1
:1019E000C00600205C00002060920008D496000829
:1019F000C49C00080BF1010000F0FF0BBBF1080FC5
:101A0000D6DB00BF08F1010000F0FF08B8F1300F8D
:101A1000C4DB0A2D03DA04F1100084B202E004F101
:101A2000080084B2009E7F1C38787E2802DC38785B
:101A3000202897DAFB490298088000BF9CE72DE92F
:101A4000FE4306460F4615461C46DDF828801DE07D
:101A5000F5480088401EB04204DBF3484088401E31
:101A6000B84201DABDE8FE8320788DE82101EF4815
:101A70000388EC48028839463046FFF7DAFE2846EC
:101A800005EBD07106EB61018EB2641C20787E28D4
:101A900002DC20782028DBDA00BFE3E710B502463D
:101AA000012000E050430B1EA1F10104E1B2F9D185
:101AB00010BD2DE9FF4F83B0074691461E46109C8E
:101AC0004FF0000A002543E0701B401EC1B20A20FF
:101AD000FFF7E4FFB9FBF0F00A21B0FBF1F201FBE4
:101AE0001208BAF1000F1BD1701EA84218DDB8F120
:101AF000000F13D101202021A346CDE9001402904C
:101B000004EBDB71491001FB057188B2C7490B88F2
:101B1000C4490A880499FFF78CFE17E04FF0010AC8
:101B2000012108F13000C0B2A346CDE90141009087
:101B300004EBDB71491001FB057188B2BB490B88CE
:101B4000B8490A880499FFF774FE00BF681CC5B243
:101B5000B542B9DB07B0BDE8F08F2DE9FC5F054663
:101B6000884691469A46DDF830B0009510200190E5
:101B700000245FE004EB0410AD4911F810009BF85D
:101B80000010884253D104EB0410A94901EB400036
:101B900040789BF80110884249D108F10F0083B2C8
:101BA00005F10F0082B241462846FFF726FB0026CA
:101BB0003BE0002734E00D9890B904EB04109C49F9
:101BC00001EB4000801C805D80213941084018B144
:101BD0004846FFF7ECFA21E05046FFF7E8FA1DE02F
:101BE0009048A0F8009004EB0410914901EB4000EC
:101BF000801C805D80213941084018B1414628464B
:101C0000FFF731FB681C85B20098281A102805D10F
:101C1000009D08F101001FFA80F803E0781CC7B2AC
:101C2000082FC8DB00BF701CC6B2202EC1DB00BF6E
:101C3000601C84B2019884429CDB7B484088401E33
:101C400083B279480088401E82B200210846FFF71F
:101C5000D4FABDE8FC9F2DE9FC5F05468846914615
:101C60009A46DDF830B000950B200190002467E023
:101C700004EB840000EB44106E4911F810009BF84F
:101C80000010884259D104EB840000EB44106949EC
:101C900001EB400040789BF8011088424DD108F1DB
:101CA000170083B205F1170082B241462846FFF7BC
:101CB000A4FA00263FE0002738E00D98A0B904EB15
:101CC000840000EB44105B4901EB4000801C805D08
:101CD00080213941084018B14846FFF768FA23E0EF
:101CE0005046FFF764FA1FE04E48A0F8009004EB5E
:101CF000840000EB44104F4901EB4000801C805DE4
:101D000080213941084018B141462846FFF7ABFA17
:101D1000681C85B20098281A182805D1009D08F182
:101D200001001FFA80F803E0781CC7B2082FC4DB5B
:101D300000BF701CC6B2482EBDDB00BF601C84B261
:101D40000198844294DB38484088401E83B236486C
:101D50000088401E82B200210846FFF74EFABDE817
:101D6000FC9F2DE9FC5F0546884691469A46DDF8C2
:101D700030B000950120019000246BE004EB84104A
:101D80002D4911F810009BF8001088425FD104EB38
:101D90008410294901EB400040789BF801108842EB
:101DA00055D108F11F0083B205F11F0082B24146F0
:101DB0002846FFF722FA002647E0002740E00D986A
:101DC00090B904EB84101C4901EB4000801C805D3D
:101DD00080213941084018B14846FFF7E8F92DE065
:101DE0005046FFF7E4F929E00E48A0F8009004EB14
:101DF0008410114901EB4000801C805D8021394135
:101E0000084018B141462846FFF72DFA681C85B2F4
:101E10000098281A202811D1009D08F101001FFA0E
:101E200080F80FE05C000020C00600205E0000206B
:101E3000049F000824A1000852A40008781CC7B21F
:101E4000082FBCDB00BF701CC6B2802EB5DB00BF04
:101E5000601C84B20198844290DBDF484088401EB9
:101E600083B2DD480088401E82B200210846FFF799
:101E7000C4F9BDE8FC9F2DE9FF4F83B006468846B4
:101E80009146DDE91147109DB2464FF0000B73E01B
:101E9000BBF1000F42D104EBD471CF4A1288A2EB00
:101EA0006101B14204DBCC494988091B414502DA92
:101EB00007B0BDE8F08F2878802802DD4FF0010BD5
:101EC0005AE028780D2806D108EB04001FFA80F8A4
:101ED00056466D1C20E00C2C01D0102C0FD1287818
:101EE0008DE891004A4641463046069BFFF7A1FC2B
:101EF000204604EBD07106EB61018EB20CE010219C
:101F000028788DE883004A4641463046069BFFF715
:101F100090FC06F1080086B26D1C2DE0AE480088EA
:101F2000001BB04204DBAC484088001B404500DA8F
:101F3000BEE74FF0000B202C08D1CDE900574A46F0
:101F400041463046069BFFF70CFF12E0182C08D1E3
:101F5000CDE900574A4641463046069BFFF77BFED7
:101F600007E0CDE900574A4641463046069BFFF759
:101F7000F4FDAD1C301986B22878002888D100BF46
:101F800096E72DE9FF4F83B004460F469046DDE902
:101F9000119A109D284604F04CFC86B28E4909889F
:101FA000A1EBC60000EBD071C1F34F0B04EB0B01AA
:101FB00088B28DE8200642463946069BFFF75BFF54
:101FC00007B0BDE8F08F2DE9F04706460F461546ED
:101FD00007F1270083B206F1270082B23946304666
:101FE000FFF70BF900240AE015F8149005EB440004
:101FF00090F8018049EA0820FFF7D9F8641CB4F58D
:10200000C86FF1DB74484088401E83B27248008874
:10201000401E82B200210846FFF7EFF8BDE8F087C6
:102020002DE9F04F89B081460C4693469A46002030
:1020300005900690079069A00068049068A0006869
:1020400003900020674908801FFA8BF008904FF634
:10205000FF70009004F1140083B209F13C0082B2D9
:1020600021464846FFF796FA12980423009021462D
:102070004846089AFFF71DFD089806F0EFFD5A4AFA
:102080005A4BCDE9000106F039FE07468846CAE9F9
:1020900000783A46434656A105A804F0C5FA03A9BC
:1020A00005A804F0E5FB4FF6FF70009004F128004E
:1020B00083B209F1500082B204F1140081B24846A3
:1020C000FFF768FA1F20474908800120102105AA60
:1020D000CDE90021029004F1140081B24648038842
:1020E000404802884846FFF7C6FEDAE9002110465C
:1020F00001F0B7FC05460E460022404B284631460B
:1021000006F03CFF21F000413D4A3E4BCDE9000185
:1021100006F0F2FE08D20022384B2846314606F07F
:10212000EBFE01D20025354E4FF6FF70009004F112
:10213000500083B209F1500082B204F13C0081B238
:102140000520FFF727FA2A46334629A105A804F0FF
:102150006BFA04A905A804F08BFB4FF478402149E1
:102160000880002213462846314606F007FF21F07A
:102170000041234A234BCDE9000106F0BDFE17D2F2
:10218000002213462846314606F07CFD10D201207D
:1021900010211DA2CDE90021029004F13C0081B282
:1021A000154803880F4802880520FFF764FE0FE0FA
:1021B0000120102105AACDE90021029004F13C0084
:1021C00081B20D480388074802880520FFF753FEB7
:1021D00009B0BDE8F08F0000C00600206D6C000063
:1021E000560000005C00002052B81E85EB515A3F9B
:1021F000252E3366000000005E0000200058BB4022
:102200008DEDB5A0F7C6B03EB4EDCEF300000000F2
:1022100010B540F22551624802F00AFE80B16048D4
:1022200002F086FDC4B25F480078402808DA5E48B4
:102230005C49097844545B480078401C594908704F
:1022400010BD10B586B004460121042002F0CCFB7D
:102250000121084602F0C8FB0121480402F0D1FB2D
:102260004020ADF8140010208DF8170003208DF8E1
:10227000160005A94D4802F0FBF80420ADF8140043
:1022800018208DF8170005A9484802F0F1F8082039
:10229000ADF8140048208DF8170005A9434802F056
:1022A000E7F80121480402F0C6FB00214FF400309A
:1022B00002F0C1FB01940020ADF80800ADF80A005F
:1022C000ADF80C00ADF810000C20ADF80E0001A91F
:1022D000334802F030FC26208DF8000001208DF8F4
:1022E000010003208DF8020001208DF803006846EC
:1022F00002F0E7FD012240F22551294802F0B3FC2B
:102300000121274802F0A3FC00202949086006B0FB
:1023100010BD70B505460E46012025490860002411
:102320000CE000BF40211E4802F06CFD0028F9D0EF
:10233000295D1B4802F0F8FC601CC4B2B442F0DB1B
:1023400000BF4021164802F05DFD0028F9D00020B2
:10235000144908701649086070BD2DE9F041074620
:102360000D46104806780024002028700A2001F04D
:1023700032FF0C48007886420FD176B100BF04E0EE
:102380000948005D3855601CC4B2B442F8DB05480A
:1023900000782870002003490870BDE8F081000033
:1023A0000044004062000020CE06002000080140EA
:1023B000980121420EB500F07FF80121084602F095
:1023C00013FB0221084602F069F904200190002065
:1023D0008DF808000C208DF8090001208DF80A0006
:1023E00001A803F093F90321022002F057F9082015
:1023F000019001208DF80A0001A803F087F9082058
:102400008DF8000002208DF8010003208DF80200F5
:1024100001208DF80300684602F053FD09208DF875
:10242000000002208DF8010001208DF802008DF8D7
:102430000300684602F045FD0EBD10B5042003F010
:10244000CBF9012814D10A2001F0C5FE042114485B
:1024500002F0A1F860B90120124908701249087011
:102460000121124803F002FE0021114803F0FEFD95
:10247000042003F0C2F910BD10B50A2001F0ABFE34
:102480000821074802F087F828B906480078012893
:1024900001D108490870082003F0AFF910BD000011
:1024A0000010014063000020680000200008004088
:1024B000000400406900002008B50121102002F04E
:1024C00093FA0C20ADF8000048208DF8030069460F
:1024D0001D4801F0CDFF08BD10B5044614B1012020
:1024E0001A49087019480078E8B10421164802F02A
:1024F00052F820B10821144802F04DF898B90A208A
:1025000001F069FE00201149087004210E4802F014
:1025100042F808B9012010BD08210B4802F03BF831
:1025200078B90220F7E70421074802F034F80128BF
:1025300007D10821044802F02EF8012801D10349EF
:1025400008700020E7E70000001001406400002050
:102550002DE9FF5F86B014461D4614AE96E8C0070D
:10256000002005908346049001900290039001A8FA
:102570000090FEA1DDE9062304F056F801A804F05E
:1025800058F9C0B205902E2101A804F024F900905A
:1025900001A90098401A00F0FF0BBBF1010F09D010
:1025A000BBF1020F1ED0BBF1030F36D0BBF1040FFD
:1025B00072D150E000202070287030709DF8040027
:1025C000303838709DF80600303888F800009DF8E3
:1025D0000700303889F800009DF8080030388AF884
:1025E00000005AE00020207028709DF80400303868
:1025F00030709DF80500303838709DF8070030388D
:1026000088F800009DF80800303889F800009DF82F
:10261000090030388AF800003FE0002020709DF863
:102620000400303828709DF80500303830709DF86F
:102630000600303838709DF80800303888F80000FF
:102640009DF80900303889F800009DF80A003038FC
:102650008AF8000021E09DF80400303820709DF8D1
:102660000500303828709DF80600303830709DF82D
:102670000700303838709DF80900303888F80000BD
:102680009DF80A00303889F800009DF80B003038BA
:102690008AF8000001E0FFE700BF00BF00200090C3
:1026A00005980AB0BDE8F09F2DE9F84F83460C4627
:1026B00015461E460AAF97E88007AE4800780B28FB
:1026C00004D00C287ED00D287DD108E30120AA4932
:1026D0000870AA480078401CA8490870084600788D
:1026E000082801DB012008704FF6FF70A44908801C
:1026F0004BF64040A3490880102000902278012327
:102700006E210520FFF7D5F9102000902A780123CB
:102710006E210D20FFF7CDF91020009032780123B3
:102720006E211520FFF7C5F9102000903A7801239B
:102730006E211D20FFF7BDF91020009098F80020B1
:1027400001236E212D20FFF7B4F91020009099F895
:10275000002001236E213520FFF7ABF910200090F7
:102760009AF8002001236E213D20FFF7A2F983484B
:10277000007808287DD2DFE800F07C04396CA1D312
:10278000F8F74FF6FF707E4908804BF640407D49D0
:1027900008804FF6FF707E230D226E2100900520E9
:1027A000FEF7F8FE10200090227801236E2105200C
:1027B000FFF77FF90020724908804FF47840714993
:1027C000088001E056E18EE200207E2345226E2142
:1027D00000903D20FEF7DEFE102000909AF80020C9
:1027E00001236E213D20FFF764F93EE14FF6FF70B3
:1027F000634908804BF64040624908804FF6FF70FD
:102800007E2345226E2100903D20FEF7C3FE10205E
:1028100000909AF8002001236E213D20FFF749F92E
:102820000020574908804FF478405649088000201E
:102830007E233D226E2100903520FEF7ABFE102056
:10284000009099F8002001236E213520FFF731F91F
:102850000BE14FF6FF704A4908804BF6404049496A
:1028600008804FF6FF707E233D226E2100903520B8
:1028700000E0F9E0FEF78EFE1020009099F80020AD
:1028800001236E213520FFF714F900203C49088010
:102890004FF478403B49088000207E2335226E218A
:1028A00000902D20FEF776FE1020009098F8002072
:1028B00001236E212D20FFF7FCF8D6E04FF6FF70C4
:1028C0002F4908804BF640402E4908804FF6FF7094
:1028D0007E2335226E2100902D20FEF75BFE102016
:1028E000009098F8002001236E212D20FFF7E1F8D9
:1028F0000020234908804FF47840224908800020B6
:102900007E2325226E2100901D20FEF743FE10201D
:1029100000903A7801236E211D20FFF7CAF8A4E049
:102920004FF6FF70164908804BF640401549088065
:102930004FF6FF707E2325226E2100901D20FEF7AA
:1029400029FE102000903A7801236E211D20FFF708
:10295000B0F800200A4908804FF4784009490880FF
:1029600000207E231D220FE04DE01BE0252E336664
:10297000000000006B000020170000207100002004
:102980005E0000205C0000206E2100901520FEF704
:1029900001FE10200090327801236E211520FFF7F0
:1029A00088F862E04FF6FF70FE4908804BF6404021
:1029B000FD4908804FF6FF707E231D226E21009096
:1029C0001520FEF7E7FD10200090327801236E21DC
:1029D0001520FFF76EF80020F24908804FF4784088
:1029E000F149088000207E2315226E2100900D20E1
:1029F000FEF7D0FD102000902A7801236E210D20D3
:102A0000FFF757F831E04FF6FF70E64908804BF6C4
:102A10004040E54908804FF6FF707E2315226E2165
:102A200000900D20FEF7B6FD102000902A780123BB
:102A30006E210D20FFF73DF80020DA4908804FF4A1
:102A40007840D949088000207E230D226E21009015
:102A50000520FEF79FFD10200090227801236E21B3
:102A60000520FFF726F800E000BF00BF0020CF4997
:102A7000087039E1CE48007808287DD2DFE800F000
:102A80007C042F5A87AFD7FD9AF80000C949087017
:102A900008460078401C0870084600780A2801DBC8
:102AA00000200870C34800788AF800000020BD4963
:102AB00008804FF47840BC49088000207E234522DE
:102AC0006E2100903D20FEF765FD102000909AF8E1
:102AD000002001236E213D20FEF7EBFFFAE099F87C
:102AE0000000B449087008460078401C0870084689
:102AF00000780A2801DB00200870AE48007889F8C9
:102B000000000020A74908804FF47840A6490880BB
:102B100000207E233D226E2100903520FEF73AFDF5
:102B20001020009099F8002001236E213520FEF737
:102B3000C0FFCFE098F800009E4908700846007872
:102B4000401C0870084600780A2801DB0020087045
:102B50009848007888F800000020924908804FF4D7
:102B600078409149088000207E2335226E21009014
:102B70002D20FEF70FFD00E0ABE01020009098F84C
:102B8000002001236E212D20FEF793FFA2E038786C
:102B90008849087008460078401C0870084600788C
:102BA0000A2801DB00200870824800783870002075
:102BB0007C4908804FF478407B49088000207E23C0
:102BC00025226E2100901D20FEF7E4FC10200090CD
:102BD0003A7801236E211D20FEF76BFF7AE03078F2
:102BE0007449087008460078401C08700846007850
:102BF0000A2801DB002008706E4800783070002041
:102C0000684908804FF478406749088000207E2397
:102C10001D226E2100901520FEF7BCFC10200090B4
:102C2000327801236E211520FEF743FF52E0287809
:102C30006049087008460078401C08700846007813
:102C40000A2801DB002008705A480078287000200C
:102C5000544908804FF478405349088000207E236F
:102C600015226E2100900D20FEF794FC102000909C
:102C70002A7801236E210D2000E002E0FEF719FF03
:102C800028E020784B49087008460078401C0870FE
:102C9000084600780A2801DB0020087045480078C3
:102CA000207000203F4908804FF478403E4908805A
:102CB00000207E230D226E2100900520FEF76AFC85
:102CC00010200090227801236E210520FEF7F1FEEE
:102CD00000E000BF00BF00203449087004E000207D
:102CE0003249087000E000BF00BFBDE8F88F7FB533
:102CF00005460C460121042001F083FEADF8085082
:102D0000ADF804400020ADF80A00ADF8060001A9B6
:102D1000294802F04FFE01221146274803F0C1F96D
:102D20000121254803F07CFC1E208DF800000320C3
:102D30008DF801008DF8020001208DF8030068462F
:102D400002F0BFF87FBD7FB505460C460121022089
:102D500001F057FEADF80850ADF804400020ADF882
:102D60000A00ADF8060001A9144802F023FE012272
:102D70001146124803F095F90121104803F050FC68
:102D80001D208DF8000003208DF801008DF8020051
:102D900001208DF80300684602F093F801210748EE
:102DA0000EE000005E0000205C0000206B000020B0
:102DB0007100002072000020000800400004004064
:102DC00003F054F97FBD10B586B001214F4803F0E0
:102DD00016FCB8B1142101A803F088FD4C48AFF2ED
:102DE00074410CC801A803F01FFC4AA101A803F01C
:102DF0003FFD01A803F01DFDC4B2214601A8FFF765
:102E000088FA00BF0121414803F00AFC06B010BD5A
:102E100010B50121404803F0F2FB002870D03F4874
:102E20000078012826D104213D4801F0B4FB60B9A7
:102E300000203C4908703C48006846281FD83A48A2
:102E40000068401C3849086019E0374800680328CA
:102E500008D90B20354908700020334908602F49F4
:102E600008700CE0002030490860304908702B4998
:102E7000087004E02B480078401C2A4908702C4850
:102E80000078012825D10821254801F084FB60B98C
:102E900000202449087024480068462819D8224890
:102EA0000068401C2049086013E01F4800680328A0
:102EB00008D90C201D49087000201B4908601C49D6
:102EC000087006E000201849086018490870184981
:102ED000087014480078FA2812DB002015490870A1
:102EE0001549087015490870154908700D49087092
:102EF0000021094803F0BAF80121044803F0B6F8AC
:102F00000121054803F08CFB10BD000000040040C7
:102F100020000020760D0A00000800406800002014
:102F20000010014078000020740000206B00002099
:102F30006900002063000020710000207200002062
:102F4000170000200021FE4A116051609160D1609D
:102F5000116151619161D1619163D16311645164D7
:102F6000F849F948C2E90810F849F948C2E90A10D5
:102F7000F848F949C2E90C010021F848C2E91210E9
:102F80001165516570472DE9FC5F04460D46914679
:102F90004FF00008B9F1010F03D0B9F1020F7DD154
:102FA000B6E2302743E007EB080000EBD0714E108B
:102FB000EB4800EBC600D0E900A352462046294664
:102FC00005F0DCFF21F00041E64AE74BCDE90001C6
:102FD00005F058FE05D8E54800EBC60103C9BDE879
:102FE000FC9FDF4800EBC600D0E900A35246204614
:102FF000294605F0C3FFDB4ADB4BCDE9000105F0B4
:103000007BFF02D206F1010811E0D54800EBC600B3
:10301000D0E900A352462046294605F0A3FFD14A35
:10302000D14BCDE9000105F067FF00D2771EB8450E
:10303000B9DDC84A5242CE4B2046294605F09EFFD4
:103040008246C84AC84B05F057FF17D8C94ACA4B31
:103050002046294605F086FF8246C24AC24B05F04B
:103060004BFF0BD2C54AC64B2046294605F086FFCA
:103070008246C44AC44B05F019FCB0E7BD4ABE4BBA
:103080002046294605F07AFF8246B64AB64B05F03F
:1030900033FF19D8BD4ABE4B204600E0DCE3294689
:1030A00005F060FF8246AF4AAF4B05F025FF0BD21B
:1030B000B84AB94B2046294605F060FF8246B74A18
:1030C000B74B05F0F3FB8AE7B04AB14B20462946DF
:1030D00005F054FF8246A34AA34B05F00DFF17D815
:1030E000B04AB14B2046294605F03CFF82469D4A36
:1030F0009D4B05F001FF0BD2AC4AAD4B2046294653
:1031000005F03CFF8246AB4AAB4B05F0CFFB66E7D0
:10311000A44AA54B2046294605F030FF8246914A35
:10312000914B05F0E9FE17D8A44AA54B2046294645
:1031300005F018FF82468B4A8B4B05F0DDFE0BD263
:10314000A04AA14B2046294605F018FF82469F4A17
:103150009F4B05F0ABFB42E7984A994B2046294626
:1031600005F00CFF82467F4A7F4B05F0C5FE17D85D
:10317000984A994B2046294605F0F4FE8246794A42
:10318000794B05F0B9FE0BD2944A954B204629465F
:1031900005F0F4FE8246934A934B05F087FB1EE749
:1031A0008C4A8D4B2046294605F0E8FE82466D4A42
:1031B0006D4B05F0A1FE17D88C4A8D4B2046294651
:1031C00005F0D0FE8246674A674B05F095FE0BD2AC
:1031D000884A894B2046294605F0D0FE8246874A18
:1031E000874B05F063FBFAE6804A814B204629466F
:1031F00005F0C4FE82465B4A5B4B05F07DFE17D8A6
:103200000022804B2046294605F0ACFE8246554AF6
:10321000554B05F071FE0BD24A4A7B4B204629469E
:1032200005F0ACFE8246794A794B05F03FFBD6E6C5
:103230000022744B2046294605F0A0FE8246494AEA
:10324000494B05F059FE17D8724A734B2046294660
:1032500005F088FE8246434A434B05F04DFE0BD8ED
:103260006E4A6F4B2046294605F088FE82466D4A1D
:103270006D4B05F01BFBB2E6664A674B20462946BC
:1032800005F07CFE8246374A374B05F035FE17D8ED
:10329000664A674B2046294605F064FE8246314A5D
:1032A000314B05F029FE0BD8624A634B2046294674
:1032B00005F064FE8246614A614B05F0F7FA8EE63E
:1032C0005A4A5B4B2046294605F058FE8246254A5D
:1032D000254B05F011FE17D8564A5A4B2046294671
:1032E00005F040FE82461F4A1F4B05F005FE0BD835
:1032F000554A564B2046294605F040FE8246544A20
:10330000544B05F0D3FA6AE64A4A4E4B204629460A
:1033100005F034FE8246134A134B05F0EDFD0DD83F
:10332000444A4D4B2046294605F01CFE82460D4A74
:103330000D4B05F0E1FD01D8484A91E09BE000000B
:10334000480700209A9999999999B93F1B2FDD2434
:103350000681853F7B14AE47E17A943F000024400C
:10336000900300208DEDB5A0F7C6B03E18050020F3
:103370001E85F13F8195438B6CE7F13F894160E504
:10338000D022F13F691D554D10752F3F273108ACF4
:103390001C5AF23F355EBA490C02F13FD2FBC6D748
:1033A0009E59323F37894160E5D0F23FF6285C8F65
:1033B000C2F5F03F1A170E846401333F1D5A643B77
:1033C000DF4FF33FA245B6F3FDD4F03FA94D9CDC9F
:1033D000EF50343F91ED7C3F355EF43F79E9263183
:1033E00008ACF03F38842A357BA0353F6DE7FBA958
:1033F000F1D2F53FA69BC420B072F03FC7BAB88D9A
:1034000006F0363F0000F63F9999F13F2F6EA30179
:10341000BC05323F0C022B8716D9F83FE7FBA9F118
:10342000D24DF03F58FE7C5BB054373F022B8716DD
:10343000D9CEFB3F560E2DB29DEFEF3F56F146E63B
:10344000913F383F9DEF0340B0726891ED7CEF3FB4
:10345000D5EAABAB02B5383F9DEF09405839B4C847
:10346000FE4B2046294605F089FD8246FC4AFD4B6D
:1034700005F01CFAB3E5FC4AFC4B2046294605F052
:103480007DFD8246FA4AFB4B05F036FD17D8FA4A15
:10349000FA4B2046294605F065FD8246F44AF54B75
:1034A00005F02AFD0BD8F64AF64B2046294605F0D2
:1034B00065FD8246F44AF54B05F0F8F98FE5EE4AD2
:1034C000EE4B2046294605F059FD8246E84AE94B75
:1034D00005F012FD17D8E44AED4B2046294605F0C9
:1034E00041FD8246E24AE34B05F006FD0BD8E94A6E
:1034F000E94B2046294605F01DF98246D84AE74B9C
:1035000005F0D4F96BE5E64800EBC60103C966E5B2
:10351000302742E007EB080000EBD0714E10E04886
:1035200000EBC600D0E900A352462046294605F02C
:1035300025FD21F00041CE4ACE4BCDE9000105F03A
:10354000A1FB04D8D74800EBC60103C947E5D4481E
:1035500000EBC600D0E900A352462046294605F0FC
:103560000DFDC34AC34BCDE9000105F0C5FC02D2F5
:1035700006F1010811E0CA4800EBC601D1E900A339
:1035800052462046294605F0EDFCB94AB94BCDE933
:10359000000105F0B1FC00D2771EB845BADD00226B
:1035A000C14B2046294605F0E9FC8246B04AB14BA2
:1035B00005F0A2FC17D80022BC4B2046294605F096
:1035C000D1FC8246AA4AAB4B05F096FC0BD2B84A16
:1035D000B84B2046294605F091FB8246B64AB74BC8
:1035E00005F0A8F8FBE40022B04B2046294605F080
:1035F000C5FC82469E4A9F4B05F07EFC17D80022F0
:10360000AF4B2046294605F0ADFC8246984A994BBF
:1036100005F072FC0BD2AB4AAB4B2046294605F0B5
:103620006DFB8246A94AAA4B05F084F8D7E4002234
:10363000A34B2046294605F0A1FC82468C4A8D4BBF
:1036400005F05AFC17D80022A24B2046294605F067
:1036500089FC8246864A874B05F04EFC0BD29E4A77
:103660009E4B2046294605F049FB82469C4A9D4BCD
:1036700005F060F8B3E40022964B2046294605F099
:103680007DFC82467A4A7B4B05F036FC17D8002237
:10369000954B2046294605F065FC8246744A754BD9
:1036A00005F02AFC0BD2914A914B2046294605F0A1
:1036B00025FB82468F4A904B05F03CF88FE40022B0
:1036C000894B2046294605F059FC8246684A694BD9
:1036D00005F012FC17D80022884B2046294605F039
:1036E00041FC8246624A634B05F006FC0BD2844AD9
:1036F000844B2046294605F001FB8246824A834BD3
:1037000005F018F86BE400227C4B2046294605F0B2
:1037100035FC8246564A574B05F0EEFB17D800227F
:103720007B4B2046294605F01DFC8246504A514BF2
:1037300005F0E2FB0BD2774A774B2046294605F08D
:10374000DDFA8246754A764B04F0F4FF47E4002226
:103750006F4B2046294605F011FC8246444A454BF2
:1037600005F0CAFB17D800226E4B2046294605F00B
:10377000F9FB82463E4A3F4B05F0BEFB0BD26A4A3C
:103780006A4B2046294605F0B9FA8246684A694BD9
:1037900004F0D0FF23E40022624B2046294605F0C6
:1037A000EDFB8246324A334B05F0A6FB18D80022C7
:1037B000614B2046294605F0D5FB82462C4A2D4B0D
:1037C00005F09AFB0CD25D4A5D4B2046294605F078
:1037D00095FA8246284A52425A4B04F0ABFF4CE419
:1037E0000022554B2046294605F0C8FB8246204A58
:1037F000204B05F081FB17D80022534B2046294669
:1038000005F0B0FB82461A4A1A4B05F075FB0BD83F
:103810004E4A4F4B2046294605F070FA8246124A1E
:103820004C4B04F087FF28E40022474B20462946F2
:1038300005F0A4FB82460E4A0E4B05F05DFB0CD84A
:103840000022454B2046294605F08CFB8246084A5B
:10385000084B05F051FB81E0FEE08CE076BEEF3FC7
:10386000FA7E6ABC7493383F560E2DB29DEF094024
:103870008DEDB5A0F7C6B03E1904560E2DB20C4022
:103880001D5A643BDF4FF13F0FD6FF39CC97373FCE
:103890009DEF0C4054E3A59BC420FA3F7493483F2E
:1038A00018050020900300200000594000006940E6
:1038B000691D554D10752F3F894160E5D022F13FBC
:1038C00000C07240D2FBC6D79E59323F355EBA491E
:1038D0000C02F13F000079401A170E846401333F57
:1038E000F6285C8FC2F5F03F00407F40A94D9CDC7C
:1038F000EF50343FA245B6F3FDD4F03F00E08540E1
:1039000038842A357BA0353F79E9263108ACF03F71
:1039100000008E40C7BAB88D06F0363FA69BC42083
:10392000B072F03F00408F402F6EA301BC05323FC4
:103930009A9999999999F13F0070974058FE7C5B4C
:10394000B054373FD24DF03F00409F4056F146E61D
:10395000913F383F9DEFEF3F0040AF400BD8E24A28
:10396000E24B2046294605F0C9F98246E04AE14B80
:1039700004F0E0FE13E40022DF4B2046294605F068
:10398000FDFA8246DD4ADE4B05F0B6FA17D8002272
:10399000DC4B2046294605F0E5FA8246D74AD84B4B
:1039A00005F0AAFA0BD8D84AD84B2046294605F08C
:1039B000A5F98246D64AD74B04F0BCFE13E4002298
:1039C000D04B2046294605F0D9FA8246CB4ACC4B4B
:1039D00005F092FA17D80022CF4B2046294605F071
:1039E000C1FA8246C54AC64B05F086FA0BD8CB4AC7
:1039F000CB4B2046294605F081F98246C94ACA4B7D
:103A000004F098FE13E40022C34B2046294605F03B
:103A1000B5FA8246B94ABA4B05F06EFA17D80022B9
:103A2000C24B2046294605F09DFA8246B34AB44B64
:103A300005F062FA0BD8B44ABD4B2046294605F082
:103A40005DF98246BB4ABC4B05F098FA13E4BB48CB
:103A500000EBC60103C90EE400BF00BF0020014611
:103A600009E470B504460D46012220462946FFF7B9
:103A70008AFA70BD70B504460D46022220462946DA
:103A8000FFF781FA70BD2DE9F0478AB014461D4654
:103A90000021AB48AB4AC2E900101046C0E902451C
:103AA000D0E902633246D0E90091484605F066FA53
:103AB000A44AC2E904011046D0E904633246A2A137
:103AC000A44802F0B1FDA4A1A24802F0D1FEA14891
:103AD00002F0AFFEC6B231469E48FEF71AFC994985
:103AE0000846D1E912633246D0E90291484605F012
:103AF00003FA26D29349D1E9046121F00041974AA3
:103B0000974B304605F0F8F902D24FF0000865E017
:103B10004FF001088B4800221346D0E9046130467B
:103B200005F0B0F85AD287480146D0E90463D1E9DC
:103B300010913246484604F0FDFD824AC2E9100168
:103B40004CE08048D0E914633246D0E902914846FF
:103B500005F098F826D27B49D1E9046121F00041B3
:103B60007E4A7F4B304605F0C7F902D24FF000087D
:103B700034E04FF00108734800221346D0E9046195
:103B8000304605F0B9F929D26E490846D1E90463F7
:103B90003246D0E91091484604F0CCFD694AC2E9AA
:103BA00010011BE06749D1E9046121F000416B4A33
:103BB0006B4B304605F0A0F902D24FF000080DE043
:103BC0004FF001085F48D0E904633246D0E9109114
:103BD000484604F0AFFD5B4AC2E910015948D0E9FC
:103BE000106332465FA15B4802F01EFD5AA159489E
:103BF00002F03EFE574802F01CFEC6B23146554860
:103C0000FEF787FB4F490846D1E906633246D0E903
:103C10000491484605F0B2F9CDE904014948D0E9DC
:103C20000C633246049805F069F8CDE90801404676
:103C300004F0FDFF81468A464249D1E90A633246D3
:103C4000514605F05BF8CDE900013E48D0E910632C
:103C50003246009805F052F8CDE904013948014692
:103C6000D0E90463D1E908913246484605F046F8A8
:103C7000CDE900013349D1E900633246019904F0EE
:103C800059FDCDE90201DDE9042304F053FDCDE93E
:103C90000601DDE9082304F04DFD2A4AC2E90E01C0
:103CA0001046D0E90E63324632A12A4802F0BCFC2D
:103CB00029A1284802F0DCFD264802F0BAFDC6B270
:103CC00031462448FEF725FB1E49D1E904011D4A6F
:103CD000C2E9060100202C4908701146D1E90E0105
:103CE0000AB0BDE8F0870000D5EAABAB02B5383FBB
:103CF000B0726891ED7CEF3F0040AF408DEDB5A014
:103D0000F7C6B03E0070B740FA7E6ABC7493383F85
:103D10005839B4C876BEEF3F0030BB400FD6FF39EC
:103D2000CC97373F1D5A643BDF4FF13F0058BB40F3
:103D30007493483F54E3A59BC420FA3F90030020AE
:103D400000000440480700206572723A252E336651
:103D50000000000010070020760D0A009A9999993A
:103D60009999C93F696E74656772616C3A252E3303
:103D7000660000007069642E766F6C746167653A46
:103D8000252E3366000000001800002010B500F05A
:103D900027F810BD70B505460C4600F038F8B02085
:103DA00000F0F1F800F074F8022000F0ECF800F0F8
:103DB0006FF8284600F0E7F800F06AF8204600F0B7
:103DC000E2F800F065F800F046F8002070BD70B52C
:103DD0000446E5B2261231462846FFF7DBFF70BDE8
:103DE00008B50121042000F0FFFD3020ADF80000EF
:103DF00010208DF8030001208DF802006946D44898
:103E000000F036FB3021D24800F0DFFB08BD10B5D2
:103E1000CF48006820F47000CD490860084600686B
:103E200040F4401008600120CA490860052000F0F5
:103E3000AEF90120C849C1F89001052000F0A7F9AA
:103E40000020C4490860052000F0A1F90020C24903
:103E5000C1F8900110BD10B5BD48006820F4700095
:103E6000BB4908600846006840F440100860002024
:103E7000B8490860052000F08AF90120B649C1F868
:103E80009001052000F083F90120B249086010BDBF
:103E900010B50024AE48006820F47000AC490860FA
:103EA0000846006840F4000008600020A949091F86
:103EB0000860052000F06BF90120A749C1F89401C2
:103EC000A449091F0860052000F061F907E0601CA3
:103ED000C4B2FA2C03DDFFF7BEFF012010BD9D48E0
:103EE000803800680028F2D19A49091F086000BF95
:103EF000F4E710B59648006820F470009449086013
:103F00000846006840F44010086000209149091FED
:103F100008609149C1F89401052000F038F90120AA
:103F20008C49091F0860052000F031F900208A49FA
:103F3000C1F89001052000F02AF9002085490860A9
:103F400010BD10B58248006820F4700080490860F8
:103F50000846006840F44010086001207D49086070
:103F600000207D49C1F89001052000F010F90120E2
:103F70007849091F0860052000F009F900207649FA
:103F8000C1F8900110BD70B504467148006820F476
:103F900070006F4908600846006840F440100860EF
:103FA000002518E000206B49091F0860052000F07B
:103FB000EEF8E0096849C1F89401052000F0E7F83F
:103FC00001206449091F0860052000F0E0F8600640
:103FD000040E681CC5B2082DE4DB00205D49091FF2
:103FE000086070BD70B5054600245948006820F48B
:103FF0007000574908600846006840F400000860F7
:1040000000261AE000205349091F0860052000F02F
:10401000BEF801205049C1F89001052000F0B7F822
:104020006006040E4B488038006808B1601CC4B2BA
:10403000012000F0ACF8701CC6B2082EE2DB15B906
:10404000FFF77FFF01E0FFF754FF204670BD70B51A
:1040500004463F48006820F470003D490860084667
:10406000006840F440100860002518E0002039493D
:10407000091F0860052000F08AF8E0093649C1F8F8
:104080009401052000F083F801203249091F0860DF
:10409000052000F07CF86006040E681CC5B2082DEF
:1040A000E4DB00202B49091F086070BD70B50025B6
:1040B0002748006820F47000254908600846006819
:1040C00040F40000086000202249091F0860052014
:1040D00000F05DF801202049C1F894011D49091F35
:1040E0000860052000F053F804E0681CC5B21948C8
:1040F0000068C4B217480068012801D1FF2DF4DB25
:1041000000201449091F0860204670BD70B50446A0
:10411000FFF77DFEB020FFF79AFFFFF7C7FF0220F1
:10412000FFF795FFFFF7C2FF2546E11704EB11618A
:104130000912A4EB0121C8B2FFF789FFFFF7B6FF10
:104140002012FFF784FFFFF7B1FFFFF784FE70BD79
:1041500000080140940121420000214210B56FF097
:10416000040000F0F8FE2E4800682E49B0FBF1F084
:104170002D4908700846007800EB4001C1EBC010E3
:104180004FF6FF7101EAC0002849088010BD0146C2
:10419000254A12784A434FF0E0235A6100229A617F
:1041A0001A46126942F001021A6100BF4FF0E02284
:1041B000106900F001021AB100F48032002AF5D033
:1041C0004FF0E022126922F001024FF0E0231A6161
:1041D00000229A6170470146144A12884A434FF000
:1041E000E0235A6100229A611A46126942F00102E4
:1041F0001A6100BF4FF0E022106900F001021AB10D
:1042000000F48032002AF5D04FF0E022126922F04B
:1042100001024FF0E0231A6100229A61704700000A
:104220004800002000127A00A0060020A20600200C
:1042300000BF704700BF4A4A128802F04002002ABD
:10424000F9D0C2B2464B1B1D1A80704710B586B01C
:104250000446012144F2040000F0C6FB4FF4007054
:10426000ADF8140003208DF8160018208DF8170003
:1042700005A93C4800F0FCF84FF48060ADF814004C
:1042800004208DF8170005A9364800F0F1F8252024
:104290008DF8000003208DF801008DF80200012048
:1042A0008DF80300684600F00CFE01940020ADF884
:1042B0000800ADF80A00ADF80C00ADF810000C20B5
:1042C000ADF80E0001A9264800F035FC012240F2AD
:1042D0002551234800F0C7FC0121214800F0B7FC1C
:1042E00006B010BD10B540F225511D4800F0A0FDEC
:1042F00010B31B4800F01CFDC4B21B48008800F43A
:104300000040C8B91848008800F4804060B10A2C09
:1043100003D000201449088020E01348008840F4AE
:1043200000401149088019E00D2C06D10E48008884
:1043300040F480400C49088010E00B480088C0F32E
:104340000D000A490C5408480088401C06490880A2
:1043500008460088C72801DD0020088010BD000045
:104360000038014000080140A8060020A0070020F6
:104370000948804709480047FEE7FEE7FEE7FEE7F9
:10438000FEE7FEE7FEE7FEE7FEE7FEE70448054935
:10439000054A064B704700003B0E0008ED00000880
:1043A000C8080020C80E0020C80A0020C80A002043
:1043B00010B50446CC48844208D10121042000F005
:1043C0002DFB0021042000F029FB46E0C748844271
:1043D00008D10121082000F021FB0021082000F075
:1043E0001DFB3AE0C248844208D10121102000F0B0
:1043F00015FB0021102000F011FB2EE0BD48844287
:1044000008D10121202000F009FB0021202000F02C
:1044100005FB22E0B848844208D10121402000F089
:10442000FDFA0021402000F0F9FA16E0B34884427A
:1044300008D10121802000F0F1FA0021802000F055
:10444000EDFA0AE0AE48844207D10121801500F060
:10445000E5FA0021A01500F0E1FA10BD10B5012128
:10446000084600F0DBFA0021012000F0D7FA10BD69
:104470002DE9F041024600250026002000230024FB
:10448000002791F803C00CF00F0591F803C00CF061
:10449000100CBCF1000F03D091F802C04CEA0505E6
:1044A00091F800C0BCF1000F31D0146800202BE05F
:1044B0004FF0010C0CFA00F3B1F800C00CEA03064F
:1044C0009E4220D183004FF00F0C0CFA03F7BC433F
:1044D00005FA03FC4CEA040491F803C0BCF1280F70
:1044E00006D14FF0010C0CFA00FCC2F814C00AE02F
:1044F00091F803C0BCF1480F05D14FF0010C0CFA44
:1045000000FCC2F810C0401C0828D1D31460B1F8D8
:1045100000C0BCF1FF0F34DD546800202EE000F134
:10452000080C4FF0010808FA0CF3B1F800C00CEACF
:1045300003069E4221D183004FF00F0C0CFA03F7C3
:10454000BC4305FA03FC4CEA040491F803C0BCF137
:10455000280F05D100F1080C08FA0CF8C2F81480F5
:1045600091F803C0BCF1480F07D100F1080C4FF0DF
:10457000010808FA0CF8C2F81080401C0828CED3B5
:104580005460BDE8F0814FF6FF7101800221817017
:104590000421C17070470246002093680B400BB1A4
:1045A000012000E0002070470146886880B2704713
:1045B00002460020D3680B400BB1012000E0002030
:1045C00070470146C86880B2704701617047416119
:1045D00070470AB1016100E041617047C1607047F6
:1045E0004FF480320A43826181618261826982690B
:1045F000704702460020434B18684FF680731840FE
:1046000040EA021008433F4B186070473E49C861BA
:104610007047F0B50A46002300240021002500F071
:104620000046B6F1004F02D1364EF16901E0354E39
:104630007168C0F3034583B200F44016B6F5401F1D
:1046400008D121F070612F4E766826F070662D4FEC
:104650007E6012E000F48016B6F5801F06D10326B6
:1046600006FA05F4A14341F0706106E0460D3601FB
:1046700003FA06F6B14341F0706122B1460D3601EE
:1046800003FA06F6314300F00046B6F1004F02D1BE
:104690001C4EF16101E01B4E7160F0BD30B500228F
:1046A0008B071C0F0F2303FA04F2164B08338C10F0
:1046B00053F824309343134C08348D1044F82530BC
:1046C00023468C1053F824308C07240F00FA04F48E
:1046D00023430C4C08348D1044F8253030BD0A4972
:1046E000DC3108607047000000080140000C014008
:1046F000001001400014014000180140001C01405E
:10470000002001400000014000002042DF48006816
:1047100040F00100DD49086008464068DC49084077
:10472000DA49486008460068DA490840D749086015
:104730000846006820F4802008600846406820F49D
:10474000FE0048604FF41F0088607047CF49096839
:1047500021F48031CD4A11601146096821F480218D
:104760001160B0F5803F03D0B0F5802F0ED106E088
:10477000C649096841F48031C44A116007E0C34961
:10478000096841F4A021C14A116000E000BF00BFE8
:10479000704710B501460022002300204A11012A6B
:1047A00002D1BA4C236806E0022A02D1B74C236A30
:1047B00001E0B64C636A01F01F02012494401C40E2
:1047C0000CB1012000E0002010BD38B500200090A1
:1047D0000024002500BF3120FFF7DBFF05460098CD
:1047E000401C00900098B0F5A06F01D0002DF2D0D1
:1047F0003120FFF7CEFF08B1012400E0002420465D
:1048000038BD01460020A14A106820F0F80040EAB7
:10481000C10010607047A049086070470246002040
:104820009A4B586820F47C1042EA01031843974BD6
:104830005860704798490866704701460020934ABF
:10484000506820F003000843506070478F4840686C
:1048500000F00C007047014600208C4A506820F0A0
:10486000F00008435060704701460020874A5068B6
:1048700020F4E06008435060704701460020834AFE
:10488000506820F4605040EAC1005060704729B180
:104890007E4A527A02437D4B5A7204E07B4A527A36
:1048A00082437A4B5A7270477B49D831086070470F
:1048B00001460020754A506820F44040084350608B
:1048C00070470021714A20321170704A82F820101E
:1048D000012802D004280AD104E001216B4A2032C9
:1048E000117005E00521694A2032117000E000BF17
:1048F00000BF70476949086070476449096A01430D
:10490000624A11627047654944390860704730B5A2
:1049100000210022002400235C4D6D6805F00C018D
:1049200021B1042905D0082923D105E05C4D05609B
:1049300022E05B4D05601FE0544D6D6805F4701278
:10494000524D6D6805F48034022505EB92421CB986
:10495000544D554305600BE04C4D6D6805F4003532
:104960001DB1504D5543056002E04D4D5543056066
:1049700002E04B4D056000BF00BF444D6D6805F07F
:10498000F0010909484D6B5C0568DD4045603F4D0D
:104990006D6805F4E061090A434D6B5C4568DD40D4
:1049A00085603A4D6D6805F46051C90A3E4D6B5CF7
:1049B0004568DD40C560354D6D6805F44041890BA3
:1049C0003A4D6B5CC568B5FBF3F5056130BD29B1A7
:1049D0002E4A526902432D4B5A6104E02B4A526918
:1049E00082432A4B5A61704729B1284A926902438F
:1049F000264B9A6104E0254A92698243234B9A61CF
:104A0000704729B1214AD2690243204BDA6104E0A0
:104A10001E4AD26982431D4BDA61704729B11B4A95
:104A2000D2680243194BDA6004E0184AD268824324
:104A3000164BDA60704729B1144A12690243134BCE
:104A40001A6104E0114A12698243104B1A617047DF
:104A500012494039086070470F49C86470470B49D4
:104A6000C87170470948406A40F080700749486241
:104A7000704701460020054A92680A400AB10120A9
:104A800000E0002070470149887270470010024022
:104A90000000FFF8FFFFF6FE0000424280044242A1
:104AA00000127A0000093D00AA060020BA06002084
:104AB00010B50446FB48844209D101218803FFF761
:104AC000ADFF00214FF48040FFF7A8FF32E0F64829
:104AD000844209D101214804FFF7ADFF00214FF4C2
:104AE0000030FFF7A8FF25E0F048844209D10121FA
:104AF0008804FFF7A0FF00214FF48020FFF79BFF01
:104B000018E0EB48844209D10121C804FFF793FF64
:104B100000214FF40020FFF78EFF0BE0E5488442B0
:104B200008D101210805FFF786FF00214FF480100E
:104B3000FFF781FF10BD2DE9F04786B005460E4610
:104B40000024A24600BFA1460027B08900B100BFE3
:104B50002F462C8A4CF6FF700440F08804432C82C8
:104B6000AC894EF6F3100440B0883189084371894E
:104B700008430443AC81AC8A4FF6FF400440B0893F
:104B80000443AC8201A8FFF7C2FEC648874202D1A7
:104B9000DDF810A001E0DDF80CA0A88900F40040C9
:104BA00040B10AEBCA0000EB0A1031684900B0FBC3
:104BB000F1F807E00AEBCA0000EB0A10316889003F
:104BC000B0FBF1F86420B8FBF0F004012009642187
:104BD00001FB1089A88900F4004040B1322000EBAD
:104BE000C900B0FBF1F000F00700044308E03220F8
:104BF00000EB09106421B0FBF1F000F00F0004435A
:104C00002C8106B0BDE8F0874FF4165101600021F9
:104C10008180C18001810C21418100218181704707
:104C200010B502460020108A4FF2FF0318400B888F
:104C30004C8823438C882343CC8823431843108219
:104C400010BD0021018041808180C180704721B169
:104C5000828942F40052828104E082894DF6FF731A
:104C60001A4082817047F0B50346002400260025D3
:104C7000002040F66A17B94200D100BF1846C1F3C0
:104C8000421401F01F06012707FA06F5012C01D195
:104C90000C3004E0022C01D1103000E014301AB1C5
:104CA00007682F43076002E00768AF430760F0BD65
:104CB0001AB1838A0B43838202E0838A8B43838207
:104CC0007047028A4FF6F0731A400282028A0A4342
:104CD0000282704782894FF2FF731A408281828973
:104CE0000A438281704721B1828942F002028281A7
:104CF00004E082894FF6FD731A4082817047028A70
:104D00004FF6DF731A400282028A0A43028270471A
:104D100021B1028A42F48042028204E0028A4BF608
:104D2000FF731A4002827047C1F308028280704705
:104D300001468888C0F308007047818941F001016D
:104D400081817047028BD2B20283028B42EA012238
:104D500002837047028B02F47F420283028B0A4374
:104D60000283704721B1828A42F02002828204E0ED
:104D7000828A4FF6DF731A408282704721B1828A9D
:104D800042F01002828204E0828A4FF6EF731A40EA
:104D90008282704721B1828A42F00802828204E056
:104DA000828A4FF6F7731A408282704721B1828956
:104DB00042F40042828103E08289C2F30E028281C2
:104DC000704721B1828A42F40062828204E0828AC2
:104DD0004FF2FF731A4082827047828A4FF6FB734C
:104DE0001A408282828A0A438282704721B1828A73
:104DF00042F00202828204E0828A4FF6FD731A407A
:104E00008282704702460020B1F5007F00D100BFCA
:104E100013880B400BB1012000E00020704701F423
:104E20000072B2F5007F00D100BFCA430280704714
:104E300070B50246002400230025002040F66A16C3
:104E4000B14200D100BFC1F3421501F01F0301269A
:104E500006FA03F3012D02D19689334006E0022DB4
:104E600002D1168A334001E0968A33400C120126A3
:104E700006FA04F41688344013B10CB1012000E0A6
:104E8000002070BD10B50022002340F66A14A14234
:104E900000D100BF0A1201249440A3B2DC43048075
:104EA00010BD0000003801400044004000480040B0
:104EB000004C00400050004031490143314A11602C
:104EC000704770B5002100230F22C47804B32D4C25
:104ED000246804F4E064C4F5E064210AC1F1040329
:104EE000CA40447804FA03F184781440214309014C
:104EF000254C0678A155047804F01F050124AC4028
:104F000005786D11AD0005F1E025C5F8004109E017
:104F1000047804F01F050124AC401C4D067876117E
:104F200045F8264070BD1A4A0A400243154B1B1F24
:104F30001A60704739B1134A121D12680243114BAF
:104F40001B1D1A6006E00F4A121D126882430D4BAA
:104F50001B1D1A607047042808D14FF0E021096931
:104F600041F004014FF0E022116107E04FF0E02131
:104F7000096921F004014FF0E0221161704700003F
:104F80000000FA050CED00E000E400E080E100E044
:104F900080FFFF1F10B50446FA48844208D1012162
:104FA0004015FFF73BFD00216015FFF737FD17E0C7
:104FB000F548844208D101210015FFF72FFD00219B
:104FC0002015FFF72BFD0BE0F048844208D10121AA
:104FD000C803FFF723FD00214FF40040FFF71EFD3B
:104FE00010BD30B50246002000235068E84C204038
:104FF0000D790C6844EA0524204350609068E54C24
:105000002040D1E902542C434D7944EA4504204321
:105010009060D06A20F470000C7C641EE4B22343DC
:1050200040EA0350D06230BD00210160017141713E
:105030008160C16001210174704721B1826842F032
:105040000102826003E0826822F001028260704700
:1050500021B1826842F48072826003E0826822F4A7
:1050600080728260704710B50023CBB21AB14468D9
:105070001C43446002E044689C43446010BD816866
:1050800041F0080181607047014600208A6802F003
:1050900008020AB1012000E000207047816841F059
:1050A000040181607047014600208A6802F0040212
:1050B0000AB1012000E00020704721B1826842F46B
:1050C000A002826003E0826822F4A002826070473E
:1050D000014600208A6802F480020AB1012000E043
:1050E0000020704710B50A4600210023416821F4D2
:1050F0006041531E41EA4331416010BD21B1426815
:1051000042F40062426003E0426822F400624260BE
:105110007047F0B504460D4600200021092D11DD31
:10512000E068A5F10A0606EB4607072606FA07F12E
:105130008843A5F10A0606EB460603FA06F1084382
:10514000E0600CE0206905EB4507072606FA07F149
:10515000884305EB450603FA06F108432061072A58
:105160000FDA606B561E06EB86071F2606FA07F15C
:105170008843561E06EB860605FA06F1084360636F
:1051800022E00D2A0FDA206BD61F06EB86071F26BA
:1051900006FA07F18843D61F06EB860605FA06F1E4
:1051A0000843206310E0E06AA2F10D0606EB8607D3
:1051B0001F2606FA07F18843A2F10D0606EB8606C4
:1051C00005FA06F10843E062F0BD21B1826842F4BD
:1051D0008012826003E0826822F48012826070474D
:1051E0000146C86C80B2704766484C300068704712
:1051F00021B1426842F48062426003E0426822F4D6
:1052000080624260704721B1426842F4805242603D
:1052100003E0426822F48052426070470A4600214F
:10522000816821F4E04111438160704721B18268B7
:1052300042F40042826003E0826822F4004282600D
:10524000704721B1826842F40212826003E08268F2
:1052500022F4021282607047014600208A6802F43C
:1052600000120AB1012000E000207047F0B50446AA
:105270001546002000220026092911DDE068A1F171
:105280000A0707EB470C072707FA0CF29043A1F136
:105290000A0707EB470703FA07F21043E0600CE048
:1052A000206901EB410C072707FA0CF2904301EB50
:1052B000410703FA07F210432061A06BC0F30156C7
:1052C000EF1C06F1010CA7EB0C0707EB870C1F275F
:1052D00007FA0CF29043EF1C06F1010CA7EB0C0748
:1052E00007EB870701FA07F21043A063F0BD10B582
:1052F0000A4600210023816B21F44011531E41EA2C
:105300000351816310BD08B5002300930090009BFA
:105310000B440093009B1A6008BD08B502460020AC
:105320000090009201F12800009B18440090009822
:10533000006880B208BD0A4600214168164B19403A
:105340001143416070474162826270470A46002102
:10535000416821F01F0111434160704740B1094984
:105360000831096841F40001064A0832116007E07B
:1053700004490831096821F40001024A0832116029
:10538000704700000024014000280140003C01401B
:10539000FFFEF0FFFDF7F1FFFFFD3FFF024600209B
:1053A00013680B400BB1012000E000207047CA4396
:1053B0000260704770B502460020002300240B12E3
:1053C0005568CEB205EA060415681D4015B10CB14A
:1053D000012000E0002070BD00220A12D3430360C8
:1053E0007047000010B50446BE48844208D1012130
:1053F0008014FFF713FB0021A014FFF70FFB16E04A
:10540000B948844208D101210014FFF714FB0021A0
:105410002014FFF710FB0AE0B448844207D10121B1
:10542000C013FFF708FB0021E013FFF704FB10BDDA
:1054300010B50022028802F441520B884C882343A5
:105440008C882343CC8823430C8923434C892343F2
:105450008C892343CC8923431A430280838B4FF2E8
:10546000FF74234083830B8A038210BD2DE9F04F24
:1054700085B005460C464FF0000902274FF00008A2
:105480004FF0010B0026B246A88B4FF240010840B6
:10549000A88302202884B5F81C90A068022801D1B6
:1054A00000BF38E0A08810B94FF0010B01E04FF0C9
:1054B000020B8D48854200D100E000BF6846FFF72F
:1054C00026FADDF800A0E088B0F5007F0AD14FEAA7
:1054D0001A2000EB80004000A168B0FBF1F0401DF5
:1054E00086B20BE04FEA4B10BAFBF0F000EB800005
:1054F0004000A168B0FBF1F0401D86B20A20B6FB67
:10550000F0F606F00108A6EB0800C0F34F074FF6CF
:10551000FF7000EA0828022F01DBFF2F02DD0227BF
:105520004FF00008E08840EA080038432884A0884B
:10553000A1890843618808432188084340F400603A
:1055400040EA0909A5F81C9005B0BDE8F08F0021DC
:10555000018041808180C180018141818181C1813F
:105560000721018270470021018041808180C18034
:105570000221816000218181704721B1028842F0BF
:105580004002028004E002884FF6BF731A40028096
:10559000704721B1828B42F48062828304E0828B67
:1055A0004FF6FF331A408283704730B50024002342
:1055B0000C110125A540ABB21AB185881D43858029
:1055C00002E085889D43858030BD1AB183880B43F6
:1055D000838002E083888B4383807047818170479A
:1055E0000146888970474FF6FF62914204D00288D5
:1055F00042F48072028004E002884FF6FF631A4092
:105600000280704721B1828842F00402828004E067
:1056100082884FF6FB731A408280704702884FF2EF
:10562000FF731A40028002880A4302807047018893
:1056300041F480510180704721B1028842F4005248
:10564000028004E002884DF6FF731A400280704722
:1056500002460020012901D0108B00E0908A70479B
:105660000146088A7047B1F5804F04D1028842F4A0
:105670008042028004E002884BF6FF731A400280E9
:1056800070470246002013890B400BB1012000E057
:1056900000207047CA4302817047F0B502460020DF
:1056A00000240023002501F00F070126BE40B4B2FC
:1056B0000B1101269E40B3B2968806EA03051689AF
:1056C000264016B10DB1012000E00020F0BD10B55C
:1056D000002201F00F040123A3409AB2D3430381B7
:1056E00010BD00000030014000380040003C004088
:1056F000002044490860091D0860091D0860091D53
:10570000086041483F4914310860704700213D4915
:105710008279002A3AD00A46126803689A430B46F7
:105720001A600A1D126803689A430B1D1A600279F9
:1057300011440A6803681A430A60324A0832126840
:1057400003689A432F4B08331A601A1D12680368C6
:105750009A432C4B0C331A604279102A0ED11A1F2F
:10576000126803681A43274B08331A601A1D12681F
:1057700003681A43234B0C331A600DE02149427928
:1057800011440A6803681A430A6005E0027911446B
:105790000A6803689A430A6070470021016001713A
:1057A0000C2141710021817170471649103109683F
:1057B0000143144A10321160704701460020114A1B
:1057C000143212680A400AB1012000E0002070473C
:1057D0000C49143108607047014600200022094B33
:1057E0001B6803EA0102074B14331B680B4013B11B
:1057F0000AB1012000E0002070470249143108601E
:105800007047000000040140FFFF0F0010B5044680
:10581000FE48844208D10121C014FFF7FFF800219F
:10582000E014FFF7FBF8C4E0B4F1804F08D1012188
:105830000846FFF700F900210120FFF7FCF8B8E067
:10584000F348844208D101210220FFF7F4F8002137
:105850000220FFF7F0F8ACE0EE48844208D10121C5
:105860000420FFF7E8F800210420FFF7E4F8A0E0A7
:10587000E948844208D101210820FFF7DCF8002123
:105880000820FFF7D8F894E0E448844208D10121C9
:105890001020FFF7D0F800211020FFF7CCF888E0A7
:1058A000DF48844208D101212020FFF7C4F80021FD
:1058B0002020FFF7C0F87CE0DA48844208D10121BB
:1058C0004014FFF7ABF800216014FFF7A7F870E071
:1058D000D548844209D10121C804FFF79FF800216F
:1058E0004FF40020FFF79AF863E0D048844209D1D2
:1058F00001210805FFF792F800214FF48010FFF70F
:105900008DF856E0CA48844209D101214805FFF7C5
:1059100085F800214FF40010FFF780F849E0C548F2
:10592000844208D101214020FFF785F80021402062
:10593000FFF781F83DE0C048844208D10121802072
:10594000FFF779F800218020FFF775F831E0BB48B8
:10595000844208D101218015FFF76DF80021A015C0
:10596000FFF769F825E0B648844209D1012108040F
:10597000FFF754F800214FF48030FFF74FF818E09C
:10598000B048844209D101214804FFF747F80021BB
:105990004FF40030FFF742F80BE0AB48844208D1E7
:1059A00001218804FFF73AF800214FF48020FFF727
:1059B00035F810BD00220288944B98420ED0994BC6
:1059C00098420BD0B0F1804F08D0914B984205D04F
:1059D000904B984202D0904B984204D14FF68F736F
:1059E0001A404B881A438D4B984207D08C4B9842F3
:1059F00004D04FF6FF431A40CB881A4302808B88AD
:105A000083850B880385814B98420BD0854B984248
:105A100008D08B4B984205D08A4B984202D08A4BD3
:105A2000984201D10B7A038601238382704770B5B7
:105A3000002400220023058C4FF6FE7635400584B5
:105A4000028C8388048B4FF68F752C40B51E2C403A
:105A50000D882C43751E2A400D892A434D882A4300
:105A60006A4DA8420BD06F4DA84208D0744DA84291
:105A700005D0744DA84202D0734DA84213D14FF601
:105A8000F7752A404D892A434FF6FB752A408D88C9
:105A90002A434FF6FF652B404FF6FF552B408D896B
:105AA0002B43CD892B4383800483CD888586028454
:105AB00070BD70B5002400220023058C4FF6EF76F0
:105AC00035400584028C8388048B48F6FF752C4092
:105AD0004FF6FF452C400D884FF6FF7606EA052568
