:020000040800F2
:100000009809002005360008A50B0008A70B00087A
:10001000AB0B0008AF0B0008B30B0008000000009A
:10002000000000000000000000000000B70B000806
:10003000B90B000800000000BB0B0008BD0B000856
:100040001F3600081F3600081F3600081F3600083C
:100050001F3600081F3600081F3600081F3600082C
:1000600073220008B12200081F3600081F3600085E
:100070001F3600081F3600081F3600081F3600080C
:100080001F3600081F3600081F3600081F360008FC
:100090001F3600081F3600081F3600081F360008EC
:1000A0001F3600081F3600081F3600081F360008DC
:1000B0001F3600080B2C00085F2C00081F360008B4
:1000C0001F3600081F3600081F3600081F360008BC
:1000D0001F36000879350008492000081F3600083F
:1000E0001F3600081F3600081F36000800F002F80F
:1000F00000F070F80AA090E8000C82448344AAF152
:100100000107DA4501D100F065F8AFF2090EBAE84F
:100110000F0013F0010F18BFFB1A43F0010318473B
:10012000789C0000989C00000A444FF0000C10F8E6
:10013000013B13F0070408BF10F8014B1D1108BF65
:1001400010F8015B641E05D010F8016B641E01F805
:10015000016BF9D113F0080F1EBF10F8014BAD1C55
:100160000C1B09D16D1E58BF01F801CBFAD505E073
:1001700014F8016B01F8016B6D1EF9D59142D6D3CD
:10018000704700000023002400250026103A28BFF5
:1001900078C1FBD8520728BF30C148BF0B607047F9
:1001A000662908F0F583642905F0A88300207047CC
:1001B0001FB506F011F804000020002107F0DEFB57
:1001C000401C60600020002107F0C2FBE0601FBD02
:1001D00010B510BD06F030F91146FFF7E9FF00F049
:1001E000E7F806F0D3FB03B4FFF7F2FF03BC03F01C
:1001F00069F9000070B50446254600262E212046E8
:1002000005F03FFC054615B1281BC6B200E00026EC
:10021000304670BD2DE9F0470546894616464FF039
:1002200000086C1E012007460FE0611E715C01FB97
:1002300007F008F0D7F98246414608F015F98046E4
:10024000641E07EB870040000746002CEDDABDE88E
:10025000F08710B50346002004E0541E241A1C5DEC
:100260000C54401C9042F8D300240C5410BDF0B53F
:100270008DB006460F4634461422FEA108A805F0AC
:1002800059FC002508E004F00F0008A90A5C284684
:100290006D1C04A90A542409002CF4D1002004A9DF
:1002A00048552A46694604A8FFF7D3FF69463846F1
:1002B00005F0F1FB0DB0F0BD30B503460020194646
:1002C000002270E012BB0C78413C062C16D2DFE80D
:1002D00004F00306090C0F124FF4206015E04FF4F0
:1002E000306012E04FF440600FE04FF450600CE0DB
:1002F0004FF4606009E04FF4706006E00C78303C29
:100300004FF6FF7505EA042000BF49E0012A21D11C
:100310000C78413C062C16D2DFE804F00306090CE9
:100320000F1240F0A00014E040F0B00011E040F0E7
:10033000C0000EE040F0D0000BE040F0E00008E02C
:1003400040F0F00005E00C78303C40EA0414A0B224
:1003500000BF25E0022A20D10C78413C062C16D2A1
:10036000DFE804F00306090C0F1240F00A0013E066
:1003700040F00B0010E040F00C000DE040F00D00EC
:100380000AE040F00E0007E040F00F0004E00C78B7
:10039000303C0443A0B200BF02E0032A00D105E0D4
:1003A000491C541CE2B20C78002C8BD100BF30BD2C
:1003B000A6B000BF002024902090342113A805F09F
:1003C000EBFBB1A00068129000201190109003F098
:1003D0000FF84FF4A06003F0B9FE01F007FF00F042
:1003E000B6FE00F0DDFC02F01BFE41F61F41C72007
:1003F00002F0A0FB4FF4165001F03FFE4FF6FF70E5
:10040000A24908800020A24908804FF6FF7000F042
:10041000C0FF012010219FA2CDE9002102909B483E
:1004200003889B4802880A21052001F056FC1F2002
:10043000974908800120102199A2CDE9002102905E
:1004400092480388924802881E21052001F045FC4D
:100450004FF478408E4908800120102194A2CDE904
:1004600000210290894803888948028832210520AA
:1004700001F033FC4BF640408549088001201021F3
:100480008EA2CDE90021029080480388804802882E
:100490005A21052001F021FC4FF6FF707C490880AD
:1004A0008948006807F0B4FF02460B46CDE90E010B
:1004B00086A113A805F00EFA12A913A805F02EFBC9
:1004C00084488549854A864BCDE90032CDE9021042
:1004D000844B854A85497C48006801F055FF844972
:1004E000087008460078052804D006282DD0072873
:1004F00069D14DE01020012300226E2100900520DB
:1005000001F009FA1020012300226E2100900D2035
:1005100001F001FA1020012300226E210090152025
:1005200001F0F9F94BF640405949088001201021AB
:1005300013AACDE900210290544803885448028848
:100540006E211D2001F0C9FB50E010200123002284
:100550006E210090052001F0DEF910200123002219
:100560006E2100900D2001F0D6F94BF6404048492D
:1005700008800120102113AACDE9002102904348F0
:100580000388434802886E21152001F0A6FB2DE068
:100590001020012300226E210090052001F0BBF9FC
:1005A0004BF640403A4908800120102113AACDE9BA
:1005B0000021029035480388354802886E210D20BD
:1005C00001F08BFB12E04BF64040314908800120DE
:1005D000102113AACDE9002102902C4803882C4851
:1005E00002886E21052001F078FB00BF00BF36486D
:1005F000006802F0FCFB0B9007F00AFF00223D4B65
:10060000CDE90C0107F0E6FCCDE90E0107F04EFC48
:1006100080B2209038A113A8209A05F05BF913A8A6
:1006200005F05DFAC0B201460F9013A801F08DFDF0
:10063000209802F016FDADE230480078002818D16D
:100640004BF64040124908802248007807F072FCBF
:100650002B4A2C4BCDE9080107F0BCFCCDE90C017D
:100660001D48007807F066FC274A284BCDE90401B5
:100670004EE052E130313233343536373839414289
:1006800043444546000000006D6C00002A00002035
:1006900028000020B2C9D1F9CAFDD6B53A00000041
:1006A000B2C9D1F9B5E7D1B93A302E303030560061
:1006B000C6F8B7A7C1F7C1BF3A000000C9E8B6A89D
:1006C000C1F7C1BF3A00000000000020252E3366AC
:1006D000000000000A00002009000020080000209F
:1006E0000700002006000020050000200400002074
:1006F0000D00002000987940256400000B000020C8
:10070000FCA9F1D24D62503F7B14AE47E17A843FA1
:1007100007F060FCCDE90801FE48007807F00AFC0C
:10072000FD4AFE4BCDE9000107F054FCCDE9040180
:10073000FB4800784FF47A714843FA49097801EB95
:10074000C10202EB011100EB8100F749097801EBCE
:10075000810100EB4100F54909780844019007F058
:10076000D2FBCDE90201DDE9042307F04FF9CDE921
:100770000601DDE9082307F049F9CDE90A01DDE9C1
:100780000C2307F043F9CDE90E0107F00DF9E84914
:1007900008600846006807F03BFE02460B46CDE9BC
:1007A0000E01AFF2D80113A805F094F8E1A113A847
:1007B00005F0B4F913A805F092F9C0B201460F9004
:1007C00013A801F0C2FC4FF6FF707E2364226E2155
:1007D0000090052000F010FE0A2002F046FE4FF6C1
:1007E000FF70D6490880D648D649CA4ACF4BCDE9D2
:1007F0000032CDE90210CC4BCA4AC949CC48006846
:1008000001F0C2FDD049087008460078052804D0E0
:1008100006282DD0072869D14DE0102001230022A1
:100820006E210090052001F076F8102001230022AF
:100830006E2100900D2001F06EF81020012300229F
:100840006E210090152001F066F84BF64040BB4940
:1008500008800120102113AACDE900210290BB4895
:100860000388B64802886E211D2001F036FA50E058
:100870001020012300226E210090052001F04BF88A
:100880001020012300226E2100900D2001F043F87A
:100890004BF64040A94908800120102113AACDE958
:1008A00000210290A9480388A44802886E211520DF
:1008B00001F013FA2DE01020012300226E21009098
:1008C000052001F028F84BF640409C4908800120A3
:1008D000102113AACDE9002102909C480388974873
:1008E00002886E210D2001F0F8F912E04BF640402D
:1008F000924908800120102113AACDE9002102901D
:10090000924803888D4802886E21052001F0E5F9A0
:1009100000BF00BF01208E490870894889497D4A7F
:10092000824BCDE90032CDE902107F4B7D4A7C49F4
:100930008548007801F0DBFD11A921A801F029FC10
:10094000642002F092FD9DF8440000286FD04BF621
:1009500040407A49088021A806F07EFFCDE90E01CB
:1009600007F022F8724908600846006807F050FD59
:1009700002460B46CDE90E01AFF2B02113A804F0F8
:10098000A9FF12A913A805F0C9F84FF6FF707E233E
:1009900064226E210090052000F02EFD4FF6FF70BE
:1009A00066490880664867495A4A604BCDE900327B
:1009B000CDE902105C4B5B4A59495D48006801F083
:1009C000E3FC6149087008460078052804D0062831
:1009D0002ED007286AD14EE01020012300226E217C
:1009E0000090052000F097FF1020012300226E21C7
:1009F00000900D2000F08FFF1020012300226E21B7
:100A00000090152000F087FF4BF640404B490880CE
:100A10000120102113AACDE9002102904B48038840
:100A2000464802886E211D2001F057F951E053E03D
:100A30001020012300226E210090052000F06BFFA2
:100A40001020012300226E2100900D2000F063FF92
:100A50004BF64040394908800120102113AACDE906
:100A60000021029039480388344802886E211520FD
:100A700001F033F92DE01020012300226E210090B7
:100A8000052000F048FF4BF640402C49088001202B
:100A9000102113AACDE9002102902C480388274891
:100AA00002886E210D2001F018F912E04BF640404B
:100AB000224908800120102113AACDE900210290CB
:100AC000224803881D4802886E21052001F005F99F
:100AD00000BF00BF002011900A21084600F0B9F9BC
:100AE0002490102010AB00900A214E20249A01F08F
:100AF000C9F90F48006802F07AF90B9007F088FCFA
:100B00000022144BCDE90C0107F064FACDE90E0187
:100B100022E00000080000209A9999999999B93F1C
:100B2000040000200500002006000020070000202F
:100B3000000000206D6C0D0A00000000280000205D
:100B40000A000020090000200D0000202A000020DB
:100B50000B0000200098794007F0A8F980B220909F
:100B60000D481099006802F057F90C4908600846D2
:100B7000006807F04DFC0022094BCDE90C0107F09D
:100B800029FACDE90E0107F091F980B22090209862
:100B900002F067FA50E5000000000020100000207D
:100BA00000987940704700BFFEE700BFFEE700BF36
:100BB000FEE700BFFEE770477047704770470000D0
:100BC0000CB50020019000906C48006840F4803023
:100BD0006A49086000BF6948006800F4003000906E
:100BE0000198401C0190009818B90198B0F5A06FC9
:100BF000F1D16248006800F4003010B1012000908B
:100C000001E0002000900098012843D15C48006872
:100C100040F010005A4908600846006820F00300C0
:100C200008600846006840F00200086053484068C9
:100C3000524948600846406848600846406840F4A9
:100C4000806048600846406820F47C104860084690
:100C5000406840F4E81048600846006840F0807042
:100C6000086000BF4548006800F000700028F9D017
:100C70004248406820F00300404948600846406808
:100C800040F00200486000BF3C48406800F00C00A3
:100C90000828F9D10CBD10B5FFF792FF10BD10B5B3
:100CA0003648006840F00100344908600846406852
:100CB00034490840314948600846006832490840D4
:100CC0002E4908600846006820F480200860084625
:100CD000406820F4FE0048604FF41F008860FFF772
:100CE000DAFF4FF000602949086010BD10B50021FF
:100CF00000200022214B5B6803F00C0121B1042984
:100D000006D0082928D107E0214B224C236027E098
:100D10001F4B204C236023E0184B5B6803F47010DA
:100D2000164B5B6803F48032022303EB904022B938
:100D3000194B4343174C23600DE0104B5B6803F4E1
:100D4000003323B1144B4343124C236003E0104B98
:100D50004343104C236003E00D4B0E4C236000BF57
:100D600000BF064B5B68C3F303130C4CE15C094BFB
:100D70001B68CB40074C236010BD000000100240F0
:100D8000002002400000FFF8FFFFF6FE08ED00E043
:100D900000127A001400002000093D001800002015
:100DA00000B587B001214FF4047002F067FF4FF4E3
:100DB000004002F0C7FE0120ADF8040000208DF8CD
:100DC000070001A92E4802F09DFC2E4803F02CFAE2
:100DD000002002908DF80C008DF80D004FF460207B
:100DE00004900020059001208DF8180002A92548E4
:100DF00003F041FA0121234803F069FA214803F086
:100E000088FA00BF1F4803F089FA0028FAD11D486C
:100E100003F08EFA00BF1B4803F08FFA0028FAD1C6
:100E200007B000BD10B5044607230122214615482E
:100E300003F0B9FA0121134803F089FA00BF022137
:100E4000104803F0F5FB0028F9D00E4803F012FB20
:100E500010BD2DE9F04107460C460025002608E0AC
:100E60003846FFF7DFFF0544052002F0FEFA701C4C
:100E7000C6B2A642F4DBB5FBF4F080B2BDE8F08167
:100E800000100140002401400021082114E000F07E
:100E9000800222B14FF40072FE4B1A6103E04FF45E
:100EA0000072FC4B5A614FF48072FA4B5A611A611E
:100EB0004206100E4A1ED1B20029E8DC70470246F5
:100EC00000BF108900F002000028FAD0918100BF15
:100ED000108900F001000028FAD09089C0B2704754
:100EE00002884FF6C7731A400280012902D1028896
:100EF000028003E0028842F020020280028842F071
:100F000040020280704700B587B00121092002F03D
:100F1000B5FE4FF42040ADF8040003208DF8060024
:100F200018208DF8070001A9DB4802F0EBFB4FF415
:100F30008040ADF8040048208DF8070003208DF8AC
:100F4000060001A9D44802F0DDFB41F20200ADF831
:100F5000040003208DF8060010208DF8070001A979
:100F6000CD4802F0CFFB4FF48051CB4802F079FC22
:100F70000221C94802F075FC0121880302F08BFEB2
:100F80000020ADF808004FF48270ADF80A00002090
:100F9000ADF80C00ADF80E00ADF810004FF4007085
:100FA000ADF812000020ADF81400ADF816000720CF
:100FB000ADF8180002A9B94803F084FB0121B74835
:100FC00003F025FC07B000BD10B504464FF4807057
:100FD000B1491431086002200860E0B2FFF754FF05
:100FE0004FF48070AC491031086010BD10B5044654
:100FF0004FF48070A849143108600220091F08606E
:101000002046FFF741FF4FF48070A349103108607C
:1010100010BD10B504464FF480709F49143108602C
:101020000220091F08602012FFF72EFFE0B2FFF731
:101030002BFF4FF4807098491031086010BD30B517
:1010400005460C462846FFF7BFFFE0B2FFF7CEFF8C
:1010500030BD00B592490889FFF7B6FF00BDF0B575
:1010600004460D4616461F468D494889FFF7ACFFDA
:101070002012FFF7BBFFA11CC8B2FFF7B7FF301269
:10108000FFF7B4FFB11CC8B2FFF7B0FF84498889ED
:10109000FFF79AFF2812FFF7A9FFE91CC8B2FFF774
:1010A000A5FF3812FFF7A2FFF91CC8B2FFF79EFF99
:1010B000FFF7CFFFF0BD30B504460D462B46224664
:1010C00029462046FFF7CBFF30BD30B504460D461C
:1010D00029462046FFF7EFFF72480088FFF799FF87
:1010E00030BD08B50121182002F0C8FD4FF4E060C2
:1010F000ADF8000003208DF8020010208DF80300E9
:101100006946644802F0FEFA4FF48170ADF80000C1
:101110006946614802F0F6FA08BD10B5642002F095
:10112000A4F9322002F0A1F910BD00B52C205C49D1
:101130000881002088718020088048802A2048810A
:101140002B208881C8213620FFF779FF00BD10B51C
:10115000FFF7C7FFFFF7E1FF1120FFF735FF78200A
:1011600002F083F9B120FFF72FFF0120FFF73EFFC8
:101170002C20FFF73BFF2D20FFF738FFB220FFF7B1
:1011800023FF0120FFF732FF2C20FFF72FFF2D2038
:10119000FFF72CFFB320FFF717FF0120FFF726FF13
:1011A0002C20FFF723FF2D20FFF720FF0120FFF762
:1011B0001DFF2C20FFF71AFF2D20FFF717FFB4208B
:1011C000FFF702FF0720FFF711FFC020FFF7FCFE2B
:1011D000A220FFF70BFF0220FFF708FF8420FFF794
:1011E00005FFC120FFF7F0FEC520FFF7FFFEC2207C
:1011F000FFF7EAFE0A20FFF7F9FE0020FFF7F6FEF0
:10120000C320FFF7E1FE8A20FFF7F0FE2A20FFF758
:10121000EDFEC420FFF7D8FE8A20FFF7E7FEEE20A0
:10122000FFF7E4FEC520FFF7CFFE0E20FFF7DEFE3E
:101230003620FFF7C9FEC820FFF7D8FEE020FFF7F1
:10124000C3FE0F20FFF7D2FE1A20FFF7CFFE0F20BC
:10125000FFF7CCFE1820FFF7C9FE2F20FFF7C6FED0
:101260002820FFF7C3FE2020FFF7C0FE2220FFF753
:10127000BDFE1F20FFF7BAFE1B20FFF7B7FE23209D
:10128000FFF7B4FE3720FFF7B1FE0020FFF7AEFEF8
:10129000072009E000100140000C01400038004028
:1012A000F001002028000020FFF7A0FE0220FFF739
:1012B0009DFE1020FFF79AFEE120FFF785FE0F202C
:1012C000FFF794FE1B20FFF791FE0F20FFF78EFE25
:1012D0001720FFF78BFE3320FFF788FE2C20FFF747
:1012E00085FE2920FFF782FE2E20FFF77FFE3020AB
:1012F000FFF77CFE3020FFF779FE3920FFF776FEFE
:101300003F20FFF773FE0020FFF770FE0720FFF776
:101310006DFE0320FFF76AFE1020FFF767FE2A200C
:10132000FFF752FE0020FFF761FE0020FFF75EFE90
:101330000020FFF75BFE7F20FFF758FE2B20FFF712
:1013400043FE0020FFF752FE0020FFF74FFE002073
:10135000FFF74CFE9F20FFF749FEF020FFF734FE19
:101360000120FFF743FEF620FFF72EFE0020FFF7D7
:101370003DFE3A20FFF728FE0520FFF737FE292023
:10138000FFF722FEFFF7D1FE4FF4805012490860AC
:1013900010BD70B5064611484088401E83B20F4804
:1013A0000088401E82B200210846FFF758FE002444
:1013B0000CE0002504E03046FFF72BFE681C85B2E8
:1013C00006484088A842F6DC601C84B203480088C6
:1013D000A042EEDC70BD0000100C0140F0010020C6
:1013E00070B505460E46144631462846FFF763FEA3
:1013F0002046FFF70EFE70BD2DE9F05F06460F4652
:1014000014461D46A01B401C1FFA80FAE81B401C16
:101410001FFA80FB681E83B2601E82B239463046D6
:10142000FFF71DFE4FF000080FE04FF0000906E047
:101430000A98FFF7EEFD09F101001FFA80F9D14586
:10144000F6DB08F101001FFA80F8D845EDDBFD4816
:101450004088401E83B2FB480088401E82B20021B3
:101460000846FFF7FCFDBDE8F09F2DE9FF4F85B072
:1014700081468A460020049003900798A0EB090556
:101480000898A0EB0A06CDF80890CDF804A0002D2E
:1014900001DD012705E00DB9002702E04FF0FF371D
:1014A0006D42002E02DD4FF0010806E016B94FF044
:1014B000000802E04FF0FF387642B54201DD2C46CD
:1014C00000E034464FF0000B21E0019A91B2029AFD
:1014D00090B2FFF7FAFD0498284404900398304432
:1014E00003900498A04205DD0498001B0490029824
:1014F000384402900398A04205DD0398001B039036
:101500000198404401900BF101001FFA80FB601C20
:101510008345DADD09B0BDE8F08F2DE9F0410446DE
:101520000D4616461F462B46324629462046FFF7F3
:101530009CFF3B46224629462046FFF796FF3B4646
:10154000324639462046FFF790FF3B463246294651
:101550003046FFF78AFFBDE8F081F8B504460D4636
:1015600016461F46B84800883B463246294600903A
:101570002046FFF741FFF8BD2DE9F04104460D4636
:1015800016461F46DDF81880EA1991B2A21990B2EA
:101590004246FFF725FFEA1991B2A21B90B24246DC
:1015A000FFF71EFFEA1B91B2A21990B24246FFF765
:1015B00017FFEA1B91B2A21B90B24246FFF710FF41
:1015C000AA1991B2E21990B24246FFF709FFAA198F
:1015D00091B2E21B90B24246FFF702FFAA1B91B202
:1015E000E21990B24246FFF7FBFEAA1B91B2E21B42
:1015F00090B24246FFF7F4FEBDE8F0812DE9FF4FBF
:1016000081B0824617469846DDF838B0002445463A
:101610004FEA4800C0F10306BBF1000F1FD01BE0EA
:10162000A14608E04B462246009750460299FFF734
:10163000A3FF09F10109A945F4DD002E04DA042015
:1016400000FB0460861D06E0601B042101FB0060B6
:1016500000F10A066D1E641CAC42E1DD18E015E0E5
:101660002B462246009750460299FFF785FF002E31
:1016700004DA042000FB0460861D06E0601B0421E0
:1016800001FB006000F10A066D1E641CAC42E7DD40
:1016900005B0BDE8F08F2DE9FF4F83B081468A4643
:1016A0009346DDE91064684800880290A6F12000A6
:1016B000C6B204EBD47009EB6000401E82B20AEBA4
:1016C0000400401E83B2514648460194FFF7C7FC10
:1016D000129860BB002527E00C2C07D106EB4600D2
:1016E0005A4901EB800010F8058004E0584800EBEF
:1016F000061010F8058000270FE008F0010020B167
:101700000BF0FF00FFF772FC03E00699C8B2FFF789
:101710006DFC4FEA6808781CC7B204EBD471B7EBD4
:10172000610FEADB681CC5B2A542D5DB2DE00025C0
:1017300029E00C2C07D106EB4600444901EB800060
:1017400010F8058004E0424800EB061010F8058010
:10175000002711E03C48A0F800B008F0010038B1C3
:101760000AEB050291B209EB070290B2FFF7ADFC5C
:101770004FEA6808781CC7B204EBD471B7EB610F6D
:10178000E8DB681CC5B2A542D3DB2F49029808806C
:101790002C484088401E83B22A480088401E82B2EE
:1017A00000210846FFF75BFC07B0BDE8F08F2DE98C
:1017B000FE4F04460E4691460C9F23480088029037
:1017C00001940096002561E01E480088401EA0425A
:1017D00004DB1C484088401EB04201DABDE8FE8FA1
:1017E0003D783A2D01D10A2506E02E2D01D10B2599
:1017F00002E0A5F13000C5B201944FF0000837E0D7
:1018000005EB4500134901EB001010F808A04FF05C
:10181000000B25E00C48A0F800900AF0800018B1F9
:1018200031462046FFF751FC4FF6FF7000EA4A0AA6
:10183000601C84B20198201A0C280DD1019C701CE8
:1018400086B210E0F001002028000020908A0008F5
:10185000048F0008F49400080BF1010000F0FF0B66
:10186000BBF1080FD6DB00BF08F1010000F0FF0854
:10187000B8F1300FC4DB0A2D03DA04F1100084B292
:1018800002E004F1080084B2009E7F1C38787E28B4
:1018900002DC3878202897DAFB490298088000BFDC
:1018A0009CE72DE9FE4306460F4615461C46DDF82B
:1018B00028801DE0F5480088401EB04204DBF34854
:1018C0004088401EB84201DABDE8FE8320788DE8EA
:1018D0002101EF480388EC48028839463046FFF77B
:1018E000DAFE284605EBD07106EB61018EB2641C6E
:1018F00020787E2802DC20782028DBDA00BFE3E7AE
:1019000010B50246012000E050430B1EA1F1010476
:10191000E1B2F9D110BD2DE9FF4F83B007469146E2
:101920001E46109C4FF0000A002543E0701B401E2D
:10193000C1B20A20FFF7E4FFB9FBF0F00A21B0FBC7
:10194000F1F201FB1208BAF1000F1BD1701EA84280
:1019500018DDB8F1000F13D101202021A346CDE9F5
:101960000014029004EBDB71491001FB057188B291
:10197000C7490B88C4490A880499FFF78CFE17E011
:101980004FF0010A012108F13000C0B2A346CDE9B1
:101990000141009004EBDB71491001FB057188B235
:1019A000BB490B88B8490A880499FFF774FE00BF49
:1019B000681CC5B2B542B9DB07B0BDE8F08F2DE9B0
:1019C000FC5F0546884691469A46DDF830B00095A2
:1019D0001020019000245FE004EB0410AD4911F8E1
:1019E00010009BF80010884253D104EB0410A94961
:1019F00001EB400040789BF80110884249D108F182
:101A00000F0083B205F10F0082B241462846FFF76E
:101A100026FB00263BE0002734E00D9890B904EB4C
:101A200004109C4901EB4000801C805D80213941FD
:101A3000084018B14846FFF7ECFA21E05046FFF79E
:101A4000E8FA1DE09048A0F8009004EB04109149DA
:101A500001EB4000801C805D80213941084018B1B5
:101A600041462846FFF731FB681C85B20098281ACA
:101A7000102805D1009D08F101001FFA80F803E04D
:101A8000781CC7B2082FC8DB00BF701CC6B2202E5E
:101A9000C1DB00BF601C84B2019884429CDB7B48A0
:101AA0004088401E83B279480088401E82B20021DF
:101AB0000846FFF7D4FABDE8FC9F2DE9FC5F054618
:101AC000884691469A46DDF830B000950B2001908B
:101AD000002467E004EB840000EB44106E4911F829
:101AE00010009BF80010884259D104EB840000EBF1
:101AF0004410694901EB400040789BF8011088428E
:101B00004DD108F1170083B205F1170082B24146AA
:101B10002846FFF7A4FA00263FE0002738E00D989A
:101B2000A0B904EB840000EB44105B4901EB4000DA
:101B3000801C805D80213941084018B14846FFF77C
:101B400068FA23E05046FFF764FA1FE04E48A0F819
:101B5000009004EB840000EB44104F4901EB40007F
:101B6000801C805D80213941084018B141462846DB
:101B7000FFF7ABFA681C85B20098281A182805D11F
:101B8000009D08F101001FFA80F803E0781CC7B23D
:101B9000082FC4DB00BF701CC6B2482EBDDB00BFDF
:101BA000601C84B20198844294DB38484088401E0F
:101BB00083B236480088401E82B200210846FFF7F3
:101BC0004EFABDE8FC9F2DE9FC5F0546884691462C
:101BD0009A46DDF830B000950120019000246BE0BA
:101BE00004EB84102D4911F810009BF80010884276
:101BF0005FD104EB8410294901EB400040789BF849
:101C00000110884255D108F11F0083B205F11F0071
:101C100082B241462846FFF722FA002647E0002715
:101C200040E00D9890B904EB84101C4901EB400092
:101C3000801C805D80213941084018B14846FFF77B
:101C4000E8F92DE05046FFF7E4F929E00E48A0F846
:101C5000009004EB8410114901EB4000801C805D72
:101C600080213941084018B141462846FFF72DFA36
:101C7000681C85B20098281A202811D1009D08F10F
:101C800001001FFA80F80FE028000020F00100207A
:101C90002A0000203497000854990008829C00080C
:101CA000781CC7B2082FBCDB00BF701CC6B2802EE8
:101CB000B5DB00BF601C84B20198844290DBD4483D
:101CC0004088401E83B2D2480088401E82B2002164
:101CD0000846FFF7C4F9BDE8FC9F2DE9FF4F83B02C
:101CE000064688469146DDE91147109DB2464FF001
:101CF000000B73E0BBF1000F42D104EBD471C44A76
:101D00001288A2EB6101B14204DBC1494988091B79
:101D1000414502DA07B0BDE8F08F2878802802DD5F
:101D20004FF0010B5AE028780D2806D108EB04008B
:101D30001FFA80F856466D1C20E00C2C01D0102CA8
:101D40000FD128788DE891004A4641463046069BDF
:101D5000FFF7A1FC204604EBD07106EB61018EB2C7
:101D60000CE0102128788DE883004A464146304631
:101D7000069BFFF790FC06F1080086B26D1C2DE073
:101D8000A3480088001BB04204DBA1484088001B28
:101D9000404500DABEE74FF0000B202C08D1CDE91A
:101DA00000574A4641463046069BFFF70CFF12E0BB
:101DB000182C08D1CDE900574A4641463046069BCB
:101DC000FFF77BFE07E0CDE900574A464146304623
:101DD000069BFFF7F4FDAD1C301986B22878002869
:101DE00088D100BF96E72DE9FF4F83B004460F4628
:101DF0009046DDE9119A109D284603F070FE86B2E8
:101E000083490988A1EBC60000EBD071C1F34F0BE9
:101E100004EB0B0188B28DE8200642463946069B4A
:101E2000FFF75BFF07B0BDE8F08F2DE9F0470646EE
:101E30000F46154607F1270083B206F1270082B24C
:101E400039463046FFF70BF900240AE015F81490E4
:101E500005EB440090F8018049EA0820FFF7D9F823
:101E6000641CB4F5C86FF1DB69484088401E83B23A
:101E700067480088401E82B200210846FFF7EFF84D
:101E8000BDE8F0872DE9F04F8BB005460C46914632
:101E90001E4600200690079008905EA000680590FE
:101EA0005DA00068049000205C4908801FFA89FB4F
:101EB0004FF6FF70009004F1140083B205F13C006E
:101EC00082B221462846FFF797FA149804235A460F
:101ED000214600902846FFF71EFD584606F09AFB63
:101EE000019006F095FA4E4A4E4BCDE9020106F0FC
:101EF00071F8074605F058FD8246C6F800A0504626
:101F000006F086FA07463A460B4647A106A803F0B4
:101F1000E1FC04A906A803F001FE4FF6FF70009053
:101F200004F1280083B205F1500082B204F11400DC
:101F300081B22846FFF760FA1F2038490880012047
:101F4000102106AACDE90021029004F1140081B20B
:101F500037480388314802882846FFF7BEFE3068BC
:101F600000F030FF0990099806F052FA0746314A0E
:101F7000314B06F02DF901D2304809904FF6FF7031
:101F8000009004F1500083B205F1500082B204F1D8
:101F90003C0081B20520FFF72FFA099806F038FAC5
:101FA00007463A460B4620A106A803F093FC05A974
:101FB00006A803F0B3FD4FF47840184908800021CB
:101FC000099806F03BFB10D2012010211CA2CDE99C
:101FD0000021029004F13C0081B2154803880F48AB
:101FE00002880520FFF779FE0FE00120102106AAE4
:101FF000CDE90021029004F13C0081B20C48038835
:10200000064802880520FFF768FE0BB0BDE8F08F98
:10201000F00100206D6C0000560000002800002038
:1020200052B81E85EB515A3F252E33660000000042
:102030002A0000205A643BDFFF87C340FF3F1C4655
:10204000B4EDCEF30000000010B540F22551624817
:1020500002F038F880B1604801F0B4FFC4B25F48C4
:102060000078402808DA5E485C49097844545B48A7
:102070000078401C5949087010BD10B586B0044660
:102080000121042001F0FAFD0121084601F0F6FDCE
:102090000121480401F0FFFD4020ADF8140010209C
:1020A0008DF8170003208DF8160005A94D4801F0A2
:1020B00029FB0420ADF8140018208DF8170005A99D
:1020C000484801F01FFB0820ADF8140048208DF8A7
:1020D000170005A9434801F015FB0121480401F050
:1020E000F4FD00214FF4003001F0EFFD01940020D9
:1020F000ADF80800ADF80A00ADF80C00ADF810001E
:102100000C20ADF80E0001A9334801F05EFE262038
:102110008DF8000001208DF8010003208DF80200E9
:1021200001208DF80300684602F015F8012240F204
:102130002551294801F0E1FE0121274801F0D1FE97
:1021400000202949086006B010BD70B505460E464E
:1021500001202549086000240CE000BF40211E48F2
:1021600001F09AFF0028F9D0295D1B4801F026FFF5
:10217000601CC4B2B442F0DB00BF4021164801F03D
:102180008BFF0028F9D00020144908701649086018
:1021900070BD2DE9F04107460D4610480678002431
:1021A000002028700A2001F060F90C48007886426F
:1021B0000FD176B100BF04E00948005D3855601CBE
:1021C000C4B2B442F8DB0548007828700020034907
:1021D0000870BDE8F0810000004400402E0000209F
:1021E000FE01002000080140980121420EB500F0D8
:1021F0007FF80121084601F041FD0221084601F067
:1022000097FB0420019000208DF808000C208DF829
:10221000090001208DF80A0001A802F0C1FB03218A
:10222000022001F085FB0820019001208DF80A00B2
:1022300001A802F0B5FB08208DF8000002208DF8FF
:10224000010003208DF8020001208DF8030068468C
:1022500001F081FF09208DF8000002208DF80100B7
:1022600001208DF802008DF80300684601F073FF2D
:102270000EBD10B5042002F0F9FB012814D10A208C
:1022800001F0F3F80421144801F0CFFA60B90120FD
:1022900012490870124908700121124803F030F801
:1022A0000021114803F02CF8042002F0F0FB10BDCF
:1022B00010B50A2001F0D9F80821074801F0B5FA55
:1022C00028B906480078012801D10849087008207B
:1022D00002F0DDFB10BD0000001001402F000020C7
:1022E00034000020000800400004004035000020B9
:1022F00008B50121102001F0C1FC0C20ADF8000050
:1023000048208DF8030069461D4801F0FBF908BD1F
:1023100010B5044614B101201A4908701948007814
:10232000E8B10421164801F080FA20B108211448D0
:1023300001F07BFA98B90A2001F097F800201149C2
:10234000087004210E4801F070FA08B9012010BD90
:1023500008210B4801F069FA78B90220F7E7042157
:10236000074801F062FA012807D10821044801F06A
:102370005CFA012801D1034908700020E7E700005A
:1023800000100140300000202DE9FF4F89B00C46BD
:1023900015461E4616AF97E8800700200790834633
:1023A000069003900490059003A80290099806F007
:1023B0002FF802460B46CDE90001FEA103A803F069
:1023C00089FA03A803F08BFBC0B207902E2103A863
:1023D00003F057FB029003A90298401A00F0FF0B8C
:1023E000BBF1010F09D0BBF1020F1ED0BBF1030FEF
:1023F00036D0BBF1040F72D150E00020207028705D
:1024000030709DF80C00303838709DF80E00303870
:1024100088F800009DF80F00303889F800009DF81A
:10242000100030388AF800005AE000202070287030
:102430009DF80C00303830709DF80D003038387041
:102440009DF80F00303888F800009DF810003038F3
:1024500089F800009DF8110030388AF800003FE04C
:10246000002020709DF80C00303828709DF80D0079
:10247000303830709DF80E00303838709DF81000FC
:10248000303888F800009DF81100303889F80000D5
:102490009DF8120030388AF8000021E09DF80C0009
:1024A000303820709DF80D00303828709DF80E00EF
:1024B000303830709DF80F00303838709DF81100BA
:1024C000303888F800009DF81200303889F8000094
:1024D0009DF8130030388AF8000001E0FFE700BFE4
:1024E00000BF0020029007980DB0BDE8F08F2DE9E5
:1024F000F84F83460C4615461E460AAF97E88007FC
:10250000AE4800780B2804D00C287DD00D287CD153
:1025100008E30120AA490870AA480078401CA9498C
:10252000087008460078082801DB012008704FF683
:10253000FF70A54908804BF64040A4490880102050
:102540000090227801236E210520FFF7E4F9102086
:1025500000902A7801236E210D20FFF7DCF910206E
:102560000090327801236E211520FFF7D4F9102056
:1025700000903A7801236E211D20FFF7CCF910203E
:10258000009098F8002001236E212D20FFF7C3F959
:102590001020009099F8002001236E213520FFF7CC
:1025A000BAF9102000909AF8002001236E213D20F6
:1025B000FFF7B1F98348007808287DD2DFE800F002
:1025C0007C04396CA1D3F9F84FF6FF707E4908807E
:1025D0004BF640407D4908804FF6FF707E230D2268
:1025E0006E2100900520FEF707FF10200090227852
:1025F00001236E210520FFF78EF900207249088023
:102600004FF47840714901E057E18FE208800020E3
:102610007E2345226E2100903D20FEF7EDFE102026
:1026200000909AF8002001236E213D20FFF773F9F6
:102630003EE14FF6FF70644908804BF64040634925
:1026400008804FF6FF707E2345226E2100903D20CA
:10265000FEF7D2FE102000909AF8002001236E2190
:102660003D20FFF758F90020574908804FF4784083
:102670005649088000207E233D226E21009035209F
:10268000FEF7BAFE1020009099F8002001236E2179
:102690003520FFF740F90BE14FF6FF704A490880FB
:1026A0004BF64040494908804FF6FF707E233D229B
:1026B0006E210090352000E0F9E0FEF79DFE10202D
:1026C000009099F8002001236E213520FFF723F9AF
:1026D00000203D4908804FF478403C4908800020A4
:1026E0007E2335226E2100902D20FEF785FE1020DE
:1026F000009098F8002001236E212D20FFF70BF9A0
:10270000D6E04FF6FF70304908804BF640402F4925
:1027100008804FF6FF707E2335226E2100902D2019
:10272000FEF76AFE1020009098F8002001236E2129
:102730002D20FFF7F0F80020234908804FF478405F
:102740002249088000207E2325226E2100901D2032
:10275000FEF752FE102000903A7801236E211D20D2
:10276000FFF7D9F8A4E04FF6FF70174908804BF641
:102770004040164908804FF6FF707E2325226E21C7
:1027800000901D20FEF738FE102000903A780123BB
:102790006E211D20FFF7BFF800200B4908804FF481
:1027A00078400A49088000207E231D226E210FE018
:1027B0004CE01AE0252E33660000000037000020B0
:1027C0000B0000203D0000202A00002028000020EF
:1027D00000901520FEF710FE1020009032780123A3
:1027E0006E211520FFF797F862E04FF6FF70FE4963
:1027F00008804BF64040FD4908804FF6FF707E236D
:102800001D226E2100901520FEF7F6FD102000908D
:10281000327801236E211520FFF77DF80020F24960
:1028200008804FF47840F149088000207E2315226B
:102830006E2100900D20FEF7DFFD102000902A7819
:1028400001236E210D20FFF766F831E04FF6FF708F
:10285000E54908804BF64040E44908804FF6FF7098
:102860007E2315226E2100900D20FEF7C5FD10205D
:1028700000902A7801236E210D20FFF74CF80020EC
:10288000D94908804FF47840D849088000207E2339
:102890000D226E2100900520FEF7AEFD1020009065
:1028A000227801236E210520FFF735F800E000BFF4
:1028B00000BF0020CE49087039E1CE4800780828D2
:1028C0007ED2DFE800F07D042F5A87AFD7FD9AF85B
:1028D0000000C949087008460078401C0870084686
:1028E00000780A2801DB00200870C34800788AF8C5
:1028F00000000020BC4908804FF47840BB490880A4
:1029000000207E2345226E2100903D20FEF774FDBD
:10291000102000909AF8002001236E213D20FEF740
:10292000FAFFFAE099F80000B34908700846007809
:10293000401C0870084600780A2801DB0020087057
:10294000AD48007889F800000020A74908804FF4BE
:102950007840A649088000207E233D226E21009009
:102960003520FEF749FD1020009099F80020012342
:102970006E213520FEF7CFFFCFE098F800009E498A
:10298000087008460078401C0870084600780A283D
:1029900001DB002008709848007888F800000020CB
:1029A000914908804FF478409049088000207E23A8
:1029B00035226E2100902D20FEF71EFD102000E034
:1029C000AAE0009098F8002001236E212D20FEF748
:1029D000A2FFA2E038788849087008460078401CB9
:1029E0000870084600780A2801DB00200870824839
:1029F0000078387000207C4908804FF478407B498B
:102A0000088000207E2325226E2100901D20FEF7E5
:102A1000F3FC102000903A7801236E211D20FEF770
:102A20007AFF7AE030787449087008460078401CD4
:102A30000870084600780A2801DB002008706E48FC
:102A4000007830700020684908804FF4784067496A
:102A5000088000207E231D226E2100901520FEF7A5
:102A6000CBFC10200090327801236E211520FEF758
:102A700052FF52E028786049087008460078401CF0
:102A80000870084600780A2801DB002008705A48C0
:102A9000007828700020544908804FF4784053494A
:102AA000088000207E2315226E2100900D20FEF765
:102AB000A3FC102000902A7801236E210D2000E055
:102AC00002E0FEF728FF28E020784B49087008460E
:102AD0000078401C0870084600780A2801DB0020B6
:102AE000087045480078207000203F4908804FF466
:102AF00078403E49088000207E230D226E21009000
:102B00000520FEF779FC10200090227801236E2129
:102B10000520FEF700FF00E000BF00BF00203449A1
:102B2000087004E000203249087000E000BF00BFD8
:102B3000BDE8F88F7FB505460C460121042001F061
:102B4000AAF8ADF80850ADF804400020ADF80A002E
:102B5000ADF8060001A9294802F076F801221146D5
:102B6000264802F0E8FB0121244802F0A3FE1E20C3
:102B70008DF8000003208DF801008DF8020001207F
:102B80008DF80300684601F0E6FA7FBD7FB5054683
:102B90000C460121022001F07EF8ADF80850ADF896
:102BA00004400020ADF80A00ADF8060001A9144861
:102BB00002F04AF801221146114802F0BCFB012143
:102BC0000F4802F077FE1D208DF8000003208DF8DD
:102BD00001008DF8020001208DF80300684601F025
:102BE000BAFA012106480DE02A0000202800002042
:102BF000370000203D0000203E000020000800407B
:102C00000004004002F07CFB7FBD30B585B001219F
:102C1000514802F03EFEE0B11421684602F0BCFFCC
:102C20004E48006805F0F4FB044622460B46AFF21E
:102C30007C41684602F04EFE49A1684602F06EFFF4
:102C4000684602F04CFFC4B221466846FFF77DFAA1
:102C500000BF0121404802F02DFE05B030BD10B587
:102C60000121404802F015FE002870D03E4800784F
:102C7000012826D104213D4800F0D7FD60B900208D
:102C80003B4908703B48006846281FD8394800680F
:102C9000401C3849086019E036480068032808D904
:102CA0000B20354908700020324908602E49087011
:102CB0000CE000202F4908602F4908702A4908704D
:102CC00004E02B480078401C294908702B48007804
:102CD000012825D10821254800F0A7FD60B9002072
:102CE0002349087023480068462819D821480068FD
:102CF000401C2049086013E01E480068032808D9DA
:102D00000C201D49087000201A4908601B490870F2
:102D100006E0002017490860174908701749087035
:102D200013480078FA2812DB00201549087015496D
:102D3000087015490870154908700D490870002180
:102D4000084802F0DDFA0121034802F0D9FA012116
:102D5000044802F0AFFD10BD000400401000002048
:102D6000760D0A00000800403400002000100140E9
:102D700044000020400000203700002035000020E3
:102D80002F0000203D0000203E0000200B0000200E
:102D900010B58FA002F092FD0020924908604860B3
:102DA0008860C860C86108628F4808618F484861C0
:102DB0008F4888618F484862002088628EA002F0A8
:102DC0007DFD10BD2DE9F0478246504605F020FB01
:102DD00080468D4A8D4B05F031FA06468C4A8D4B64
:102DE00004F0D0FE044604F0DFFDBDE8F0872DE9D5
:102DF000F0478246504605F00BFB8046844A854BDF
:102E000005F0E8F80646804A804B04F0FFFD0446D2
:102E100004F0CAFDBDE8F0872DE9F84F07460D46DE
:102E20003846FFF7E4FF6F4908600A4651681068AA
:102E300005F036FD6B4988600A46516A506805F016
:102E4000FDFC1BD26749886805F0B0FB061E01DB5C
:102E5000304600E07042022801DD002445E00124F4
:102E600060498868002105F0E9FB3ED25D4A91681F
:102E7000106A05F0F9FA5B49086236E0594A916A2E
:102E8000506805F0DBFB1BD25649886805F08EFBC5
:102E9000061E01DB304600E07042022801DD0024FE
:102EA00023E001244F498868002105F0C7FC1CD2AB
:102EB0004C4A9168106A05F0D7FA4A49086214E052
:102EC0004849886805F072FB061E01DB304600E0C9
:102ED0007042022801DD002407E00124414A916884
:102EE000106A05F0C1FA3F4908623E4AD16890680D
:102EF00005F0D6FC81463B488169484605F0D2FB87
:102F00000646204605F06EFB834636484169584622
:102F100005F0C8FB82463348016A504605F0C2FB03
:102F20008146304A9168106905F0BCFB4946009023
:102F300005F09AFA8046314605F096FA2949C861AB
:102F400008468068C860084645600020324908701D
:102F50002448C069BDE8F88F2DE9F04707460026F0
:102F60004FF03008102500BF22E0A8EB060000EB70
:102F7000D07106EB6104384605F034FB82466000F0
:102F8000264A52F82010504605F0DCFA00D111E034
:102F9000384605F027FB82466000204A52F8201090
:102FA000504605F04BFC01D2264600E0A0466D1EBF
:102FB000002DDAD100BF35B1012000EB44001749E4
:102FC00051F8200000E0002081464846BDE8F08727
:102FD0005049445F696E697420626567696E200AB2
:102FE0000000000040020020CDCCCC3D9A99193E53
:102FF000CDCC4C3E000020415049445F696E69745D
:1030000020656E64200A00004A0C022B8716F13FEF
:103010002D431CEBE2363A3F0C0000204800002014
:1030200010B500F027F810BD70B505460C4600F04D
:1030300038F8B02000F0F1F800F074F8022000F049
:10304000ECF800F06FF8284600F0E7F800F06AF8B6
:10305000204600F0E2F800F065F800F046F80020A5
:1030600070BD70B50446E5B2261231462846FFF71A
:10307000DBFF70BD08B50121042000F0FFFD30200A
:10308000ADF8000010208DF8030001208DF802003B
:103090006946D44800F036FB3021D24800F0DFFB0F
:1030A00008BD10B5CF48006820F47000CD49086015
:1030B0000846006840F4401008600120CA490860D2
:1030C000052000F0AEF90120C849C1F890010520A3
:1030D00000F0A7F90020C4490860052000F0A1F91C
:1030E0000020C249C1F8900110BD10B5BD4800686C
:1030F00020F47000BB4908600846006840F44010A6
:1031000008600020B8490860052000F08AF9012015
:10311000B649C1F89001052000F083F90120B249B9
:10312000086010BD10B50024AE48006820F470009F
:10313000AC4908600846006840F4000008600020C0
:10314000A949091F0860052000F06BF90120A74973
:10315000C1F89401A449091F0860052000F061F935
:1031600007E0601CC4B2FA2C03DDFFF7BEFF0120AC
:1031700010BD9D48803800680028F2D19A49091F87
:10318000086000BFF4E710B59648006820F47000AE
:10319000944908600846006840F440100860002028
:1031A0009149091F08609149C1F89401052000F078
:1031B00038F901208C49091F0860052000F031F919
:1031C00000208A49C1F89001052000F02AF900206A
:1031D0008549086010BD10B58248006820F4700071
:1031E000804908600846006840F4401008600120EB
:1031F0007D49086000207D49C1F89001052000F05C
:1032000010F901207849091F0860052000F009F92C
:1032100000207649C1F8900110BD70B50446714890
:10322000006820F470006F4908600846006840F4A8
:1032300040100860002518E000206B49091F086055
:10324000052000F0EEF8E0096849C1F89401052076
:1032500000F0E7F801206449091F0860052000F02C
:10326000E0F86006040E681CC5B2082DE4DB0020FF
:103270005D49091F086070BD70B5054600245948B6
:10328000006820F47000574908600846006840F460
:103290000000086000261AE000205349091F08605A
:1032A000052000F0BEF801205049C1F8900105202A
:1032B00000F0B7F86006040E4B488038006808B18B
:1032C000601CC4B2012000F0ACF8701CC6B2082E1D
:1032D000E2DB15B9FFF77FFF01E0FFF754FF20465F
:1032E00070BD70B504463F48006820F470003D4949
:1032F00008600846006840F440100860002518E0A7
:1033000000203949091F0860052000F08AF8E0090B
:103310003649C1F89401052000F083F801203249B4
:10332000091F0860052000F07CF86006040E681C88
:10333000C5B2082DE4DB00202B49091F086070BDD1
:1033400070B500252748006820F470002549086002
:103350000846006840F40000086000202249091F68
:103360000860052000F05DF801202049C1F89401B3
:103370001D49091F0860052000F053F804E0681C8F
:10338000C5B219480068C4B217480068012801D1C5
:10339000FF2DF4DB00201449091F0860204670BD92
:1033A00070B50446FFF77DFEB020FFF79AFFFFF7E8
:1033B000C7FF0220FFF795FFFFF7C2FF2546E11781
:1033C00004EB11610912A4EB0121C8B2FFF789FFD8
:1033D000FFF7B6FF2012FFF784FFFFF7B1FFFFF7FB
:1033E00084FE70BD0008014094012142000021428A
:1033F00010B56FF0040000F0F8FE2E4800682E496A
:10340000B0FBF1F02D4908700846007800EB400150
:10341000C1EBC0104FF6FF7101EAC00028490880D7
:1034200010BD0146254A12784A434FF0E0235A6105
:1034300000229A611A46126942F001021A6100BF25
:103440004FF0E022106900F001021AB100F480325E
:10345000002AF5D04FF0E022126922F001024FF06D
:10346000E0231A6100229A6170470146144A1288CB
:103470004A434FF0E0235A6100229A611A461269CA
:1034800042F001021A6100BF4FF0E022106900F023
:1034900001021AB100F48032002AF5D04FF0E02288
:1034A000126922F001024FF0E0231A6100229A61B2
:1034B000704700001400002000127A00D0010020A4
:1034C000D201002000BF704700BF4A4A128802F0B4
:1034D0004002002AF9D0C2B2464B1B1D1A80704729
:1034E00010B586B00446012144F2040000F0C6FB8A
:1034F0004FF40070ADF8140003208DF8160018206A
:103500008DF8170005A93C4800F0FCF84FF48060E6
:10351000ADF8140004208DF8170005A9364800F016
:10352000F1F825208DF8000003208DF801008DF8BA
:10353000020001208DF80300684600F00CFE0194A3
:103540000020ADF80800ADF80A00ADF80C00ADF8A9
:1035500010000C20ADF80E0001A9264800F035FC43
:10356000012240F22551234800F0C7FC01212148E7
:1035700000F0B7FC06B010BD10B540F225511D4853
:1035800000F0A0FD10B31B4800F01CFDC4B21B48A6
:10359000008800F40040C8B91848008800F4804052
:1035A00060B10A2C03D000201449088020E01348A1
:1035B000008840F400401149088019E00D2C06D124
:1035C0000E48008840F480400C49088010E00B4809
:1035D0000088C0F30D000A490C5408480088401CBC
:1035E0000649088008460088C72801DD00200880B9
:1035F00010BD00000038014000080140D801002043
:103600006C0200200948804709480047FEE7FEE7B2
:10361000FEE7FEE7FEE7FEE7FEE7FEE7FEE7FEE782
:1036200004480549054A064B704700009F0C0008F6
:10363000ED0000089803002098090020980500205C
:103640009805002010B50446CC48844208D10121D9
:10365000042000F02DFB0021042000F029FB46E0AF
:10366000C748844208D10121082000F021FB002135
:10367000082000F01DFB3AE0C248844208D1012135
:10368000102000F015FB0021102000F011FB2EE0AF
:10369000BD48844208D10121202000F009FB00210F
:1036A000202000F005FB22E0B848844208D1012127
:1036B000402000F0FDFA0021402000F0F9FA16E069
:1036C000B348844208D10121802000F0F1FA0021A2
:1036D000802000F0EDFA0AE0AE48844207D10121D3
:1036E000801500F0E5FA0021A01500F0E1FA10BD08
:1036F00010B50121084600F0DBFA0021012000F09E
:10370000D7FA10BD2DE9F041024600250026002021
:1037100000230024002791F803C00CF00F0591F856
:1037200003C00CF0100CBCF1000F03D091F802C0E4
:103730004CEA050591F800C0BCF1000F31D01468C7
:1037400000202BE04FF0010C0CFA00F3B1F800C0A0
:103750000CEA03069E4220D183004FF00F0C0CFAB6
:1037600003F7BC4305FA03FC4CEA040491F803C0D8
:10377000BCF1280F06D14FF0010C0CFA00FCC2F886
:1037800014C00AE091F803C0BCF1480F05D14FF016
:10379000010C0CFA00FCC2F810C0401C0828D1D360
:1037A0001460B1F800C0BCF1FF0F34DD5468002094
:1037B0002EE000F1080C4FF0010808FA0CF3B1F804
:1037C00000C00CEA03069E4221D183004FF00F0C8B
:1037D0000CFA03F7BC4305FA03FC4CEA040491F825
:1037E00003C0BCF1280F05D100F1080C08FA0CF851
:1037F000C2F8148091F803C0BCF1480F07D100F162
:10380000080C4FF0010808FA0CF8C2F81080401CB0
:103810000828CED35460BDE8F0814FF6FF710180D7
:10382000022181700421C170704702460020936814
:103830000B400BB1012000E0002070470146886872
:1038400080B2704702460020D3680B400BB10120C4
:1038500000E0002070470146C86880B270470161EF
:103860007047416170470AB1016100E041617047F2
:10387000C16070474FF480320A4382618161826186
:1038800082698269704702460020434B18684FF6F0
:103890008073184040EA021008433F4B186070479D
:1038A0003E49C8617047F0B50A4600230024002154
:1038B000002500F00046B6F1004F02D1364EF16906
:1038C00001E0354E7168C0F3034583B200F4401641
:1038D000B6F5401F08D121F070612F4E766826F0B2
:1038E00070662D4F7E6012E000F48016B6F5801FE2
:1038F00006D1032606FA05F4A14341F0706106E003
:10390000460D360103FA06F6B14341F0706122B16B
:10391000460D360103FA06F6314300F00046B6F1D3
:10392000004F02D11C4EF16101E01B4E7160F0BDF1
:1039300030B500228B071C0F0F2303FA04F2164B3D
:1039400008338C1053F824309343134C08348D10F3
:1039500044F8253023468C1053F824308C07240F6C
:1039600000FA04F423430C4C08348D1044F825303D
:1039700030BD0A49DC310860704700000008014092
:10398000000C0140001001400014014000180140EB
:10399000001C0140002001400000014000002042C6
:1039A000DF48006840F00100DD49086008464068D3
:1039B000DC490840DA49486008460068DA490840AE
:1039C000D74908600846006820F48020086008464F
:1039D000406820F4FE0048604FF41F008860704784
:1039E000CF49096821F48031CD4A11601146096838
:1039F00021F480211160B0F5803F03D0B0F5802F15
:103A00000ED106E0C649096841F48031C44A11600C
:103A100007E0C349096841F4A021C14A116000E0F0
:103A200000BF00BF704710B50146002200230020F0
:103A30004A11012A02D1BA4C236806E0022A02D1B7
:103A4000B74C236A01E0B64C636A01F01F020124FF
:103A500094401C400CB1012000E0002010BD38B59E
:103A6000002000900024002500BF3120FFF7DBFF7D
:103A700005460098401C00900098B0F5A06F01D05A
:103A8000002DF2D03120FFF7CEFF08B1012400E075
:103A90000024204638BD01460020A14A106820F0CD
:103AA000F80040EAC10010607047A0490860704704
:103AB000024600209A4B586820F47C1042EA010329
:103AC0001843974B586070479849086670470146FD
:103AD0000020934A506820F003000843506070476C
:103AE0008F48406800F00C007047014600208C4A67
:103AF000506820F0F00008435060704701460020F5
:103B0000874A506820F4E0600843506070470146DF
:103B10000020834A506820F4605040EAC1005060A1
:103B2000704729B17E4A527A02437D4B5A7204E0B3
:103B30007B4A527A82437A4B5A7270477B49D8311A
:103B40000860704701460020754A506820F44040E4
:103B50000843506070470021714A20321170704A4A
:103B600082F82010012802D004280AD104E00121A3
:103B70006B4A2032117005E00521694A203211702C
:103B800000E000BF00BF70476949086070476449A2
:103B9000096A0143624A1162704765494439086005
:103BA000704730B500210022002400235C4D6D6871
:103BB00005F00C0121B1042905D0082923D105E025
:103BC0005C4D056022E05B4D05601FE0544D6D6863
:103BD00005F47012524D6D6805F48034022505EB32
:103BE00092421CB9544D554305600BE04C4D6D6835
:103BF00005F400351DB1504D5543056002E04D4DB3
:103C00005543056002E04B4D056000BF00BF444DC9
:103C10006D6805F0F0010909484D6B5C0568DD40F1
:103C200045603F4D6D6805F4E061090A434D6B5CEA
:103C30004568DD4085603A4D6D6805F46051C90AFC
:103C40003E4D6B5C4568DD40C560354D6D6805F4E3
:103C50004041890B3A4D6B5CC568B5FBF3F50561D6
:103C600030BD29B12E4A526902432D4B5A6104E0FE
:103C70002B4A526982432A4B5A61704729B1284A1C
:103C800092690243264B9A6104E0254A9269824375
:103C9000234B9A61704729B1214AD2690243204BD4
:103CA000DA6104E01E4AD26982431D4BDA61704733
:103CB00029B11B4AD2680243194BDA6004E0184A62
:103CC000D2688243164BDA60704729B1144A1269F0
:103CD0000243134B1A6104E0114A12698243104BEC
:103CE0001A61704712494039086070470F49C8642B
:103CF00070470B49C87170470948406A40F08070AE
:103D000007494862704701460020054A92680A4008
:103D10000AB1012000E00020704701498872704715
:103D2000001002400000FFF8FFFFF6FE00004242D4
:103D30008004424200127A0000093D00DA010020AE
:103D4000EA01002010B50446FB48844209D1012154
:103D50008803FFF7ADFF00214FF48040FFF7A8FF75
:103D600032E0F648844209D101214804FFF7ADFF53
:103D700000214FF40030FFF7A8FF25E0F04884420F
:103D800009D101218804FFF7A0FF00214FF4802012
:103D9000FFF79BFF18E0EB48844209D10121C804DA
:103DA000FFF793FF00214FF40020FFF78EFF0BE099
:103DB000E548844208D101210805FFF786FF00216C
:103DC0004FF48010FFF781FF10BD2DE9F04786B05A
:103DD00005460E460024A24600BFA1460027B08932
:103DE00000B100BF2F462C8A4CF6FF700440F088CB
:103DF00004432C82AC894EF6F3100440B08831891C
:103E00000843718908430443AC81AC8A4FF6FF40F4
:103E10000440B0890443AC8201A8FFF7C2FEC64843
:103E2000874202D1DDF810A001E0DDF80CA0A889DE
:103E300000F4004040B10AEBCA0000EB0A10316800
:103E40004900B0FBF1F807E00AEBCA0000EB0A10EA
:103E500031688900B0FBF1F86420B8FBF0F0040190
:103E60002009642101FB1089A88900F4004040B1B9
:103E7000322000EBC900B0FBF1F000F00700044372
:103E800008E0322000EB09106421B0FBF1F000F0F3
:103E90000F0004432C8106B0BDE8F0874FF41651A3
:103EA000016000218180C18001810C2141810021BC
:103EB0008181704710B502460020108A4FF2FF033F
:103EC00018400B884C8823438C882343CC88234399
:103ED0001843108210BD0021018041808180C18083
:103EE000704721B1828942F40052828104E08289C4
:103EF0004DF6FF731A4082817047F0B503460024E7
:103F000000260025002040F66A17B94200D100BF04
:103F10001846C1F3421401F01F06012707FA06F5FF
:103F2000012C01D10C3004E0022C01D1103000E052
:103F300014301AB107682F43076002E00768AF43E7
:103F40000760F0BD1AB1838A0B43838202E0838A43
:103F50008B4383827047028A4FF6F0731A400282C5
:103F6000028A0A430282704782894FF2FF731A4025
:103F7000828182890A438281704721B1828942F01D
:103F80000202828104E082894FF6FD731A40828129
:103F90007047028A4FF6DF731A400282028A0A4390
:103FA0000282704721B1028A42F48042028204E018
:103FB000028A4BF6FF731A4002827047C1F308026F
:103FC0008280704701468888C0F308007047818965
:103FD00041F0010181817047028BD2B20283028BD2
:103FE00042EA012202837047028B02F47F4202837D
:103FF000028B0A430283704721B1828A42F0200279
:10400000828204E0828A4FF6DF731A408282704710
:1040100021B1828A42F01002828204E0828A4FF645
:10402000EF731A408282704721B1828A42F00802FF
:10403000828204E0828A4FF6F7731A4082827047C8
:1040400021B1828942F40042828103E08289C2F375
:104050000E028281704721B1828A42F4006282821C
:1040600004E0828A4FF2FF731A4082827047828A8C
:104070004FF6FB731A408282828A0A43828270471B
:1040800021B1828A42F00202828204E0828A4FF6E3
:10409000FD731A408282704702460020B1F5007F0E
:1040A00000D100BF13880B400BB1012000E00020BD
:1040B000704701F40072B2F5007F00D100BFCA431F
:1040C0000280704770B502460024002300250020BE
:1040D00040F66A16B14200D100BFC1F3421501F0AB
:1040E0001F03012606FA03F3012D02D196893340FE
:1040F00006E0022D02D1168A334001E0968A334051
:104100000C12012606FA04F41688344013B10CB1DF
:10411000012000E0002070BD10B50022002340F611
:104120006A14A14200D100BF0A1201249440A3B234
:10413000DC43048010BD0000003801400044004012
:1041400000480040004C004000500040314901430D
:10415000314A1160704770B5002100230F22C478E6
:1041600004B32D4C246804F4E064C4F5E064210A2F
:10417000C1F10403CA40447804FA03F1847814407E
:1041800021430901254C0678A155047804F01F0548
:104190000124AC4005786D11AD0005F1E025C5F8AE
:1041A000004109E0047804F01F050124AC401C4DD7
:1041B0000678761145F8264070BD1A4A0A40024337
:1041C000154B1B1F1A60704739B1134A121D126834
:1041D0000243114B1B1D1A6006E00F4A121D1268A4
:1041E00082430D4B1B1D1A607047042808D14FF005
:1041F000E021096941F004014FF0E022116107E07C
:104200004FF0E021096921F004014FF0E022116133
:10421000704700000000FA050CED00E000E400E04B
:1042200080E100E080FFFF1F10B50446FA48844299
:1042300008D101214015FFF73BFD00216015FFF774
:1042400037FD17E0F548844208D101210015FFF73A
:104250002FFD00212015FFF72BFD0BE0F0488442D5
:1042600008D10121C803FFF723FD00214FF40040CE
:10427000FFF71EFD10BD30B5024600200023506838
:10428000E84C20400D790C6844EA05242043506036
:104290009068E54C2040D1E902542C434D7944EA22
:1042A000450420439060D06A20F470000C7C641EAA
:1042B000E4B2234340EA0350D06230BD00210160E4
:1042C000017141718160C16001210174704721B1A8
:1042D000826842F00102826003E0826822F00102FB
:1042E0008260704721B1826842F48072826003E08C
:1042F000826822F480728260704710B50023CBB2CE
:104300001AB144681C43446002E044689C43446022
:1043100010BD816841F008018160704701460020AE
:104320008A6802F008020AB1012000E0002070470C
:10433000816841F0040181607047014600208A686D
:1043400002F004020AB1012000E00020704721B110
:10435000826842F4A002826003E0826822F4A00234
:1043600082607047014600208A6802F480020AB128
:10437000012000E00020704710B50A46002100230C
:10438000416821F46041531E41EA4331416010BD50
:1043900021B1426842F40062426003E0426822F4C4
:1043A000006242607047F0B504460D4600200021CF
:1043B000092D11DDE068A5F10A0606EB4607072680
:1043C00006FA07F18843A5F10A0606EB460603FA4A
:1043D00006F10843E0600CE0206905EB450707267D
:1043E00006FA07F1884305EB450603FA06F1084390
:1043F0002061072A0FDA606B561E06EB86071F2620
:1044000006FA07F18843561E06EB860605FA06F102
:104410000843606322E00D2A0FDA206BD61F06EBFB
:1044200086071F2606FA07F18843D61F06EB860685
:1044300005FA06F10843206310E0E06AA2F10D06D8
:1044400006EB86071F2606FA07F18843A2F10D0640
:1044500006EB860605FA06F10843E062F0BD21B1DD
:10446000826842F48012826003E0826822F4801243
:10447000826070470146C86C80B2704766484C3015
:104480000068704721B1426842F48062426003E0F4
:10449000426822F480624260704721B1426842F46F
:1044A0008052426003E0426822F4805242607047CA
:1044B0000A460021816821F4E04111438160704780
:1044C00021B1826842F40042826003E0826822F4F3
:1044D00000428260704721B1826842F40212826019
:1044E00003E0826822F402128260704701460020D5
:1044F0008A6802F400120AB1012000E0002070472F
:10450000F0B504461546002000220026092911DDD9
:10451000E068A1F10A0707EB470C072707FA0CF23E
:104520009043A1F10A0707EB470703FA07F210438C
:10453000E0600CE0206901EB410C072707FA0CF260
:10454000904301EB410703FA07F210432061A06B8F
:10455000C0F30156EF1C06F1010CA7EB0C0707EBAB
:10456000870C1F2707FA0CF29043EF1C06F1010C91
:10457000A7EB0C0707EB870701FA07F21043A063CC
:10458000F0BD10B50A4600210023816B21F44011D3
:10459000531E41EA0351816310BD08B50023009307
:1045A0000090009B0B440093009B1A6008BD08B567
:1045B000024600200090009201F12800009B184460
:1045C00000900098006880B208BD0A46002141684A
:1045D000164B194011434160704741628262704737
:1045E0000A460021416821F01F01114341607047D4
:1045F00040B109490831096841F40001064A08320E
:10460000116007E004490831096821F40001024AF9
:10461000083211607047000000240140002801406A
:10462000003C0140FFFEF0FFFDF7F1FFFFFD3FFF03
:104630000246002013680B400BB1012000E000206F
:104640007047CA430260704770B5024600200023DD
:1046500000240B125568CEB205EA060415681D4009
:1046600015B10CB1012000E0002070BD00220A123B
:10467000D34303607047000010B50446BE4884422F
:1046800008D101218014FFF713FB0021A014FFF7CC
:104690000FFB16E0B948844208D101210014FFF74E
:1046A00014FB00212014FFF710FB0AE0B4488442F9
:1046B00007D10121C013FFF708FB0021E013FFF72A
:1046C00004FB10BD10B50022028802F441520B8891
:1046D0004C8823438C882343CC8823430C89234371
:1046E0004C8923438C892343CC8923431A4302807A
:1046F000838B4FF2FF74234083830B8A038210BDA8
:104700002DE9F04F85B005460C464FF00009022711
:104710004FF000084FF0010B0026B246A88B4FF275
:1047200040010840A88302202884B5F81C90A068A6
:10473000022801D100BF38E0A08810B94FF0010B6A
:1047400001E04FF0020B8D48854200D100E000BF30
:104750006846FFF726FADDF800A0E088B0F5007F94
:104760000AD14FEA1A2000EB80004000A168B0FB9C
:10477000F1F0401D86B20BE04FEA4B10BAFBF0F0AF
:1047800000EB80004000A168B0FBF1F0401D86B254
:104790000A20B6FBF0F606F00108A6EB0800C0F30D
:1047A0004F074FF6FF7000EA0828022F01DBFF2FAA
:1047B00002DD02274FF00008E08840EA0800384395
:1047C0002884A088A1890843618808432188084378
:1047D00040F4006040EA0909A5F81C9005B0BDE866
:1047E000F08F0021018041808180C1800181418161
:1047F0008181C181072101827047002101804180B0
:104800008180C1800221816000218181704721B1B6
:10481000028842F04002028004E002884FF6BF7333
:104820001A400280704721B1828B42F480628283F9
:1048300004E0828B4FF6FF331A408283704730B515
:10484000002400230C110125A540ABB21AB18588C4
:104850001D43858002E085889D43858030BD1AB167
:1048600083880B43838002E083888B438380704777
:10487000818170470146888970474FF6FF629142F7
:1048800004D0028842F48072028004E002884FF66D
:10489000FF631A400280704721B1828842F004020F
:1048A000828004E082884FF6FB731A408280704752
:1048B00002884FF2FF731A40028002880A43028086
:1048C0007047018841F480510180704721B102880E
:1048D00042F40052028004E002884DF6FF731A4051
:1048E0000280704702460020012901D0108B00E0B1
:1048F000908A70470146088A7047B1F5804F04D10D
:10490000028842F48042028004E002884BF6FF7382
:104910001A40028070470246002013890B400BB1F9
:10492000012000E000207047CA4302817047F0B5C3
:104930000246002000240023002501F00F07012675
:10494000BE40B4B20B1101269E40B3B2968806EA6F
:1049500003051689264016B10DB1012000E00020A4
:10496000F0BD10B5002201F00F040123A3409AB25C
:10497000D343038110BD00000030014000380040E7
:10498000003C0040002044490860091D0860091DE2
:104990000860091D086041483F49143108607047AC
:1049A00000213D498279002A3AD00A4612680368FC
:1049B0009A430B461A600A1D126803689A430B1D3E
:1049C0001A60027911440A6803681A430A60324A7D
:1049D0000832126803689A432F4B08331A601A1D75
:1049E000126803689A432C4B0C331A604279102AE0
:1049F0000ED11A1F126803681A43274B08331A6036
:104A00001A1D126803681A43234B0C331A600DE019
:104A10002149427911440A6803681A430A6005E093
:104A2000027911440A6803689A430A6070470021BA
:104A3000016001710C21417100218171704716499B
:104A4000103109680143144A103211607047014661
:104A50000020114A143212680A400AB1012000E015
:104A6000002070470C49143108607047014600204F
:104A70000022094B1B6803EA0102074B14331B6831
:104A80000B4013B10AB1012000E000207047024939
:104A9000143108607047000000040140FFFF0F0060
:104AA00010B50446FE48844208D10121C014FFF726
:104AB000FFF80021E014FFF7FBF8C4E0B4F1804FE9
:104AC00008D101210846FFF700F900210120FFF776
:104AD000FCF8B8E0F348844208D101210220FFF736
:104AE000F4F800210220FFF7F0F8ACE0EE48844231
:104AF00008D101210420FFF7E8F800210420FFF786
:104B0000E4F8A0E0E948844208D101210820FFF739
:104B1000DCF800210820FFF7D8F894E0E44884424C
:104B200008D101211020FFF7D0F800211020FFF755
:104B3000CCF888E0DF48844208D101212020FFF72B
:104B4000C4F800212020FFF7C0F87CE0DA48844256
:104B500008D101214014FFF7ABF800216014FFF7E2
:104B6000A7F870E0D548844209D10121C804FFF7B5
:104B70009FF800214FF40020FFF79AF863E0D04837
:104B8000844209D101210805FFF792F800214FF472
:104B90008010FFF78DF856E0CA48844209D1012100
:104BA0004805FFF785F800214FF40010FFF780F863
:104BB00049E0C548844208D101214020FFF785F82B
:104BC00000214020FFF781F83DE0C048844208D131
:104BD00001218020FFF779F800218020FFF775F888
:104BE00031E0BB48844208D101218015FFF76DF800
:104BF0000021A015FFF769F825E0B648844209D1E5
:104C000001210804FFF754F800214FF48030FFF72A
:104C10004FF818E0B048844209D101214804FFF759
:104C200047F800214FF40030FFF742F80BE0AB48A3
:104C3000844208D101218804FFF73AF800214FF49B
:104C40008020FFF735F810BD00220288944B98426F
:104C50000ED0994B98420BD0B0F1804F08D0914BB9
:104C6000984205D0904B984202D0904B984204D184
:104C70004FF68F731A404B881A438D4B984207D0DA
:104C80008C4B984204D04FF6FF431A40CB881A430E
:104C900002808B8883850B880385814B98420BD0DB
:104CA000854B984208D08B4B984205D08A4B98424E
:104CB00002D08A4B984201D10B7A0386012383826A
:104CC000704770B5002400220023058C4FF6FE7655
:104CD00035400584028C8388048B4FF68F752C40F9
:104CE000B51E2C400D882C43751E2A400D892A4381
:104CF0004D882A436A4DA8420BD06F4DA84208D078
:104D0000744DA84205D0744DA84202D0734DA842FC
:104D100013D14FF6F7752A404D892A434FF6FB759C
:104D20002A408D882A434FF6FF652B404FF6FF55EA
:104D30002B408D892B43CD892B4383800483CD88E1
:104D40008586028470BD70B5002400220023058C86
:104D50004FF6EF7635400584028C8388048B48F645
:104D6000FF752C404FF6FF452C400D884FF6FF761F
:104D700006EA05252C434FF6DF752A400D8906EA21
:104D800005152A434D8806EA05152A43444DA842D5
:104D900002D0494DA8421DD14FF67F752A404D895A
:104DA0004FF6FF7606EA05152A434FF6BF752A40EF
:104DB0008D8806EA05152A434FF6FF352B404FF242
:104DC000FF752B408D8906EA85052B43CD8906EAC0
:104DD00085052B4383800483CD880587028470BDBD
:104DE00070B5002400220023058C4FF6FF66354085
:104DF0000584028C8388848B4FF68F752C404FF688
:104E0000FC752C400D882C434FF6FF552A400D8928
:104E10004FF6FF7606EA05252A434D8806EA052562
:104E20002A431F4DA84202D0234DA8421DD14FF264
:104E3000FF752A404D894FF6FF7606EA05252A437D
:104E40004FF6FF352A408D8806EA05252A434EF69F
:104E5000FF752B404DF6FF752B408D8906EA051531
:104E60002B43CD8906EA05152B4383808483CD88A7
:104E70008587028470BD70B5002200230024058C54
:104E80004EF6FF7635400584038C8488828B48F685
:104E9000FF752A404FF6FF452A400D8820E00000AC
:104EA000002C01400004004000080040000C0040BD
:104EB000001000400014004000340140004C01404C
:104EC000005001400054014000180040001C004008
:104ED00000200040004001400044014000480140E3
:104EE0004FF6FF7606EA05252A434DF6FF752B405F
:104EF0000D8906EA05352B434D8806EA05352B4317
:104F0000FA4DA84202D0FA4DA84208D14BF6FF75DF
:104F10002C408D894FF6FF7606EA85152C43848058
:104F20008283CD88A0F84050038470BD828B4FF2FD
:104F3000FF331A408283828B4FF6FF7303EA01230B
:104F40001A4382837047F0B50C46154600220021B3
:104F50000026078C4EF6FF7C07EA0C070784828B3D
:104F6000018C4FF6FF7707EA043640F6FF473A40D8
:104F70004FF6FF7707EA05273A434FF6FF7707EA30
:104F800003373A43D94FB8420ED0D94FB8420BD06D
:104F9000B0F1804F08D0D74FB84205D0D64FB842B5
:104FA00002D0D64FB84206D14DF6FF77394046F4CD
:104FB0008057394305E047F6FF57394044F480579E
:104FC000394382830184F0BD828B4FF6F3731A401C
:104FD0008283828B0A4382837047F0B50C46154664
:104FE000002200210026078C4FF6FF6C07EA0C0711
:104FF0000784828B018C4FF6FF7707EA04264FF671
:105000000C773A404FF6FF7707EA03172F433A43EE
:10501000B64FB8420ED0B64FB8420BD0B0F1804F69
:1050200008D0B44FB84205D0B34FB84202D0B34F06
:10503000B84206D14FF6FF57394046F480773943DE
:1050400005E04FF2FF57394044F4807739438283BB
:105050000184F0BD028B4FF2FF331A400283028BB2
:105060004FF6FF7303EA01231A4302837047F0B53A
:105070000C461546002200210026078C4FF6EF7CD7
:1050800007EA0C070784028B018C4FF6FF7707EACB
:10509000041640F6FF473A404FF6FF7707EA03371A
:1050A0003A434FF6FF7707EA05273A438F4FB84256
:1050B0000ED08F4FB8420BD0B0F1804F08D08D4F3B
:1050C000B84205D08C4FB84202D08C4FB84206D1BE
:1050D0004FF6DF77394046F01007394305E04FF6C9
:1050E0005F77394044F01007394302830184F0BDF3
:1050F000028B4FF6F3731A400283028B0A4302833A
:105100007047F0B50C46154600220021068C4FF67C
:10511000FE773E400684028B018C4FF60C763240BF
:105120007E1C06EA03162E433243704EB0420ED068
:105130006F4EB0420BD0B0F1804F08D06D4EB042F0
:1051400005D06D4EB04202D06C4EB04206D14FF643
:10515000FD76314044F00106314305E04FF6F57627
:10516000314044F00106314302830184F0BD70B543
:1051700005460C465D4885420ED05D4885420BD001
:10518000B5F1804F08D05B48854205D05A4885422A
:1051900002D05A48854200D100E000BF208850B9B3
:1051A0002389A28861882846FFF7ABFFE18828465B
:1051B000FFF79EFF25E0208804280AD12389A288D2
:1051C00061882846FFF753FFE1882846FFF742FF32
:1051D00017E0208808280AD12389A28861882846F8
:1051E000FFF7FBFEE1882846FFF7EEFE09E0238982
:1051F000A28861882846FFF7A6FEE1882846FFF7C7
:1052000095FE70BD2DE9F04105460C4600260127AC
:10521000608808B9022600E00026A088012801D194
:10522000022700E001272088A0B92389A28861888D
:105230002846FFF766FFE1882846FFF759FF2389D4
:105240003A4631462846FFF712FFE1882846FFF725
:1052500001FF13E02389A28861882846FFF707FF32
:10526000E1882846FFF7F6FE23893A46314628466C
:10527000FFF747FFE1882846FFF73AFFBDE8F081D6
:105280000A884B881A438B881A43CB881A430B89A8
:105290001A434B891A438B891A43A0F8442070475C
:1052A0004FF6FF71818000210180C1804180017231
:1052B00070470021018041808180C180018141814E
:1052C0008181C1817047002101804180012181805D
:1052D0000021C180018170470021018041808180CF
:1052E000C18001814181818170470000002C014013
:1052F000003401400004004000080040000C004061
:1053000021B1028842F00102028004E002884FF6D7
:10531000FE731A400280704731B1B0F8442042F465
:105320000042A0F8442005E0B0F84420C2F30E0289
:10533000A0F8442070471AB183890B43838102E0AF
:1053400083898B43838170478182704741EA0203DE
:10535000A0F8483070471AB183890B43838102E07B
:1053600083898B438381704701894FF6F87211401E
:10537000018170470A46002101894FF68F73194059
:1053800011430181704730B504460D462946204639
:10539000FFF7F0FF208940F00700208130BD2DE9A4
:1053A000F04104460D4616461F46602D06D13B4689
:1053B000012231462046FFF75AFE05E03B46012216
:1053C00031462046FFF79DFE29462046FFF7D2FFD3
:1053D000208940F007002081BDE8F08130B50C46FF
:1053E00000210189C9B24FF6FF7505EA032515436F
:1053F00025432943018130BD2DE9F04105460E4684
:1054000017469846002443463A4631462846FFF759
:10541000E5FF2C894FF6F870044044F007044FF67E
:105420008F70044044F070042C81BDE8F081F0B529
:1054300004460D4616461F463B4632462946204640
:10544000FFF7CCFF208940F480402081F0BD01852A
:10545000828270470A46002101884FF68F731940F7
:10546000114301807047F0B50C4615461E460021D9
:10547000002200230189028B038C4FF6F877394014
:1054800021434FF6FC473A4040F201173A434FF6AA
:10549000DD773B404FF6FF7707EA06172F433B4384
:1054A000018102830384F0BD0A460021018B4FF67F
:1054B0008F7319401143018370470A460021018B05
:1054C00048F6FF7319404FF6FF7303EA02231943AE
:1054D000018370470A460021818B4FF68F73194074
:1054E0001143818370470A460021818B48F6FF7380
:1054F00019404FF6FF7303EA022319438183704773
:1055000021B1028842F08002028004E002884FF656
:105510007F731A400280704721B1828842F00402F2
:10552000828004E082884FF6FB731A4082807047C5
:1055300021B1828842F00802828004E082884FF61E
:10554000F7731A408280704721B1828842F00102CD
:10555000828004E082884FF6FE731A408280704792
:105560000A460021018B4FF6F7731940114301835E
:1055700070470A460021018B4FF2FF7319404FF626
:10558000FF7303EA02231943018370470A4600218F
:10559000818B4FF6F77319401143818370470A4698
:1055A0000021818B4FF2FF7319404FF6FF7303EA1E
:1055B00002231943818370470A460021018B4FF66D
:1055C000FB7319401143018370470A460021018B88
:1055D0004FF6FF3319404FF6FF7303EA02231943D6
:1055E000018370470A460021818B4FF6FB731940F7
:1055F0001143818370470A460021818B4FF6FF33A8
:1056000019404FF6FF7303EA022319438183704761
:105610000A460021018B4FF67F7319401143018325
:1056200070470A460021018BC1F30E014FF6FF734C
:1056300003EA02231943018370470A460021818B44
:105640004FF67F7319401143818370470A4600214A
:10565000818BC1F30E014FF6FF7303EA0223194356
:10566000818370470A460021018C4FF6FD73194073
:105670001143018470470A460021018C4FF6F773ED
:1056800019401143018470470A460021018C4FF6EE
:10569000DF7319404FF6FF7303EA021319430184C5
:1056A00070470A460021018C4FF67F7319404FF670
:1056B000FF7303EA02131943018470470A4600216D
:1056C000018C4FF6FF5319404FF6FF7303EA022394
:1056D0001943018470470A460021018C4FF2FF7381
:1056E00019404FF6FF7303EA022319430184704700
:1056F0000A460021018C4DF6FF7319404FF6FF73E7
:1057000003EA023319430184704730B500230124B2
:105710008C40A3B2048C9C430484048C02FA01F5EF
:10572000ADB22C43048430BD30B5002304248C403A
:10573000A3B2048C9C430484048C02FA01F5ADB23C
:105740002C43048430BD70B5034600200024184665
:10575000183001258D40ACB21D8CA5431D8409B1C4
:10576000082909D100EB6100056825F07005056086
:105770000568154305600EE00D1FC5F34E0528446E
:10578000056825F4E045056005684FF6FF7606EAF2
:1057900002263543056070BD21B1028842F0020245
:1057A000028004E002884FF6FD731A4002807047C1
:1057B00021B1028842F00402028004E002884FF620
:1057C000FB731A400280704721B1828842F0800248
:1057D000828004E082884FF67F731A40828070478F
:1057E00002884FF6F7731A40028002880A4302804B
:1057F000704782884FF68F731A40828082880A43EE
:105800008280704702894FF6F8731A40028102893C
:105810000A430281704702894FF67F731A40028162
:1058200002890A43028170478184704781857047ED
:10583000818670470187704781877047A0F84010C4
:10584000704702884FF6FF431A40028002880A43DD
:10585000028070470146888E70470146088F704766
:105860000146888F70470146B1F8400070470146F5
:10587000888C70470146088D704702460020138AC5
:105880000B400BB1012000E000207047CA430282A8
:10589000704730B50246002000230024158A05EA2F
:1058A0000103958905EA010413B10CB1012000E060
:1058B000002030BDCA430282704770470FB40449CC
:1058C00010B503AA029800F023FC10BC5DF814FB8D
:1058D000D40100200FB41CB5074B06AA7B446946CF
:1058E0000090059800F0FBFB0020694600F00AFCE0
:1058F0001CBC5DF814FB0000250800002DE9F041F8
:105900000646002410687529314616A510D0AFF35D
:105910000080002802DA404213A507E031688A07B8
:1059200001D512A502E0490704D511A5012401E023
:10593000AFF3008000210A2206F1240709E0B0FB42
:10594000F2FCB0FBF2F302FB1C0030307854184636
:10595000491C0028F3D123462A463046BDE8F041D1
:1059600000F050B9000000002D0000002B000000E6
:10597000200000002DE9F0474FF0000A8946044658
:10598000C0F820A02046E1688847002876D0252866
:1059900006D0D4E901219047206A401C2062F1E73B
:1059A000E168204600258847C4F81CA00646002769
:1059B000C4F818A02A2E09D0304601F046FF38B3AB
:1059C00004EB8708303EC8F8186019E059F8041B4A
:1059D000204604EB87029161E1688847012F064663
:1059E00018D1E069002820DA25F020051DE0D8F85C
:1059F000180000EB800006EB40003038C8F81800B3
:105A00002046E1688847064601F01FFF0028EED1D6
:105A1000012F0AD02E2E08D12046E16888477F1C2E
:105A20000646022F45F02005C4DBA069002803DAF2
:105A3000404245F00105A061E80701D025F01005BE
:105A4000B6B1A6F14100192802D8203645F4006508
:105A50004A463146204625604D46FAF7A1FB58B12B
:105A6000012806D0ED1D25F0070000F1080989E79F
:105A700004E005F1040985E730468AE7206ABDE8BD
:105A8000F087401ECAB210F8011F8A4202D00029D6
:105A9000F9D10020704740EA0103024630B59B0768
:105AA00010D14FF0013400E008C208C91D1B9D430E
:105AB00015EAC41FF8D013F0FF0102F8011B0DD046
:105AC0001B0AF8E711F8013B002B02F8013B05D057
:105AD00011F8013B002B02F8013BF3D130BD10B5AA
