:020000040800F2
:10000000100F002071420008710B0008730B0008EC
:10001000770B00087B0B00087F0B00080000000036
:10002000000000000000000000000000830B00083A
:10003000850B000800000000870B0008890B0008F2
:100040008B4200088B4200088B4200088B4200085C
:100050008B4200088B4200088B4200088B4200084C
:10006000B7220008ED2200088B4200088B420008EE
:100070008B4200088B4200088B4200088B4200082C
:100080008B4200088B4200088B4200088B4200081C
:100090008B4200088B4200088B4200088B4200080C
:1000A0008B4200088B4200088B4200088B420008FC
:1000B0008B420008352C0008632C00088B42000896
:1000C0008B4200088B4200088B4200088B420008DC
:1000D0008B420008E5410008692000088B420008B7
:1000E0008B4200088B4200088B42000800F002F8A7
:1000F00000F074F80AA090E8000C82448344AAF14E
:100100000107DA4501D100F069F8AFF2090EBAE84B
:100110000F0013F0010F18BFFB1A43F0010318473B
:1001200038A3000058A3000010F8013B0A4413F064
:10013000030408BF10F8014B1D1108BF10F8015B44
:10014000641E05D010F8016B641E01F8016BF9D133
:10015000002D15D010F8014B03F00C030C2BA1EB74
:1001600004040ABF10F8013BA4EB8314A4EB03249E
:1001700005F1010314F8016B5B1E01F8016BF9D561
:10018000914238BF10F8013BD1D3704700230024BF
:1001900000250026103A28BF78C1FBD8520728BF97
:1001A00030C148BF0B607047662908F05187642949
:1001B00006F0CE81002070471FB506F01DFE04003A
:1001C0000020002108F0E6F9401C606000200021BA
:1001D00008F0CAF9E0601FBD10B510BD06F038FF89
:1001E0001146FFF7E9FF00F009F807F0DBF903B467
:1001F000FFF7F2FF03BC03F09BFF0000D2B06421C5
:1002000038A806F09DFA002037904FF440701D90FA
:10021000342110A806F094FAFDA000680F90002089
:100220000E9003F01BFF4FF4A06004F0C5FD01F039
:10023000FFFF00F072FF00F099FD02F0A3FD03F054
:1002400025FD41F61F41C72002F088FC4FF41650EF
:1002500001F02CFF4FF6FF70EE4908800020EE49B8
:1002600008804FF6FF7001F07AF801201021EBA210
:10027000CDE900210290E7480388E74802880A2177
:10028000052001F010FD1F20E34908800120102106
:10029000E5A2CDE900210290DE480388DE4802880D
:1002A0001E21052001F0FFFC4FF47840DA49088058
:1002B00001201021E0A2CDE900210290D548038859
:1002C000D54802883221052001F0EDFC4BF6404074
:1002D000D149088001201021DAA2CDE90021029045
:1002E000CC480388CC4802885A21052001F0DBFC69
:1002F0004FF6FF70C8490880D548D6A10CC810A891
:1003000006F012F90FA910A806F00EFAD348D44946
:10031000D44AD54BCDE90132CDE90310D348D44BB3
:10032000D44ACB49009003C902F04AF8D249087078
:1003300008460078052804D006282DD0072869D162
:100340004DE01020012300226E210090052001F0D5
:10035000C8FA1020012300226E2100900D2001F028
:10036000C0FA1020012300226E210090152001F018
:10037000B8FA4BF64040A84908800120102110AA85
:10038000CDE900210290A3480388A34802886E218A
:100390001D2001F088FC50E01020012300226E2176
:1003A0000090052001F09DFA1020012300226E210B
:1003B00000900D2001F095FA4BF6404096490880D8
:1003C0000120102110AACDE9002102909148038854
:1003D000914802886E21152001F065FC2DE0102067
:1003E000012300226E210090052001F07AFA4BF6DD
:1003F0004040894908800120102110AACDE9002140
:10040000029084480388844802886E210D2001F000
:100410004AFC12E04BF640407F4908800120102141
:1004200010AACDE9002102907A4803887A48028810
:100430006E21052001F037FC00BF00BF002003F053
:1004400046FC41F61F4142F20F7002F0B3FB88E315
:100450008A48007800287DD14BF640406E490880DC
:100460007E48007808F072FB854A864BCDE908018A
:1004700008F0BCFBCDE90C017948007808F066FB78
:10048000814A824BCDE9040108F0B0FBCDE90801B7
:100490007448007808F05AFB7D4A7E4BCDE9000194
:1004A00008F0A4FBCDE90401724800784FF47A719A
:1004B00048436F490A7802EBC20101EB021100EBDD
:1004C00081006A49097801EB810100EB410066492E
:1004D00009780844019008F022FBCDE90201DDE92A
:1004E000042308F09FF8CDE90601DDE9082308F0B0
:1004F00099F8CDE90A01DDE90C2308F093F8544A94
:1005000003C2534853A10CC810A806F00DF862A10D
:1005100010A806F009F94FF6FF707E2364226E21C1
:100520000090052000F04EFF0A2003F0D4FD4FF6A6
:10053000FF7039490880494849494A4A4A4BCDE940
:100540000132CDE903104948494B4A4A40490090DD
:1005500003C900E0DCE001F033FF474908700846BA
:100560000078052804D006282DD007284ED197E022
:100570001020012300226E210090052001F0B1F926
:100580001020012300226E2100900D2001F0A9F916
:100590001020012300226E210090152001F0A1F906
:1005A0004BF640401C4908800120102110AACDE9DB
:1005B0000021029017480388174802886E211D20E9
:1005C00001F071FB9AE01020012300226E210090BF
:1005D000052001F086F91020012300226E210090F1
:1005E0000D2001F07EF94BF640400B4908800120B8
:1005F000102110AACDE90021029006480388064880
:1006000002886E21152001F04EFB77E063E00000C8
:100610006D6C00006600002064000020B2C9D1F9B2
:10062000CAFDD6B53A000000B2C9D1F9B5E7D1B9D3
:100630003A302E3030305600C6F8B7A7C1F7C1BFE8
:100640003A000000C9E8B6A8C1F7C1BF3A000000EF
:1006500000000020252E3366000000001E00002050
:100660001D0000201C0000201B0000201A0000209C
:100670001900002018000020210000201F00002089
:10068000FCA9F1D24D62503F7B14AE47E17A843F22
:100690009A9999999999B93F6D6C0D0A00000000DB
:1006A0001020012300226E210090052001F019F98D
:1006B0004BF64040F84908800120102110AACDE9EE
:1006C00000210290F5480388F34802886E210D202E
:1006D00001F0E9FA12E04BF64040EF4908800120B2
:1006E000102110AACDE900210290EC480388EA48C5
:1006F00002886E21052001F0D6FA00BF00BF01205C
:10070000E7490870E74903C903F0D2F8E64A03C293
:10071000E648E749E74AE84BCDE90032CDE9021067
:10072000E64BE74AE749E848007801F0F4FE0EA9F5
:100730001EA801F051FD9DF8380000287ED04BF630
:100740004040D549088000201EA99DF838208854D3
:100750009DF83800401F0246491C0D9038A806F04D
:1007600016F838A807F084FE0022D84BCDE90C011A
:1007700008F014F8CC4A03C2CB4903C903F08FF840
:10078000C84A03C2C748AFF234110CC810A805F01C
:10079000CBFE0FA910A805F0C7FF4FF6FF707E2310
:1007A00064226E210090052000F00CFE4FF6FF70D1
:1007B000B94908800521C6A001F0ECFCBB48BC4942
:1007C000BC4ABD4BCDE90132CDE90310BB48BC4B5F
:1007D000BC4AB449009003C901F0F2FDBA4908705F
:1007E00008460078052804D006282FD007286BD1AA
:1007F0004FE01020012300226E210090052001F01F
:1008000070F81020012300226E2100900D2001F0CD
:1008100068F81020012300226E210090152001F0BD
:1008200060F84BF640409C4908800120102110AA36
:10083000CDE9002102909948038800E05EE09648E7
:1008400002886E211D2001F02EFA50E010200123B5
:1008500000226E210090052001F043F810200123B2
:1008600000226E2100900D2001F03BF84BF6404035
:10087000894908800120102110AACDE900210290A9
:1008800086480388844802886E21152001F00BFAFF
:100890002DE01020012300226E210090052001F0A0
:1008A00020F84BF640407C4908800120102110AA16
:1008B000CDE90021029079480388774802886E21AB
:1008C0000D2001F0F0F912E04BF64040724908802B
:1008D0000120102110AACDE9002102906F48038861
:1008E0006D4802886E21052001F0DDF900BF00BFD0
:1008F00000200E9078490880784908600A2108464F
:1009000000F08DFA37901020754B00900A214E2090
:10091000379A01F09DFA00221346634903C908F093
:10092000A5FA704A704BCDE90C0108F05DFA7DD252
:100930006B485D490CC803C902F0C3FF6B4A03C290
:1009400067486A490CC803C908F090FA21F00041D1
:10095000CDE90C0162480CC80C9807F01FFF644AEF
:1009600003C2634863A10CC810A805F0DDFD67A1B0
:1009700010A805F0D9FE10A805F0B7FEC0B20146D8
:100980000D9010A801F006FC554858490CC803C941
:1009900008F06CFA21F00041524A534BCDE90C01AA
:1009A00008F022FA24D24E4850490CC803C908F076
:1009B0001BFA1DD20120564908704D480CC8002072
:1009C000544907F02FFECDE90A011D9808F0BEF842
:1009D000CDE90801DDE90A2308F008F9CDE90C01A9
:1009E00008F070F880B21D9000204949087031E08D
:1009F0003B483E490CC803C908F038FA21F00041D1
:100A0000384A394BCDE90C0108F0EEF922D23448CE
:100A100036490CC803C908F0ADF81BD200203C4988
:100A2000087033480CC800203A4900E099E008F00B
:100A30001DFACDE90A011D9808F088F8CDE90801F2
:100A4000DDE90A2308F0D2F8CDE90C0108F03AF804
:100A500080B21D9030A110A81D9A05F065FD2BA154
:100A600010A805F061FE10A805F03FFEC0B20146D7
:100A70000D9010A801F08EFB1D98B0F5006F57DCAB
:100A80001D98102854DB1D9803F021F9042126A09D
:100A900001F080FB65E0000064000020660000209B
:100AA0001F00002000000020080000201E00002081
:100AB0001D0000201C0000201B0000201A00002048
:100AC00019000020180000202100002000408F4065
:100AD0003132330D0A0000006A00002098012142E3
:100AE000100000208DEDB5A0F7C6B03E2800002014
:100AF000480000206368616E67655F7065726365BA
:100B00006E746167653A252E336600000D0A000099
:100B1000400000200000F03F496E7075745F766100
:100B20006C75653A256400006F6B0D0A00000000CB
:100B30001D9810280ADA10201D901D9803F0C7F8A0
:100B40000421AFF21C0001F025FB0AE01D98B0F56E
:100B5000006F06DD002003F0BAF8082101A001F0C3
:100B600019FB75E46661696C65640D0A000000009C
:100B7000704700BFFEE700BFFEE700BFFEE700BF13
:100B8000FEE7704770477047704700000CB50020C3
:100B9000019000906C48006840F480306A49086019
:100BA00000BF6948006800F4003000900198401CC4
:100BB0000190009818B90198B0F5A06FF1D1624882
:100BC000006800F4003010B10120009001E0002026
:100BD00000900098012843D15C48006840F0100064
:100BE0005A4908600846006820F00300086008467B
:100BF000006840F00200086053484068524948606D
:100C00000846406848600846406840F48060486094
:100C10000846406820F47C1048600846406840F46C
:100C2000E81048600846006840F08070086000BF27
:100C30004548006800F000700028F9D0424840683C
:100C400020F00300404948600846406840F0020038
:100C5000486000BF3C48406800F00C000828F9D10B
:100C60000CBD10B5FFF792FF10BD10B536480068F7
:100C700040F00100344908600846406834490840A3
:100C80003149486008460068324908402E490860EA
:100C90000846006820F4802008600846406820F478
:100CA000FE0048604FF41F008860FFF7DAFF4FF046
:100CB00000602949086010BD10B500210020002205
:100CC000214B5B6803F00C0121B1042906D00829EF
:100CD00028D107E0214B224C236027E01F4B204CFA
:100CE000236023E0184B5B6803F47010164B5B68BD
:100CF00003F48032022303EB904022B9194B4343A3
:100D0000174C23600DE0104B5B6803F4003323B1F4
:100D1000144B4343124C236003E0104B4343104CED
:100D2000236003E00D4B0E4C236000BF00BF064B59
:100D30005B68C3F303130C4CE15C094B1B68CB40AD
:100D4000074C236010BD000000100240002002404C
:100D50000000FFF8FFFFF6FE08ED00E000127A0049
:100D60005000002000093D005400002000B587B06D
:100D700001214FF4047003F0B7FD4FF4004003F07D
:100D800017FD0120ADF8040000208DF8070001A92F
:100D90002E4803F0EDFA2E4804F07CF80020029073
:100DA0008DF80C008DF80D004FF4602004900020A9
:100DB000059001208DF8180002A9254804F091F84B
:100DC0000121234804F0B9F8214804F0D8F800BF05
:100DD0001F4804F0D9F80028FAD11D4804F0DEF8C5
:100DE00000BF1B4804F0DFF80028FAD107B000BDAF
:100DF00010B50446072301222146154804F009F9DD
:100E00000121134804F0D9F800BF0221104804F072
:100E100045FA0028F9D00E4804F062F910BD2DE91A
:100E2000F04107460C460025002608E03846FFF74B
:100E3000DFFF0544052003F04EF9701CC6B2A64240
:100E4000F4DBB5FBF4F080B2BDE8F08100100140A6
:100E5000002401400021082114E000F0800222B1AA
:100E60004FF40072FE4B1A6103E04FF40072FC4B2A
:100E70005A614FF48072FA4B5A611A614206100EA1
:100E80004A1ED1B20029E8DC7047024600BF108933
:100E900000F002000028FAD0918100BF108900F014
:100EA00001000028FAD09089C0B2704702884FF63E
:100EB000C7731A400280012902D10288028003E030
:100EC000028842F020020280028842F04002028042
:100ED000704700B587B00121092003F005FD4FF4EC
:100EE0002040ADF8040003208DF8060018208DF88E
:100EF000070001A9DB4803F03BFA4FF48040ADF84E
:100F0000040048208DF8070003208DF8060001A991
:100F1000D44803F02DFA41F20200ADF8040003209A
:100F20008DF8060010208DF8070001A9CD4803F0C8
:100F30001FFA4FF48051CB4803F0C9FA0221C94887
:100F400003F0C5FA0121880303F0DBFC0020ADF8B3
:100F500008004FF48270ADF80A000020ADF80C00D4
:100F6000ADF80E00ADF810004FF40070ADF81200AF
:100F70000020ADF81400ADF816000720ADF81800F9
:100F800002A9B94804F0D4F90121B74804F075FA70
:100F900007B000BD10B504464FF48070B14914315C
:100FA000086002200860E0B2FFF754FF4FF4807041
:100FB000AC491031086010BD10B504464FF4807084
:100FC000A849143108600220091F08602046FFF775
:100FD00041FF4FF48070A3491031086010BD10B577
:100FE00004464FF480709F49143108600220091FA5
:100FF00008602012FFF72EFFE0B2FFF72BFF4FF43F
:10100000807098491031086010BD30B505460C4617
:101010002846FFF7BFFFE0B2FFF7CEFF30BD00B5B7
:1010200092490889FFF7B6FF00BDF0B504460D46AA
:1010300016461F468D494889FFF7ACFF2012FFF77F
:10104000BBFFA11CC8B2FFF7B7FF3012FFF7B4FF18
:10105000B11CC8B2FFF7B0FF84498889FFF79AFF37
:101060002812FFF7A9FFE91CC8B2FFF7A5FF381245
:10107000FFF7A2FFF91CC8B2FFF79EFFFFF7CFFFF3
:10108000F0BD30B504460D462B4622462946204683
:10109000FFF7CBFF30BD30B504460D46294620464C
:1010A000FFF7EFFF72480088FFF799FF30BD08B5E2
:1010B0000121182003F018FC4FF4E060ADF80000A7
:1010C00003208DF8020010208DF803006946644863
:1010D00003F04EF94FF48170ADF8000069466148A5
:1010E00003F046F908BD10B5642002F0F4FF322089
:1010F00002F0F1FF10BD00B52C205C4908810020F2
:1011000088718020088048802A2048812B2088818F
:10111000C8213620FFF779FF00BD10B5FFF7C7FFE4
:10112000FFF7E1FF1120FFF735FF782002F0D3FF32
:10113000B120FFF72FFF0120FFF73EFF2C20FFF724
:101140003BFF2D20FFF738FFB220FFF723FF0120E0
:10115000FFF732FF2C20FFF72FFF2D20FFF72CFF8A
:10116000B320FFF717FF0120FFF726FF2C20FFF722
:1011700023FF2D20FFF720FF0120FFF71DFF2C206C
:10118000FFF71AFF2D20FFF717FFB420FFF702FF2C
:101190000720FFF711FFC020FFF7FCFEA220FFF79A
:1011A0000BFF0220FFF708FF8420FFF705FFC12097
:1011B000FFF7F0FEC520FFF7FFFEC220FFF7EAFEB3
:1011C0000A20FFF7F9FE0020FFF7F6FEC320FFF725
:1011D000E1FE8A20FFF7F0FE2A20FFF7EDFEC42093
:1011E000FFF7D8FE8A20FFF7E7FEEE20FFF7E4FEC8
:1011F000C520FFF7CFFE0E20FFF7DEFE3620FFF7FB
:10120000C9FEC820FFF7D8FEE020FFF7C3FE0F207D
:10121000FFF7D2FE1A20FFF7CFFE0F20FFF7CCFE1C
:101220001820FFF7C9FE2F20FFF7C6FE2820FFF782
:10123000C3FE2020FFF7C0FE2220FFF7BDFE1F20C7
:10124000FFF7BAFE1B20FFF7B7FE2320FFF7B4FE1F
:101250003720FFF7B1FE0020FFF7AEFE072009E0C0
:1012600000100140000C014000380040C80600207A
:1012700064000020FFF7A0FE0220FFF79DFE102073
:10128000FFF79AFEE120FFF785FE0F20FFF794FE9F
:101290001B20FFF791FE0F20FFF78EFE1720FFF7B0
:1012A0008BFE3320FFF788FE2C20FFF785FE2920D8
:1012B000FFF782FE2E20FFF77FFE3020FFF77CFE37
:1012C0003020FFF779FE3920FFF776FE3F20FFF749
:1012D00073FE0020FFF770FE0720FFF76DFE03206E
:1012E000FFF76AFE1020FFF767FE2A20FFF752FE85
:1012F0000020FFF761FE0020FFF75EFE0020FFF7F1
:101300005BFE7F20FFF758FE2B20FFF743FE0020F7
:10131000FFF752FE0020FFF74FFE0020FFF74CFEC4
:101320009F20FFF749FEF020FFF734FE0120FFF772
:1013300043FEF620FFF72EFE0020FFF73DFE3A2089
:10134000FFF728FE0520FFF737FE2920FFF722FED2
:10135000FFF7D1FE4FF480501249086010BD70B500
:10136000064611484088401E83B20F480088401E40
:1013700082B200210846FFF758FE00240CE0002549
:1013800004E03046FFF72BFE681C85B20648408813
:10139000A842F6DC601C84B203480088A042EEDC60
:1013A00070BD0000100C0140C806002070B5054655
:1013B0000E46144631462846FFF763FE2046FFF7E7
:1013C0000EFE70BD2DE9F05F06460F4614461D4621
:1013D000A01B401C1FFA80FAE81B401C1FFA80FB70
:1013E000681E83B2601E82B239463046FFF71DFE8A
:1013F0004FF000080FE04FF0000906E00A98FFF7F1
:10140000EEFD09F101001FFA80F9D145F6DB08F184
:1014100001001FFA80F8D845EDDBFD484088401EEA
:1014200083B2FB480088401E82B200210846FFF7C5
:10143000FCFDBDE8F09F2DE9FF4F85B081468A464F
:101440000020049003900798A0EB09050898A0EBF2
:101450000A06CDF80890CDF804A0002D01DD012783
:1014600005E00DB9002702E04FF0FF376D42002E76
:1014700002DD4FF0010806E016B94FF0000802E067
:101480004FF0FF387642B54201DD2C4600E034468D
:101490004FF0000B21E0019A91B2029A90B2FFF74F
:1014A000FAFD04982844049003983044039004986B
:1014B000A04205DD0498001B049002983844029075
:1014C0000398A04205DD0398001B03900198404457
:1014D00001900BF101001FFA80FB601C8345DADDEF
:1014E00009B0BDE8F08F2DE9F04104460D461646DF
:1014F0001F462B46324629462046FFF79CFF3B46B7
:10150000224629462046FFF796FF3B46324639469B
:101510002046FFF790FF3B46324629463046FFF70C
:101520008AFFBDE8F081F8B504460D4616461F4611
:10153000B84800883B463246294600902046FFF7CF
:1015400041FFF8BD2DE9F04104460D4616461F4601
:10155000DDF81880EA1991B2A21990B24246FFF75D
:1015600025FFEA1991B2A21B90B24246FFF71EFF77
:10157000EA1B91B2A21990B24246FFF717FFEA1B8D
:1015800091B2A21B90B24246FFF710FFAA1991B286
:10159000E21990B24246FFF709FFAA1991B2E21B85
:1015A00090B24246FFF702FFAA1B91B2E21990B235
:1015B0004246FFF7FBFEAA1B91B2E21B90B24246E5
:1015C000FFF7F4FEBDE8F0812DE9FF4F81B08246C0
:1015D00017469846DDF838B0002445464FEA4800E3
:1015E000C0F10306BBF1000F1FD01BE0A14608E0CD
:1015F0004B462246009750460299FFF7A3FF09F198
:101600000109A945F4DD002E04DA042000FB046082
:10161000861D06E0601B042101FB006000F10A0644
:101620006D1E641CAC42E1DD18E015E02B4622463D
:10163000009750460299FFF785FF002E04DA042038
:1016400000FB0460861D06E0601B042101FB0060B6
:1016500000F10A066D1E641CAC42E7DD05B0BDE872
:10166000F08F2DE9FF4F83B081468A469346DDE92E
:101670001064684800880290A6F12000C6B204EB0E
:10168000D47009EB6000401E82B20AEB0400401ED9
:1016900083B2514648460194FFF7C7FC129860BBDD
:1016A000002527E00C2C07D106EB46005A4901EB38
:1016B000800010F8058004E0584800EB061010F890
:1016C000058000270FE008F0010020B10BF0FF00BB
:1016D000FFF772FC03E00699C8B2FFF76DFC4FEA12
:1016E0006808781CC7B204EBD471B7EB610FEADB72
:1016F000681CC5B2A542D5DB2DE0002529E00C2CE5
:1017000007D106EB4600444901EB800010F8058044
:1017100004E0424800EB061010F80580002711E0B5
:101720003C48A0F800B008F0010038B10AEB05020F
:1017300091B209EB070290B2FFF7ADFC4FEA6808DF
:10174000781CC7B204EBD471B7EB610FE8DB681CFF
:10175000C5B2A542D3DB2F49029808802C484088A7
:10176000401E83B22A480088401E82B200210846EB
:10177000FFF75BFC07B0BDE8F08F2DE9FE4F044694
:101780000E4691460C9F23480088029001940096D3
:10179000002561E01E480088401EA04204DB1C4872
:1017A0004088401EB04201DABDE8FE8F3D783A2DF8
:1017B00001D10A2506E02E2D01D10B2502E0A5F16D
:1017C0003000C5B201944FF0000837E005EB45004A
:1017D000134901EB001010F808A04FF0000B25E0B2
:1017E0000C48A0F800900AF0800018B1314620465D
:1017F000FFF751FC4FF6FF7000EA4A0A601C84B202
:101800000198201A0C280DD1019C701C86B210E0A2
:10181000C80600206400002050910008C49500080C
:10182000B49B00080BF1010000F0FF0BBBF1080FA7
:10183000D6DB00BF08F1010000F0FF08B8F1300F5F
:10184000C4DB0A2D03DA04F1100084B202E004F1D3
:10185000080084B2009E7F1C38787E2802DC38782D
:10186000202897DAFB490298088000BF9CE72DE901
:10187000FE4306460F4615461C46DDF828801DE04F
:10188000F5480088401EB04204DBF3484088401E03
:10189000B84201DABDE8FE8320788DE82101EF48E7
:1018A0000388EC48028839463046FFF7DAFE2846BE
:1018B00005EBD07106EB61018EB2641C20787E28A6
:1018C00002DC20782028DBDA00BFE3E710B502460F
:1018D000012000E050430B1EA1F10104E1B2F9D157
:1018E00010BD2DE9FF4F83B0074691461E46109C60
:1018F0004FF0000A002543E0701B401EC1B20A20D1
:10190000FFF7E4FFB9FBF0F00A21B0FBF1F201FBB5
:101910001208BAF1000F1BD1701EA84218DDB8F1F1
:10192000000F13D101202021A346CDE9001402901D
:1019300004EBDB71491001FB057188B2C7490B88C4
:10194000C4490A880499FFF78CFE17E04FF0010A9A
:10195000012108F13000C0B2A346CDE90141009059
:1019600004EBDB71491001FB057188B2BB490B88A0
:10197000B8490A880499FFF774FE00BF681CC5B215
:10198000B542B9DB07B0BDE8F08F2DE9FC5F054635
:10199000884691469A46DDF830B0009510200190B7
:1019A00000245FE004EB0410AD4911F810009BF82F
:1019B0000010884253D104EB0410A94901EB400008
:1019C00040789BF80110884249D108F10F0083B29A
:1019D00005F10F0082B241462846FFF726FB00269C
:1019E0003BE0002734E00D9890B904EB04109C49CB
:1019F00001EB4000801C805D80213941084018B116
:101A00004846FFF7ECFA21E05046FFF7E8FA1DE000
:101A10009048A0F8009004EB0410914901EB4000BD
:101A2000801C805D80213941084018B1414628461C
:101A3000FFF731FB681C85B20098281A102805D1E1
:101A4000009D08F101001FFA80F803E0781CC7B27E
:101A5000082FC8DB00BF701CC6B2202EC1DB00BF40
:101A6000601C84B2019884429CDB7B484088401E05
:101A700083B279480088401E82B200210846FFF7F1
:101A8000D4FABDE8FC9F2DE9FC5F054688469146E7
:101A90009A46DDF830B000950B200190002467E0F5
:101AA00004EB840000EB44106E4911F810009BF821
:101AB0000010884259D104EB840000EB44106949BE
:101AC00001EB400040789BF8011088424DD108F1AD
:101AD000170083B205F1170082B241462846FFF78E
:101AE000A4FA00263FE0002738E00D98A0B904EBE7
:101AF000840000EB44105B4901EB4000801C805DDA
:101B000080213941084018B14846FFF768FA23E0C0
:101B10005046FFF764FA1FE04E48A0F8009004EB2F
:101B2000840000EB44104F4901EB4000801C805DB5
:101B300080213941084018B141462846FFF7ABFAE9
:101B4000681C85B20098281A182805D1009D08F154
:101B500001001FFA80F803E0781CC7B2082FC4DB2D
:101B600000BF701CC6B2482EBDDB00BF601C84B233
:101B70000198844294DB38484088401E83B236483E
:101B80000088401E82B200210846FFF74EFABDE8E9
:101B9000FC9F2DE9FC5F0546884691469A46DDF894
:101BA00030B000950120019000246BE004EB84101C
:101BB0002D4911F810009BF8001088425FD104EB0A
:101BC0008410294901EB400040789BF801108842BD
:101BD00055D108F11F0083B205F11F0082B24146C2
:101BE0002846FFF722FA002647E0002740E00D983C
:101BF00090B904EB84101C4901EB4000801C805D0F
:101C000080213941084018B14846FFF7E8F92DE036
:101C10005046FFF7E4F929E00E48A0F8009004EBE5
:101C20008410114901EB4000801C805D8021394106
:101C3000084018B141462846FFF72DFA681C85B2C6
:101C40000098281A202811D1009D08F101001FFAE0
:101C500080F80FE064000020C80600206600002025
:101C6000F49D000814A0000842A30008781CC7B225
:101C7000082FBCDB00BF701CC6B2802EB5DB00BFD6
:101C8000601C84B20198844290DBE9484088401E81
:101C900083B2E7480088401E82B200210846FFF761
:101CA000C4F9BDE8FC9F2DE9FF4F83B00646884686
:101CB0009146DDE91147109DB2464FF0000B73E0ED
:101CC000BBF1000F42D104EBD471D94A1288A2EBC8
:101CD0006101B14204DBD6494988091B414502DA5A
:101CE00007B0BDE8F08F2878802802DD4FF0010BA7
:101CF0005AE028780D2806D108EB04001FFA80F876
:101D000056466D1C20E00C2C01D0102C0FD12878E9
:101D10008DE891004A4641463046069BFFF7A1FCFC
:101D2000204604EBD07106EB61018EB20CE010216D
:101D300028788DE883004A4641463046069BFFF7E7
:101D400090FC06F1080086B26D1C2DE0B8480088B2
:101D5000001BB04204DBB6484088001B404500DA57
:101D6000BEE74FF0000B202C08D1CDE900574A46C2
:101D700041463046069BFFF70CFF12E0182C08D1B5
:101D8000CDE900574A4641463046069BFFF77BFEA9
:101D900007E0CDE900574A4641463046069BFFF72B
:101DA000F4FDAD1C301986B22878002888D100BF18
:101DB00096E72DE9FF4F83B004460F469046DDE9D4
:101DC000119A109D284604F090FC86B29849098823
:101DD000A1EBC60000EBD071C1F34F0B04EB0B017C
:101DE00088B28DE8200642463946069BFFF75BFF26
:101DF00007B0BDE8F08F2DE9F04706460F461546BF
:101E000007F1270083B206F1270082B23946304637
:101E1000FFF70BF900240AE015F8149005EB4400D5
:101E200090F8018049EA0820FFF7D9F8641CB4F55E
:101E3000C86FF1DB7E484088401E83B27C48008832
:101E4000401E82B200210846FFF7EFF8BDE8F08798
:101E50002DE9F04FA3B081460C4693469A46642183
:101E600009A804F06DFC002006900790089071A06E
:101E70000068059070A00068049000206F490880F9
:101E80001FFA8BF022904FF6FF70009004F11400BF
:101E900083B209F13C0082B221464846FFF792FA2C
:101EA0002C980423009021464846229AFFF719FDFA
:101EB000229806F04BFE624A624BCDE9020106F021
:101EC00095FE05460E46CAE900562A4633465EA1EF
:101ED00006A804F029FB04A906A804F025FC4FF687
:101EE000FF70009004F1280083B209F1500082B223
:101EF00004F1140081B24846FFF764FA1F204F49ED
:101F000008800120102106AACDE90021029004F1E9
:101F1000140081B24E480388484802884846FFF7BB
:101F2000C2FEDAE90021104601F0B9FC07468846F6
:101F30000022484B3846414606F098FF21F0004108
:101F4000454A464BCDE9020106F04EFF09D2002278
:101F5000404B3846414606F047FF02D20027DFF8E3
:101F6000F4804FF6FF70009004F1500083B209F145
:101F7000500082B204F13C0081B20520FFF722FA42
:101F80003A46434630A106A804F0CEFA05A906A8B1
:101F900004F0CAFB4FF47840284908800022134619
:101FA0003846414606F062FF21F000412A4A2B4B99
:101FB000CDE9020106F018FF17D200221346384679
:101FC000414606F0D7FD10D20120102124A2CDE910
:101FD0000021029004F13C0081B21D48038817489B
:101FE00002880520FFF75FFE0FE00120102106AAFE
:101FF000CDE90021029004F13C0081B2144803882D
:102000000E4802880520FFF74EFE1FFA8BF0229043
:10201000229806F09BFD0A4A0A4BCDE9020106F020
:10202000E5FD05460E46CAE9005623B0BDE8F08F2F
:10203000C80600206D6C00005600000064000020FF
:1020400052B81E85EB515A3F252E33660000000022
:10205000660000200058BB408DEDB5A0F7C6B03E2D
:10206000B4EDCEF30000000070B540F225516B488E
:1020700002F05EFEC8B10721684802F043FE08B1D5
:10208000012400E00024654802F0D2FDC5B2644896
:102090000088402809DA44B96248614909884554F2
:1020A0005F480088401C5E49088070BD10B586B04E
:1020B00004460121042002F017FC0121084602F029
:1020C00013FC0121480402F01CFC0420ADF81400AC
:1020D00018208DF8170003208DF8160005A9524826
:1020E00002F046F90421504802F0EFF90820ADF85B
:1020F000140048208DF8170005A94B4802F038F964
:102100004020ADF8140010208DF8170005A94648AE
:1021100002F02EF94021444802F0D9F90121480487
:1021200002F009FC00214FF4003002F004FC01949D
:102130000020ADF80800ADF80A00ADF80C00ADF8CD
:1021400010000C20ADF80E0001A9344802F073FC19
:1021500040F22551314802F015FE012240F225518E
:102160002E4802F000FD26208DF8000002208DF898
:1021700001008DF8020001208DF80300684602F08E
:1021800020FE0121254802F0E2FC002027490860DA
:1021900006B010BD70B505460E4601202349086003
:1021A00000240CE000BF80211C4802F0ABFD002899
:1021B000F9D0295D194802F037FD601CC4B2B44261
:1021C000F0DB00BF4021154802F09CFD0028F9D04B
:1021D00000201649086070BD2DE9F04107460D4604
:1021E0000F4806780024002028700A2001F073FFB1
:1021F0000B48008886420FD176B100BF04E0094841
:10220000005D3855601CC4B2B442F8DB0448007865
:102210002870002002490880BDE8F0810044004099
:102220006A000020D60600200008014098012142E3
:102230000EB500F079F80121084602F055FB0221A5
:10224000084602F0ABF90420019000208DF8080048
:102250000C208DF8090001208DF80A0001A803F078
:10226000D5F90321022002F099F9082001900120FC
:102270008DF80A0001A803F0C9F908208DF80000C4
:1022800002208DF8010003208DF8020001208DF856
:102290000300684602F095FD09208DF80000022039
:1022A0008DF8010001208DF802008DF803006846CA
:1022B00002F087FD0EBD10B5042003F00DFA0128D1
:1022C00010D10A2001F007FF0421124802F0E3F8C0
:1022D00040B90120104908701049087001211048C8
:1022E00003F044FE042003F008FA10BD10B50A20E4
:1022F00001F0F1FE0821074802F0CDF828B90648A0
:102300000078012801D107490870082003F0F5F989
:1023100010BD0000001001406E0000207000002081
:10232000000800407100002008B50121102002F0D3
:10233000DBFA0C20ADF8000048208DF80300694658
:102340001D4802F015F808BD10B5044614B101206F
:102350001A49087019480078E8B10421164802F0BB
:102360009AF820B10821144802F095F898B90A208B
:1023700001F0B1FE00201149087004210E4802F05E
:102380008AF808B9012010BD08210B4802F083F833
:1023900078B90220F7E70421074802F07CF8012809
:1023A00007D10821044802F076F8012801D1034939
:1023B00008700020E7E70000001001406F000020D7
:1023C0002DE9FF5F86B014461D4614AE96E8C0079F
:1023D00000200590834602900390049002A801908B
:1023E000FEA1DDE9062304F09FF802A804F07DF9C0
:1023F000C0B205902E2102A804F06DF9019002A947
:102400000198401A00F0FF0BBBF1010F09D0BBF19E
:10241000020F1ED0BBF1030F36D0BBF1040F72D1F7
:1024200050E000202070287030709DF8080030388F
:1024300038709DF80A00303888F800009DF80B00CD
:10244000303889F800009DF80C0030388AF8000018
:102450005AE00020207028709DF808003038307055
:102460009DF80900303838709DF80B00303888F836
:1024700000009DF80C00303889F800009DF80D0030
:1024800030388AF800003FE0002020709DF80800F6
:10249000303828709DF80900303830709DF80A00F7
:1024A000303838709DF80C00303888F800009DF8FE
:1024B0000D00303889F800009DF80E0030388AF899
:1024C000000021E09DF80800303820709DF80900D8
:1024D000303828709DF80A00303830709DF80B00B5
:1024E000303838709DF80D00303888F800009DF8BD
:1024F0000E00303889F800009DF80F0030388AF857
:10250000000001E0FFE700BF00BF00200190059838
:102510000AB0BDE8F09F2DE9F84F83460C461546FA
:102520001E460AAF97E88007AE4800780B2804D013
:102530000C287DD00D287CD108E30120AA49087021
:10254000AA480078401CA949087008460078082865
:1025500001DB012008704FF6FF70A54908804BF69B
:102560004040A449088010200090227801236E2169
:102570000520FFF7B6F9102000902A7801236E217C
:102580000D20FFF7AEF910200090327801236E2164
:102590001520FFF7A6F9102000903A7801236E214C
:1025A0001D20FFF79EF91020009098F800200123CD
:1025B0006E212D20FFF795F91020009099F800204A
:1025C00001236E213520FFF78CF9102000909AF836
:1025D000002001236E213D20FFF783F98348007816
:1025E00008287DD2DFE800F07C04396CA1D3F9F82B
:1025F0004FF6FF707E4908804BF640407D490880C9
:102600004FF6FF707E230D226E2100900520FEF70D
:10261000D9FE10200090227801236E210520FFF7BB
:1026200060F90020724908804FF47840714901E058
:1026300057E18FE2088000207E2345226E21009022
:102640003D20FEF7BFFE102000909AF800200123E5
:102650006E213D20FFF745F93EE14FF6FF706449DA
:1026600008804BF64040634908804FF6FF707E2398
:1026700045226E2100903D20FEF7A4FE1020009020
:102680009AF8002001236E213D20FFF72AF900204F
:10269000574908804FF478405649088000207E232F
:1026A0003D226E2100903520FEF78CFE1020009018
:1026B00099F8002001236E213520FFF712F90BE174
:1026C0004FF6FF704A4908804BF640404949088060
:1026D0004FF6FF707E233D226E210090352000E0F2
:1026E000F9E0FEF76FFE1020009099F8002001231A
:1026F0006E213520FFF7F5F800203D4908804FF4A2
:1027000078403C49088000207E2335226E210090CD
:102710002D20FEF757FE1020009098F8002001238E
:102720006E212D20FFF7DDF8D6E04FF6FF7030491F
:1027300008804BF640402F4908804FF6FF707E23FB
:1027400035226E2100902D20FEF73CFE10200090D7
:1027500098F8002001236E212D20FFF7C2F80020F9
:10276000234908804FF478402249088000207E23C6
:1027700025226E2100901D20FEF724FE10200090DF
:102780003A7801236E211D20FFF7ABF8A4E04FF645
:10279000FF70174908804BF64040164908804FF6F5
:1027A000FF707E2325226E2100901D20FEF70AFE79
:1027B000102000903A7801236E211D20FFF791F838
:1027C00000200B4908804FF478400A490880002017
:1027D0007E231D226E210FE04CE01AE0252E336689
:1027E00000000000730000201F000020790000207E
:1027F000660000206400002000901520FEF7E2FD36
:1028000010200090327801236E211520FFF769F81F
:1028100062E04FF6FF70FE4908804BF64040FD49EC
:1028200008804FF6FF707E231D226E210090152038
:10283000FEF7C8FD10200090327801236E2115208C
:10284000FFF74FF80020F24908804FF47840F14933
:10285000088000207E2315226E2100900D20FEF7B7
:10286000B1FD102000902A7801236E210D20FFF782
:1028700038F831E04FF6FF70E54908804BF64040EC
:10288000E44908804FF6FF707E2315226E210090E8
:102890000D20FEF797FD102000902A7801236E216D
:1028A0000D20FFF71EF80020D94908804FF478402A
:1028B000D849088000207E230D226E21009005203B
:1028C000FEF780FD10200090227801236E21052064
:1028D000FFF707F800E000BF00BF0020CE490870F6
:1028E00039E1CE48007808287ED2DFE800F07D0488
:1028F0002F5A87AFD7FD9AF80000C94908700846DB
:102900000078401C0870084600780A2801DB002087
:102910000870C34800788AF800000020BC4908808D
:102920004FF47840BB49088000207E2345226E2169
:1029300000903D20FEF746FD102000909AF8002000
:1029400001236E213D20FEF7CCFFFAE099F800004C
:10295000B349087008460078401C087008460078A3
:102960000A2801DB00200870AD48007889F80000D3
:102970000020A74908804FF47840A649088000202D
:102980007E233D226E2100903520FEF71BFD102096
:10299000009099F8002001236E213520FEF7A1FF59
:1029A000CFE098F800009E49087008460078401C67
:1029B0000870084600780A2801DB00200870984853
:1029C000007888F800000020914908804FF4784092
:1029D0009049088000207E2335226E2100902D2012
:1029E000FEF7F0FC102000E0AAE0009098F800202C
:1029F00001236E212D20FEF774FFA2E0387888496C
:102A0000087008460078401C0870084600780A28BC
:102A100001DB0020087082480078387000207C4973
:102A200008804FF478407B49088000207E232522CF
:102A30006E2100901D20FEF7C5FC102000903A7812
:102A400001236E211D20FEF74CFF7AE03078744997
:102A5000087008460078401C0870084600780A286C
:102A600001DB002008706E48007830700020684953
:102A700008804FF478406749088000207E231D229B
:102A80006E2100901520FEF79DFC102000903278FA
:102A900001236E211520FEF724FF52E028786049BB
:102AA000087008460078401C0870084600780A281C
:102AB00001DB002008705A48007828700020544933
:102AC00008804FF478405349088000207E23152267
:102AD0006E2100900D20FEF775FC102000902A78E2
:102AE00001236E210D2000E002E0FEF7FAFE28E04F
:102AF00020784B49087008460078401C087008464A
:102B000000780A2801DB0020087045480078207012
:102B100000203F4908804FF478403E49088000205B
:102B20007E230D226E2100900520FEF74BFC102025
:102B30000090227801236E210520FEF7D2FE00E0EE
:102B400000BF00BF00203449087004E00020324973
:102B5000087000E000BF00BFBDE8F88F7FB50546F4
:102B60000C460121042001F0CCFEADF80850ADF870
:102B700004400020ADF80A00ADF8060001A929487C
:102B800002F098FE01221146264803F00AFA0121BC
:102B9000244803F0C5FC1E208DF8000002208DF8AB
:102BA000010001208DF802008DF80300684602F054
:102BB00008F97FBD7FB505460C460121022001F0D2
:102BC000A0FEADF80850ADF804400020ADF80A00B2
:102BD000ADF8060001A9144802F06CFE012211466E
:102BE000114803F0DEF901210F4803F099FC1D2084
:102BF0008DF8000002208DF8010003208DF80200FE
:102C000001208DF80300684602F0DBF801210DE099
:102C1000660000206400002073000020790000207E
:102C20007A0000200008004000040040494803F0FA
:102C30009DF97FBD00B59DB0642104A803F080FD1F
:102C4000002001900290039000BF00BF0121414885
:102C500003F055FC18B101213E4803F061FC1DB0A2
:102C600000BD10B501213C4803F049FC00286CD0A0
:102C70003A480078012826D10421394801F00BFC9C
:102C800060B90020374908703748006846281FD8C7
:102C900035480068401C3449086019E03248006833
:102CA000032808D90B203149087000202E490860FC
:102CB0002A4908700CE000202B4908602B49087055
:102CC0002649087004E027480078401C2549087010
:102CD00027480078012825D10821214801F0DBFB95
:102CE00060B900201F4908701F480068462819D89D
:102CF0001D480068401C1C49086013E01A48006821
:102D0000032808D90C2019490870002016490860CA
:102D10001749087006E0002013490860134908703D
:102D2000134908700F480078FA280EDB002011497B
:102D30000870114908701149087011490870094953
:102D400008700021044803F011F90121024803F042
:102D5000E7FB10BD000400400008004070000020A8
:102D600000100140800000207C0000207300002043
:102D7000710000206E000020790000207A00002001
:102D80001F0000200021FE4A116051609160D16057
:102D9000116151619161D1619163D1631164516499
:102DA000F849F948C2E90810F849F948C2E90A1097
:102DB0000846F849C2E90C010021F748C2E912109F
:102DC0001165516570472DE9FC5F04460D4691463B
:102DD0004FF00008B9F1010F03D0B9F1020F7DD116
:102DE000B4E2302743E007EB080000EBD0714E104F
:102DF000EA4800EBC600D0E900A352462046294627
:102E000006F034F821F00041E54AE64BCDE9000137
:102E100005F0B0FE05D8E44800EBC60103C9BDE8E3
:102E2000FC9FDE4800EBC600D0E900A352462046D6
:102E3000294606F01BF8DA4ADA4BCDE9000105F025
:102E4000D3FF02D206F1010811E0D44800EBC6001E
:102E5000D0E900A352462046294605F0FBFFD04AA0
:102E6000D04BCDE9000105F0BFFF00D2771EB84579
:102E7000B9DDC64A5242CD4B2046294605F0F6FF41
:102E80008246C74AC74B05F0AFFF17D8C84AC94B9F
:102E90002046294605F0DEFF8246C14AC14B05F0B7
:102EA000A3FF0BD2C44AC54B2046294605F0DEFFDE
:102EB0008246C34AC34B05F071FCB0E7BC4ABD4B28
:102EC0002046294605F0D2FF8246B54AB54B05F0AB
:102ED0008BFF19D8BC4ABD4B204600E0DAE32946F7
:102EE00005F0B8FF8246AE4AAE4B05F07DFF0BD22F
:102EF000B74AB84B2046294605F0B8FF8246B64A85
:102F0000B64B05F04BFC8AE7AF4AB04B204629464A
:102F100005F0ACFF8246A24AA24B05F065FF17D828
:102F2000AF4AB04B2046294605F094FF82469C4AA2
:102F30009C4B05F059FF0BD2AB4AAC4B20462946BF
:102F400005F094FF8246AA4AAA4B05F027FC66E7E3
:102F5000A34AA44B2046294605F088FF8246904AA2
:102F6000904B05F041FF17D8A34AA44B20462946B1
:102F700005F070FF82468A4A8A4B05F035FF0BD276
:102F80009F4AA04B2046294605F070FF82469E4A84
:102F90009E4B05F003FC42E7974A984B2046294692
:102FA00005F064FF82467E4A7E4B05F01DFF17D870
:102FB000974A984B2046294605F04CFF8246784AAE
:102FC000784B05F011FF0BD2934A944B20462946CB
:102FD00005F04CFF8246924A924B05F0DFFB1EE75C
:102FE0008B4A8C4B2046294605F040FF82466C4AAE
:102FF0006C4B05F0F9FE17D88B4A8C4B20462946BE
:1030000005F028FF8246664A664B05F0EDFE0BD2BE
:10301000874A884B2046294605F028FF8246864A83
:10302000864B05F0BBFBFAE67F4A804B20462946DB
:1030300005F01CFF82465A4A5A4B05F0D5FE17D8B8
:1030400000227F4B2046294605F004FF8246544A61
:10305000544B05F0C9FE0BD24A4A7A4B204629460A
:1030600005F004FF8246784A784B05F097FBD6E6D8
:103070000022734B2046294605F0F8FE8246484A56
:10308000484B05F0B1FE17D8714A724B20462946CD
:1030900005F0E0FE8246424A424B05F0A5FE0BD801
:1030A0006D4A6E4B2046294605F0E0FE82466C4A8A
:1030B0006C4B05F073FBB2E6654A664B2046294629
:1030C00005F0D4FE8246364A364B05F08DFE17D801
:1030D000654A664B2046294605F0BCFE8246304ACA
:1030E000304B05F081FE0BD8614A624B20462946E1
:1030F00005F0BCFE8246604A604B05F04FFB8EE651
:10310000594A5A4B2046294605F0B0FE8246244AC9
:10311000244B05F069FE17D8554A594B20462946DD
:1031200005F098FE82461E4A1E4B05F05DFE0BD848
:10313000544A554B2046294605F098FE8246534A8C
:10314000534B05F02BFB6AE6494A4D4B2046294676
:1031500005F08CFE8246124A124B05F045FE0DD852
:10316000434A4C4B2046294605F074FE82460C4AE1
:103170000C4B05F039FE01D8474A8FE099E000007A
:10318000900700209A9999999999B93F7B14AE4775
:10319000E17A843FE17A943F0000244098030020C4
:1031A0008DEDB5A0F7C6B03E200500201E85F13F8D
:1031B0008195438B6CE7F13F894160E5D022F13F77
:1031C000691D554D10752F3F273108AC1C5AF23F31
:1031D000355EBA490C02F13FD2FBC6D79E59323F49
:1031E00037894160E5D0F23FF6285C8FC2F5F03FA9
:1031F0001A170E846401333F1D5A643BDF4FF33FBF
:10320000A245B6F3FDD4F03FA94D9CDCEF50343F0E
:1032100091ED7C3F355EF43F79E9263108ACF03F13
:1032200038842A357BA0353F6DE7FBA9F1D2F53F05
:10323000A69BC420B072F03FC7BAB88D06F0363FE7
:103240000000F63F9999F13F2F6EA301BC05323F74
:103250000C022B8716D9F83FE7FBA9F1D24DF03FBE
:1032600058FE7C5BB054373F022B8716D9CEFB3F0C
:10327000560E2DB29DEFEF3F56F146E6913F383F97
:103280009DEF0340B0726891ED7CEF3FD5EAABABA8
:1032900002B5383F9DEF09405839B4C8FE4B20466F
:1032A000294605F0E3FD8246FC4AFD4B05F076FA1F
:1032B000B5E5FC4AFC4B2046294605F0D7FD824681
:1032C000FA4AFB4B05F090FD17D8FA4AFA4B204614
:1032D000294605F0BFFD8246F44AF54B05F084FD12
:1032E0000BD8F64AF64B2046294605F0BFFD82462C
:1032F000F44AF54B05F052FA91E5EE4AEE4B2046C2
:10330000294605F0B3FD8246E84AE94B05F06CFD1D
:1033100017D8E44AED4B2046294605F09BFD82462E
:10332000E24AE34B05F060FD0BD8E94AE94B204641
:10333000294605F077F98246D84AE74B05F02EFA80
:103340006DE5E64800EBC60103C968E5302742E0B9
:1033500007EB080000EBD0714E10E04800EBC60010
:10336000D0E900A352462046294605F07FFD21F012
:103370000041CE4ACE4BCDE9000105F0FBFB04D85D
:10338000D74800EBC60103C949E5D44800EBC600A5
:10339000D0E900A352462046294605F067FDC34AFE
:1033A000C34BCDE9000105F01FFD02D206F1010873
:1033B00011E0CA4800EBC601D1E900A352462046FD
:1033C000294605F047FDB94AB94BCDE9000105F0A2
:1033D0000BFD00D2771EB845BADD0022C14B204656
:1033E000294605F043FD8246B04AB14B05F0FCFC8E
:1033F00017D80022BC4B2046294605F02BFD8246FB
:10340000AA4AAB4B05F0F0FC0BD2B84AB84B2046A9
:10341000294605F0EBFB8246B64AB74B05F002F9A8
:10342000FDE40022B04B2046294605F01FFD8246F0
:103430009E4A9F4B05F0D8FC17D80022AF4B204680
:10344000294605F007FD8246984A994B05F0CCFCC9
:103450000BD2AB4AAB4B2046294605F0C7FB824650
:10346000A94AAA4B05F0DEF8D9E40022A34B204676
:10347000294605F0FBFC82468C4A8D4B05F0B4FCD6
:1034800017D80022A24B2046294605F0E3FC8246CD
:10349000864A874B05F0A8FC0BD29E4A9E4B2046DD
:1034A000294605F0A3FB82469C4A9D4B05F0BAF8DD
:1034B000B5E40022964B2046294605F0D7FC82460B
:1034C0007A4A7B4B05F090FC17D80022954B20469A
:1034D000294605F0BFFC8246744A754B05F084FC12
:1034E0000BD2914A914B2046294605F07FFB82463C
:1034F0008F4A904B05F096F891E40022894B2046C4
:10350000294605F0B3FC8246684A694B05F06CFC1D
:1035100017D80022884B2046294605F09BFC82469E
:10352000624A634B05F060FC0BD2844A844B204610
:10353000294605F05BFB8246824A834B05F072F810
:103540006DE400227C4B2046294605F08FFC824624
:10355000564A574B05F048FC17D800227B4B2046B3
:10356000294605F077FC8246504A514B05F03CFC59
:103570000BD2774A774B2046294605F037FB824627
:10358000754A764B05F04EF849E400226F4B204611
:10359000294605F06BFC8246444A454B05F024FC65
:1035A00017D800226E4B2046294605F053FC824670
:1035B0003E4A3F4B05F018FC0BD26A4A6A4B204644
:1035C000294605F013FB8246684A694B05F02AF844
:1035D00025E40022624B2046294605F047FC82463E
:1035E000324A334B05F000FC18D80022614B2046CC
:1035F000294605F02FFC82462C4A2D4B05F0F4FBA2
:103600000CD25D4A5D4B2046294605F0EFFA824612
:10361000284A52425A4B05F005F800E40022554B67
:103620002046294605F022FC8246204A204B05F020
:10363000DBFB17D80022534B2046294605F00AFC35
:1036400082461A4A1A4B05F0CFFB0BD84E4A4F4B15
:103650002046294605F0CAFA8246124A4C4B04F02D
:10366000E1FF2AE40022474B2046294605F0FEFBF5
:1036700082460E4A0E4B05F0B7FB0CD80022454B94
:103680002046294605F0E6FB8246084A084B05F02D
:10369000ABFB81E0FEE08CE076BEEF3FFA7E6ABCD9
:1036A0007493383F560E2DB29DEF09408DEDB5A0B5
:1036B000F7C6B03E1904560E2DB20C401D5A643B9D
:1036C000DF4FF13F0FD6FF39CC97373F9DEF0C40CE
:1036D00054E3A59BC420FA3F7493483F2005002083
:1036E000980300200000594000006940691D554DB5
:1036F00010752F3F894160E5D022F13F00C0724034
:10370000D2FBC6D79E59323F355EBA490C02F13F13
:10371000000079401A170E846401333FF6285C8F4D
:10372000C2F5F03F00407F40A94D9CDCEF50343F94
:10373000A245B6F3FDD4F03F00E0854038842A3539
:103740007BA0353F79E9263108ACF03F00008E4080
:10375000C7BAB88D06F0363FA69BC420B072F03FC2
:1037600000408F402F6EA301BC05323F9A99999972
:103770009999F13F0070974058FE7C5BB054373FF9
:10378000D24DF03F00409F4056F146E6913F383F12
:103790009DEFEF3F0040AF400BD8FE4AFE4B204666
:1037A000294605F023FA8246FC4AFD4B04F03AFF15
:1037B00015E40022FB4B2046294605F057FB8246C4
:1037C000F94AFA4B05F010FB17D80022F84B2046B7
:1037D000294605F03FFB8246F34AF44B05F004FB13
:1037E0000BD8F44AF44B2046294605F0FFF98246EF
:1037F000F24AF34B04F016FF15E40022EC4B20468E
:10380000294605F033FB8246E74AE84B05F0ECFA1F
:1038100017D80022EB4B2046294605F01BFB8246B9
:10382000E14AE24B05F0E0FA0BD8E74AE74B2046C5
:10383000294605F0DBF98246E54AE64B04F0F2FE44
:1038400015E40022DF4B2046294605F00FFB824697
:10385000D54AD64B05F0C8FA17D80022DE4B2046D1
:10386000294605F0F7FA8246CF4AD04B05F0BCFA5C
:103870000BD8D04AD94B2046294605F0B7F98246E5
:10388000D74AD84B05F0F2FA15E4D74800EBC60149
:1038900003C910E400BF00BF002001460BE470B56F
:1038A00004460D46012220462946FFF78CFA70BDDA
:1038B00070B504460D46022220462946FFF783FADA
:1038C00070BD2DE9F0478CB014461D46C749C84865
:1038D000C84AC2E900101046C0E90245C64AC74BB3
:1038E000D0E90061304604F09DFE8146C148D0E930
:1038F00002633246484605F0B9FABE4AC2E90401FD
:103900001046D0E900633246BDA1C14802F00CFE6A
:10391000C0A1BF4802F008FFBD4802F0E6FEC6B2F3
:103920003146BB48FEF736FCB248D0E90263324666
:10393000B9A1B74802F0F8FDB6A1B54802F0F4FE0F
:10394000B34802F0D2FEC6B23146B148FEF722FCBF
:10395000A848D0E904633246B4A1AD4802F0E4FDC2
:10396000ACA1AB4802F0E0FEA94802F0BEFEC6B230
:103970003146A748FEF70EFC9E48D0E91263324656
:10398000D0E90291484605F02FFA25D29949D1E9AC
:10399000046121F00041A84AA84B304605F024FA02
:1039A00002D24FF0000863E04FF001089148002276
:1039B0001346D0E90461304605F0DCF858D28D4852
:1039C000D0E904633246D0E91091484604F02AFE5B
:1039D000884AC2E910014BE08648D0E914633246B8
:1039E000D0E90291484605F0C5F825D28149D1E9D0
:1039F000046121F00041904A904B304605F0F4F903
:103A000002D24FF0000833E04FF00108794800225D
:103A10001346D0E90461304605F0E6F928D275482E
:103A2000D0E904633246D0E91091484604F0FAFD2B
:103A3000704AC2E910011BE06E49D1E9046121F02E
:103A400000417D4A7D4B304605F0CEF902D24FF061
:103A500000080DE04FF001086648D0E904633246E3
:103A6000D0E91091484604F0DDFD624AC2E9100138
:103A7000424673A1664802F057FD66A1644802F011
:103A800053FE634802F031FEC6B231466048FEF78D
:103A900081FB5848D0E9106332466CA15C4802F0C3
:103AA00043FD5CA15A4802F03FFE594802F01DFE5A
:103AB000C6B231465648FEF76DFB4E480146D0E986
:103AC0000663D1E904913246484605F0CFF9CDE9C5
:103AD00006014848D0E90C633246069805F086F89E
:103AE000CDE90A01404605F01AF881464148D0E97F
:103AF0000A633246484605F079F8CDE902013D48AF
:103B0000D0E910633246029805F070F8CDE906015D
:103B10003849D1E90463D1E908913246484605F0B5
:103B200065F8CDE902013349D1E90061324A334BEE
:103B3000304604F077FDCDE90001DDE9022304F011
:103B400071FDCDE90401DDE9062304F06BFDCDE94B
:103B50000801DDE90A2304F065FD264AC2E90E01E9
:103B60001046D0E90E6332463CA1294802F0DCFC45
:103B700028A1274802F0D8FD254802F0B6FDC6B2BC
:103B800031462348FEF706FB1A48D0E90410194ACB
:103B90006EE00000D5EAABAB02B5383FB072689179
:103BA000ED7CEF3F0040AF408DEDB5A0F7C6B03ED5
:103BB0000070B740FA7E6ABC7493383F5839B4C875
:103BC00076BEEF3F0030BB400FD6FF39CC97373F72
:103BD0001D5A643BDF4FF13F0058BB407493483F90
:103BE00054E3A59BC420FA3F9803002039B4C8765B
:103BF000BE9F9ABF90070020EE7C3F355EBAF33F30
:103C0000536574566F6C746167653A252E33660090
:103C100058070020760D0A0041637475616C566F79
:103C20006C746167653A252E336600006572723ADE
:103C3000252E3366000000009A9999999999C93FF9
:103C4000696E6465783A256400000000696E7465E9
:103C50006772616C3A252E33660000007069642E2D
:103C6000766F6C746167653A252E3366000000003C
:103C7000C2E906100020044908701146D1E90E017E
:103C80000CB0BDE8F08700002000002010B500F067
:103C900027F810BD70B505460C4600F038F8B02086
:103CA00000F0F1F800F074F8022000F0ECF800F0F9
:103CB0006FF8284600F0E7F800F06AF8204600F0B8
:103CC000E2F800F065F800F046F8002070BD70B52D
:103CD0000446E5B2261231462846FFF7DBFF70BDE9
:103CE00008B50121042000F0FFFD3020ADF80000F0
:103CF00010208DF8030001208DF802006946D44899
:103D000000F036FB3021D24800F0DFFB08BD10B5D3
:103D1000CF48006820F47000CD490860084600686C
:103D200040F4401008600120CA490860052000F0F6
:103D3000AEF90120C849C1F89001052000F0A7F9AB
:103D40000020C4490860052000F0A1F90020C24904
:103D5000C1F8900110BD10B5BD48006820F4700096
:103D6000BB4908600846006840F440100860002025
:103D7000B8490860052000F08AF90120B649C1F869
:103D80009001052000F083F90120B249086010BDC0
:103D900010B50024AE48006820F47000AC490860FB
:103DA0000846006840F4000008600020A949091F87
:103DB0000860052000F06BF90120A749C1F89401C3
:103DC000A449091F0860052000F061F907E0601CA4
:103DD000C4B2FA2C03DDFFF7BEFF012010BD9D48E1
:103DE000803800680028F2D19A49091F086000BF96
:103DF000F4E710B59648006820F470009449086014
:103E00000846006840F44010086000209149091FEE
:103E100008609149C1F89401052000F038F90120AB
:103E20008C49091F0860052000F031F900208A49FB
:103E3000C1F89001052000F02AF9002085490860AA
:103E400010BD10B58248006820F4700080490860F9
:103E50000846006840F44010086001207D49086071
:103E600000207D49C1F89001052000F010F90120E3
:103E70007849091F0860052000F009F900207649FB
:103E8000C1F8900110BD70B504467148006820F477
:103E900070006F4908600846006840F440100860F0
:103EA000002518E000206B49091F0860052000F07C
:103EB000EEF8E0096849C1F89401052000F0E7F840
:103EC00001206449091F0860052000F0E0F8600641
:103ED000040E681CC5B2082DE4DB00205D49091FF3
:103EE000086070BD70B5054600245948006820F48C
:103EF0007000574908600846006840F400000860F8
:103F000000261AE000205349091F0860052000F030
:103F1000BEF801205049C1F89001052000F0B7F823
:103F20006006040E4B488038006808B1601CC4B2BB
:103F3000012000F0ACF8701CC6B2082EE2DB15B907
:103F4000FFF77FFF01E0FFF754FF204670BD70B51B
:103F500004463F48006820F470003D490860084668
:103F6000006840F440100860002518E0002039493E
:103F7000091F0860052000F08AF8E0093649C1F8F9
:103F80009401052000F083F801203249091F0860E0
:103F9000052000F07CF86006040E681CC5B2082DF0
:103FA000E4DB00202B49091F086070BD70B50025B7
:103FB0002748006820F4700025490860084600681A
:103FC00040F40000086000202249091F0860052015
:103FD00000F05DF801202049C1F894011D49091F36
:103FE0000860052000F053F804E0681CC5B21948C9
:103FF0000068C4B217480068012801D1FF2DF4DB26
:1040000000201449091F0860204670BD70B50446A1
:10401000FFF77DFEB020FFF79AFFFFF7C7FF0220F2
:10402000FFF795FFFFF7C2FF2546E11704EB11618B
:104030000912A4EB0121C8B2FFF789FFFFF7B6FF11
:104040002012FFF784FFFFF7B1FFFFF784FE70BD7A
:1040500000080140940121420000214210B56FF098
:10406000040000F0F8FE2E4800682E49B0FBF1F085
:104070002D4908700846007800EB4001C1EBC010E4
:104080004FF6FF7101EAC0002849088010BD0146C3
:10409000254A12784A434FF0E0235A6100229A6180
:1040A0001A46126942F001021A6100BF4FF0E02285
:1040B000106900F001021AB100F48032002AF5D034
:1040C0004FF0E022126922F001024FF0E0231A6162
:1040D00000229A6170470146144A12884A434FF001
:1040E000E0235A6100229A611A46126942F00102E5
:1040F0001A6100BF4FF0E022106900F001021AB10E
:1041000000F48032002AF5D04FF0E022126922F04C
:1041100001024FF0E0231A6100229A61704700000B
:104120005000002000127A00A8060020AA060020F5
:1041300000BF704700BF4A4A128802F04002002ABE
:10414000F9D0C2B2464B1B1D1A80704710B586B01D
:104150000446012144F2040000F0C6FB4FF4007055
:10416000ADF8140003208DF8160018208DF8170004
:1041700005A93C4800F0FCF84FF48060ADF814004D
:1041800004208DF8170005A9364800F0F1F8252025
:104190008DF8000003208DF801008DF80200012049
:1041A0008DF80300684600F00CFE01940020ADF885
:1041B0000800ADF80A00ADF80C00ADF810000C20B6
:1041C000ADF80E0001A9264800F035FC012240F2AE
:1041D0002551234800F0C7FC0121214800F0B7FC1D
:1041E00006B010BD10B540F225511D4800F0A0FDED
:1041F00010B31B4800F01CFDC4B21B48008800F43B
:104200000040C8B91848008800F4804060B10A2C0A
:1042100003D000201449088020E01348008840F4AF
:1042200000401149088019E00D2C06D10E48008885
:1042300040F480400C49088010E00B480088C0F32F
:104240000D000A490C5408480088401C06490880A3
:1042500008460088C72801DD0020088010BD000046
:104260000038014000080140B0060020E8070020A7
:104270000948804709480047FEE7FEE7FEE7FEE7FA
:10428000FEE7FEE7FEE7FEE7FEE7FEE70448054936
:10429000054A064B704700006B0C0008ED00000853
:1042A00010090020100F0020100B0020100B002020
:1042B00010B50446CC48844208D10121042000F006
:1042C0002DFB0021042000F029FB46E0C748844272
:1042D00008D10121082000F021FB0021082000F076
:1042E0001DFB3AE0C248844208D10121102000F0B1
:1042F00015FB0021102000F011FB2EE0BD48844288
:1043000008D10121202000F009FB0021202000F02D
:1043100005FB22E0B848844208D10121402000F08A
:10432000FDFA0021402000F0F9FA16E0B34884427B
:1043300008D10121802000F0F1FA0021802000F056
:10434000EDFA0AE0AE48844207D10121801500F061
:10435000E5FA0021A01500F0E1FA10BD10B5012129
:10436000084600F0DBFA0021012000F0D7FA10BD6A
:104370002DE9F041024600250026002000230024FC
:10438000002791F803C00CF00F0591F803C00CF062
:10439000100CBCF1000F03D091F802C04CEA0505E7
:1043A00091F800C0BCF1000F31D0146800202BE060
:1043B0004FF0010C0CFA00F3B1F800C00CEA030650
:1043C0009E4220D183004FF00F0C0CFA03F7BC4340
:1043D00005FA03FC4CEA040491F803C0BCF1280F71
:1043E00006D14FF0010C0CFA00FCC2F814C00AE030
:1043F00091F803C0BCF1480F05D14FF0010C0CFA45
:1044000000FCC2F810C0401C0828D1D31460B1F8D9
:1044100000C0BCF1FF0F34DD546800202EE000F135
:10442000080C4FF0010808FA0CF3B1F800C00CEAD0
:1044300003069E4221D183004FF00F0C0CFA03F7C4
:10444000BC4305FA03FC4CEA040491F803C0BCF138
:10445000280F05D100F1080C08FA0CF8C2F81480F6
:1044600091F803C0BCF1480F07D100F1080C4FF0E0
:10447000010808FA0CF8C2F81080401C0828CED3B6
:104480005460BDE8F0814FF6FF7101800221817018
:104490000421C17070470246002093680B400BB1A5
:1044A000012000E0002070470146886880B2704714
:1044B00002460020D3680B400BB1012000E0002031
:1044C00070470146C86880B270470161704741611A
:1044D00070470AB1016100E041617047C1607047F7
:1044E0004FF480320A43826181618261826982690C
:1044F000704702460020434B18684FF680731840FF
:1045000040EA021008433F4B186070473E49C861BB
:104510007047F0B50A46002300240021002500F072
:104520000046B6F1004F02D1364EF16901E0354E3A
:104530007168C0F3034583B200F44016B6F5401F1E
:1045400008D121F070612F4E766826F070662D4FED
:104550007E6012E000F48016B6F5801F06D10326B7
:1045600006FA05F4A14341F0706106E0460D3601FC
:1045700003FA06F6B14341F0706122B1460D3601EF
:1045800003FA06F6314300F00046B6F1004F02D1BF
:104590001C4EF16101E01B4E7160F0BD30B5002290
:1045A0008B071C0F0F2303FA04F2164B08338C10F1
:1045B00053F824309343134C08348D1044F82530BD
:1045C00023468C1053F824308C07240F00FA04F48F
:1045D00023430C4C08348D1044F8253030BD0A4973
:1045E000DC3108607047000000080140000C014009
:1045F000001001400014014000180140001C01405F
:10460000002001400000014000002042DF48006817
:1046100040F00100DD49086008464068DC49084078
:10462000DA49486008460068DA490840D749086016
:104630000846006820F4802008600846406820F49E
:10464000FE0048604FF41F0088607047CF4909683A
:1046500021F48031CD4A11601146096821F480218E
:104660001160B0F5803F03D0B0F5802F0ED106E089
:10467000C649096841F48031C44A116007E0C34962
:10468000096841F4A021C14A116000E000BF00BFE9
:10469000704710B501460022002300204A11012A6C
:1046A00002D1BA4C236806E0022A02D1B74C236A31
:1046B00001E0B64C636A01F01F02012494401C40E3
:1046C0000CB1012000E0002010BD38B500200090A2
:1046D0000024002500BF3120FFF7DBFF05460098CE
:1046E000401C00900098B0F5A06F01D0002DF2D0D2
:1046F0003120FFF7CEFF08B1012400E0002420465E
:1047000038BD01460020A14A106820F0F80040EAB8
:10471000C10010607047A049086070470246002041
:104720009A4B586820F47C1042EA01031843974BD7
:104730005860704798490866704701460020934AC0
:10474000506820F003000843506070478F4840686D
:1047500000F00C007047014600208C4A506820F0A1
:10476000F00008435060704701460020874A5068B7
:1047700020F4E06008435060704701460020834AFF
:10478000506820F4605040EAC1005060704729B181
:104790007E4A527A02437D4B5A7204E07B4A527A37
:1047A00082437A4B5A7270477B49D8310860704710
:1047B00001460020754A506820F44040084350608C
:1047C00070470021714A20321170704A82F820101F
:1047D000012802D004280AD104E001216B4A2032CA
:1047E000117005E00521694A2032117000E000BF18
:1047F00000BF70476949086070476449096A01430E
:10480000624A11627047654944390860704730B5A3
:1048100000210022002400235C4D6D6805F00C018E
:1048200021B1042905D0082923D105E05C4D05609C
:1048300022E05B4D05601FE0544D6D6805F4701279
:10484000524D6D6805F48034022505EB92421CB987
:10485000544D554305600BE04C4D6D6805F4003533
:104860001DB1504D5543056002E04D4D5543056067
:1048700002E04B4D056000BF00BF444D6D6805F080
:10488000F0010909484D6B5C0568DD4045603F4D0E
:104890006D6805F4E061090A434D6B5C4568DD40D5
:1048A00085603A4D6D6805F46051C90A3E4D6B5CF8
:1048B0004568DD40C560354D6D6805F44041890BA4
:1048C0003A4D6B5CC568B5FBF3F5056130BD29B1A8
:1048D0002E4A526902432D4B5A6104E02B4A526919
:1048E00082432A4B5A61704729B1284A9269024390
:1048F000264B9A6104E0254A92698243234B9A61D0
:10490000704729B1214AD2690243204BDA6104E0A1
:104910001E4AD26982431D4BDA61704729B11B4A96
:10492000D2680243194BDA6004E0184AD268824325
:10493000164BDA60704729B1144A12690243134BCF
:104940001A6104E0114A12698243104B1A617047E0
:1049500012494039086070470F49C86470470B49D5
:10496000C87170470948406A40F080700749486242
:10497000704701460020054A92680A400AB10120AA
:1049800000E0002070470149887270470010024023
:104990000000FFF8FFFFF6FE0000424280044242A2
:1049A00000127A0000093D00B2060020C206002075
:1049B00010B50446FB48844209D101218803FFF762
:1049C000ADFF00214FF48040FFF7A8FF32E0F6482A
:1049D000844209D101214804FFF7ADFF00214FF4C3
:1049E0000030FFF7A8FF25E0F048844209D10121FB
:1049F0008804FFF7A0FF00214FF48020FFF79BFF02
:104A000018E0EB48844209D10121C804FFF793FF65
:104A100000214FF40020FFF78EFF0BE0E5488442B1
:104A200008D101210805FFF786FF00214FF480100F
:104A3000FFF781FF10BD2DE9F04786B005460E4611
:104A40000024A24600BFA1460027B08900B100BFE4
:104A50002F462C8A4CF6FF700440F08804432C82C9
:104A6000AC894EF6F3100440B0883189084371894F
:104A700008430443AC81AC8A4FF6FF400440B08940
:104A80000443AC8201A8FFF7C2FEC648874202D1A8
:104A9000DDF810A001E0DDF80CA0A88900F40040CA
:104AA00040B10AEBCA0000EB0A1031684900B0FBC4
:104AB000F1F807E00AEBCA0000EB0A103168890040
:104AC000B0FBF1F86420B8FBF0F004012009642188
:104AD00001FB1089A88900F4004040B1322000EBAE
:104AE000C900B0FBF1F000F00700044308E03220F9
:104AF00000EB09106421B0FBF1F000F00F0004435B
:104B00002C8106B0BDE8F0874FF4165101600021FA
:104B10008180C18001810C21418100218181704708
:104B200010B502460020108A4FF2FF0318400B8890
:104B30004C8823438C882343CC882343184310821A
:104B400010BD0021018041808180C180704721B16A
:104B5000828942F40052828104E082894DF6FF731B
:104B60001A4082817047F0B50346002400260025D4
:104B7000002040F66A17B94200D100BF1846C1F3C1
:104B8000421401F01F06012707FA06F5012C01D196
:104B90000C3004E0022C01D1103000E014301AB1C6
:104BA00007682F43076002E00768AF430760F0BD66
:104BB0001AB1838A0B43838202E0838A8B43838208
:104BC0007047028A4FF6F0731A400282028A0A4343
:104BD0000282704782894FF2FF731A408281828974
:104BE0000A438281704721B1828942F002028281A8
:104BF00004E082894FF6FD731A4082817047028A71
:104C00004FF6DF731A400282028A0A43028270471B
:104C100021B1028A42F48042028204E0028A4BF609
:104C2000FF731A4002827047C1F308028280704706
:104C300001468888C0F308007047818941F001016E
:104C400081817047028BD2B20283028B42EA012239
:104C500002837047028B02F47F420283028B0A4375
:104C60000283704721B1828A42F02002828204E0EE
:104C7000828A4FF6DF731A408282704721B1828A9E
:104C800042F01002828204E0828A4FF6EF731A40EB
:104C90008282704721B1828A42F00802828204E057
:104CA000828A4FF6F7731A408282704721B1828957
:104CB00042F40042828103E08289C2F30E028281C3
:104CC000704721B1828A42F40062828204E0828AC3
:104CD0004FF2FF731A4082827047828A4FF6FB734D
:104CE0001A408282828A0A438282704721B1828A74
:104CF00042F00202828204E0828A4FF6FD731A407B
:104D00008282704702460020B1F5007F00D100BFCB
:104D100013880B400BB1012000E00020704701F424
:104D20000072B2F5007F00D100BFCA430280704715
:104D300070B50246002400230025002040F66A16C4
:104D4000B14200D100BFC1F3421501F01F0301269B
:104D500006FA03F3012D02D19689334006E0022DB5
:104D600002D1168A334001E0968A33400C120126A4
:104D700006FA04F41688344013B10CB1012000E0A7
:104D8000002070BD10B50022002340F66A14A14235
:104D900000D100BF0A1201249440A3B2DC43048076
:104DA00010BD0000003801400044004000480040B1
:104DB000004C00400050004031490143314A11602D
:104DC000704770B5002100230F22C47804B32D4C26
:104DD000246804F4E064C4F5E064210AC1F104032A
:104DE000CA40447804FA03F184781440214309014D
:104DF000254C0678A155047804F01F050124AC4029
:104E000005786D11AD0005F1E025C5F8004109E018
:104E1000047804F01F050124AC401C4D067876117F
:104E200045F8264070BD1A4A0A400243154B1B1F25
:104E30001A60704739B1134A121D12680243114BB0
:104E40001B1D1A6006E00F4A121D126882430D4BAB
:104E50001B1D1A607047042808D14FF0E021096932
:104E600041F004014FF0E022116107E04FF0E02132
:104E7000096921F004014FF0E02211617047000040
:104E80000000FA050CED00E000E400E080E100E045
:104E900080FFFF1F10B50446FA48844208D1012163
:104EA0004015FFF73BFD00216015FFF737FD17E0C8
:104EB000F548844208D101210015FFF72FFD00219C
:104EC0002015FFF72BFD0BE0F048844208D10121AB
:104ED000C803FFF723FD00214FF40040FFF71EFD3C
:104EE00010BD30B50246002000235068E84C204039
:104EF0000D790C6844EA0524204350609068E54C25
:104F00002040D1E902542C434D7944EA4504204322
:104F10009060D06A20F470000C7C641EE4B22343DD
:104F200040EA0350D06230BD00210160017141713F
:104F30008160C16001210174704721B1826842F033
:104F40000102826003E0826822F001028260704701
:104F500021B1826842F48072826003E0826822F4A8
:104F600080728260704710B50023CBB21AB14468DA
:104F70001C43446002E044689C43446010BD816867
:104F800041F0080181607047014600208A6802F004
:104F900008020AB1012000E000207047816841F05A
:104FA000040181607047014600208A6802F0040213
:104FB0000AB1012000E00020704721B1826842F46C
:104FC000A002826003E0826822F4A002826070473F
:104FD000014600208A6802F480020AB1012000E044
:104FE0000020704710B50A4600210023416821F4D3
:104FF0006041531E41EA4331416010BD21B1426816
:1050000042F40062426003E0426822F400624260BF
:105010007047F0B504460D4600200021092D11DD32
:10502000E068A5F10A0606EB4607072606FA07F12F
:105030008843A5F10A0606EB460603FA06F1084383
:10504000E0600CE0206905EB4507072606FA07F14A
:10505000884305EB450603FA06F108432061072A59
:105060000FDA606B561E06EB86071F2606FA07F15D
:105070008843561E06EB860605FA06F10843606370
:1050800022E00D2A0FDA206BD61F06EB86071F26BB
:1050900006FA07F18843D61F06EB860605FA06F1E5
:1050A0000843206310E0E06AA2F10D0606EB8607D4
:1050B0001F2606FA07F18843A2F10D0606EB8606C5
:1050C00005FA06F10843E062F0BD21B1826842F4BE
:1050D0008012826003E0826822F48012826070474E
:1050E0000146C86C80B2704766484C300068704713
:1050F00021B1426842F48062426003E0426822F4D7
:1051000080624260704721B1426842F4805242603E
:1051100003E0426822F48052426070470A46002150
:10512000816821F4E04111438160704721B18268B8
:1051300042F40042826003E0826822F4004282600E
:10514000704721B1826842F40212826003E08268F3
:1051500022F4021282607047014600208A6802F43D
:1051600000120AB1012000E000207047F0B50446AB
:105170001546002000220026092911DDE068A1F172
:105180000A0707EB470C072707FA0CF29043A1F137
:105190000A0707EB470703FA07F21043E0600CE049
:1051A000206901EB410C072707FA0CF2904301EB51
:1051B000410703FA07F210432061A06BC0F30156C8
:1051C000EF1C06F1010CA7EB0C0707EB870C1F2760
:1051D00007FA0CF29043EF1C06F1010CA7EB0C0749
:1051E00007EB870701FA07F21043A063F0BD10B583
:1051F0000A4600210023816B21F44011531E41EA2D
:105200000351816310BD08B5002300930090009BFB
:105210000B440093009B1A6008BD08B502460020AD
:105220000090009201F12800009B18440090009823
:10523000006880B208BD0A4600214168164B19403B
:105240001143416070474162826270470A46002103
:10525000416821F01F0111434160704740B1094985
:105260000831096841F40001064A0832116007E07C
:1052700004490831096821F40001024A083211602A
:10528000704700000024014000280140003C01401C
:10529000FFFEF0FFFDF7F1FFFFFD3FFF024600209C
:1052A00013680B400BB1012000E000207047CA4397
:1052B0000260704770B502460020002300240B12E4
:1052C0005568CEB205EA060415681D4015B10CB14B
:1052D000012000E0002070BD00220A12D3430360C9
:1052E0007047000010B50446BE48844208D1012131
:1052F0008014FFF713FB0021A014FFF70FFB16E04B
:10530000B948844208D101210014FFF714FB0021A1
:105310002014FFF710FB0AE0B448844207D10121B2
:10532000C013FFF708FB0021E013FFF704FB10BDDB
:1053300010B50022028802F441520B884C882343A6
:105340008C882343CC8823430C8923434C892343F3
:105350008C892343CC8923431A430280838B4FF2E9
:10536000FF74234083830B8A038210BD2DE9F04F25
:1053700085B005460C464FF0000902274FF00008A3
:105380004FF0010B0026B246A88B4FF240010840B7
:10539000A88302202884B5F81C90A068022801D1B7
:1053A00000BF38E0A08810B94FF0010B01E04FF0CA
:1053B000020B8D48854200D100E000BF6846FFF730
:1053C00026FADDF800A0E088B0F5007F0AD14FEAA8
:1053D0001A2000EB80004000A168B0FBF1F0401DF6
:1053E00086B20BE04FEA4B10BAFBF0F000EB800006
:1053F0004000A168B0FBF1F0401D86B20A20B6FB68
:10540000F0F606F00108A6EB0800C0F34F074FF6D0
:10541000FF7000EA0828022F01DBFF2F02DD0227C0
:105420004FF00008E08840EA080038432884A0884C
:10543000A1890843618808432188084340F400603B
:1054400040EA0909A5F81C9005B0BDE8F08F0021DD
:10545000018041808180C180018141818181C18140
:105460000721018270470021018041808180C18035
:105470000221816000218181704721B1028842F0C0
:105480004002028004E002884FF6BF731A40028097
:10549000704721B1828B42F48062828304E0828B68
:1054A0004FF6FF331A408283704730B50024002343
:1054B0000C110125A540ABB21AB185881D4385802A
:1054C00002E085889D43858030BD1AB183880B43F7
:1054D000838002E083888B4383807047818170479B
:1054E0000146888970474FF6FF62914204D00288D6
:1054F00042F48072028004E002884FF6FF631A4093
:105500000280704721B1828842F00402828004E068
:1055100082884FF6FB731A408280704702884FF2F0
:10552000FF731A40028002880A4302807047018894
:1055300041F480510180704721B1028842F4005249
:10554000028004E002884DF6FF731A400280704723
:1055500002460020012901D0108B00E0908A70479C
:105560000146088A7047B1F5804F04D1028842F4A1
:105570008042028004E002884BF6FF731A400280EA
:1055800070470246002013890B400BB1012000E058
:1055900000207047CA4302817047F0B502460020E0
:1055A00000240023002501F00F070126BE40B4B2FD
:1055B0000B1101269E40B3B2968806EA03051689B0
:1055C000264016B10DB1012000E00020F0BD10B55D
:1055D000002201F00F040123A3409AB2D3430381B8
:1055E00010BD00000030014000380040003C004089
:1055F000002044490860091D0860091D0860091D54
:10560000086041483F4914310860704700213D4916
:105610008279002A3AD00A46126803689A430B46F8
:105620001A600A1D126803689A430B1D1A600279FA
:1056300011440A6803681A430A60324A0832126841
:1056400003689A432F4B08331A601A1D12680368C7
:105650009A432C4B0C331A604279102A0ED11A1F30
:10566000126803681A43274B08331A601A1D126820
:1056700003681A43234B0C331A600DE02149427929
:1056800011440A6803681A430A6005E0027911446C
:105690000A6803689A430A6070470021016001713B
:1056A0000C21417100218171704716491031096840
:1056B0000143144A10321160704701460020114A1C
:1056C000143212680A400AB1012000E0002070473D
:1056D0000C49143108607047014600200022094B34
:1056E0001B6803EA0102074B14331B680B4013B11C
:1056F0000AB1012000E0002070470249143108601F
:105700007047000000040140FFFF0F0010B5044681
:10571000FE48844208D10121C014FFF7FFF80021A0
:10572000E014FFF7FBF8C4E0B4F1804F08D1012189
:105730000846FFF700F900210120FFF7FCF8B8E068
:10574000F348844208D101210220FFF7F4F8002138
:105750000220FFF7F0F8ACE0EE48844208D10121C6
:105760000420FFF7E8F800210420FFF7E4F8A0E0A8
:10577000E948844208D101210820FFF7DCF8002124
:105780000820FFF7D8F894E0E448844208D10121CA
:105790001020FFF7D0F800211020FFF7CCF888E0A8
:1057A000DF48844208D101212020FFF7C4F80021FE
:1057B0002020FFF7C0F87CE0DA48844208D10121BC
:1057C0004014FFF7ABF800216014FFF7A7F870E072
:1057D000D548844209D10121C804FFF79FF8002170
:1057E0004FF40020FFF79AF863E0D048844209D1D3
:1057F00001210805FFF792F800214FF48010FFF710
:105800008DF856E0CA48844209D101214805FFF7C6
:1058100085F800214FF40010FFF780F849E0C548F3
:10582000844208D101214020FFF785F80021402063
:10583000FFF781F83DE0C048844208D10121802073
:10584000FFF779F800218020FFF775F831E0BB48B9
:10585000844208D101218015FFF76DF80021A015C1
:10586000FFF769F825E0B648844209D10121080410
:10587000FFF754F800214FF48030FFF74FF818E09D
:10588000B048844209D101214804FFF747F80021BC
:105890004FF40030FFF742F80BE0AB48844208D1E8
:1058A00001218804FFF73AF800214FF48020FFF728
:1058B00035F810BD00220288944B98420ED0994BC7
:1058C00098420BD0B0F1804F08D0914B984205D050
:1058D000904B984202D0904B984204D14FF68F7370
:1058E0001A404B881A438D4B984207D08C4B9842F4
:1058F00004D04FF6FF431A40CB881A4302808B88AE
:1059000083850B880385814B98420BD0854B984249
:1059100008D08B4B984205D08A4B984202D08A4BD4
:10592000984201D10B7A038601238382704770B5B8
:10593000002400220023058C4FF6FE7635400584B6
:10594000028C8388048B4FF68F752C40B51E2C403B
:105950000D882C43751E2A400D892A434D882A4301
:105960006A4DA8420BD06F4DA84208D0744DA84292
:1059700005D0744DA84202D0734DA84213D14FF602
:10598000F7752A404D892A434FF6FB752A408D88CA
:105990002A434FF6FF652B404FF6FF552B408D896C
:1059A0002B43CD892B4383800483CD888586028455
:1059B00070BD70B5002400220023058C4FF6EF76F1
:1059C00035400584028C8388048B48F6FF752C4093
:1059D0004FF6FF452C400D884FF6FF7606EA052569
:1059E0002C434FF6DF752A400D8906EA05152A4338
:1059F0004D8806EA05152A43444DA84202D0494D78
:105A0000A8421DD14FF67F752A404D894FF6FF768B
:105A100006EA05152A434FF6BF752A408D8806EA27
:105A200005152A434FF6FF352B404FF2FF752B40EB
:105A30008D8906EA85052B43CD8906EA85052B432A
:105A400083800483CD880587028470BD70B50024EF
:105A500000220023058C4FF6FF6635400584028C3A
:105A60008388848B4FF68F752C404FF6FC752C4045
:105A70000D882C434FF6FF552A400D894FF6FF76CF
:105A800006EA05252A434D8806EA05252A431F4DC7
:105A9000A84202D0234DA8421DD14FF2FF752A40E3
:105AA0004D894FF6FF7606EA05252A434FF6FF3566
:105AB0002A408D8806EA05252A434EF6FF752B40BD
:105AC0004DF6FF752B408D8906EA05152B43CD89D0
:105AD00006EA05152B4383808483CD88858702845D
