S017000068656C6C6F5F776F726C645F4B36302E7372656362
S3151FFF0000F8FF00201104FF1F9930FF1F9930FF1FB4
S3151FFF00109930FF1F9930FF1F9930FF1F9930FF1F20
S3151FFF00209930FF1F9930FF1F9930FF1F9930FF1F10
S3151FFF00309930FF1F9930FF1F9930FF1F9930FF1F00
S3151FFF00409930FF1F9930FF1F9930FF1F9930FF1FF0
S3151FFF00509930FF1F9930FF1F9930FF1F9930FF1FE0
S3151FFF00609930FF1F9930FF1F9930FF1F9930FF1FD0
S3151FFF00709930FF1F9930FF1F9930FF1F9930FF1FC0
S3151FFF00809930FF1F9930FF1F9930FF1F9930FF1FB0
S3151FFF00909930FF1F9930FF1F9930FF1F9930FF1FA0
S3151FFF00A09930FF1F9930FF1F9930FF1F9930FF1F90
S3151FFF00B09930FF1F9930FF1F9930FF1F9930FF1F80
S3151FFF00C09930FF1F9930FF1F9930FF1F9930FF1F70
S3151FFF00D09930FF1F9930FF1F9930FF1F9930FF1F60
S3151FFF00E09930FF1F9930FF1F9930FF1F9930FF1F50
S3151FFF00F09930FF1F9930FF1F9930FF1F9930FF1F40
S3151FFF01009930FF1F9930FF1F9930FF1F9D13FF1F48
S3151FFF01109930FF1F9930FF1F9930FF1F9930FF1F1F
S3151FFF01209930FF1F9930FF1F9930FF1F9930FF1F0F
S3151FFF01309930FF1F9930FF1F9930FF1F9930FF1FFF
S3151FFF01409930FF1F9930FF1F9930FF1F9930FF1FEF
S3151FFF0400FFFFFFFFFFFFFFFFFFFFFFFFFEFFFFFFD9
S3151FFF04104FF000004FF000014FF000024FF00003B6
S3151FFF04204FF000044FF000054FF000064FF0000796
S3151FFF04304FF000084FF000094FF0000A4FF0000B76
S3151FFF04404FF0000C62B602F067FEFEE72DE9FF4F85
S3151FFF045083B000275FF00008BDF81400BDF80C102D
S3151FFF0460401A8346BDF81800BDF81010401A050044
S3151FFF0470BDF80C008146BDF810008246BBF1010F87
S3151FFF048002DB012001900AE0BBF1000F02D1002021
S3151FFF0490019004E05FF0FF300190DBF1000B012DAF
S3151FFF04A002DB0120009008E0002D02D10020009002
S3151FFF04B003E05FF0FF3000906D425D4501DA5E4657
S3151FFF04C000E02E0000200400701CA4B2A04218DB1F
S3151FFF04D0514689B2484680B200F0B1FC1BEB0707B5
S3151FFF04E015EB0808BE4203DABF1B019810EB09097B
S3151FFF04F0464504DAB8EB0608009810EB0A0A641C97
S3151FFF0500E2E707B0BDE8F08FF8B504000D0016004F
S3151FFF05101F002B009BB2320092B2290089B2200026
S3151FFF052080B2FFF793FF3B009BB2220092B22900D6
S3151FFF053089B2200080B2FFF789FF3B009BB23200D2
S3151FFF054092B2390089B2200080B2FFF77FFF3B00CE
S3151FFF05509BB2320092B2290089B2300080B2FFF7F8
S3151FFF056075FFF1BD2DE9F84F82B006000F009046CB
S3151FFF05700C9C0D9DDFF888070088ADF80000203C16
S3151FFF058057FA85F0431E9BB2EDB2022095FBF0F0A2
S3151FFF05908019421E92B2390089B2300080B200F034
S3151FFF05A09AFD9DF83800002840D1002082465FFA49
S3151FFF05B08AFAEDB2AA457CD2EDB20C2D0BD15FFAAA
S3151FFF05C08AFAE4B20C20DFF83C1700FB04101AF876
S3151FFF05D00000814609E05FFA8AFAE4B2DFF82807CE
S3151FFF05E010EB04101AF80000814600208346EDB277
S3151FFF05F0022095FBF0F05FFA8BFB834513DA5FEA68
S3151FFF0600C97004D54046C0B200F0B1FB04E0BDF887
S3151FFF06100800C0B200F0ABFB5FFA89F95FEA590920
S3151FFF06201BF1010BE3E71AF1010AC0E7002082461F
S3151FFF06305FFA8AFAEDB2AA453BD2EDB20C2D0BD16A
S3151FFF06405FFA8AFAE4B20C20DFF8B81600FB041033
S3151FFF06501AF80000814609E05FFA8AFAE4B2DFF86A
S3151FFF0660A80610EB04101AF80000814600208346E7
S3151FFF0670EDB2022095FBF0F05FFA8BFB834515DA8F
S3151FFF0680DFF87C06A0F800805FEAC97007D557FA26
S3151FFF06908AF189B256FA8BF080B200F0D0FB5FFA6F
S3151FFF06A089F95FEA59091BF1010BE1E71AF1010A03
S3151FFF06B0BEE7DFF84C06BDF800100180DFF83C06E9
S3151FFF06C04088431E9BB2DFF834060088421E92B253
S3151FFF06D00021002000F0FFFCBDE8F78F2DE9FE4F3C
S3151FFF06E081460C000C9DDFF818060088ADF8020046
S3151FFF06F0CA46ADF800405FF0000B28787F286CD202
S3151FFF07002878202869D3DFF8F4050088401E1FFAD2
S3151FFF071089F9484506DBDFF8E4054088401EA4B289
S3151FFF0720A04200DA5EE0287883465FFA8BFBBBF1B7
S3151FFF07303A0F02D10A20834609E05FFA8BFBBBF112
S3151FFF07402E0F02D10B20834601E0BBF1300BCA46A9
S3151FFF075000200700FFB2302F30D2FFB25FFA8BFBAC
S3151FFF07603020DFF8A81500FB0B10385C06000020B1
S3151FFF077080465FFA88F8B8F1080F1DD2DFF88005AB
S3151FFF0780BDF804100180300605D5210089B2484601
S3151FFF079080B200F054FB760019F101091FFA89F99F
S3151FFF07A01FFA8AFAB9EB0A000C2802D1D146641C3C
S3151FFF07B002E018F10108DCE77F1CCBE75FFA8BFB32
S3151FFF07C0BBF10A0F02D219F1100901E019F108094D
S3151FFF07D0BDF8000004006D1C8FE7DFF82405BDF888
S3151FFF07E002100180BDE8F78F2DE9F84F82B0040094
S3151FFF07F00D001600DDF834B0A2460520ADF8000047
S3151FFF080000208146BDF800001FFA89F9814578D27D
S3151FFF08101FFA89F92220DFF8F81400FB0910007868
S3151FFF08200C990978884269D11FFA89F92220DFF8C6
S3151FFF0830E01400FB091040780C99497888425DD176
S3151FFF084015F10F039BB214F10F0292B2290089B261
S3151FFF0850200080B200F03FFC00200700FFB2202FD0
S3151FFF08604CD2002080465FFA88F8B8F1080F43D2B2
S3151FFF08705FFA8BFBBBF1000F18D1FFB21FFA89F985
S3151FFF08802220DFF88C1400FB09103818807880218E
S3151FFF089051FA08F1084204D0300080B200F090FAF6
S3151FFF08A027E0BDF8080000F08BFA22E0DFF85004BE
S3151FFF08B00680FFB21FFA89F92220DFF8541400FBC6
S3151FFF08C0091038188078802151FA08F1084205D09F
S3151FFF08D0290089B2200080B200F0B1FA641CA4B2CD
S3151FFF08E01FFA8AFAB4EB0A00102802D154466D1C70
S3151FFF08F002E018F10108B6E77F1CAFE719F10109FE
S3151FFF090080E7DFF8F8034088431E9BB2DFF8EC034E
S3151FFF09100088421E92B20021002000F0DCFBBDE8DA
S3151FFF0920F78F2DE9F84F82B004000D001600DDF892
S3151FFF093034B0A2460B20ADF8000000208146BDF85B
S3151FFF094000001FFA89F9814578D21FFA89F94A20D3
S3151FFF0950DFF8C01300FB091000780C99097888424D
S3151FFF096069D11FFA89F94A20DFF8A81300FB09107E
S3151FFF097040780C99497888425DD115F117039BB2D0
S3151FFF098014F1170292B2290089B2200080B200F03B
S3151FFF0990A2FB00200700FFB2482F4CD20020804643
S3151FFF09A05FFA88F8B8F1080F43D25FFA8BFBBBF1EA
S3151FFF09B0000F18D1FFB21FFA89F94A20DFF8541327
S3151FFF09C000FB091038188078802151FA08F1084278
S3151FFF09D004D0300080B200F0F3F927E0BDF808001D
S3151FFF09E000F0EEF922E0DFF818030680FFB21FFAC8
S3151FFF09F089F94A20DFF81C1300FB09103818807885
S3151FFF0A00802151FA08F1084205D0290089B220003A
S3151FFF0A1080B200F014FA641CA4B21FFA8AFAB4EB70
S3151FFF0A200A00182802D154466D1C02E018F101086E
S3151FFF0A30B6E77F1CAFE719F1010980E7DFF8BC02B4
S3151FFF0A404088431E9BB2AD480088421E92B20021CA
S3151FFF0A50002000F040FBBDE8F78F2DE9F84F82B06D
S3151FFF0A6004000D001600DDF834B0A2460120ADF8D4
S3151FFF0A70000000208146BDF800001FFA89F9814555
S3151FFF0A8073D21FFA89F98220A34900FB0910007848
S3151FFF0A900C990978884265D11FFA89F982209E49E8
S3151FFF0AA000FB091040780C99497888425AD115F1F5
S3151FFF0AB01F039BB214F11F0292B2290089B22000B5
S3151FFF0AC080B200F008FB00200700FFB2802F49D23B
S3151FFF0AD0002080465FFA88F8B8F1080F40D25FFA08
S3151FFF0AE08BFBBBF1000F17D1FFB21FFA89F98220CB
S3151FFF0AF0894900FB091038188078802151FA08F1BF
S3151FFF0B00084204D0300080B200F05AF925E0BDF844
S3151FFF0B10080000F055F920E079480680FFB21FFA5A
S3151FFF0B2089F982207C4900FB0910381880788021BB
S3151FFF0B3051FA08F1084205D0290089B2200080B278
S3151FFF0B4000F07DF9641CA4B21FFA8AFAB4EB0A00FF
S3151FFF0B50202802D154466D1C02E018F10108B9E79F
S3151FFF0B607F1CB2E719F1010985E764484088431ED8
S3151FFF0B709BB262480088421E92B20021002000F0FD
S3151FFF0B80AAFABDE8F78F2DE9F04F85B006000F00D3
S3151FFF0B9090469946DDF838A00F9C109DADF80C6066
S3151FFF0BA05FF0000B9AF80000002800F0A4805FFAA0
S3151FFF0BB08BFBBBF1000F56D150480088E4B20221D0
S3151FFF0BC094FBF1F1401AB6B2B04206DB4B484088A0
S3151FFF0BD0E4B2001BBFB2B84200DA8CE09AF80000FD
S3151FFF0BE0812802D301208346DCE79AF800000D28EF
S3151FFF0BF007D157FA84F7BDF80C0006001AF1010A50
S3151FFF0C002EE0E4B20C2C02D0E4B2102C16D1EDB2BA
S3151FFF0C100295E4B201949AF8000000904B469BB2EE
S3151FFF0C20424692B2390089B2300080B2FFF79AFC72
S3151FFF0C30E4B2022094FBF0F0861911E0EDB20295A3
S3151FFF0C40102001909AF8000000904B469BB2424637
S3151FFF0C5092B2390089B2300080B2FFF783FC0836A3
S3151FFF0C601AF1010A9EE725480088E4B2001BB6B2B7
S3151FFF0C70B04206DB21484088E4B2001BBFB2B84230
S3151FFF0C8000DA38E000208346E4B2202C0ED1EDB205
S3151FFF0C900195CDF800A04B469BB2424692B2390052
S3151FFF0CA089B2300080B2FFF7D8FE1FE0E4B2182CDE
S3151FFF0CB00ED1EDB20195CDF800A04B469BB2424631
S3151FFF0CC092B2390089B2300080B2FFF72AFE0DE0DB
S3151FFF0CD0EDB20195CDF800A04B469BB2424692B2AC
S3151FFF0CE0390089B2300080B2FFF77EFD1AF1020A82
S3151FFF0CF056FA84F656E705B0BDE8F08F0C32FF1F94
S3151FFF0D002832FF1F2C1FFF1F3C19FF1FD026FF1F57
S3151FFF0D10282DFF1FA023FF1F6C2EFF1F10B50400DA
S3151FFF0D20DFF868048068006830F48070DFF85C14B1
S3151FFF0D3089680860DFF854048068006830F48060B3
S3151FFF0D40DFF8481489680860012310222100C9B201
S3151FFF0D50002000F060FADFF83404806800684FF463
S3151FFF0D6080710843DFF824148968086010BD10B529
S3151FFF0D700400DFF818048068006830F48070DFF81D
S3151FFF0D800C1489680860DFF804048068006850F453
S3151FFF0D908060DFF8F813896808600123102221009D
S3151FFF0DA0C9B2002000F037FADFF8E0038068006859
S3151FFF0DB04FF480710843DFF8D4138968086010BDAC
S3151FFF0DC010B50400DFF8C4038068006830F4807034
S3151FFF0DD0DFF8B81389680860EC488068006850F42C
S3151FFF0DE08060EA498968086001231022A4B2210A9C
S3151FFF0DF0C9B2002000F00FFA012310222100C9B249
S3151FFF0E00002000F008FAE148806800684FF48071FF
S3151FFF0E100843DE498968086010BD38B504000D0018
S3151FFF0E20200080B2FFF77AFF2800C0B2FFF79FFFAF
S3151FFF0E3031BD80B5D6480089FFF770FF01BD38B5B4
S3151FFF0E4004000D00290089B2200080B200F077F957
S3151FFF0E50D0480088FFF7B4FF31BD80B5642000F08E
S3151FFF0E600BFA322000F008FA01BD80B5FFF7F5FF38
S3151FFF0E701120FFF753FF782000F0FEF9B120FFF78F
S3151FFF0E804DFF0120FFF773FF2C20FFF770FF2D206B
S3151FFF0E90FFF76DFFB220FFF741FF0120FFF767FF47
S3151FFF0EA02C20FFF764FF2D20FFF761FFB320FFF70D
S3151FFF0EB035FF0120FFF75BFF2C20FFF758FF2D2083
S3151FFF0EC0FFF755FF0120FFF752FF2C20FFF74FFFBC
S3151FFF0ED02D20FFF74CFFB420FFF720FF0720FFF75A
S3151FFF0EE046FFC020FFF71AFFA220FFF740FF022091
S3151FFF0EF0FFF73DFF8420FFF73AFFC120FFF70EFFE5
S3151FFF0F00C520FFF734FFC220FFF708FF0A20FFF7B0
S3151FFF0F102EFF0020FFF72BFFC320FFF7FFFE8A20C0
S3151FFF0F20FFF725FF2A20FFF722FFC420FFF7F6FE54
S3151FFF0F308A20FFF71CFFEE20FFF719FFC520FFF7DB
S3151FFF0F40EDFE0E20FFF713FF3620FFF7E7FEC82043
S3151FFF0F50FFF70DFFE020FFF7E1FE0F20FFF707FF6B
S3151FFF0F601A20FFF704FF0F20FFF701FF1820FFF7D7
S3151FFF0F70FEFE2F20FFF7FBFE2820FFF7F8FE20209F
S3151FFF0F80FFF7F5FE2220FFF7F2FE1F20FFF7EFFE0A
S3151FFF0F901B20FFF7ECFE2320FFF7E9FE3720FFF7A5
S3151FFF0FA0E6FE0020FFF7E3FE0720FFF7E0FE022025
S3151FFF0FB0FFF7DDFE1020FFF7DAFEE120FFF7AEFE9B
S3151FFF0FC00F20FFF7D4FE1B20FFF7D1FE0F20FFF7E1
S3151FFF0FD0CEFE1720FFF7CBFE3320FFF7C8FE2C20D0
S3151FFF0FE0FFF7C5FE2920FFF7C2FE2E20FFF7BFFE24
S3151FFF0FF03020FFF7BCFE3020FFF7B9FE3920FFF781
S3151FFF1000B6FE3F20FFF7B3FE0020FFF7B0FE072017
S3151FFF1010FFF7ADFE0320FFF7AAFE1020FFF7A7FE7F
S3151FFF10202A20FFF77BFE0020FFF7A1FE0020FFF718
S3151FFF10309EFE0020FFF79BFE7F20FFF798FE2B20CB
S3151FFF1040FFF76CFE0020FFF792FE0020FFF78FFED3
S3151FFF10500020FFF78CFE9F20FFF789FEF020FFF78A
S3151FFF10605DFE0120FFF783FEF620FFF757FE0020E8
S3151FFF1070FFF77DFE3A20FFF751FE0520FFF777FEAC
S3151FFF10802920FFF74BFE00F068F801BD70B504007D
S3151FFF10903F484088431E9BB23D480088421E92B27E
S3151FFF10A00021002000F017F80020050038480088AF
S3151FFF10B0ADB285420ED20020060035484088B6B233
S3151FFF10C0864205D2200080B2FFF77AFE761CF4E730
S3151FFF10D06D1CEBE770BDF8B504000D0016001F0071
S3151FFF10E02B484089FFF71AFEA4B2200AC0B2FFF7AA
S3151FFF10F03EFEA01CC0B2FFF73AFEB6B2300AC0B220
S3151FFF1100FFF735FEB01CC0B2FFF731FE20488089BE
S3151FFF1110FFF704FEADB2280AC0B2FFF728FEE81C90
S3151FFF1120C0B2FFF724FEBFB2380AC0B2FFF71FFED9
S3151FFF1130F81CC0B2FFF71BFEFFF77BFEF1BD38B5EC
S3151FFF114004000D002B009BB2220092B2290089B228
S3151FFF1150200080B2FFF7BFFF31BD80B50C482C21A1
S3151FFF116001810B48002181710948802101800848B0
S3151FFF11708021418006482A21418105482B218181F3
S3151FFF1180C8213620FFF749FE01BD0000E031FF1FD2
S3151FFF11900C32FF1F2832FF1F70B504000D0016000B
S3151FFF11A0012301220821022000F06AF801230122F0
S3151FFF11B00921022000F064F8012301220A210220DF
S3151FFF11C000F05EF8E4B2254850F824102448006862
S3151FFF11D050F48050224A106022484FF4107202606A
S3151FFF11E021484FF41072026020484FF400720260CC
S3151FFF11F01F4808605FF03840C860C868EDB215F039
S3151FFF12000F021043C8601B48C862086840084000A9
S3151FFF12100860012070BD70B40400E4B20F4D55F88D
S3151FFF12202450DBB2D2B2160416F47C1656EAC376E6
S3151FFF1230C9B20E436E63EE6A002EFCD5EE6A56F0F8
S3151FFF12400046EE62EE6AB603FCD5AE6B3000EE6A61
S3151FFF125056F40036EE62C0B270BC7047D431FF1F22
S3151FFF12603C80044014B0044018B004401CB0044036
S3151FFF1270013C008000000A9A401E0028FCD17047DF
S3151FFF1280F8B504000D0016001F00EDB2202D02D287
S3151FFF1290FFB2022F03D31E212B4800F05DF8EDB2DC
S3151FFF12A0E4B22A4850F82400F6B24FF48071314356
S3151FFF12B040F82510F00705D5F6B2032E02D0F6B279
S3151FFF12C0132E0DD1E4B2224850F8240040690121A4
S3151FFF12D0A9408843E4B21E4951F8241048612AE009
S3151FFF12E0E4B21B4850F8240040690121A940084376
S3151FFF12F0E4B2174951F824104861FFB2012F0DD1EF
S3151FFF1300E4B2134850F8240000680121A94008439E
S3151FFF1310E4B20F4951F8241008600CE0E4B20C4800
S3151FFF132050F8240000680121A9408843E4B2084908
S3151FFF133051F824100860F1BD10B504002100C9B291
S3151FFF1340044800F026F810BD402FFF1FF431FF1F82
S3151FFF1350E031FF1F00D0064070B504000D002A00C4
S3151FFF13602100074800F0C5FA06480600002E01D0E7
S3151FFF1370761EFBE703480600002EF5D0761EFBE719
S3151FFF13804030FF1FA086010001798906FCD5C07971
S3151FFF1390704702791206FCD5C171704710B500243C
S3151FFF13A072B60548FFF7F0FF0400E4B221000348B9
S3151FFF13B000F09FFA62B610BD00D006400431FF1F32
S3151FFF13C070B504000D0016003068012802D00228F0
S3151FFF13D005D00AE02000C0B27168884705E0B068F3
S3151FFF13E00470B068401CB060FFE72868401C286087
S3151FFF13F070BD2DE9F04704005FF0000A5046A14675
S3151FFF14005FF0000A89F800A019F10109002A1FD011
S3151FFF1410D1F800A05546002D05D15FF0300A89F897
S3151FFF142000A0401C38E0002D36D095FBF3FA564638
S3151FFF143003FB165A5746002F02D5FF43313700E0ED
S3151FFF14403037350089F8007019F10109401CEAE7AA
S3151FFF1450D1F800A0D446BCF1000F05D15FF0300ACA
S3151FFF146089F800A0401C17E0BCF1000F14D0BCFB8D
S3151FFF1470F3FAD64603FB1ECAD046B8F10A0F02D2AD
S3151FFF148018F1300801E018F13708F44689F8008093
S3151FFF149019F10109401CE7E7BDE8F0872DE9F04187
S3151FFF14A004000D0016001F00A046A84507DA3A00E4
S3151FFF14B031003020FFF784FF18F10108F5E7BDE87B
S3151FFF14C0F0812DE9F04104000D0016001F00A04614
S3151FFF14D0A84507DA3A0031002020FFF771FF18F100
S3151FFF14E00108F5E7BDE8F0812DE9F24F92B0040040
S3151FFF14F0150000200090129883469BF80000059068
S3151FFF1500002800F0F2810598252813D005980A2890
S3151FFF151005D0220000A90598FFF752FF09E0220018
S3151FFF152000A90D20FFF74CFF220000A90A20FFF795
S3151FFF153047FFD7E10020814600200390039800282C
S3151FFF154022D11BF1010B9BF8000020280ED0232868
S3151FFF155012D02B2807D02D2802D0302809D00EE015
S3151FFF156059F00109EAE759F00209E7E759F00409BB
S3151FFF1570E4E759F00809E1E759F01009DEE7BBF187
S3151FFF1580010B01200390D9E700208246002003901C
S3151FFF15900398002813D11BF1010B9BF80000059040
S3151FFF15A03038092806D80A20059900FB0A10B0F122
S3151FFF15B0300AEDE7BBF1010B01200390E8E71BF1B2
S3151FFF15C0010B9BF800002E2811D1002003900398D2
S3151FFF15D000280ED11BF1010B9BF80000303809289C
S3151FFF15E000D8F4E7BBF1010B01200390EFE7BBF136
S3151FFF15F0010B1BF1010B9BF800004C2806D0682836
S3151FFF160002D06C2801D002E003E002E001E0BBF14B
S3151FFF1610010B1BF1010B9BF800000590582875D095
S3151FFF1620622800F0D580632800F01D81642813D03F
S3151FFF1630692811D06E2800F049816F2800F0BD8000
S3151FFF1640702800F0D080732800F01681752800F0EF
S3151FFF1650D58078285AD040E1286806902D1D0A2389
S3151FFF1660012206A909A8FFF7C4FE070009A8381813
S3151FFF167006000698002803D52D2002907F1C0FE039
S3151FFF16804846800703D52B2002907F1C08E048465B
S3151FFF1690400703D5202002907F1C01E00020029007
S3151FFF16A0002004904846000711D50298002804D051
S3151FFF16B0220000A90298FFF783FE01200490230052
S3151FFF16C000AA51463800FFF7E9FE574612E0484683
S3151FFF16D0C0070FD4230000AA51463800FFF7F1FEBB
S3151FFF16E00298002804D0220000A90298FFF768FE7F
S3151FFF16F0012004900498002807D10298002804D0DF
S3151FFF1700220000A90298FFF75BFE98E02868019068
S3151FFF17102D1D1023002201A909A8FFF76AFE070046
S3151FFF172009A838180600002004904846000716D55A
S3151FFF17304846C0060BD5220000A93020FFF740FE02
S3151FFF1740220000A97820FFF73BFE0120049023000B
S3151FFF175000AA51463800FFF7A1FE57461BE0484631
S3151FFF1760C00718D44846C00600D5BF1C230000AAD1
S3151FFF177051463800FFF7A5FE4846C0060BD5220087
S3151FFF178000A93020FFF71CFE220000A97820FFF7D3
S3151FFF179017FE012004904846C0060DD50498002861
S3151FFF17A00AD1220000A93020FFF70AFE220000A956
S3151FFF17B07820FFF705FEBF1C41E0286801902D1D0D
S3151FFF17C00823002201A909A8FFF713FE07001FE040
S3151FFF17D0286801902D1D0223002201A909A8FFF7E2
S3151FFF17E008FE070014E0286801902D1D1023002214
S3151FFF17F001A909A8FFF7FDFD070009E02868019069
S3151FFF18002D1D0A23002201A909A8FFF7F2FD0700D4
S3151FFF181009A8381806004846000707D5230000AA5F
S3151FFF182051463800FFF73AFE574608E04846C007BD
S3151FFF183005D4230000AA51463800FFF742FE307831
S3151FFF1840002806D0220000A93078FFF7B9FD761EC3
S3151FFF1850F5E74846C00705D5230000AA51463800BD
S3151FFF1860FFF72FFE3EE0287807902D1D220000A9C7
S3151FFF18700798FFF7A5FD35E0286880462D1DB8F1AF
S3151FFF1880000F22D0404600F049F807004846C00720
S3151FFF189005D4230000AA51463800FFF712FE98F819
S3151FFF18A00000002808D0220000A998F80000FFF7C3
S3151FFF18B087FD18F10108F2E74846C00705D5230043
S3151FFF18C000AA51463800FFF7FCFD0BE02868089079
S3151FFF18D02D1D08980099016004E0220000A90598B4
S3151FFF18E0FFF76EFD1BF1010B07E6009813B0BDE86E
S3151FFF18F0F08F0EB47EB504000120009006480190BC
S3151FFF190007A805002A00210000A8FFF7EDFD060026
S3151FFF191030007EBC5DF810FB3913FF1F01000A0064
S3151FFF19200023002A01D1002007E01000421C007887
S3151FFF1930002801D05B1CF8E7180070470000000065
S3151FFF1940000000000000000000000000000000086B
S3151FFF195008080808080800001818000000486C242B
S3151FFF1960120000000000000000000000000000241D
S3151FFF197024247F1212127F12121200000000081C6D
S3151FFF19802A2A0A0C1828282A2A1C080800000022BF
S3151FFF1990251515152A585454542200000000000C13
S3151FFF19A01212120A76252911916E000000060604EF
S3151FFF19B00300000000000000000000000040201090
S3151FFF19C01008080808080810102040000002040825
S3151FFF19D00810101010101008080402000000000065
S3151FFF19E008086B1C1C6B08080000000000000000A5
S3151FFF19F0080808087F080808080000000000000004
S3151FFF1A00000000000000000006060403000000009F
S3151FFF1A1000000000FE0000000000000000000000A4
S3151FFF1A2000000000000000000606000000008040C6
S3151FFF1A3040202010100808040402020000000018AE
S3151FFF1A40244242424242424224180000000000083C
S3151FFF1A500E08080808080808083E00000000003C9A
S3151FFF1A604242422020100804427E00000000003C34
S3151FFF1A704242201820404042221C00000000002046
S3151FFF1A803028242422227E20207800000000007E9A
S3151FFF1A900202021A26404042221C000000000038A4
S3151FFF1AA02402021A26424242241800000000007E2A
S3151FFF1AB02222101008080808080800000000003C32
S3151FFF1AC04242422418244242423C000000000018B2
S3151FFF1AD02442424264584040241C0000000000007C
S3151FFF1AE00000181800000000181800000000000072
S3151FFF1AF00000000800000000000808040000004066
S3151FFF1B0020100804020408102040000000000000F7
S3151FFF1B1000007F0000007F000000000000000002A1
S3151FFF1B200408102040201008040200000000003C9B
S3151FFF1B304242464020101000181800000000001CEB
S3151FFF1B40225A555555552D42221C000000000008EC
S3151FFF1B5008181414243C224242E700000000001F0D
S3151FFF1B602222221E22424242221F00000000007C28
S3151FFF1B704242010101010142221C00000000001F19
S3151FFF1B802242424242424242221F00000000003FC1
S3151FFF1B904212121E12120242423F00000000003F75
S3151FFF1BA04212121E12120202020700000000003C20
S3151FFF1BB02222010101712122221C0000000000E7E1
S3151FFF1BC0424242427E42424242E700000000003E3E
S3151FFF1BD00808080808080808083E00000000007CDF
S3151FFF1BE010101010101010101010110F000000779A
S3151FFF1BF022120A0E0A121222227700000000000785
S3151FFF1C000202020202020202427F00000000007768
S3151FFF1C10363636362A2A2A2A2A6B0000000000E3A8
S3151FFF1C2046464A4A52525262624700000000001C53
S3151FFF1C302241414141414141221C00000000003F1A
S3151FFF1C40424242423E020202020700000000001CFF
S3151FFF1C502241414141414D53321C60000000003F6C
S3151FFF1C604242423E1212222242C700000000007C5F
S3151FFF1C704242020418204042423E00000000007FFD
S3151FFF1C804908080808080808081C0000000000E7A4
S3151FFF1C904242424242424242423C0000000000E7AB
S3151FFF1CA04242222424141418080800000000006B67
S3151FFF1CB0494949495555362222220000000000E7AF
S3151FFF1CC0422424181818242442E700000000007736
S3151FFF1CD02222141408080808081C00000000007EB2
S3151FFF1CE02120101008040442423F00000078080814
S3151FFF1CF008080808080808080808780000000202F4
S3151FFF1D00040408080810102020204040001E101051
S3151FFF1D10101010101010101010101E000038440065
S3151FFF1D20000000000000000000000000000000008F
S3151FFF1D300000000000000000000000FF0006080072
S3151FFF1D40000000000000000000000000000000006F
S3151FFF1D500000003C4278444242FC000000000003A2
S3151FFF1D600202021A26424242261A00000000000003
S3151FFF1D7000000038440202024438000000000060E1
S3151FFF1D80404040784442424264D8000000000000B1
S3151FFF1D900000003C427E0202423C0000000000F0B1
S3151FFF1DA08808087E08080808083E00000000000093
S3151FFF1DB00000007C22221C023C42423C0000000322
S3151FFF1DC00202023A4642424242E700000000000C6E
S3151FFF1DD00C00000E08080808083E0000000000302F
S3151FFF1DE030000038202020202020221E0000000364
S3151FFF1DF002020272120A1612227700000000000E5C
S3151FFF1E000808080808080808083E00000000000028
S3151FFF1E100000007F9292929292B70000000000008E
S3151FFF1E200000003B4642424242E70000000000001E
S3151FFF1E300000003C42424242423C000000000000BC
S3151FFF1E400000001B26424242221E0207000000001E
S3151FFF1E500000007844424242447840E00000000000
S3151FFF1E60000000774C040404041F0000000000005C
S3151FFF1E700000007C42023C40423E00000000000082
S3151FFF1E800008083E08080808083000000000000088
S3151FFF1E90000000634242424262DC00000000000075
S3151FFF1EA0000000E742242414080800000000000079
S3151FFF1EB0000000EB49495555222200000000000093
S3151FFF1EC00000007624181818246E0000000000007A
S3151FFF1ED0000000E74224241418080807000000002A
S3151FFF1EE00000007E22100808447E000000C020204C
S3151FFF1EF020202010202020202020C000101010108E
S3151FFF1F0010101010101010101010101000060808D7
S3151FFF1F100808081008080808080806000C32C2003F
S3151FFF1F20000000000000000000000000000000008D
S3151FFF1F300000000000000000000004040404040465
S3151FFF1F400004000000140A0A000000000000000041
S3151FFF1F50000014143F140A3F0A0A000000041E154E
S3151FFF1F6005060C14150F0400000012150D0A142C7C
S3151FFF1F702A1200000000040A0A1E15150936000062
S3151FFF1F8000020201000000000000000000201008F0
S3151FFF1F900808080808102000000204080808080897
S3151FFF1FA00804020000000004150E0E1504000000B1
S3151FFF1FB000000404041F04040400000000000000C6
S3151FFF1FC0000000000002020100000000001F0000C9
S3151FFF1FD000000000000000000000000000020000DB
S3151FFF1FE000100808080404020202010000000E1177
S3151FFF1FF011111111110E0000000004060404040440
S3151FFF2000040E000000000E1111080402011F00003C
S3151FFF201000000E11100C1010110E00000000080C0E
S3151FFF20200A0A091E0818000000001F01010F1010E1
S3151FFF2030110E000000000E09010F1111110E0000F5
S3151FFF204000001F09080404040404000000000E1109
S3151FFF2050110E1111110E000000000E1111111E108D
S3151FFF2060120E000000000000040000000004000024
S3151FFF207000000000000400000004040000201008F8
S3151FFF20800402040810200000000000001F00001FAC
S3151FFF209000000000000204081020100804020000C0
S3151FFF20A000000E11110804040004000000000E11A9
S3151FFF20B01915151D011E0000000004040C0A0A1E37
S3151FFF20C01233000000000F12120E1212120F000021
S3151FFF20D000001E1101010101110E000000000F1269
S3151FFF20E012121212120F000000001F120A0E0A020E
S3151FFF20F0121F000000001F120A0E0A02020700002D
S3151FFF210000001C1201013911120C000000003312CE
S3151FFF2110121E12121233000000001F0404040404CF
S3151FFF2120041F000000003E080808080808090700EA
S3151FFF2130000037120A060A0A1237000000000702BC
S3151FFF214002020202223F000000001B1B1B1B15156C
S3151FFF21501515000000003B1216161A1A121700005B
S3151FFF216000000E1111111111110E000000000F12A8
S3151FFF2170120E02020207000000000E1111111117A5
S3151FFF2180190E180000000F12120E0A121237000046
S3151FFF219000001E1101060810110F000000001F1579
S3151FFF21A004040404040E000000003312121212125C
S3151FFF21B0120C000000003312120A0A0C040400005E
S3151FFF21C000001515150E0A0A0A0A000000001B0A51
S3151FFF21D00A04040A0A1B000000001B0A0A0404045F
S3151FFF21E0040E000000001F0908040402121F00004E
S3151FFF21F0001C04040404040404041C00000202025D
S3151FFF22000404080808100000000E0808080808083C
S3151FFF221008080E0000040A0000000000000000006E
S3151FFF222000000000000000000000003F0004000047
S3151FFF2230000000000000000000000000000C121C40
S3151FFF2240123C000000000302020E1212120E0000C3
S3151FFF225000000000001C1202021C000000001810E4
S3151FFF2260101C1212123C000000000000000C121E70
S3151FFF2270021C000000003804041E0404041E000094
S3151FFF228000000000003C120C021E221C000003026D
S3151FFF2290020E12121237000000000400000604048B
S3151FFF22A0040E000000000800000C080808080807B5
S3151FFF22B000000302023A0A0E12370000000007044D
S3151FFF22C004040404041F000000000000000F15157E
S3151FFF22D01515000000000000000F12121237000034
S3151FFF22E000000000000C1212120C0000000000007C
S3151FFF22F0000F1212120E020700000000001C12121E
S3151FFF2300121C103800000000001B06020207000007
S3151FFF231000000000001E020C101E0000000000043B
S3151FFF2320040E04040418000000000000001B121214
S3151FFF2330123C0000000000000037120A0C040000C8
S3151FFF2340000000000015150E0A0A0000000000001D
S3151FFF2350001B0A040A1B0000000000000037120AB8
S3151FFF23600C04040300000000001E0804041E0000E6
S3151FFF237000180808080408080808180008080808AD
S3151FFF238008080808080808080006040404080404C7
S3151FFF239004040600022518000000000000000000CC
S3151FFF23A0CEC20000000000001000000C7FF00440AA
S3151FFF23B020044020014020027FE06240203240205F
S3151FFF23C0124020047FE004000005001004FFF808F8
S3151FFF23D0891078891018891018891018891018897B
S3151FFF23E0101889160776E8000000CAAA0000000029
S3151FFF23F00000100010087FF80C60100460100160C9
S3151FFF240010427FF03260101A6010127FF0046900CD
S3151FFF241004088005088C08888C18C89838489018B7
S3151FFF242068A01048C010088030088010088C03F77A
S3151FFF243070000000B6C80000000010000008000072
S3151FFF24400C080FFFFC0840000830C0082088082032
S3151FFF24509C0FFFE0082080082080083F80080000AF
S3151FFF246019FFE01820C0102080101180100B0020CC
S3151FFF24700600201B804060FE478018000000B5E75E
S3151FFF248000000000000000180000100000100000F0
S3151FFF249010000FFFF008102008102008102008104A
S3151FFF24A0200FFFE00810200810200810200810201A
S3151FFF24B00FFFE008100000100800100800100400AE
S3151FFF24C0180C000FF8000000D1B900000000000033
S3151FFF24D00000180FFFFC0C00000C0C000C0C000C6E
S3151FFF24E00C000C0C000C0C000C0C000DFFF00C0C60
S3151FFF24F0000C0C00080C80080C40080C60080C3000
S3151FFF2500100C20100C00200C0C27F3F040000000CD
S3151FFF25100000C1F7000000000800000600080208BF
S3151FFF252004FFFC060400000400010840411020318F
S3151FFF25302030127FD01200100464600464400464CC
S3151FFF25404008644078644018444018444418C44403
S3151FFF255018844419047E060400000000A1E600004B
S3151FFF2560000000000000000C0000121F80123068E0
S3151FFF25701260180CC0180080080180080180000136
S3151FFF2580800001800001800001800000800000C0E4
S3151FFF25900000C0100060200038C0000F00000000C0
S3151FFF25A0000000000000A3BA0000000000000000AA
S3151FFF25B000000000000000000000000000000000F7
S3151FFF25C00000000000000000000000000000001CCB
S3151FFF25D000001C00000C00000000000000000C00A3
S3151FFF25E0001C00001C00000000000000000000008F
S3151FFF25F0A3A5000000000000000000000000070068
S3151FFF2600180880300880600880C008818008810014
S3151FFF26100882000504000208000011E000211000D7
S3151FFF2620411000831001031002011004011008005E
S3151FFF2630E0000000000000000000A3D6000000001D
S3151FFF264000000000000000000FC1F0030040030060
S3151FFF26504001008001808001810000C10000C3008E
S3151FFF26600062000062000024000034000018000012
S3151FFF26701800001800000000000000000000000006
S3151FFF268000000000A3C100000000000000000000C2
S3151FFF26900000000000000800001800001C00002CAE
S3151FFF26A00000240000660000460000C300008300F0
S3151FFF26B000FF000101800101800200C00200C00F60
S3151FFF26C083F0000000000000000000000000000073
S3151FFF26D00000000000001FE01FC06FD077B07030F2
S3151FFF26E07030703070307030703020107030703036
S3151FFF26F0703070307030703067D06FE01FE01FE0B2
S3151FFF27000000000000003800780036002E000E0083
S3151FFF27100E000E000E000E000400000004000E0047
S3151FFF27200E000E000E000E000E000E000E0004001F
S3151FFF27300000000000003FF07FE07FE03FD0003049
S3151FFF274000300030003000301FD01FE02FE077E051
S3151FFF275070007000700060006FF05FF03FF03FF099
S3151FFF27600000000000003FF07FF07FE03FD0003009
S3151FFF277000300030003000303FB07FD07FD03FB0F9
S3151FFF278000300030003000303FD07FE07FF03FF059
S3151FFF27900000000000002010703070307030703065
S3151FFF27A0703070307030703037B00FD00FD007B029
S3151FFF27B00030003000300030003000300030001095
S3151FFF27C00000000000001FF05FF06FF077F0700051
S3151FFF27D07000700070003F801FC01FC00FB0003019
S3151FFF27E000300030003000303FD07FD07FE03FE029
S3151FFF27F00000000000001FF01FF06FF077F0700061
S3151FFF2800700070007000700077C02FC06FD077B058
S3151FFF2810703070307030703067D06FE01FE01FE090
S3151FFF28200000000000003FE07FE07FD03F900030B8
S3151FFF28300030003000300030003000100010003034
S3151FFF28400030003000300030003000300030001004
S3151FFF28500000000000001FE01FC06FD077B0703070
S3151FFF2860703070307030703077B02FD06FF077B018
S3151FFF2870703070307030703067D06FE01FE01FC050
S3151FFF28800000000000001FE01FC06FD077B0703040
S3151FFF289070307030703070306FB00FD00FF00FB0D8
S3151FFF28A000300030003000303FD07FE07FE03FC078
S3151FFF28B000000000000000000000000000000000F4
S3151FFF28C06000600020000000000000000000000004
S3151FFF28D020006000600000000000000000000000F4
S3151FFF28E000000000000000000000000000000000C4
S3151FFF28F000000000000000000000000000000000B4
S3151FFF2900000000003C003C003C00000000000000EF
S3151FFF2910E0B50123012217210120FEF7B1FC012398
S3151FFF2920012216210120FEF7ABFC012209210020FF
S3151FFF2930FEF732FCFEF799FA0020FEF7A7FB6B485E
S3151FFF29404FF6FF7101807F237F2200210020FDF7B5
S3151FFF2950DBFD0020029010200190654800904FF686
S3151FFF2960E0731F2205212020FEF70DF9012002909B
S3151FFF2970182001905F4800904FF6E0734FF478429E
S3151FFF298019210520FEF7FFF801200290182001905C
S3151FFF299054A000904FF6E0734FF47842192135206B
S3151FFF29A0FDF79CFE012002901820019052480090CF
S3151FFF29B04FF6E0734FF6E07232210520FEF7E3F87C
S3151FFF29C0012002901820019047A000904FF6E07358
S3151FFF29D04FF6E07232213520FDF780FE012002906F
S3151FFF29E018200190454800904FF6E0734FF6FF728F
S3151FFF29F04B210520FEF7C7F80120029018200190F2
S3151FFF2A003F4800904FF6E0734FF6FF724B2135207C
S3151FFF2A10FDF764FE012002901820019039480090AF
S3151FFF2A204FF6E0734FF4FC6264210520FEF7ABF807
S3151FFF2A300120029018200190334800904FF6E07353
S3151FFF2A404FF4FC6264213520FDF748FE2F4840688E
S3151FFF2A50006830F400002D49496808602C480021A2
S3151FFF2A6001602B4800682B49884205D22848006819
S3151FFF2A70401C27490860F4E724484068006850F463
S3151FFF2A80000022494968086021480021016020484B
S3151FFF2A9000682049884205D21D480068401C1C4912
S3151FFF2AA00860F4E719484068006830F4800017494A
S3151FFF2AB049680860164800210160154800681549D6
S3151FFF2AC0884205D212480068401C11490860F4E786
S3151FFF2AD00E484068006850F480000C49496808603A
S3151FFF2AE0B4E700BF3A3332003A3230002832FF1FB5
S3151FFF2AF05C31FF1F2C31FF1F3C31FF1F4C31FF1F66
S3151FFF2B007431FF1FF030FF1F7C31FF1FE031FF1FA6
S3151FFF2B100832FF1FFFFF0F0070B504000D00E4B260
S3151FFF2B20042C01D3002089E0EDB2102D01D3012023
S3151FFF2B3084E0DFF80C0100210170DFF8080100684F
S3151FFF2B4050F08050DFF8FC100860DFF8FC000078BB
S3151FFF2B5050F08000DFF8F0100870DFF8F0009821C2
S3151FFF2B600170DFF8EC000078C006FAD4DFF8E0004A
S3151FFF2B700078C0F38100C0B20228F7D1DFF8D40076
S3151FFF2B8018210170DFF8D00000210170E4B2002C7C
S3151FFF2B9005D0022C1DD00FD3032C27D032E00123E3
S3151FFF2BA000220021002000F0EDFADFF8AC004121E2
S3151FFF2BB001703220060025E0032301220121002098
S3151FFF2BC000F0E0FADFF890005A210170642006003A
S3151FFF2BD018E0032301220121002000F0D3FADFF8BA
S3151FFF2BE0780058210170602006000BE001230022A8
S3151FFF2BF00021002000F0C6FADFF85C0040210170BB
S3151FFF2C0030200600DFF8480000788006FAD5DFF887
S3151FFF2C10400000784006FAD5DFF83000007810F044
S3151FFF2C203F00DFF828100870DFF824000078C0F394
S3151FFF2C308100C0B20328F7D13000C0B270BD0000BB
S3151FFF2C40014006403480044008C00740004006404C
S3151FFF2C500640064004400640054006402DE9F8435E
S3151FFF2C602448254988420DD000208046B8F5826F3B
S3151FFF2C7008D22048204951F8281040F8281018F18B
S3151FFF2C800108F3E71B4800F049F81C4807001C48DA
S3151FFF2C9006001C480400A01B80464046B0F10108F1
S3151FFF2CA0002804D030783870761C7F1CF5E716484D
S3151FFF2CB0814616480500B5EB090080464046B0F130
S3151FFF2CC00108002805D0002089F8000019F1010925
S3151FFF2CD0F4E70F480F49104A531A98464346B3F174
S3151FFF2CE00108002B04D00B780370491C401CF5E725
S3151FFF2CF0BDE8F1830000FF1F0000FF1FD431FF1F38
S3151FFF2D00B02FFF1FE42FFF1F0832FF1F2A32FF1F9F
S3151FFF2D108431FF1FF02EFF1F402FFF1F0149086041
S3151FFF2D207047000008ED00E0CFB50000000C3FF82C
S3151FFF2D30030006380C701FC0038C0E0C3FFE0DB62A
S3151FFF2D400D98199C318C31866786CDB30000000024
S3151FFF2D5018301BFF306036CC6CCC7D8619FE18DB16
S3151FFF2D6030D87FD870DB019B1F9B771FBCE000000D
S3151FFF2D70000006C036FF36C0378037B03718060C3F
S3151FFF2D8000003FFE36663666366636667FFFBFD85D
S3151FFF2D90000000003060306037FF7EFB379E338CAC
S3151FFF2DA03F06380031FC70603060306030607FFF57
S3151FFF2DB0A1E6C00023E82C18D80810083000300001
S3151FFF2DC03000300030003000100018080C1003E0F0
S3151FFF2DD00000000080B51C48006850F478501A495F
S3151FFF2DE0086003210220FFF797FE1849086017485E
S3151FFF2DF000684FF47A714843154908601448006804
S3151FFF2E0014490968C1F30361491CB0FBF1F012496C
S3151FFF2E10086000F003F800F00CF801BD0F480068CA
S3151FFF2E2050F480500D4908600D484FF4E061016072
S3151FFF2E3070470C48006850F001000A4908600A48AD
S3151FFF2E404FF4A06101607047388004402032FF1F96
S3151FFF2E501C32FF1F448004402432FF1F048004409E
S3151FFF2E6018900440408004400CB00440D7D60000A1
S3151FFF2E70000000060000000300000000C000000164
S3151FFF2E80C0C0000107C00001FF00021FFE0007F0C0
S3151FFF2E901C0007C070000F00E0000E03F0001C0FA0
S3151FFF2EA0F0003C0F70003C00E0001800C00000005F
S3151FFF2EB0C0000000C00000006000000020000000EE
S3151FFF2EC037000001FF00007FF80007F830001F8062
S3151FFF2ED030000080300000C0300000606000001826
S3151FFF2EE0E000000FC0000006000000000000000009
S3151FFF2EF0F0B4114E366834000F4E366856F47F060F
S3151FFF2F000D4F3E600E0616F0706656EA00761705E1
S3151FFF2F1017F470073E431F0417F470273E43074FEE
S3151FFF2F203E6000263500EDB29D4201D26D1CFAE7C9
S3151FFF2F30014E3460F0BC704700F0014044800440EE
S3151FFF2F40433A5C55736572735C50696E675C446583
S3151FFF2F50736B746F705C4B36305F54465431343429
S3151FFF2F605F5350495C7372635C636F6D6D6F6E5C0D
S3151FFF2F70696F2E630000000080B500F009F80A484C
S3151FFF2F8000884FF6FE7108400749088001BD000003
S3151FFF2F9072B606484CF22051018004484DF628119F
S3151FFF2FA0018062B670470000002005400E200540D5
S3151FFF2FB000C0024000D0024000C00A4000F00F4090
S3151FFF2FC040F00F4080F00F40C0F00F4000F10F4060
S3151FFF2FD00090044000A0044000B0044000C004401D
S3151FFF2FE000D004400A2A2A2A2A64656661756C7412
S3151FFF2FF05F69737220656E7465726564206F6E20DC
S3151FFF3000766563746F722025642A2A2A2A2A0D0A77
S3151FFF30100A00000010B5084979441C31074C7C444F
S3151FFF30201A34A14206D0081D0A685118884701465F
S3151FFF3030A142F8D110BD00BF500000005C00000088
S3151FFF3040417373657274696F6E206661696C65641F
S3151FFF305020696E202573206174206C696E6520259B
S3151FFF3060640A000050F8041B61B150F8042BD30704
S3151FFF307044BFA9F101039A18002342F8043B091F15
S3151FFF3080FAD1EFE770470000DDFFFFFF24000000C6
S3151FFF30900832FF1F0000000080B503480178C9B240
S3151FFF30A00248FEF726FC01BD04ED00E0E42FFF1FDB
S3151FFF30B000F009F8002801D0FFF7ACFF0020FFF74B
S3151FFF30C027FC00F002F80120704700F001B800004E
S3151FFF30D00746384600F002F8FBE7000080B5C046FA
S3151FFF30E0C046024A11001820ABBEFBE726000200AE
S3151FFF30F0A6CC3FA8A2A1C2202020202020A1EAA85B
S3151FFF3100A20000000AC4E3B7A2CBCDB5C4CAFDBE59
S3151FFF3110DDCEAAA3BA25630080B5FFF72DFFFFF704
S3151FFF31209DFDFFF757FEFFF7F3FBFEE73F3F3FA868
S3151FFF3130A820202020203F3F00000000A8BA613FA3
S3151FFF3140A8A82020202020A1EAA3A400A6CC3F3FA9
S3151FFF315031202020202020A1EA3F00003FA6CCA837
S3151FFF3160AA333FA8A43F3F00C046C046C046C0463D
S3151FFF3170FFF79EFF3A332E32000000003A302E3201
S3091FFF31800000000027
S7051FFF316942
