S017000068656C6C6F5F776F726C645F4B36302E7372656362
S1130000F8FF0020110400009D2F00009D2F000028
S11300109D2F00009D2F00009D2F00009D2F0000AC
S11300209D2F00009D2F00009D2F00009D2F00009C
S11300309D2F00009D2F00009D2F00009D2F00008C
S11300409D2F00009D2F00009D2F00009D2F00007C
S11300509D2F00009D2F00009D2F00009D2F00006C
S11300609D2F00009D2F00009D2F00009D2F00005C
S11300709D2F00009D2F00009D2F00009D2F00004C
S11300809D2F00009D2F00009D2F00009D2F00003C
S11300909D2F00009D2F00009D2F00009D2F00002C
S11300A09D2F00009D2F00009D2F00009D2F00001C
S11300B09D2F00009D2F00009D2F00009D2F00000C
S11300C09D2F00009D2F00009D2F00009D2F0000FC
S11300D09D2F00009D2F00009D2F00009D2F0000EC
S11300E09D2F00009D2F00009D2F00009D2F0000DC
S11300F09D2F00009D2F00009D2F00009D2F0000CC
S11301009D2F00009D2F00009D2F0000651300000F
S11301109D2F00009D2F00009D2F00009D2F0000AB
S11301209D2F00009D2F00009D2F00009D2F00009B
S11301309D2F00009D2F00009D2F00009D2F00008B
S11301409D2F00009D2F00009D2F00009D2F00007B
S1130400FFFFFFFFFFFFFFFFFFFFFFFFFEFFFFFFF9
S11304104FF000004FF000014FF000024FF00003D6
S11304204FF000044FF000054FF000064FF00007B6
S11304304FF000084FF000094FF0000A4FF0000B96
S11304404FF0000C62B602F0DFFDFEE72DE9F04F3D
S113045083B0070088460024002592B2BFB2B2EBF5
S113046007099BB21FFA88F8B3EB0806BFB21FFA5C
S113047088F8B9F1010F02DB012001900AE0B9F11B
S1130480000F02D10020019004E05FF0FF300190E2
S1130490D9F10009012E02DB0120009008E0002EB2
S11304A002D10020009003E05FF0FF30009076421C
S11304B04E4501DACA4600E0B2465FF0000B17E091
S11304C0414689B2380080B200F099FC19EB04046B
S11304D07519A24503DAB4EB0A040198C719AA45B1
S11304E004DAB5EB0A05009810EB08081BF1010BC0
S11304F01AF101001FFA8BFB5845E1DABDE8F78FCA
S1130500F8B504000D0016001F002B009BB232004A
S113051092B2290089B2200080B2FFF797FF3B0016
S11305209BB2220092B2290089B2200080B2FFF768
S11305308DFF3B009BB2320092B2390089B2200099
S113054080B2FFF783FF3B009BB2320092B22900D6
S113055089B2300080B2FFF779FFF1BD2DE9F84F81
S113056082B08046894617000C9D0D9C0E9EDFF8D4
S113057054070088ADF80000203D59FA84F0431E6A
S11305809BB2E4B2022094FBF0F010EB0800421E90
S113059092B2494689B2404680B200F08AFDF6B272
S11305A0002E39D1002600E0761CF6B2E4B2A64251
S11305B06DD2E4B20C2C09D1F6B2EDB20C20DFF806
S11305C0081700FB051016F800A007E0F6B2EDB21C
S11305D0DFF8F80610EB051016F800A05FF0000B2A
S11305E00AE0BDF80800C0B200F0A2FB5FFA8AFA84
S11305F05FEA5A0A1BF1010BE4B2022094FBF0F00B
S11306005FFA8BFB8345CFDA5FEACA70E9D538001D
S1130610C0B200F08DFBE9E700261CE0DFF8A40679
S113062007805FEACA7007D559FA86F189B258FA89
S11306308BF080B200F0E3FB5FFA8AFA5FEA5A0AB1
S11306401BF1010BE4B2022094FBF0F05FFA8BFB88
S11306508345E3DB761CF6B2E4B2A64217D2E4B2D9
S11306600C2C09D1F6B2EDB20C20DFF85C1600FBBD
S1130670051016F800A007E0F6B2EDB2DFF84C065C
S113068010EB051016F800A05FF0000BDAE7DFF8B6
S11306903406BDF800100180DFF824064088431EAC
S11306A09BB2DFF81C060088421E92B20021002093
S11306B000F0FFFCBDE8F78F2DE9F44F82B0040091
S11306C00D000C9EDFF8FC050088ADF80200270041
S11306D0ADF800505FF0000803E00834BDF80050A6
S11306E0761C30782038C0B25F2861D2DFF8D0059C
S11306F00088401EA4B2A04206DBDFF8C40540888F
S1130700401EADB2A84200DA57E096F800805FFAC6
S113071088F8B8F13A0F02D15FF00A0809E05FFAED
S113072088F8B8F12E0F02D15FF00B0801E0B8F1A0
S1130730300827005FF0000920E01BF1010B5FFA8D
S11307408BFBBBF1080F17D2DFF87805BDF8081052
S113075001805FEA0A6005D5290089B2200080B2D1
S113076000F04DFB5FEA4A0A641CA4B2BFB2E01B6E
S11307700C28E2D13C006D1C19F101095FFA89F9DA
S1130780B9F1300F0DD25FFA89F95FFA88F8302099
S1130790DFF83C1500FB081019F800A05FF0000B0F
S11307A0CDE75FFA88F8B8F10A0F96D2103495E7CE
S11307B0DFF81005BDF802100180BDE8F78F2DE9C0
S11307C0F84F82B0070088461400DDF834B03D00CD
S11307D00520ADF80000002600E0761CBDF80000FE
S11307E0B6B2864275D2B6B22220DFF8E81400FB16
S11307F0061000780C9909788842EED1B6B222200E
S1130800DFF8D01400FB061040780C994978884230
S1130810E3D118F10F039BB217F10F0292B24146D4
S113082089B2380080B200F044FC5FF0000923E094
S1130830DFF8900404805FFA89F9B6B22220DFF869
S1130840941400FB061019EB00008078802151FA03
S11308500AF1084205D0414689B2380080B200F05E
S1130860CEFA7F1CBFB2ADB2781B102810D12F0076
S113087018F1010819F101095FFA89F9B9F1200F9A
S1130880ABD25FF0000A05E0200080B200F078FAF5
S11308901AF1010A5FFA8AFABAF1080FEAD25FFA8A
S11308A08BFBBBF1000FC3D15FFA89F9B6B22220EA
S11308B0DFF8201400FB061019EB0000807880217B
S11308C051FA0AF10842DFD1BDF8080000F058FAE5
S11308D0DEE7DFF8EC034088431E9BB2DFF8E00359
S11308E00088421E92B20021002000F0E2FBBDE825
S11308F0F78F2DE9F84F82B0070088461400DDF821
S113090034B03D000B20ADF80000002600E0761C5A
S1130910BDF80000B6B2864275D2B6B24A20DFF8FE
S1130920B81300FB061000780C9909788842EED1C0
S1130930B6B24A20DFF8A01300FB061040780C99E9
S113094049788842E3D118F117039BB217F11702D3
S113095092B2414689B2380080B200F0AAFB5FF03F
S1130960000923E0DFF85C0304805FFA89F9B6B27A
S11309704A20DFF8641300FB061019EB00008078AE
S1130980802151FA0AF1084205D0414689B2380063
S113099080B200F034FA7F1CBFB2ADB2781B1828C5
S11309A010D12F0018F1010819F101095FFA89F932
S11309B0B9F1480FABD25FF0000A05E0200080B225
S11309C000F0DEF91AF1010A5FFA8AFABAF1080FA7
S11309D0EAD25FFA8BFBBBF1000FC3D15FFA89F94E
S11309E0B6B24A20DFF8F01200FB061019EB000043
S11309F08078802151FA0AF10842DFD1BDF808005D
S1130A0000F0BEF9DEE7AE484088431E9BB2AC4816
S1130A100088421E92B20021002000F04AFBBDE88B
S1130A20F78F2DE9F84F82B0070088461400DDF8EF
S1130A3034B03D000120ADF80000002600E0761C33
S1130A40BDF80000B6B2864270D2B6B28220A34985
S1130A5000FB061000780C9909788842EFD1B6B2F1
S1130A6082209E4900FB061040780C994978884200
S1130A70E5D118F11F039BB217F11F0292B2414650
S1130A8089B2380080B200F014FB5FF0000921E065
S1130A908C4804805FFA89F9B6B282208F4900FB42
S1130AA0061019EB00008078802151FA0AF10842FF
S1130AB005D0414689B2380080B200F0A0F97F1C0D
S1130AC0BFB2ADB2781B202810D12F0018F1010855
S1130AD019F101095FFA89F9B9F1800FAFD25FF01A
S1130AE0000A05E0200080B200F04AF91AF1010A78
S1130AF05FFA8AFABAF1080FEAD25FFA8BFBBBF10C
S1130B00000FC5D15FFA89F9B6B28220734900FBA0
S1130B10061019EB00008078802151FA0AF108428E
S1130B20E0D1BDF8080000F02BF9DFE76448408805
S1130B30431E9BB262480088421E92B200210020EC
S1130B4000F0B7FABDE8F78F2DE9F04F85B0060045
S1130B500F0090469946DDF838A00F9C109DADF823
S1130B600C605FF0000B11E0EDB20195CDF800A030
S1130B704B469BB2424692B2390089B2300080B2F1
S1130B80FFF71DFE1AF1020A56FA84F69AF80000DD
S1130B90002800F091805FFA8BFBBBF1000F55D168
S1130BA047480088E4B2022194FBF1F1401AB6B23E
S1130BB0B04206DB42484088E4B2001BBFB2B842F0
S1130BC000DA79E09AF80000812802D35FF0010B83
S1130BD0DCE79AF800000D2806D157FA84F7BDF82F
S1130BE00C601AF1010A2EE0E4B20C2C02D0E4B23B
S1130BF0102C16D1EDB20295E4B201949AF80000DB
S1130C0000904B469BB2424692B2390089B2300002
S1130C1080B2FFF7A3FCE4B2022094FBF0F0861943
S1130C2011E0EDB20295102001909AF800000090B6
S1130C304B469BB2424692B2390089B2300080B230
S1130C40FFF78CFC08361AF1010A9FE71C4800885C
S1130C50E4B2001BB6B2B04206DB19484088E4B2E5
S1130C60001BBFB2B84200DA26E05FF0000BE4B22A
S1130C70202C0ED1EDB20195CDF800A04B469BB2CD
S1130C80424692B2390089B2300080B2FFF7C9FE01
S1130C9078E7E4B2182C7FF467AFEDB20195CDF894
S1130CA000A04B469BB2424692B2390089B2300052
S1130CB080B2FFF71EFE65E705B0BDE8F08F0000C7
S1130CC09404FF1FB004FF1F781E00008818000062
S1130CD01C260000A42B0000EC220000902D000034
S1130CE080B5DFF87C148968096831F48071DFF815
S1130CF0702492681160DFF868148968096831F417
S1130D008061DFF85C2492681160012310220100E5
S1130D10C9B2002000F068FADFF844048068006873
S1130D204FF480710843DFF838148968086001BD06
S1130D3080B5DFF82C148968096831F48071DFF814
S1130D40202492681160DFF818148968096851F446
S1130D508061DFF80C2492681160012310220100E5
S1130D60C9B2002000F040FADFF8F403806800689C
S1130D704FF480710843DFF8E8138968086001BD07
S1130D8010B50400DFF8D8038068006830F4807080
S1130D90DFF8CC1389680860DFF8C4038068006852
S1130DA050F48060DFF8B8138968086001231022CA
S1130DB0A4B2210AC9B2002000F016FA01231022BD
S1130DC02100C9B2002000F00FFAE54880680068ED
S1130DD04FF480710843E2498968086010BD10B57A
S1130DE00C0080B2FFF77CFF2000C0B2FFF7A0FF29
S1130DF010BD80B5DB480089FFF772FF01BD80B5E7
S1130E0089B280B200F089F9D7480088FFF7B8FFAB
S1130E1001BD80B5D2488068006830F40070D049C4
S1130E20896808604FF6FF7000F00EFACC488068BD
S1130E3000684FF400710843C949896808604FF697
S1130E40FF7000F001FA01BD80B5FFF7E2FF112049
S1130E50FFF746FF4FF6FF7000F0F6F9B120FFF7F9
S1130E603FFF0120FFF764FF2C20FFF761FF2D20D7
S1130E70FFF75EFFB220FFF733FF0120FFF758FFB3
S1130E802C20FFF755FF2D20FFF752FFB320FFF76B
S1130E9027FF0120FFF74CFF2C20FFF749FF2D20EF
S1130EA0FFF746FF0120FFF743FF2C20FFF740FF29
S1130EB02D20FFF73DFFB420FFF712FF0720FFF7B7
S1130EC037FFC020FFF70CFFA220FFF731FF0220FD
S1130ED0FFF72EFF8420FFF72BFFC120FFF700FF51
S1130EE0C520FFF725FFC220FFF7FAFE0A20FFF70F
S1130EF01FFF0020FFF71CFFC320FFF7F1FE8A202D
S1130F00FFF716FF2A20FFF713FFC420FFF7E8FEC0
S1130F108A20FFF70DFFEE20FFF70AFFC520FFF739
S1130F20DFFE0E20FFF704FF3620FFF7D9FEC820AE
S1130F30FFF7FEFEE020FFF7D3FE0F20FFF7F8FED9
S1130F401A20FFF7F5FE0F20FFF7F2FE1820FFF737
S1130F50EFFE2F20FFF7ECFE2820FFF7E9FE20200C
S1130F60FFF7E6FE2220FFF7E3FE1F20FFF7E0FE77
S1130F701B20FFF7DDFE2320FFF7DAFE3720FFF703
S1130F80D7FE0020FFF7D4FE0720FFF7D1FE022092
S1130F90FFF7CEFE1020FFF7CBFEE120FFF7A0FE07
S1130FA00F20FFF7C5FE1B20FFF7C2FE0F20FFF73F
S1130FB0BFFE1720FFF7BCFE3320FFF7B9FE2C203D
S1130FC0FFF7B6FE2920FFF7B3FE2E20FFF7B0FE91
S1130FD03020FFF7ADFE3020FFF7AAFE3920FFF7DF
S1130FE0A7FE3F20FFF7A4FE0020FFF7A1FE072085
S1130FF0FFF79EFE0320FFF79BFE1020FFF798FEED
S11310002A20FFF76DFE0020FFF792FE0020FFF775
S11310108FFE0020FFF78CFE7F20FFF789FE2B2038
S1131020FFF75EFE0020FFF783FE0020FFF780FE3F
S11310300020FFF77DFE9F20FFF77AFEF020FFF7E8
S11310404FFE0120FFF774FEF620FFF749FE002053
S1131050FFF76EFE3A20FFF743FE0520FFF768FE18
S11310602920FFF73DFE00F062F801BD70B50400D1
S11310703C484088431E9BB23A480088421E92B2C4
S11310800021002000F015F800250AE0200080B2BD
S1131090FFF776FE761C33484088B6B28642F5D315
S11310A06D1C30480088ADB2854201D20026F2E7BB
S11310B070BDF8B504000D0016001F0029484089D2
S11310C0FFF70EFEA4B2200AC0B2FFF731FEA01C47
S11310D0C0B2FFF72DFEB6B2300AC0B2FFF728FE49
S11310E0B01CC0B2FFF724FE1E488089FFF7F8FD4C
S11310F0ADB2280AC0B2FFF71BFEE81CC0B2FFF76E
S113110017FEBFB2380AC0B2FFF712FEF81CC0B215
S1131110FFF70EFEFFF76DFEF1BD80B50B009BB22D
S1131120020092B289B280B2FFF7C3FF01BD80B55D
S11311300C482C2101810B48002181710948802130
S1131140018008488021418006482A2141810548C0
S11311502B218181C8213620FFF741FE01BD00000B
S11311606804FF1F9404FF1FB004FF1F38B5050077
S11311700C00012301220821022000F069F8012358
S113118001220921022000F063F8012301220A212F
S1131190022000F05DF8EDB2244850F825002449FF
S11311A0096851F48051224A116022494FF41072A7
S11311B00A6021494FF410720A6020494FF400720A
S11311C00A601F4901605FF03841C160C168E4B240
S11311D014F00F021143C1601A49C1620168490841
S11311E049000160012032BD10B4C0B20F4C54F864
S11311F02040DBB2D2B2100410F47C1050EAC37069
S1131200C9B208436063E06A0028FCD5E06A50F084
S11312100040E062E06A8003FCD5A06BE16A51F40F
S11312200031E162C0B210BC704700005C04FF1FD3
S11312303C80044014B0044018B004401CB0044086
S1131240013C008000000A9A401E0028FCD170472F
S1131250F8B504000D0016001F00EDB2202D02D2D7
S1131260FFB2022F03D31E212B4800F05DF8EDB22C
S1131270E4B22A4850F82400F6B24FF480713143A6
S113128040F82510F00705D5F6B2032E02D0F6B2C9
S1131290132E0DD1E4B2224850F8240040690121F4
S11312A0A9408843E4B21E4951F8241048612AE059
S11312B0E4B21B4850F8240040690121A9400843C6
S11312C0E4B2174951F824104861FFB2012F0DD13F
S11312D0E4B2134850F8240000680121A9400843EF
S11312E0E4B20F4951F8241008600CE0E4B20C4851
S11312F050F8240000680121A9408843E4B2084959
S113130051F824100860F1BD80B50100C9B2054848
S113131000F023F801BD0000602E00007C04FF1FD4
S11313206804FF1F00D0064080B50A00010006488B
S113133000F07BFA054800E0401E0028FCD1034879
S11313400028F7D0401EFBE7682F0000A0860100AC
S113135001798906FCD5C079704702791206FCD55B
S1131360C171704710B5002472B60548FFF7F0FF4D
S11313700400E4B22100034800F057FA62B610BD3D
S113138000D00640F42F000010B50C0011680129AC
S113139002D0022904D009E0C0B25168884705E0B0
S11313A0916808709068401C9060FFE72068401CBA
S11313B0206010BD30B41C00002300250570401CC3
S11313C0002A19D0096800290AD1302101705B1C58
S11313D0180030BC7047303511000570401C5B1C90
S11313E00029F5D091FBF4F204FB1215002DF2D57F
S11313F0E94311F13105EFE70968002908D13021EB
S113140001705B1CE4E7373511000570401C5B1C60
S11314100029DDD0B1FBF4F204FB12150A2DF2D23F
S11314203035F1E7F8B504000D0016001F0005E0A3
S11314303A0031003020FFF7A7FF641CAC42F7DB11
S1131440F1BDF8B504000D0016001F0005E03A00D8
S113145031002020FFF798FF641CAC42F7DBF1BD9C
S11314602DE9F04F8DB005001600002000900C000F
S113147005E02A0000A91800FFF786FF641C237802
S1131480002B00F0CE81252B12D00A2B05D02A0088
S113149000A91800FFF778FF09E02A0000A90D2031
S11314A0FFF772FF2A0000A90A20FFF76DFFE5E7A6
S11314B00027002101E057F0010700291BD1641C1B
S11314C0207820280BD023280FD02B2804D02D28B7
S11314D0F1D0302806D00BE057F00207EDE757F0C3
S11314E00407EAE757F00807E7E757F01007E4E7CF
S11314F0641E0121E1E75FF00008002104E00A20F6
S113150000FB0830B0F13008002908D1641C2378AE
S1131510180030380928F2D9641E0121F4E7641C4C
S113152020782E280BD10021FFE7002908D1641C64
S1131530207830380928F8D9641E0121F5E7641EA3
S1131540641C20784C2806D0682802D06C2801D06E
S113155002E002E001E000E0641E641C237818004D
S1131560582878D0622800F0DA80632800F02481BB
S1131570642813D0692811D06E2800F04D816F289B
S113158000F0C280702800F0D580732800F01B8121
S1131590752800F0DA8078285DD06AE73068039017
S11315A0361D0A23012203A904A8FFF703FF82467C
S11315B004A81AEB00090398002804D52D200290F2
S11315C01AF1010A11E03800800704D52B2002909B
S11315D01AF1010A09E03800400704D520200290DE
S11315E01AF1010A01E0002002905FF0000B3800BC
S11315F0000711D50298002804D02A0000A90298F7
S1131600FFF7C2FE5FF0010B2B0000AA41465046D3
S1131610FFF708FFC24612E03800C0070FD42B00C2
S113162000AA41465046FFF70CFF0298002804D058
S11316302A0000A90298FFF7A7FE5FF0010BBBF197
S1131640000F07D10298002804D02A0000A90298AC
S1131650FFF79AFEA3E030680190361D10230022A4
S113166001A904A8FFF7A6FE824604A81AEB000904
S11316705FF0000B3800000716D53800C0060BD504
S11316802A0000A93020FFF77FFE2A0000A9782055
S1131690FFF77AFE5FF0010B2B0000AA414650468B
S11316A0FFF7C0FEC2461CE03800C00719D438005A
S11316B0C00601D51AF1020A2B0000AA4146504681
S11316C0FFF7BFFE3800C0060BD52A0000A9302062
S11316D0FFF75AFE2A0000A97820FFF755FE5FF0B5
S11316E0010B3800C0060ED5BBF1000F0BD12A0048
S11316F000A93020FFF748FE2A0000A97820FFF750
S113170043FE1AF1020A4AE030680190361D0823AC
S1131710002201A904A8FFF74DFE82461FE03068AD
S11317200190361D0223002201A904A8FFF742FEFE
S1131730824614E030680190361D1023002201A96E
S113174004A8FFF737FE824609E030680190361D91
S11317500A23002201A904A8FFF72CFE824604A84C
S11317601AEB00093800000707D52B0000AA4146F0
S11317705046FFF757FEC24611E03800C0070ED4AA
S11317802B0000AA41465046FFF75BFE07E02A0003
S113179000A999F80000FFF7F7FDB9F1010999F8DC
S11317A000000028F3D1F80705D52B0000AA414614
S11317B05046FFF746FE61E63078361D2A0000A940
S11317C0FFF7E2FD5AE6D6F80090361DB9F1000F96
S11317D021D0484600F03AF882463800C0070ED4BB
S11317E02B0000AA41465046FFF72BFE07E02A00D3
S11317F000A999F80000FFF7C7FD19F1010999F84C
S113180000000028F3D1F80705D52B0000AA4146B3
S11318105046FFF716FE31E63068361D0099016028
S11318202CE600980DB0BDE8F08F0EB400B584B07E
S1131830012100910449019105AA010000A8FFF7C4
S11318400FFE04B05DF810FB09130000002100280E
S113185002D1002006E0491C0200501C1278002A24
S1131860F9D10800704750F8041B61B150F8042BFB
S1131870D30744BFA9F101039A18002342F8043B9B
S1131880091FFAD1EFE770470000000000000000D4
S1131890000000000000000000000008080808081C
S11318A0080800001818000000486C24120000000A
S11318B000000000000000000000002424247F1227
S11318C012127F12121200000000081C2A2A0A0CAD
S11318D01828282A2A1C0808000000222515151596
S11318E02A585454542200000000000C1212120A08
S11318F076252911916E00000006060403000000FD
S1131900000000000000000000402010100808083B
S113191008080810102040000002040808101010E5
S113192010101008080402000000000008086B1CD6
S11319301C6B0808000000000000000008080808EC
S11319407F080808080000000000000000000000F4
S11319500000000006060403000000000000000070
S1131960FE00000000000000000000000000000075
S11319700000000006060000000080404020201007
S11319801008080404020200000000182442424225
S11319904242424224180000000000080E080808D1
S11319A008080808083E00000000003C42424220AB
S11319B020100804427E00000000003C424220182F
S11319C020404042221C0000000000203028242433
S11319D022227E20207800000000007E0202021AEB
S11319E026404042221C0000000000382402021A53
S11319F026424242241800000000007E22221010D9
S1131A0008080808080800000000003C424242247C
S1131A1018244242423C0000000000182442424282
S1131A2064584040241C0000000000000000181806
S1131A30000000001818000000000000000000086A
S1131A400000000000080804000000402010080402
S1131A5002040810204000000000000000007F0085
S1131A6000007F00000000000000000204081020B5
S1131A7040201008040200000000003C424246409E
S1131A8020101000181800000000001C225A5555A0
S1131A9055552D42221C000000000008081814149B
S1131AA0243C224242E700000000001F2222221EA2
S1131AB022424242221F00000000007C42420101F7
S1131AC001010142221C00000000001F2242424288
S1131AD042424242221F00000000003F4212121EF6
S1131AE012120242423F00000000003F4212121E46
S1131AF012120202020700000000003C222201012F
S1131B0001712122221C0000000000E742424242EF
S1131B107E42424242E700000000003E08080808F6
S1131B2008080808083E00000000007C101010108F
S1131B30101010101010110F0000007722120A0E5E
S1131B400A12122222770000000000070202020299
S1131B5002020202427F0000000000773636363669
S1131B602A2A2A2A2A6B0000000000E346464A4A31
S1131B7052525262624700000000001C224141415F
S1131B8041414141221C00000000003F42424242C8
S1131B903E020202020700000000001C22414141F3
S1131BA041414D53321C60000000003F4242423E1E
S1131BB01212222242C700000000007C42420204AA
S1131BC018204042423E00000000007F49080808F7
S1131BD008080808081C0000000000E742424242CE
S1131BE042424242423C0000000000E742422224BA
S1131BF024141418080800000000006B49494949DE
S1131C005555362222220000000000E74224241801
S1131C101818242442E7000000000077222214143C
S1131C2008080808081C00000000007E212010108D
S1131C3008040442423F0000007808080808080825
S1131C4008080808080878000000020204040808CC
S1131C500810102020204040001E101010101010FA
S1131C601010101010101E00003844000000000076
S1131C700000000000000000000000000000000060
S1131C8000000000000000FF000608000000000043
S1131C900000000000000000000000000000003C04
S1131CA04278444242FC0000000000030202021A8F
S1131CB026424242261A00000000000000000038BC
S1131CC044020202443800000000006040404078B2
S1131CD04442424264D80000000000000000003C7E
S1131CE0427E0202423C0000000000F08808087EA8
S1131CF008080808083E0000000000000000007CFE
S1131D0022221C023C42423C000000030202023A2E
S1131D104642424242E700000000000C0C00000E64
S1131D2008080808083E00000000003030000038B1
S1131D30202020202020221E000000030202027224
S1131D40120A1612227700000000000E0808080884
S1131D5008080808083E0000000000000000007F9A
S1131D609292929292B70000000000000000003BA3
S1131D704642424242E70000000000000000003CEE
S1131D8042424242423C0000000000000000001BAE
S1131D9026424242221E0207000000000000007892
S1131DA044424242447840E00000000000000077D2
S1131DB04C040404041F0000000000000000007C28
S1131DC042023C40423E0000000000000008083E81
S1131DD00808080808300000000000000000006344
S1131DE04242424262DC000000000000000000E7C2
S1131DF0422424140808000000000000000000EB46
S1131E0049495555222200000000000000000076D8
S1131E1024181818246E000000000000000000E7D9
S1131E204224241418080807000000000000007E63
S1131E3022100808447E000000C02020202020102A
S1131E40202020202020C00010101010101010108E
S1131E5010101010101010100006080808080810C0
S1131E6008080808080806000C32C2000000000038
S1131E70000000000000000000000000000000005E
S1131E800000000000000404040404040004000032
S1131E9000140A0A000000000000000000001414EE
S1131EA03F140A3F0A0A000000041E1505060C141C
S1131EB0150F0400000012150D0A142C2A1200003C
S1131EC00000040A0A1E151509360000000202016A
S1131ED000000000000000000020100808080808A6
S1131EE0081020000002040808080808080402007A
S1131EF000000004150E0E15040000000000040488
S1131F00041F04040400000000000000000000009E
S1131F100002020100000000001F00000000000099
S1131F20000000000000000000020000001008088B
S1131F30080404020202010000000E111111111123
S1131F40110E00000000040604040404040E000042
S1131F5000000E1111080402011F000000000E1100
S1131F60100C1010110E00000000080C0A0A091EC3
S1131F700818000000001F01010F1010110E0000CE
S1131F8000000E09010F1111110E000000001F09BD
S1131F90080404040404000000000E11110E1111C1
S1131FA0110E000000000E1111111E10120E00007F
S1131FB00000000004000000000400000000000015
S1131FC000040000000404000020100804020408B7
S1131FD010200000000000001F00001F000000008F
S1131FE000020408102010080402000000000E1172
S1131FF0110804040004000000000E111915151D39
S1132000011E0000000004040C0A0A1E1233000022
S113201000000F12120E1212120F000000001E1107
S113202001010101110E000000000F121212121220
S1132030120F000000001F120A0E0A02121F0000F5
S113204000001F120A0E0A020207000000001C1200
S113205001013911120C000000003312121E121279
S11320601233000000001F0404040404041F0000D1
S113207000003E0808080808080907000000371295
S11320800A060A0A123700000000070202020202CE
S1132090223F000000001B1B1B1B1515151500001B
S11320A000003B1216161A1A1217000000000E1137
S11320B011111111110E000000000F12120E020274
S11320C00207000000000E1111111117190E18005B
S11320D000000F12120E0A121237000000001E1127
S11320E001060810110F000000001F150404040469
S11320F0040E00000000331212121212120C00001F
S113210000003312120A0A0C040400000000151522
S1132110150E0A0A0A0A000000001B0A0A04040A2F
S11321200A1B000000001B0A0A040404040E000039
S113213000001F0908040402121F0000001C04040C
S11321400404040404041C00000202020404080839
S113215008100000000E08080808080808080E0007
S113216000040A000000000000000000000000005D
S1132170000000000000003F000400000000000018
S11321800000000000000000000C121C123C0000C3
S113219000000302020E1212120E000000000000E2
S11321A0001C1202021C000000001810101C121265
S11321B0123C000000000000000C121E021C000073
S11321C000003804041E0404041E00000000000083
S11321D0003C120C021E221C00000302020E12120A
S11321E0123700000000040000060404040E00007E
S11321F000000800000C0808080808070000030293
S1132200023A0A0E12370000000007040404040412
S1132210041F000000000000000F15151515000034
S113222000000000000F121212370000000000002E
S1132230000C1212120C000000000000000F121219
S1132240120E020700000000001C1212121C1038AB
S113225000000000001B060202070000000000004E
S1132260001E020C101E000000000004040E0404F2
S11322700418000000000000001B1212123C0000B1
S1132280000000000037120A0C04000000000000E7
S11322900015150E0A0A000000000000001B0A04C5
S11322A00A1B0000000000000037120A0C0404039B
S11322B000000000001E0804041E000000180808A6
S11322C00804080808081800080808080808080886
S11322D008080808000604040408040404040600AA
S11322E0022518000000000000000000CEC200001B
S11322F0000000001000000C7FF004402004402087
S1132300014020027FE0624020324020124020043D
S11323107FE004000005001004FFF80889107889A4
S1132320101889101889101889101889101889161E
S11323300776E8000000CAAA0000000000001000B0
S113234010087FF80C6010046010016010427FF0E8
S11323503260101A6010127FF004690004088005CE
S1132360088C08888C18C8983848901868A01048B9
S1132370C010088030088010088C03F7700000003B
S1132380B6C8000000001000000800000C080FFF91
S1132390FC0840000830C008208808209C0FFFE09B
S11323A0082080082080083F8008000019FFE018FA
S11323B020C0102080101180100B00200600201B6C
S11323C0804060FE478018000000B5E70000000070
S11323D000000018000010000010000010000FFFA3
S11323E0F00810200810200810200810200FFFE02B
S11323F00810200810200810200810200FFFE00803
S1132400100000100800100800100400180C000F41
S1132410F8000000D1B90000000000000000180F0F
S1132420FFFC0C00000C0C000C0C000C0C000C0C41
S1132430000C0C000C0C000DFFF00C0C000C0C003C
S1132440080C80080C40080C60080C30100C20109C
S11324500C00200C0C27F3F0400000000000C1F732
S113246000000000080000060008020804FFFC0643
S11324700400000400010840411020312030127F84
S1132480D012001004646004644004644008644092
S113249078644018444018444418C44418844419C7
S11324A0047E060400000000A1E600000000000015
S11324B00000000C0000121F801230681260180C1B
S11324C0C01800800801800801800001800001809C
S11324D00001800001800000800000C00000C010E6
S11324E00060200038C0000F000000000000000061
S11324F00000A3BA0000000000000000000000007B
S113250000000000000000000000000000000000C7
S113251000000000000000000000001C00001C007F
S1132520000C00000000000000000C00001C000073
S11325301C0000000000000000000000A3A5000033
S113254000000000000000000000070018088030B0
S11325500880600880C00881800881000882000526
S113256004000208000011E0002110004110008363
S1132570100103100201100401100800E000000023
S1132580000000000000A3D60000000000000000CE
S1132590000000000FC1F003004003004001008070
S11325A001808001810000C10000C30000620000BE
S11325B06200002400003400001800001800001815
S11325C00000000000000000000000000000000007
S11325D0A3C1000000000000000000000000000093
S11325E000000800001800001C00002C000024005B
S11325F000660000460000C30000830000FF0001E5
S113260001800101800200C00200C00F83F00000BD
S113261000000000000000000000000000000000B6
S113262000001FE01FC06FD077B070307030703082
S11326307030703070302010703070307030703006
S11326407030703067D06FE01FE01FE000000000C2
S113265000003800780036002E000E000E000E0038
S11326600E000E000400000004000E000E000E0018
S11326700E000E000E000E000E000400000000000C
S113268000003FF07FE07FE03FD0003000300030BA
S1132690003000301FD01FE02FE077E070007000A2
S11326A0700060006FF05FF03FF03FF0000000004A
S11326B000003FF07FF07FE03FD00030003000307A
S11326C0003000303FB07FD07FD03FB000300030CA
S11326D0003000303FD07FE07FF03FF0000000008A
S11326E000002010703070307030703070307030F6
S11326F07030703037B00FD00FD007B000300030DA
S113270000300030003000300030001000000000C5
S113271000001FF05FF06FF077F070007000700041
S113272070003F801FC01FC00FB000300030003069
S1132730003000303FD07FD07FE03FE00000000059
S113274000001FF01FF06FF077F070007000700051
S11327507000700077C02FC06FD077B070307030C9
S11327607030703067D06FE01FE01FE000000000A1
S113277000003FE07FE07FD03F9000300030003029
S11327800030003000300010001000300030003005
S11327900030003000300030003000100000000035
S11327A000001FE01FC06FD077B070307030703001
S11327B07030703077B02FD06FF077B070307030E9
S11327C07030703067D06FE01FE01FC00000000061
S11327D000001FE01FC06FD077B0703070307030D1
S11327E0703070306FB00FD00FF00FB00030003089
S11327F0003000303FD07FE07FE03FC000000000A9
S11328000000000000000000000000006000600004
S11328102000000000000000000000002000600014
S11328206000000000000000000000000000000044
S11328300000000000000000000000000000000094
S11328400000000000000000000000000000000084
S11328503C003C003C00000000000000E0B5012307
S1132860012217210120FEF7F3FC01230122162186
S11328700120FEF7EDFC012201210020FEF776FC89
S1132880FEF7E2FA0020FEF7F1FB6B484FF6FF710A
S113289001807F237F2200210020FDF731FE0020EC
S11328A0029010200190654800904FF6E0731F22BB
S11328B005212020FEF748F90120029018200190FC
S11328C05F4800904FF6E0734FF4784219210520D9
S11328D0FEF73AF9012002901820019054A00090CC
S11328E04FF6E0734FF4784219213520FDF7E4FEEA
S11328F00120029018200190524800904FF6E07396
S11329004FF6E07232210520FEF71EF901200290F5
S11329101820019047A000904FF6E0734FF6E07244
S113292032213520FDF7C8FE0120029018200190C5
S1132930454800904FF6E0734FF6FF724B21052097
S1132940FEF702F901200290182001903F48009000
S11329504FF6E0734FF6FF724B213520FDF7ACFEC6
S11329600120029018200190394800904FF6E0733E
S11329704FF4FC6264210520FEF7E6F80120029082
S113298018200190334800904FF6E0734FF4FC6236
S113299064213520FDF790FE11E02F480068401CAB
S11329A02D4908602C4800682C498842F5D32C48EE
S11329B04068006850F48000294949680860284844
S11329C04068006830F400002549496808602248DE
S11329D00021016004E020480068401C1E49086092
S11329E01D4800681D498842F5D31D4840680068A9
S11329F050F400001A494968086017480021016032
S1132A0004E015480068401C134908601248006837
S1132A1012498842F5D312484068006830F48000B7
S1132A200F49496808600C4800210160BAE700BFFB
S1132A303A3332003A323000B004FF1F3C30000019
S1132A4048300000543000001C3000006C3000009E
S1132A502C300000743000009004FF1FFFFF0F00B3
S1132A606804FF1FDFF800F01104FF1F80B50A009F
S1132A70C0B2042801D3002085E0D2B2102A01D3C9
S1132A80012080E0DFF8002100231370DFF8FC2030
S1132A90126852F08052DFF8F4301A60DFF8F02048
S1132AA0127852F08002DFF8E8301A70DFF8E42080
S1132AB098231370DFF8E0201278D206FAD4DFF8F6
S1132AC0D8201278C2F38102D2B2022AF7D1DFF8F9
S1132AD0CC2018231370DFF8C82000231370C0B271
S1132AE0002805D002281BD00ED3032824D02EE0C2
S1132AF00123002200210020FFF7B4FFDFF8A0002B
S1132B0041210170322122E003230122012100200E
S1132B10FFF7A8FFDFF888005A210170642116E04E
S1132B200323012201210020FFF79CFFDFF870003E
S1132B305821017060210AE00123002200210020B5
S1132B40FFF790FFDFF85800402101703021DFF8D3
S1132B50480000788006FAD5DFF83C00007840068B
S1132B60FAD5DFF83000007810F03F00DFF82420B9
S1132B701070DFF824000078C0F38100C0B203288D
S1132B80F7D10800C0B202BD0140064034800440C1
S1132B9008C0074000400640064006400440064086
S1132BA005400640CFB50000000C3FF8030006388E
S1132BB00C701FC0038C0E0C3FFE0DB60D98199CB3
S1132BC0318C31866786CDB30000000018301BFFBE
S1132BD0306036CC6CCC7D8619FE18DB30D87FD8BB
S1132BE070DB019B1F9B771FBCE00000000006C048
S1132BF036FF36C0378037B03718060C00003FFE6A
S1132C0036663666366636667FFFBFD8000000003B
S1132C103060306037FF7EFB379E338C3F063800D0
S1132C2031FC70603060306030607FFFA1E6C0002E
S1132C3023E82C18D8081008300030003000300089
S1132C4030003000100018080C1003E000000000F1
S1132C5080B51C481C4988420BD0002006E0194965
S1132C60194A52F8202041F82020401CB0F5826F08
S1132C70F5D3144800F03AF81449154A1548801A57
S1132C8003E013780B70521C491C0300581E002BE0
S1132C90F7D111491148401A02E000220A70491C78
S1132CA00200501E002AF8D10D490E4A0E48801A1F
S1132CB003E013780B70521C491C0300581E002BB0
S1132CC0F7D101BD0000FF1F000000005C04FF1FDE
S1132CD0D82E00000C2F00009004FF1FB204FF1F29
S1132CE01004FF1F142E0000602E0000014908602C
S1132CF07047000008ED00E080B51C48006850F4FF
S1132D0078501A49086003210220FFF7AFFE1849E2
S1132D100860174800684FF47A7148431549086001
S1132D201448006814490968C1F30361491CB0FBE5
S1132D30F1F01249086000F003F800F00CF801BD4E
S1132D400F48006850F480500D4908600D484FF456
S1132D50E061016070470C48006850F001000A49C6
S1132D6008600A484FF4A06101607047388004404D
S1132D70A804FF1FA404FF1F44800440AC04FF1FE9
S1132D800480044018900440408004400CB0044087
S1132D90D7D6000000000006000000030000000079
S1132DA0C0000001C0C0000107C00001FF00021FF5
S1132DB0FE0007F01C0007C070000F00E0000E03C7
S1132DC0F0001C0FF0003C0F70003C00E000180005
S1132DD0C0000000C0000000C0000000600000004F
S1132DE02000000037000001FF00007FF80007F812
S1132DF030001F8030000080300000C030000060D0
S1132E0060000018E000000FC00000060000000091
S1132E100000000070B4104C24680F4D2D6855F468
S1132E207F050D4E3560090611F0706151EA00709E
S1132E30110511F470010843190411F470210843B9
S1132E4006490860002000E0401CC0B29842FBD351
S1132E500148046070BC704700F0014044800440A5
S1132E60433A5C55736572735C50696E675C446584
S1132E70736B746F705C4B36305F5446543134342A
S1132E805F535049286861726477617265295C7385
S1132E9072635C636F6D6D6F6E5C696F2E630000AF
S1132EA080B500F009F80A4800884FF6FE71084022
S1132EB00749088001BD000072B606484CF2205153
S1132EC0018004484DF62811018062B67047000065
S1132ED0002005400E20054000C0024000D0024002
S1132EE000C00A4000F00F4040F00F4080F00F4057
S1132EF0C0F00F4000F10F400090044000A00440D7
S1132F0000B0044000C0044000D004400A2A2A2A29
S1132F102A64656661756C745F69737220656E748A
S1132F2065726564206F6E20766563746F72202508
S1132F30642A2A2A2A2A0D0A0A00000010B5084920
S1132F4079441C31074C7C441A34A14206D0081D34
S1132F500A68511888470146A142F8D110BD00BF44
S1132F602C00000038000000417373657274696FAF
S1132F706E206661696C656420696E20257320612A
S1132F8074206C696E652025640A0000DBE8FFFF8D
S1132F90240000009004FF1F0000000080B50348D7
S1132FA00178C9B20248FEF740FC01BD04ED00E01F
S1132FB00C2F000000F009F8002801D0FFF7BEFF35
S1132FC00020FFF74BFC00F002F80120704700F0EE
S1132FD001B800000746384600F002F8FBE700009D
S1132FE080B5C046C046024A11001820ABBEFBE7BC
S1132FF0260002000AC4E3B7A2CBCDB5C4CAFDBE05
S1133000DDCEAAA3BA25630080B5FFF749FFFFF719
S11330101FFEFFF771FEFFF721FCFEE7B5E7D1B90C
S1133020202020202020A3D600000000B5E7C1F70F
S1133030202020202020A3C100000000CFB5CDB364
S1133040BCE0BFD800000000CEC2B6C820202020BB
S113305020A1E600CAAAB6C82020202020A3A500EB
S1133060C046C046C046C046FFF7A4FF3A332E32DE
S10F3070000000003A302E320000000086
S90330616B
