:020000040800F2
:1000000040110020DD010008E1010008E3010008C3
:10001000E5010008E7010008E90100080000000010
:10002000000000000000000000000000EB010008DC
:10003000ED01000800000000EF010008F1010008D8
:10004000F3010008F3010008F3010008F3010008C0
:10005000F3010008F3010008F3010008F3010008B0
:10006000F3010008F3010008F3010008F3010008A0
:10007000F3010008F3010008F3010008F301000890
:10008000F3010008F3010008F3010008F301000880
:10009000F3010008F3010008F30100082D2A00080D
:1000A000F3010008F3010008F3010008F301000860
:1000B00081140008BB10000869140008F30100084F
:1000C000F3010008F3010008F3010008F301000840
:1000D000F3010008F3010008F30100089D1A00086D
:1000E000F3010008F3010008F301000800F002F832
:1000F00000F05FF80AA090E8000C82448344AAF163
:100100000107DA4501D100F054F8AFF2090EBAE860
:100110000F0013F0010F18BFFB1A43F0010318473B
:10012000C0AB0000E0AB00000A444FF0000C10F838
:10013000013B13F0070408BF10F8014B1D1108BF65
:1001400010F8015B641E05D010F8016B641E01F805
:10015000016BF9D113F0080F1EBF10F8014BAD1C55
:100160000C1B09D16D1E58BF01F801CBFAD505E073
:1001700014F8016B01F8016B6D1EF9D59142D6D3CD
:10018000704700000023002400250026103A28BFF5
:1001900078C1FBD8520728BF30C148BF0B607047F9
:1001A000642906F0C384002070471FB51FBD10B539
:1001B00010BD06F089FE1146FFF7F7FF00F02AF8A0
:1001C00006F0A7FE03B4FFF7F2FF03BC00F034FA19
:1001D00030BF72B662B680F308887047084800479F
:1001E000FEE7FEE7FEE7FEE7FEE7FEE7FEE7FEE7E7
:1001F000FEE7FEE703480449044A054B7047000048
:10020000ED000008400B002040110020400D0020B0
:10021000400D0020092000F0B6F9482000F056F803
:10022000022000F09BF9012000F098F900F094FA08
:1002300000F0CCFA00F001FD4FF4FA31482000F054
:1002400024FA4FF41651242001F0B6FB002141F6A8
:100250001F4000F0B1FF01F015F801F070F800F058
:10026000B9FD01F023F905F080FE05F092FE47216B
:100270004FF6FF7000F0A2FE01F0ECFD1DE00F480C
:100280000078012804D101F072FF00200B490870AA
:100290000B48007820B906F0D8F906F0BFF801E065
:1002A00006F06FFA0120074908700020064908701F
:1002B00000BF044800780028FBD1E0E738000020A8
:1002C0000700002035000020340000204FF0E0211E
:1002D000096921F004014FF0E0221161C21700EB1F
:1002E0005272C2F3C702234B1A701946097801EB08
:1002F0004102C2EBC1114FF6FF7202EAC1011E4A70
:100300001180704701461B4A12784A434FF0E023A0
:100310005A6100229A6101221A6100BF4FF0E02267
:10032000106900F001021AB100F48032002AF5D001
:1003300000224FF0E0231A619A61704701460E4A8D
:1003400012884A434FF0E0235A6100229A61012249
:100350001A6100BF4FF0E022106900F001021AB1EB
:1003600000F48032002AF5D000224FF0E0231A6119
:100370009A6170475000002052000020A34A0A40B2
:100380000243A34B1A6070470146072323EA010288
:1003900012029F4B1B1D18684FF6FF0318409D4B20
:1003A000184310439A4B1B1D186070472DE9F0410C
:1003B0000746884614461D462846FFF7E5FFC5F167
:1003C000040007FA00F60F20284100EA080006435F
:1003D00006F00F06E21704EBD2625211920002F10E
:1003E000E022D2F800212146E31704EBD3635B112E
:1003F000A4EB431C012303FA0CF31A432046E31732
:1004000004EBD3635B119B0003F1E023C3F80021ED
:100410008148005D40EA06107F490855BDE8F0813B
:1004200070B504460B46CE1701EB9676C6F38700EF
:10043000CE1701EB9676B610A1EB8606B606350E02
:10044000764B9B6943F00103744EB3614FEAB633B8
:1004500053F820300F26AE40B343714E46F820309B
:10046000334653F8203004FA05F61E436C4B43F82C
:1004700020606C4B1B6801268E403343694E33600D
:1004800002F0010343B1674B0C331B6801268E4019
:100490003343644E0C36336002F0020343B1614BC8
:1004A00008331E6801238B401E435E4B08331E60D9
:1004B00070BD00B5002059490861C860142048612A
:1004C00000208861C8610846006840F001000860AB
:1004D000084640685449084050494860084600684A
:1004E000524908404D4908600846006820F48020C1
:1004F00008600846406820F4FE00486000208860DC
:1005000000214FF00060FFF739FF00BD10B54048F3
:100510000830006840F004003D49083108603F4859
:10052000C06940F080503D49C8614148406840F48E
:1005300080703F4948600846006840F00400086049
:100540000846006840F002000860FFF741FE10BD59
:100550003048001D2E49091D0860704701464906B4
:100560002E4A926942F001022C4B9A612C4A083AB9
:10057000526822F0E0622A4B083B5A601A465268E1
:100580000A435A60704730B504460025FFF791FFD3
:100590002248006840F480302049086000BF1F48AE
:1005A0000068400C0028FAD04FF480601B49486076
:1005B000A01EC4B20846406840EA8440486008462D
:1005C000406840F4803048601A48006840F03200CB
:1005D000184908601148006840F080700F490860B1
:1005E00000BF0E480068400E0028FAD00B48406853
:1005F00040F002000949486005E008484068C0F33F
:10060000870505F00305022DF7D130BD80FFFF1FE0
:1006100008ED00E00000FA0500E400E000100240F0
:1006200008000140000401400000FFF8FFFFF6FE53
:100630000070004000200240014600BF7047404A61
:1006400012785AB900BF3F4A128802F04002002ACD
:10065000F9D0C2B23B4B1B1D1A800AE000BF3A4AD8
:10066000128802F04002002AF9D0C2B2364B1B1D9C
:100670001A8070473449091D088000BF3249098833
:1006800001F040010029F9D070472DE9F05F0546DF
:100690000E46300108F0AAFC81462C4905FB01F00A
:1006A00008F0A4FC8246494608F056FB0746384647
:1006B00008F064FC84B2204608F098FC8346394672
:1006C00008F0D9FD82464FF0834108F0D7FC8146FF
:1006D00008F054FC80464FF6FF7000EA041404EB67
:1006E000080084B21A48806940F004001849886103
:1006F0000846806940F4804088611648006820F40C
:100700007F60144908600846006840F40B60086088
:100710000F48C06840F480400D49C8600846C06872
:1007200020F48040C860084808300480001D00881C
:1007300042F20C01084304490C310880BDE8F09FE7
:1007400007000020004800400038014040420F00F0
:1007500000100240040801401748806940F004007E
:10076000154988611548006820F470201349086015
:100770000846006840F440300860104808300068BF
:1007800040F480500D4908310860704718B90021C5
:100790000B4A11600FE00B490968491C094A1160B6
:1007A000814208D106490968C943074AC2F8B01115
:1007B0000021044A11607047001002400408014003
:1007C000B0012142580000200000214256488069B3
:1007D00040F00400544988615448006820F070409B
:1007E000524908600846006840F0004008604F48E1
:1007F0000830006840F400404C49083108607047F8
:1008000001464B48006828B94A480088401C494ABC
:10081000108002E00020474A10804548006828B94F
:100820004548007810B90120434A107043480078C9
:10083000B0B941480078012807D141480078401CF0
:100840003F4A107001203D4A10703D480078022850
:1008500006D100203A4A10703A4A108002207047B0
:1008600033480068012804D10020334A1070334A0D
:1008700010703348007801281CD132480088401C91
:10088000304A10801046008888420ADD29480088D6
:10089000884206DA00202A4A10702A4A1080012075
:1008A000DDE724480088884204DD0020244A1070D7
:1008B000244A10800020D2E72348007838B11C4831
:1008C000006820B9002020490870012070471848AE
:1008D0000068012801D11C4908700020F6E71B4878
:1008E000008840B91248006828B919480088401C9F
:1008F0001749088002E00020154908801448008844
:10090000C82807DD0120114908800020104908800F
:10091000012070470D480088012802D100200B49B2
:1009200008800020F5E700000010024004080140A4
:100930003C012142620000205C0000205D0000209C
:100940005E0000206000002064000020680000209D
:100950006600002010B50A461AB10123FE4C236040
:1009600002E00023FC4C2360002114E00023FB4C38
:10097000236000F080031BB10123241F236003E0E8
:100980000023F64C241F23600123F44C236043060C
:10099000180E4B1CD9B20829E8DB0123EE4C23606A
:1009A00010BD30B500241CE004F1B001C8B2002134
:1009B000FFF7D0FF00210846FFF7CCFF00211020F1
:1009C000FFF7C8FF002508E0E54901EBC501085D18
:1009D0000121FFF7BFFF681CC5B2802DF4DB601C4E
:1009E000C4B2082CE0DB30BD00B500218D20FFF73C
:1009F000B1FF00211420FFF7ADFF0021AF20FFF76A
:100A0000A9FF00BD00B500218D20FFF7A3FF002145
:100A10001020FFF79FFF0021AE20FFF79BFF00BDD6
:100A200030B500240CE0002506E00020CC4901EBA5
:100A3000C5010855681CC5B2802DF6DB601CC4B228
:100A4000082CF0DBFFF7ADFF30BDF0B514460026F3
:100A50007F2801DC3F2900DDF0BD0B46CF1701EBFD
:100A60005777FF10C7F10707FAB2CF1701EB577797
:100A7000FF10A1EBC707FDB2C5F107070123BB407B
:100A8000DEB24CB1B64B03EBC0039B5C3343B44FB7
:100A900007EBC007BB5408E0B14B03EBC0039B5C02
:100AA000B343AF4F07EBC007BB5400BFD4E72DE9FA
:100AB000F04F80460C4615461E46A346A5F1200081
:100AC000C5B200273EE00C2E07D105EB4500A54935
:100AD00001EB800010F8079004E0A34800EB05103C
:100AE00010F807904FF0000A26E009F0800028B1C6
:100AF00021464046099AFFF7A8FF09E0099808B97E
:100B0000012000E00020024621464046FFF79DFFFD
:100B10004FEA49604FEA1069601CC4B2A4EB0B00B5
:100B2000B04205D15C4608F1010000F0FF0806E084
:100B30000AF1010000F0FF0ABAF1080FD5DB00BF8F
:100B4000781CC7B2B742BEDBBDE8F08F10B50246D5
:100B5000012000E050430B00A1F10104E1B2F9D102
:100B600010BD2DE9FF4F81B0074691461E460E9DF0
:100B70004FF0000A002439E0301B401EC1B20A20A9
:100B8000FFF7E4FFB9FBF0F00A21B0FBF1F201FB43
:100B90001208BAF1000F16D1701EA04213DDB8F191
:100BA000000F0ED10120AB4605EBDB71491001FBB4
:100BB00004710090C8B22B4620220299FFF777FFFC
:100BC00012E04FF0010A0120AB4605EBDB71491042
:100BD00001FB04710090C8B208F13001CAB22B4683
:100BE0000299FFF764FF00BF601CC4B2B442C3DBCC
:100BF00005B0BDE8F08F78B505460E46144618E0FE
:100C00007A2D03DD002506F11000C6B23A2E04DD70
:100C1000002005460646FFF703FF012000902278DA
:100C20000C2331462846FFF742FF05F10800C5B204
:100C3000641C20780028E3D178BD10B54B4880694A
:100C400040F00800494988614948006820F4702054
:100C5000474908600846006840F40030086043488F
:100C6000806940F01000414988610846806940F081
:100C7000010088613F484068C0F313003D49486067
:100C8000084640683C4908433A4948603B48006888
:100C900040F48070394908603448006A20F001004F
:100CA000324908623648008820F001003449088043
:100CB0003248006820F480703049086000202749DD
:100CC000083908606420FFF739FB01202D49C1F87D
:100CD000B4010021AE20FFF73DFE0021D520FFF733
:100CE00039FE00215020FFF735FE0021A820FFF734
:100CF00031FE00213F20FFF72DFE0021D320FFF71A
:100D000029FE00210846FFF725FE00214020FFF7BD
:100D100021FE00218D20FFF71DFE00211420FFF78A
:100D200019FE00212020FFF715FE00210220FFF709
:100D300011FE0021A120FFF70DFE0021C020FFF7CA
:100D400009FE0021DA20FFF705FE00211220FFF73F
:100D500001FE0021812017E090812142BC01224246
:100D6000CC01002066940008DA98000800100240C8
:100D7000000C0140001001400000202200700040E3
:100D8000306C004000002242FFF7E4FD0021EF201C
:100D9000FFF7E0FD0021D920FFF7DCFD0021F12065
:100DA000FFF7D8FD0021DB20FFF7D4FD0021302024
:100DB000FFF7D0FD0021A420FFF7CCFD0021A620E5
:100DC000FFF7C8FD0021AF20FFF7C4FDFFF728FEA5
:100DD00010BD00007048806940F004006E498861D1
:100DE0006E48006820F470206C4908606A48806989
:100DF00040F40070684988610846C06840F400709B
:100E0000C8600846C06820F40070C86008464068A2
:100E100020F4404048600846406840F40040486084
:100E20005F4800685F4908405D49086008460068FF
:100E300008600846006820F480700860081D00689B
:100E400020F00200091D08600846006820F46020B8
:100E500008600846006840F46020086008460068A2
:100E600040F4801008600846006820F400600860C4
:100E70004B482830006820F4700049492831086048
:100E8000084600680020086045480C30006820F4DF
:100E9000702043490C3108600846006840F4E04087
:100EA00008603F48001D006840F001003C49091DF2
:100EB00008600846006840F00800086000BF384835
:100EC000001D006800F008000028F8D13448001D1B
:100ED000006840F004003249091D086000BF304836
:100EE000001D006800F004000028F8D1704701469A
:100EF0002B483030006820F01F00294A3032106043
:100F000010460068084310602548001D006840F442
:100F10008000234A121D106000BF2148001F006896
:100F200000F002000028F8D01D484830006880B268
:100F300070472DE9F04F87B00420FFF7D8FF8346B4
:100F400007F010FB4FF06632174BCDE9000107F0B8
:100F500059FB0022154BCDE9020107F053FB8046F7
:100F60000022134B07F04EFB06460022114B07F000
:100F70005BF90022104BCDE9040107F055F9044656
:100F800007F0AAFA824640F2EC40824500DD824634
:100F9000504607B0BDE8F08F001002400008014045
:100FA00004240140FFFFF00066660A40000027406D
:100FB000000059400000F83F0000B04070B5044602
:100FC0000D466C48C06940F002006A49C861084695
:100FD000806940F0080088616748006820F0FF00E1
:100FE000654908600846006840F0280008606348CA
:100FF0000480001F058061481038008840F001001F
:101000005E49103908800846008808800846008834
:101010000880081D0088091D08800846008840F4E3
:101020008070088055482038008840F008005349F7
:10103000203908800846008840F0010008804F48A9
:101040002C38008840F001004C492C3908800123DD
:101050001D2203211846FFF7A9F970BD10B5012024
:10106000474908600F20FFF74DF900204549C1F8B6
:1010700084014548007800F08000E8B142480078DB
:1010800000F03F00414908600846008800040860FD
:10109000084600683E49098808443C4908600846FB
:1010A0000068AA2148434FF47A71B0FBF1F0374948
:1010B000086000203449088010BD30491C39088878
:1010C0003149097801F0800100294ED100F0010179
:1010D000D1B12D49097801F04001A9B12A49097817
:1010E00001F03F013F290AD12749098841F08001D9
:1010F000254A11804FF6FF71254A118004E02249EC
:101100000988491C204A118000F0080169B31E4972
:10111000097801F0400199B11B49098841F080012B
:10112000194A1180154910310988194A118013494B
:101130000C39098821F40071104A0C3A118014E02E
:101140000021114A1180124A11800F49098841F08B
:1011500040010D4A11800021084A083A1180111FF0
:10116000098841F40071121F11800021034A1C3AC2
:101170001180704700100240000C01402C04004018
:1011800084812142008021426A000020300000203A
:101190006C0000203648806940F0080034498861BE
:1011A0003448006880B23349086008460068324914
:1011B000084330490860704700B502460B46FFF708
:1011C000E9FF2B48806940F400602949886108469E
:1011D000806940F004008861284800684FF20F01E0
:1011E000884326490860084600684BF20B01084313
:1011F0002249086022480280001F038020481038DE
:10120000008840F4C0401E4910390880081F00883B
:1012100040F06000091F0880081D008840F400604D
:10122000091D0880081F008840F00800091F088079
:1012300013480C38008840F4805011490C3908805C
:101240000846008840F0010008800D4818300088EA
:1012500040F400400A49183108804FF40040084922
:101260002C3908800846008840F00100088000BD45
:1012700000100240040C014000002222040801403A
:101280002C2C014010B58448C06940F0010082490F
:10129000C8610846806940F0040088617F480068A2
:1012A00020F0FF007D4908600846006840F04400D7
:1012B0000860C804808940F00100C904888108469C
:1012C000808940F04000888101231C2203211846B8
:1012D000FFF76CF800204FF0804108854FF6FF7053
:1012E00088850846008820F44070088008460088F9
:1012F00020F0600008800846008B40F00100088361
:101300000846008B40F4807008830846008C20F06B
:10131000020008840846008C20F02000088408465B
:10132000008B40F0300008830846008940F003003D
:1013300008810846008840F00100088010BD10B503
:101340005548C06940F004005349C86108468069A7
:1013500040F0080088615248006820F07F40504902
:1013600008600846006840F0884008604D480088E2
:1013700040F001004B4908800846008840F04000DA
:10138000088001231E2203211846FFF70FF80020D2
:1013900044491C3108804FF6FF70091D0880414800
:1013A0000C38008820F440703E490C39088008460B
:1013B000008820F0600008803A480C30008840F037
:1013C000010038490C3108800846008840F48070DC
:1013D000088034481430008820F00200314914316C
:1013E00008800846008820F0200008802D480C3036
:1013F000008840F030002B490C3108802948001F3C
:10140000008840F003002749091F088025480C3850
:10141000008840F0010023490C39088010BD0146C6
:10142000022904D003290BD0042919D10FE04FF071
:101430008042928C10B200224FF080439A8411E0D7
:10144000194A128810B20022174B1A800AE0154A76
:101450001832128810B20022124B18331A8001E0A1
:10146000002000BF00BF70470E48001D00880D48D7
:10147000001D008820F001000A49091D08807047FE
:101480004FF08040008A4FF08040008A20F0010039
:101490004FF0804108827047001002400008014070
:1014A000000C01400C08004024040040F74880690B
:1014B00040F00800F5498861F548006820F0FF0019
:1014C000F34908600846006840F033000860704740
:1014D00010B5EF48006820F0F000ED4908600846BC
:1014E000006840F0300008600120EA490860EA48DE
:1014F000D0F8240108B9002010BD0120E549091FDA
:101500000860FEF7FFFE0020E349C1F8A401E148AE
:101510008038006808B10020EEE70120FEF7F2FEF7
:101520000020DC49091F08600120E5E710B5D84814
:10153000006820F0F000D64908600846006840F0D6
:10154000300008600020D349091F0860D249C1F863
:10155000A4010120FEF7D6FE0120CE49091F086034
:10156000CD49C1F8A401FEF7CDFE10BD10B5002491
:10157000C748006820F0F000C549086008460068C8
:1015800040F0800008600120C2490860FEF7BAFE02
:101590000120C149C1F8A001FEF7B4FE0AE0601CB9
:1015A000C4B2322C03DDFFF7C1FF002010BD0120C3
:1015B000FEF7A8FEB748803800680028EFD1B5498B
:1015C000091F08600120F1E710B50020B149091F8B
:1015D0000860AF48006820F0F000AD490860084698
:1015E000006840F0300008600020AB49C1F8A40159
:1015F0000120FEF787FE0120A649091F0860FEF7BB
:1016000081FE0020A449C1F8A00110BD10B5002042
:10161000A049091F08609E48006820F0F0009C491E
:1016200008600846006840F03000086001209A49D0
:10163000C1F8A401FEF766FE01209649091F086063
:10164000FEF760FE00209449C1F8A00110BD70B5FE
:1016500004468F48006820F0F0008D490860084675
:10166000006840F03000086000208A49091F0860C7
:10167000002516E0E009874908606006040E012095
:10168000FEF740FE01208449C1F8A001FEF73AFEB2
:1016900000208049091F08600120FEF733FE681C06
:1016A000C5B2082DE6DB70BD2DE9F04105460E46BA
:1016B00017469846FFF70CFF10B90120BDE8F081EE
:1016C0006906080EFFF7C3FFFFF750FF18B9FFF7D1
:1016D0002DFF0120F2E73046FFF7B9FFFFF746FF85
:1016E00000240BE018F80400FFF7B1FFFFF73EFFFE
:1016F00018B9FFF71BFF0020E0E7641CBC42F1DBD8
:10170000FFF714FF0020D9E770B5054600246048B4
:10171000006820F0F0005E4908600846006840F06C
:1017200080000860002617E000205A49091F086061
:101730000220FEF7E7FD01205749C1F8A00160062D
:10174000040E54488038006808B1601CC4B20220FE
:10175000FEF7D8FD701CC6B2082EE5DB15B1FFF709
:1017600033FF01E0FFF752FF204670BD2DE9F04145
:1017700006460F4614461D46FFF7AAFE10B9012083
:10178000BDE8F0817106080EFFF761FFFFF7EEFE7E
:1017900018B9FFF7CBFE0120F2E73846FFF757FFF5
:1017A000FFF7E4FEFFF794FE012101EB4601C8B20A
:1017B000FFF74DFFFFF7DAFE0DE0012C04D100200A
:1017C000FFF7A2FF287003E00120FFF79DFF2870BC
:1017D0006D1C601EC4B2002CEFD1FFF7A7FE0020E5
:1017E000CEE770B505460E460024FFF771FE284689
:1017F000FFF72DFF641CFFF7B9FE3046FFF727FF08
:10180000641CFFF7B3FEFFF763FE691CC8B2FFF765
:101810001EFF641CFFF7AAFE0020FFF775FF0446B9
:10182000FFF784FE204670BD2DE9F041074688464B
:1018300015461E460024FFF74BFE3846FFF707FF0C
:10184000FFF794FE4046FFF702FFFFF78FFEFFF71A
:101850003FFE791CC8B2FFF7FAFEFFF787FE00BF14
:101860000DE0681EA04204D00120FFF74DFF305567
:1018700003E00020FFF748FF3055601CC4B2AC42C3
:10188000EFDBFFF753FE2046BDE8F0810010024079
:10189000040C0140A4812142008021422DE9F04145
:1018A00080460D4616461F460024FFF711FE4046AF
:1018B000FFF7CDFEFFF75AFE2846FFF7C8FEFFF7F9
:1018C00055FE00BF06E0385DFFF7C1FEFFF74EFE94
:1018D000601CC4B2B442F6DBFFF728FE0120BDE86D
:1018E000F08170B505460E46144631462846FFF78E
:1018F00078FF2070012070BD37B504460D4602AB5D
:10190000012229462046FFF7C9FF3EBD2DE9F843D5
:101910000746884614461D46089E6A464146384694
:10192000FFF7DFFF28B3601CFF2101FA00F0C4F1CC
:1019300008012944491EFF220A41104300F0FF0913
:10194000C5F1080006FA00F0C6B2C4F1070006416E
:101950009DF8000000EA090000909DF80000304367
:1019600000909DF8002041463846FFF7C5FFBDE8CE
:10197000F8830020FBE7F8B506460F4614461D46DF
:101980006A4639463046FFF7ACFF2DB10120A04032
:101990009DF80010084305E00120A0409DF80010CC
:1019A00021EA0000C0B200909DF800203946304680
:1019B000FFF7A2FFF8BD00002DE9F05F05460E46D7
:1019C000300107F013FB8146FA4905FB01F007F0EF
:1019D0000DFB8246494607F0BFF90746384607F037
:1019E000CDFA84B2204607F001FB8346394607F062
:1019F00042FC82464FF0834107F040FB814607F0EE
:101A0000BDFA80464FF6FF7000EA041404EB0800AC
:101A100084B2E948806940F00800E74988610846D7
:101A2000C06940F48020C861E448006820F47F4029
:101A3000E24908600846006840F40B400860DF484F
:101A40000830006840F48060DC4908310860DA48FA
:101A5000006940F48020D84908610846006920F4F4
:101A600080200861D6480480001D008842F20C01E5
:101A70000843D349091D08800846008840F4807057
:101A800008800846008840F02000088002232722B2
:101A900001210020FEF78AFCBDE8F09F2DE9FF5FE1
:101AA000C7480838008800F0200000287ED0C448CD
:101AB000001F0088C349086008460078C2490870C2
:101AC000C04800680A2864DDBE4800685A2809D169
:101AD0000020BE490870BE490870BE490870BE4962
:101AE000087056E0B748006841280AD10120B7497C
:101AF00008700020B6490870B6490870B6490870E9
:101B000047E0B048006845280BD10020AF49087075
:101B10000120AF4908700020AE490870AE49087036
:101B200037E0A8480068422807D0A6480068432844
:101B300003D0A448006844280AD10020A3490870B3
:101B4000A3490870A34908700120A349087020E048
:101B50009C480068462807D09A480068472803D068
:101B60009848006848280BD1002098490870984987
:101B7000087001209749087000209749087008E014
:101B80000020924908709249087092490870924961
:101B900008708C4800680A2864DA8A48006858B9D6
:101BA00000208A4908708A49087000E0EFE08949FE
:101BB00008708949087055E082480068012809D1F9
:101BC0008249087000208249087082490870824961
:101BD000087047E07B48006805280BD100207B494E
:101BE000087001207A49087000207A4908707A4903
:101BF000087037E073480068022807D07148006811
:101C0000032803D06F48006804280AD100206F49D8
:101C100008706F4908706F49087001206E4908709C
:101C200020E068480068062807D066480068072852
:101C300003D06448006808280BD10020634908706D
:101C400063490870012063490870002062490870E8
:101C500008E000205D4908705D4908705D49087022
:101C60005D490870584800787B2802D101205B4903
:101C70000870554800787D2802D102205749087025
:101C80005648007801280AD14F4800785449554AEF
:101C90001278885453480078401C524908704F48C5
:101CA0000078022873D14F48007807F09FF94E4919
:101CB00008604B48C078502803D101204B49087078
:101CC000AEE04748C078572803D101204849087042
:101CD000A6E04348407823286AD042480078454926
:101CE000087034E03F490978424A1278881A06F0B1
:101CF00022FC804642460B4600203F4905F090FCFE
:101D000004460D463B490978491E354A515CA1F10C
:101D1000300006F010FC064622462B4606F072FC08
:101D200082468B463548006806F07CFF52465B468B
:101D3000CDE9000106F0BCF9CDE9020106F086F913
:101D40002E4908602B480078401E2A49087029480F
:101D500000780428C6DA22484078303809285ED254
:101D6000DFE800F0050D161E58595A5B5C00244947
:101D70002248006806F0F0FF224908604FE0204941
:101D80001E48006806F0E8FF1F49086047E054E07D
:101D90001B491A48006806F0DFFF1C4908603EE056
:101DA00017491648006806F0D7FF1949086036E061
:101DB00036E0000040420F0000100240040C0140D9
:101DC000084800407400002070000020010000203E
:101DD0000200002003000020040000207800002002
:101DE000CC050020790000202C00002037000020C6
:101DF000380000207A000020000024407C000020F1
:101E00000000C8424000002044000020480000209C
:101E10004C00002003E002E001E000E000BF00BF52
:101E200000200749087007490870074908700749EA
:101E300008603221064804F0E7FEBDE8FF9F00007D
:101E400078000020790000207A0000207C0000202B
:101E5000CC05002010B51248806940F008001049F8
:101E600088611048006820F470000E490860084638
:101E7000006840F4000008600A480C30006840F038
:101E8000200008490C310860012205211046FEF7A8
:101E9000C7FA0223172201211846FEF787FA10BD60
:101EA00000100240000C0140C848C9494860C948B8
:101EB00048607047C648006940F08000C449086126
:101EC0007047C348C16801F0010008B101207047A4
:101ED00001F0040008B10220F9E701F0100008B198
:101EE0000320F4E70020F2E770B5044600BFFFF7D7
:101EF000E8FF0546012D00D006E00120FEF702FABA
:101F0000601E84B2002CF2D100BF04B9FF25284620
:101F100070BD70B50546002445F6FF70FFF7E4FF7D
:101F20000446C4B9AA48006940F00200A849086103
:101F300008464561006940F04000086145F6FF70C1
:101F4000FFF7D2FF0446012C05D0A148006920F01C
:101F500002009F490861204670BD70B505460E46D7
:101F6000FF20FFF7C1FF044694B99948006940F08B
:101F70000100974908612E80FF20FFF7B5FF044656
:101F8000012C05D09248006920F0010090490861B9
:101F9000204670BD0146088870472DE9F04105468E
:101FA0000E461746002407E036F814102846FFF7BF
:101FB000D4FFAD1C601C84B2BC42F5DBBDE8F081EF
:101FC00030B503460C461546002207E01846FFF7D9
:101FD000E1FF24F812009B1C501C82B2AA42F5DBE0
:101FE00030BD2DE9F05F80468A461746B8F1006F94
:101FF00002D37948804501D3BDE8F09FFFF754FF35
:10200000A8F1006B4FEA9B25CBF34809C9F5007492
:10201000A74200DC3C464EE04FF0006101EB85201A
:102020008A146E49FFF7CCFF00260BE009EB06008F
:102030006A4931F810004FF6FF71884200D003E082
:10204000701C86B2A642F1DB00BFA6421BDA4FF03D
:10205000006101EB8520FFF75CFF002608E03AF8FD
:10206000160006EB09015D4A22F81100701C86B2C9
:10207000A642F4DB4FF0006101EB85208A1457493A
:10208000FFF78BFF04E0224651464046FFF785FFED
:10209000A74200D110E06D1C4FF000090AEB440A82
:1020A00008EB4408381B87B2B7F5007F02DD4FF418
:1020B000007400E03C46AFE700BFFFF7FBFE00BF47
:1020C0009AE713B50446012201A92046FFF789FFCC
:1020D0001CBD10B50A2242494248FFF771FF404833
:1020E00000884FF6FF71884218D13D4840888842E9
:1020F00014D13B488088884210D13948C088884232
:102100000CD139483949086039483A4908603A4899
:102110003A4908603A483B49086027E03049088856
:1021200006F064FF0446384906F016FE2F490860A1
:102130002B49488806F05AFF0446334906F00CFE46
:102140002C4908602649888806F050FF04462E492D
:1021500006F002FE294908602149C88806F046FFBA
:102160000446294906F0F8FD2649086010BD10B55F
:1021700025491E48006806F081FF044606F0FEFE71
:102180002249088020491B48006806F077FF044672
:1021900006F0F4FE1D4948801B491848006806F007
:1021A0006DFF044606F0EAFE184988801649154876
:1021B000006806F063FF044606F0E0FE1349C8809D
:1021C0000A220848FFF70DFF10BD000023016745F4
:1021D00000200240AB89EFCD00000108FE05002081
:1021E000A401002000E000080000A64240000020FA
:1021F000AE47E13E4400002000002042480000209D
:10220000CDCC4C3E4C0000200000C842B80100205C
:102210000146002901DA484200E00846704710B53F
:1022200003460A464FF4C874002B07DD0120FE491F
:1022300008600020FD49C1F8B80106E00020FA4915
:1022400008600120F949C1F8B8011846FFF7E0FF1E
:102250002044F7490880002A08DD0020F2490839A7
:1022600008600120F149C1F8B00107E00120EE4902
:10227000083908600020ED49C1F8B0011046FFF7A9
:10228000C7FF2044EA490C31088010BD70B50646EE
:102290000D46E849304606F0BDFE0CD3E64930460F
:1022A00006F0B8FF07D3E5480078012803D040F2D4
:1022B000564085420EDA01240020DB49091F0860E0
:1022C000DA49C1F8BC01D84908390860D749C1F8D2
:1022D000B00100E00024204670BD70B506460C46F3
:1022E0001546D648007808B9002070BDD44800884B
:1022F00070B9D449304606F08DFF09D2D249304634
:1023000006F088FE04D21CB915B90120CC4908801A
:10231000CB48008801281DD1CC480088401C80B2E1
:10232000CA490880322803DD00200880C44908809B
:1023300014F1030F0EDA15F1030F0BDA14F11E0F6F
:1023400008DD15F11E0F05DD0020BD49088008805D
:102350000120CAE70020C8E72DE9F04107460E46F4
:1023600014461D46BA480088E0B92046FFF750FFE2
:1023700002462846FFF74CFF10441E2805DAB548F0
:102380000088401CB349088002E00020B149088061
:10239000B04800880A2805DD0120AD4908800020EA
:1023A000AC490880AA48008801281DD1AA480088A5
:1023B000401C80B2A8490880C82803DD002008809E
:1023C000A3490880A549384606F024FF0CD2A44949
:1023D000304606F01FFF07D2A249304606F01AFE2B
:1023E00002D202209A49088099480088022816D112
:1023F0009D480088401C80B29B490880642803DD0A
:1024000000200880924908806019FFF701FF962894
:1024100005DD00208E4908800120BDE8F081002004
:10242000FBE741F6F42091490978012904D190494C
:102430000968A0398E4A11608E490978012904D1B2
:102440008D490968A0398C4A11608949096842425E
:10245000914202DA4142864A116085490968814207
:1024600001DD83490860844909684242914202DAE9
:102470004142814A116080490968814201DD7E49FB
:10248000086070472DE9F04705460E4691467B48A7
:102490000078322191FBF0F7384606F08FFD0446B4
:1024A00077480078012803D076480078012835D194
:1024B0004FF07E517448006806F0E0FB7249074611
:1024C00008604FF07E5106F009FD07D1A819FFF70B
:1024D0009FFE074606F072FD6C4908606B48016874
:1024E0006B4806F039FC6B4908600846006806F046
:1024F00099FB0746684A694B06F048F802D26848DB
:10250000644908604FF07E516248006806F082FE20
:102510000CD24FF07E505F49086007E061485D498A
:1025200008600020584908605849086054480078FD
:10253000012808D1574801685B48006806F0A6FEEC
:10254000594908600FE04F480078012808D15148E8
:1025500001685548006806F091FB5349086002E0A5
:1025600000205149086021464F48006806F052FE9D
:1025700001D24D48046084F000474B48016838465A
:1025800006F048FE03D284F000404749086037480F
:102590000078012803D037480078012803D140484B
:1025A0004249086002E04248404908603F480168EB
:1025B000484606F063FD07463E4801683A48006811
:1025C00006F05CFD8046394606F058FB3A49086043
:1025D0000846006806F0B6FCBDE8F0872DE9F05F1C
:1025E00022480078012806D13448006880F0004075
:1025F000334908600BE01F480078012804D12F48B8
:1026000000682F49086002E000202D4908602D482D
:102610000078012863D12C480068B0F5FA7F5ED2BB
:1026200017480078012851E0BC81214200802142F6
:10263000342C0140000020C200002042060000208F
:10264000DC000020000010C100003041DE0000204E
:10265000D4000020D6000020D80000200020CB4667
:10266000000098C10000A841DA000020010000200D
:1026700010000020020000201400002005000020AF
:102680000300002004000020C8000020C00000203B
:1026900000004842C40000209A9999999999D93F1D
:1026A000CDCCCC3E3333333FB8000020D0000020E7
:1026B000713D8A3ECC000020BC000020B400002008
:1026C000AC000020360000203000002007D0FE487B
:1026D0000078012803D0FD480068FD490860FD49E5
:1026E0000968FD4A12681144084606F067FCFB4978
:1026F0000860FB48006806F095FA06464FF066321F
:10270000F84B05F07FFF044605F0A0FCF449086093
:10271000F248006806F086FA80464FF03332F24BFA
:1027200005F070FF04460D46ED48006806F07AFAA1
:10273000064622462B4605F0BBFC824605F086FC89
:10274000E749086008460168E848006806F096FA1C
:10275000E6490860DE480168E448006806F096FD36
:10276000E2490860E249E148006806F053FD02D200
:10277000DF48DE490860DF49DC48006806F04AFCB3
:1027800002D2DC48D9490860DB480168D7480068B4
:1027900006F074FC0446D9480168D148006806F088
:1027A0006DFC0546214606F069FAD5490860D54812
:1027B0000168D5480068FFF769FD012803D0D348B8
:1027C0000078012802D10020C8490860CC48006880
:1027D00006F0B8FBBDE8F09F2DE9F04705460C4632
:1027E0004FF07E51284606F051FD8046C8480168EA
:1027F000204606F043FC81464146C648006806F084
:102800003DFC8246494606F039FA074606F09AFB37
:1028100006463046BDE8F08770B53220FDF7F0FF80
:102820000546012D07D1B948007808B9012000E01C
:102830000020B6490870022D07D1B748007808B9C2
:10284000012000E00020B4490870FEF748F8044673
:10285000012C07D1B148007808B9012000E0002020
:10286000AE49087070BD2DE9F04F89B0814603F084
:1028700088FDAB490860B9F1010F1BD103F0F0FBF3
:10288000A8480068A0490860A749B1F9020006F00D
:1028900095FBA6490860A449B1F9040006F08EFB37
:1028A000A3490860A349B1F9040006F087FBA249D7
:1028B0000860B8E04621D020FEF793FF804645210E
:1028C000D020FEF78EFF08EB0027384606F076FB97
:1028D00004464821D020FEF784FF80464721D020BF
:1028E000FEF77FFF08EB0027384606F067FB064639
:1028F0003C21D020FEF775FF80463B21D020FEF71B
:1029000070FF08EB0027384606F058FB834640214D
:10291000D020FEF766FF80463F21D020FEF761FF02
:1029200008EB0027384606F049FB05464FF08E417C
:10293000204606F06FFC05D24FF08F41204606F08E
:10294000A5FC04464FF08E41304606F063FC05D2EC
:102950004FF08F41304606F099FC06464FF08E410D
:10296000584606F057FC05D24FF08F41584606F006
:102970008DFC83464FF08E41284606F04BFC05D275
:102980004FF08F41284606F081FC054684F0004058
:1029900066490860284606F045F9CDE90001584629
:1029A00006F040F90746DDE9002304F079FD002236
:1029B000624BCDE9020105F025FE614A614BCDE98C
:1029C000040105F031FCCDE9060105F03FFB82462C
:1029D000204606F027F94FF066325B4BCDE9060141
:1029E00005F022FC074605F031FB04465748007805
:1029F000022806D184F000473946504602F068FFAD
:102A000009E052480078032805D184F00047394690
:102A1000504603F074F84E4800683B49086044484B
:102A200006604548056009B0BDE8F08F10B549481B
:102A30000068002846D120204749086047480078B0
:102A400008B9012000E0002044490870444800789B
:102A500001280BD143480078401CC0B2414908709E
:102A60000A2803D1002008703D4908703B480078CF
:102A7000012828D135480078FFF7F5FE3A4800686C
:102A8000401C39490860962807D138491E4800681B
:102A900006F0C0FB01D2FFF71CFBFEF74AFA3449EF
:102AA000086034480068401C3249086032480068B9
:102AB0002F4909680844304908602E480068642896
:102AC00068D15BE0DFE067E004000020B400002094
:102AD000AC000020080000200C000020A400002012
:102AE000A80000206666E63F3333D33FB0000020E5
:102AF00000E02B4600E02BC64C00002048000020E0
:102B0000A00000201C000020200000200600002063
:102B10004400002040000020070000203600002074
:102B20001800002070010020600100202400002017
:102B300028000020660100203C0000200080664044
:102B4000F1D4C853FB2109406666304000000020E4
:102B50001001002014812142140401408C00002047
:102B60003500002034000020900000200000F041DB
:102B700094000020980000209C0000200846006877
:102B8000642190FBF1F04149086000204049086051
:102B900040490860002010BD0220FEF740FC404282
:102BA0003D4908600420FEF73AFC3C4908603C4877
:102BB0000078FFF758FEFEF751FA3A48007810B94E
:102BC0006420FDF7E3FD37480078012802D100209A
:102BD000FDF7DCFDFFF720FE33480168334800684D
:102BE000FFF7FAFD324908602C4801682A4800685E
:102BF000FFF7F4FC2F4908602F4802682748016856
:102C000025480068FFF73EFC2C490860284800680A
:102C100028490968084429490968401A2849086070
:102C2000234800682349096808442449096808447E
:102C300024490860FFF7F5FB184803681648026846
:102C40001A48016820480068FFF786FB10B1012090
:102C50001E490870114802680F480168134800684F
:102C6000FFF73BFB10B100201849087007480168C6
:102C70000E480068FFF70AFB28B91248016810489F
:102C80000068FFF7CCFA002085E700001C00002058
:102C90009C00002098000020080000200C0000206C
:102CA000000000203600002024000020200000202A
:102CB00080000020840000202800002088000020E0
:102CC00010000020140000203C000020060000201E
:102CD00038B50446FB4890F82400C0B114B1022076
:102CE000009001E000200090F64A1268D17BF54A7E
:102CF000526810786B460122FEF7D6FC10B14FF0F7
:102D0000FF3038BD9DF80010EE48417423E0ED48D7
:102D1000807A10B94FF0FF30F3E724B1E948407CE6
:102D200008B10020EDE714B10120009001E000207F
:102D30000090E44A1268D17BE24A526810786B46F0
:102D40000122FEF7B1FC10B14FF0FF30D9E79DF83A
:102D50000010DC4841740020D3E738B5002419E0A6
:102D6000D8480068C07AA04204D0D6480068407DA8
:102D7000A04200D10CE0D349496808786B46012293
:102D80002146FEF7F3FC10B14FF0FF3038BD00BF15
:102D9000601CC4B2CB4840680079A042E0DC00204F
:102DA000F4E770B504460D46C6480068C07AA042F4
:102DB00004D0C4480068407DA04202D14FF0FF30EB
:102DC00070BDC04840680079A04202DC4FF0FF307F
:102DD000F6E7BC49496808782B4601222146FEF7F0
:102DE000C5FCEDE738B50446B64890F82300A0428C
:102DF00001D1002038BD14B13020009001E0002046
:102E00000090B048807C20B19DF8000040F00200A6
:102E10000090AC4890F8220020B19DF8000040F0EE
:102E200080000090A74A1268117DA64A5268107867
:102E30006B460122FEF738FC10B14FF0FF30D9E7A6
:102E4000A04880F823400020D4E738B5044604F0B9
:102E5000700010B10120009005E014B10020009036
:102E600001E040200090974A1268917C954A526890
:102E700010786B460122FEF717FC20B10021914823
:102E80008172481E38BD9DF8000020F040018D4839
:102E900001730020009004F0400020B99DF800006C
:102EA00040F00400009004F0200020B99DF80000DC
:102EB00040F00200009004F0100020B99DF80000DE
:102EC00040F00100009004F0080020B99DF80000D7
:102ED00040F0380000907B4A1268D17C794A5268F1
:102EE00010786B460122FEF7DFFB20B10021754808
:102EF0008172481EC6E724B1082C02D00020FFF7DB
:102F000071FF70488472002101753220FDF716FAB6
:102F10000020B7E738B504466A48807CA04201D15A
:102F2000002038BD002C46D0664A12681179654AE7
:102F3000526810786B460122FEF718FC10B14FF072
:102F4000FF30EEE79DF8000020F0200000905D4A81
:102F5000126811795B4A526810786B460122FEF7BD
:102F6000A3FB10B14FF0FF30DBE70320FDF7E6F9DC
:102F700002200090534890F8220020B19DF80000F4
:102F800040F0800000904F4890F8230020B19DF859
:102F9000000040F0300000904A4A1268117D494A12
:102FA000526810786B460122FEF77EFB002851D054
:102FB0004FF0FF30B5E7434A12681179414A526831
:102FC00010786B460122FEF7D1FB10B14FF0FF30B5
:102FD000A7E73C48807A00F0010028B19DF8000086
:102FE00040F02000009004E09DF8000020F0200058
:102FF0000090344A12681179324A526810786B4650
:103000000122FEF751FB10B14FF0FF3089E703209A
:10301000FDF794F92B4890F8220010B18020009021
:1030200001E000200090274890F8230020B19DF88F
:10303000000040F030000090224A1268117D214AC1
:10304000526810786B460122FEF72EFB10B14FF04C
:10305000FF3066E71B488474002062E708B5194812
:10306000807A10B94FF0FF3008BD00200090154A5B
:103070001268D17B134A526810786B460122FEF722
:1030800013FB10B14FF0FF30EEE70E4A1268517992
:103090000C4A526810786B460122FEF705FB10B10E
:1030A0004FF0FF30E0E7074A12681179054A52688D
:1030B00010786B460122FEF7F7FA28B14FF0FF3087
:1030C000D2E70000E0000020F74890F82400002834
:1030D00050D00C200090F44A12681179F24A5268DC
:1030E00010786B460122FEF7DFFA10B14FF0FF3087
:1030F000BAE7C0200090EC48807A00F0010020B1CF
:103100009DF8000040F020000090E74A1268117915
:10311000E54A526810786B460122FEF7C5FA10B1F5
:103120004FF0FF30A0E7E048407C10B10220009053
:1031300001E000200090DC4A1268D17BDA4A526834
:1031400010786B460122FEF7AFFA10B14FF0FF3056
:103150008AE700200090D44A12685179D24A526816
:1031600010786B460122FEF79FFA002852D04FF0EC
:10317000FF3079E704200090CB4A12681179CA4ADF
:10318000526810786B460122FEF78EFA10B14FF0AC
:10319000FF3069E7C448807C20B9C348807A00F0DA
:1031A000010010B94020009001E060200090BE4A6C
:1031B00012681179BC4A526810786B460122FEF7FA
:1031C00073FA10B14FF0FF304EE7B748407C10B1B2
:1031D0000120009001E000200090B34A1268D17BEA
:1031E000B14A526810786B460122FEF75DFA10B1C1
:1031F0004FF0FF3038E7AC4A12685179AA4A52685A
:103200001078A94B10330122FEF74EFA10B14FF09F
:10321000FF3029E7002027E770B50446002624F098
:103220000104A14890F8240008B1002070BD9E4818
:10323000807A10B94FF0FF30F8E79B48057C807A20
:103240002040994908740846007CA04202D04FF003
:10325000FF3600E0002614B99348007D18B1012024
:10326000FFF736FD02E00020FFF732FD3CB1FFF72B
:10327000F5FE20B18C4805744FF0FF30D6E730469C
:10328000D4E738B504468848807A10B94FF0FF304B
:1032900038BDBC2C02DB0120009015E0622C02DB63
:1032A0000220009010E02A2C02DB032000900BE0AB
:1032B000142C02DB0420009006E00A2C02DB05201F
:1032C000009001E0062000907748C07A9DF8001039
:1032D000884201D10020DBE7734A12689178724A74
:1032E000526810786B460122FEF7DEF910B14FF0FC
:1032F000FF30CDE79DF800106B48C1720020C7E792
:1033000038B50446282C02DD4FF0FF3038BDDCB95B
:103310000020FFF767FD00208DF8000007208DF8E2
:103320000100614A1268917C5F4A526810786B46CE
:103330000222FEF7B9F910B14FF0FF30E6E70021A5
:10334000594801750020E1E70120FFF74BFD2020DF
:103350008DF80000012C06D100208DF80100052019
:10336000FFF78FFF17E0052C06DC01208DF8010028
:103370000520FFF786FF0EE0142C06DC02208DF8F6
:1033800001000A20FFF77DFF05E003208DF8010012
:103390001420FFF776FF9DF80100072101EB801054
:1033A000C0B28DF80100404A1268917C3E4A5268D2
:1033B00010786B460222FEF777F910B14FF0FF301C
:1033C000A4E70821384881720021017301210175A9
:1033D0000020FFF721FF002098E738B50446324867
:1033E000807A10B94FF0FF3038BD2F4890F8240094
:1033F00010B14FF0FF30F7E72B48007D50B134B1EA
:10340000282C04DCE0B2FFF77BFF0020ECE7002073
:10341000FFF776FF042C01DA042404E0B4F57A7F88
:1034200001DD4FF47A744FF47A7090FBF4F0401E93
:10343000C0B200901C4A126851781B4A526810783A
:103440006B460122FEF730F910B14FF0FF30CBE7A9
:103450009DF80000401C4FF47A7191FBF0F081B2AE
:103460001148C1810146C9894810FFF70AFF0020B1
:10347000BAE738B504460C48807A10B94FF0FF30EF
:1034800038BD022C06D0042C07D0082C08D0102CF4
:103490000FD10BE0002000900EE0082000900BE020
:1034A0001020009008E00000E000002018200090AC
:1034B00002E04FF0FF30E3E700BFF948407A9DF8A3
:1034C0000010B0EBE10F01D10020D9E7F44A1268F7
:1034D000D179F34A526810786B460122FEF7E4F87E
:1034E00010B14FF0FF30CBE79DF80000C110EC4861
:1034F00041720020C4E738B50446E948807A10B923
:103500004FF0FF3038BDFA2C09D0B4F5FA7F09D05E
:10351000B4F57A7F09D0B4F5FA6F0CD108E0002039
:1035200000900BE00820009008E01020009005E0DB
:103530001820009002E04FF0FF30E3E700BFD848CA
:10354000007A9DF80010B0EBE10F01D10020D9E71F
:10355000D34A12689179D24A526810786B46012298
:10356000FEF7A2F810B14FF0FF30CBE79DF8000056
:10357000C010CB4908720020C4E71CB580208DF82C
:103580000000C74A1268917CC54A526810786B46A1
:103590000122FEF789F810B14FF0FF301CBD642006
:1035A000FCF7CCFE00208DF80000BD4A1268917C2B
:1035B000BB4A526810786B460122FEF775F810B1CD
:1035C0004FF0FF30EAE7B64A1268917DB44A52687C
:1035D00010786B460622FEF7C9F810B14FF0FF30A5
:1035E000DCE79DF80500C007400F9DF8031001F0CF
:1035F000010140EA41009DF8011001F0010140EA9B
:10360000010494B1012C03D10121A548C17431E01A
:10361000022C03D10021A248C1742BE02146A1A0B5
:1036200003F044FA4FF0FF30B8E79D4A1268D178B2
:103630009B4A526810786B460122FEF797F810B14A
:103640004FF0FF30AAE79DF8000000F00F042CB9FE
:103650009E4803F02BFA4FF0FF309FE7042C06D171
:103660009BA003F023FA01218D48C17402E00021E0
:103670008B48C174FF218A488172FF2088490872F3
:10368000FF2187484172C1724FF6FF71C181FF214E
:10369000017481740121017380F82210002180F8E7
:1036A0002310417501751630016041608160163844
:1036B00080F8241080F82510C1844FF4FA60FFF7D9
:1036C0001AFF10B14FF0FF3068E70220FFF7D1FE7C
:1036D00010B14FF0FF3061E72A20FFF7D2FD10B1A3
:1036E0004FF0FF305AE73220FFF777FE10B14FF06E
:1036F000FF3053E70020FFF78FFD10B14FF0FF3090
:103700004CE70020FFF706FC10B14FF0FF3045E713
:103710000020FFF79AFB002040E770477CB5044685
:103720000D465F48807A00F0700010B94FF0FF300E
:103730007CBD5B4A1268117B594A526810786B460F
:103740000622FEF713F810B14FF0FF30F0E79DF8B6
:1037500001009DF8001040EA012000B220809DF891
:1037600003009DF8021040EA012000B260809DF83D
:1037700005009DF8041040EA012000B2A08015B1B8
:103780002846FFF7CAFF0020D2E77CB504460D4665
:103790004348807A00F0080010B94FF0FF307CBD3C
:1037A0003F4A1268517B3E4A526810786B460622A7
:1037B000FDF7DCFF10B14FF0FF30F0E79DF801009E
:1037C0009DF8001040EA012000B220809DF803001F
:1037D0009DF8021040EA012000B260809DF80500CB
:1037E0009DF8041040EA012000B2A08015B12846DF
:1037F000FFF793FF0020D2E72DE9FE4F05460C4668
:103800002748807A18B94FF0FF30BDE8FE8F244A70
:103810001268917B224A5268107802AB0222FDF7AF
:10382000A5FF10B14FF0FF30EFE79DF809009DF8BC
:10383000081040EA012006B214B12046FFF76DFFE0
:1038400017494968C88805F0D1FB154901904968B6
:10385000B1F9080005F0B2FB8346304605F0AEFB37
:103860005946009005F012FD8246019905F074FA60
:1038700081461F4905F002FA80464FF08F4105F05E
:10388000FDFB074605F05EFB28600020BDE710B594
:1038900088B004461CB94FF0FF3008B010BD29E0D5
:1038A000E0000020556E737570706F72746564204F
:1038B000736F6674776172652070726F647563747C
:1038C000207265762025642E0A00000090AC000866
:1038D00048616C662073656E736974697669747982
:1038E000207061727420666F756E642E0D0A000080
:1038F00000000C42206830B9606820B9A06810B997
:10390000002008B010BDFA494968087806AB0322C8
:103910001146FDF72BFF10B14FF0FF30F1E79DF896
:103920001800082101EB201000F00F00ADF8000096
:103930009DF8190001EB201000F00F00ADF8020017
:103940009DF81A0001EB201000F00F00ADF8040004
:1039500020684100BDF90000403091FBF0F000B25A
:10396000ADF8100060684100BDF90200403091FBE5
:10397000F0F000B2ADF81200A0684100BDF90400FB
:10398000403091FBF0F000B2ADF81400D84949681E
:10399000087806AB06221146FDF7E8FE10B14FF09D
:1039A000FF30AEE79DF819009DF8181040EA01209D
:1039B00000B2ADF808009DF81B009DF81A1040EA0F
:1039C000012000B2ADF80A009DF81D009DF81C1002
:1039D00040EA012000B2ADF80C00BDF81000BDF8BF
:1039E0000810084400B2ADF81000BDF81200BDF890
:1039F0000A10084400B2ADF81200BDF81400BDF87A
:103A00000C10084400B2ADF81400BDF81000000A14
:103A10008DF81800BDF81000C0B28DF81900BDF87F
:103A20001200000A8DF81A00BDF81200C0B28DF81D
:103A30001B00BDF81400000A8DF81C00BDF814002E
:103A4000C0B28DF81D00AA494968087806AB062265
:103A50001146FDF729FE10B14FF0FF3051E700206D
:103A60004FE70146A248007A30B1012807D002286A
:103A700009D003280FD10AE0FA2008800EE04FF4A5
:103A8000FA7008800AE04FF47A70088006E04FF47C
:103A9000FA60088002E00020088000BF00BF00201C
:103AA000704701469248407A30B1012807D0022879
:103AB00008D003280CD108E0022008700BE0042095
:103AC000087008E00820087005E01020087002E087
:103AD0004FF0FF30704700BF8548C07C18B10878B0
:103AE0004006000E08700020F4E701468048C07AC6
:103AF000082817D2DFE800F01704070A0D10131882
:103B0000BC20088013E06220088010E02A20088092
:103B10000DE0142008800AE00A20088007E0052054
:103B2000088004E000BF00BF0020088000BF00BF85
:103B30000020704701466E4890F8240010B14FF005
:103B4000FF3070476A48C08908800020F9E70146C5
:103B500000200880401E704701464FF0FF3070473C
:103B600001466348007A30B1012807D0022808D006
:103B700003280CD108E05F4808600BE05E4808604D
:103B800008E05E48086005E05D48086002E04FF02C
:103B9000FF30704700BF0020FBE701465448407AE1
:103BA00030B1012808D002280AD0032810D10BE038
:103BB0004FF4804008800EE041F69C7008800AE0D7
:103BC0004FF48050088006E04FF40060088002E067
:103BD0004FF0FF30704700BF4548C07C10B10888E7
:103BE000401008800020F5E701464148007C08703D
:103BF0000020704701463E48807A10B101200870CD
:103C000001E0002008700020704738B504463848AD
:103C1000807A10B94FF0FF3038BD354A1268117CF8
:103C2000334A526810786B460222FDF79FFD10B1AF
:103C30004FF0FF30F0E79DF801009DF8001040EADA
:103C4000012000B220800020E6E72DE9FE4F074664
:103C5000884692461D46DDF830B0002600242448F0
:103C600090F8240010B1601EBDE8FE8F002028707F
:103C70001F48807A10B94FF0FF30F5E71C48007CF0
:103C800010B94FF0FF30EFE71948007C00F040001A
:103C900008B1B01CC6B21648007C00F0200008B184
:103CA000B01CC6B21248007C00F0100008B1B01C75
:103CB000C6B20F48007C00F0080008B1B01DC6B2C3
:103CC0000B4A1268917A0A4A526810786B460222AF
:103CD000FDF74CFD10B14FF0FF30C5E79DF8010036
:103CE0009DF8001040EA0129B1450BDA0020BBE73E
:103CF000E00000200000034300008342333303420E
:103D000033338341FC4840684088B9EB600F17DDCE
:103D1000F94A1268517CF84A526810786B460122C1
:103D2000FDF724FD10B14FF0FF309DE79DF8000036
:103D300000F0100020B1FFF791F96FF0010093E758
:103D40005046FFF7EAFCEC4A1268D17AEA4A526818
:103D500010786B463246FDF709FD10B14FF0FF3089
:103D600082E799FBF6F0401E8BF8000000202870D7
:103D7000B4422AD0E048007C00F0080028B3601C60
:103D80001DF800001DF8041040EA012000B2A8F858
:103D90000000E01C1DF80010A01C1DF8000041EA06
:103DA000002000B2A8F80200601D1DF80010201DC0
:103DB0001DF8000041EA002000B2A8F804002878AD
:103DC00040F008002870A01D84B2B44213D0CA4845
:103DD000007C00F0400070B1601C1DF800001DF870
:103DE000041040EA012000B23880287840F04000FA
:103DF0002870A01C84B2B44213D0BF48007C00F0ED
:103E0000200070B1601C1DF800001DF8041040EA8D
:103E1000012000B27880287840F020002870A01C93
:103E200084B2B44213D0B448007C00F0100070B1EA
:103E3000601C1DF800001DF8041040EA012000B2CB
:103E4000B880287840F010002870A01C84B20020B0
:103E50000AE7F8B504460F461646A74890F824002E
:103E600010B94FF0FF30F8BDA348807A10B94FF079
:103E7000FF30F8E7A04A1268917A9F4A526810789A
:103E80006B460222FDF772FC10B14FF0FF30EAE7FB
:103E90009DF801009DF8001040EA0125A54203DAD3
:103EA00000203070401EDEE7934840684088B5EB44
:103EB000600F17DD904A1268517C8F4A5268107863
:103EC0006B460122FDF752FC10B14FF0FF30CAE7FC
:103ED0009DF8000000F0100020B1FFF7BFF86FF070
:103EE0000100C0E7E2B2844B1B68D97A824B5B6861
:103EF00018783B46FDF73AFC10B14FF0FF30B2E7BF
:103F000095FBF4F0401E30700020ACE701467A4883
:103F100080F82210002070477CB505467649496834
:103F2000087801AB04220D21FDF720FC08B1072021
:103F30007CBD9DF80700C0F301109DF8041001F04E
:103F4000E00140EAE1008DF800009DF80700C0F3B1
:103F500081009DF8051001F0E00140EAE1008DF8D4
:103F600001009DF8070000F003009DF8061001F025
:103F7000E00140EAE1008DF8020000241CE01DF899
:103F8000040018B9002045F8240013E05B4845F808
:103F9000240006E055F82400594905F06FF845F86B
:103FA00024001DF80400401EC0B20DF804000028D3
:103FB000F0D100BF601CC4B2032CE0DB0020B7E7E7
:103FC0002DE9FE4F06460F4600256846FFF7A4FF81
:103FD000002442E056F8240057F82410A0EB010A10
:103FE000BAF1000F01DB514601E0CAF100010846B9
:103FF00004F0E4FF83464FF08F4104F0ADFE8046AD
:104000005DF82400002104F069FF16D05DF824104B
:10401000404604F0A1FE82464FF07E5105F036F98D
:10402000814629F0004A3748416A504605F0F2F8C7
:1040300012D20120A04005430EE03248C16940463B
:1040400004F0E8FF05D32F48016A404605F0E2F886
:1040500002D20120A0400543641C032CBADB284691
:10406000BDE8FE8F2DE9FC5F06460F46002522497C
:104070004968087801AB03220D21FDF777FB10B1E9
:104080000720BDE8FC9F9DF8040000F01F008DF89C
:1040900004009DF8050000F01F008DF805009DF854
:1040A000060000F01F008DF80600002462E056F8BC
:1040B000240057F82410A0EB010BBBF1000F01DB2B
:1040C000594601E0CBF10001084604F077FF4FF0BC
:1040D0008F41009004F040FE814601A8005DC0B30E
:1040E0000849086804F082FF83465946064804F0F0
:1040F00033FE80460FE00000E00000207B14AE3E5F
:104100001D5A843FF49E000800B04C45FE494046CD
:1041100004F0B4FF804601A8005D401EC0B201A9B2
:1041200008550028F2D14146484604F015FE834662
:104130004FF07E5105F0AAF882462AF0004BF34872
:104140008169584605F066F813D20120A040054366
:104150000FE0FFE7ED480169484604F05BFF05D337
:10416000EA484169484605F055F802D20120A040CE
:104170000543641C032C9ADB284682E72DE9F04FA7
:1041800087B005460C46914601208DF810000020AE
:104190008DF81100DE4A1268917CDD4A5268107871
:1041A00004AB0222FDF780FA20B14FF0FF3007B0D8
:1041B000BDE8F08FC820FCF7C1F800208DF8100092
:1041C000D34A1268D17BD24A5268107804AB0122DC
:1041D000FDF76AFA10B14FF0FF30E8E7CC4A1268F9
:1041E0005179CB4A5268107804AB0122FDF75CFA92
:1041F00010B14FF0FF30DAE7C54A1268917CC44A2B
:104200005268107804AB0122FDF74EFA10B14FF05E
:10421000FF30CCE7BE4A1268D17DBD4A52681078A3
:1042200004AB0122FDF740FA10B14FF0FF30BEE7BA
:10423000B74A12681179B64A5268107804AB012265
:10424000FDF732FA10B14FF0FF30B0E70C208DF8D7
:104250001000AF4A12681179AD4A5268107804AB69
:104260000122FDF721FA10B14FF0FF309FE70F2038
:10427000FCF764F8A648806A407A8DF81000A44ADA
:1042800012689178A24A5268107804AB0122FDF7B7
:104290000BFA10B14FF0FF3089E79D48806A007A31
:1042A0008DF810009A4A12685178994A526810782D
:1042B00004AB0122FDF7F8F910B14FF0FF3076E7BB
:1042C000B9F1000F07D09248806A807A40F0E00090
:1042D0008DF8100004E08E48806A807A8DF8100016
:1042E0008B4A126891798A4A5268107804AB01228D
:1042F000FDF7DAF910B14FF0FF3058E7B9F1000FD0
:1043000007D08348806AC07A40F0E0008DF8100042
:1043100003E07E48C07A8DF810007D4A1268D1799A
:104320007B4A5268107804AB0122FDF7BDF910B149
:104330004FF0FF303BE7B9F1000F02D0C820FBF788
:10434000FDFF40208DF81000714A12681179704A03
:104350005268107804AB0122FDF7A6F910B14FF0B6
:10436000FF3024E778208DF81000694A12685179EF
:10437000674A5268107804AB0122FDF795F910B135
:104380004FF0FF3013E761498889FBF7D7FF002022
:104390008DF810005E4A126851795D4A52681078B3
:1043A00004AB0122FDF780F910B14FF0FF30FEE6BB
:1043B000574A1268917A564A5268107804AB022222
:1043C000FDF7D4F910B14FF0FF30F0E69DF8110081
:1043D0009DF8101040EA012B0C209BFBF0F0C6B2B8
:1043E0000020A86068602860A0606060206082464D
:1043F00065E0474A1268D17A454A5268107804ABA2
:104400000C22FDF7B3F910B14FF0FF30CFE69DF865
:1044100011009DF8101040EA012000B2ADF808002C
:104420009DF813009DF8121040EA012000B2ADF88B
:104430000A009DF815009DF8141040EA012000B212
:10444000ADF80C00BDF90810206808442060BDF9E3
:104450000A10606808446060BDF90C10A068084448
:10446000A0609DF817009DF8161040EA012000B2E8
:10447000ADF800009DF819009DF8181040EA0120E1
:1044800000B2ADF802009DF81B009DF81A1040EA3A
:10449000012000B2ADF80400BDF9001028680844FE
:1044A0002860BDF90210686808446860BDF904100E
:1044B000A8680844A8600AF1010000F0FF0AB245AC
:1044C00097DB1248D0F800C02868C117090441EAF8
:1044D0001041070462460023384602F0C2FA324611
:1044E0000023CDE9020102F0BCFA28600748D0F8A9
:1044F00000C06868C117090441EA10410704624618
:104500000023384606E0000054E3853FF49E00088F
:10451000E000002002F0A5FA32460023CDE90201B6
:1045200002F09FFA6860FE48D0F800C0A868C11782
:10453000090441EA1041070462460023384602F0AC
:1045400090FA32460023CDE9020102F08AFAA8600F
:10455000F348D0F804C02168C817000440EA1148A5
:104560000F04624600233846414602F07AFA32468A
:104570000023CDE9020102F074FA2060E848D0F887
:1045800004C06068C117090441EA1041070462468B
:104590000023384602F065FA32460023CDE90201D5
:1045A00002F05FFA6060DE48D0F804C0A068C1176E
:1045B000090441EA1041070462460023384602F02C
:1045C00050FA32460023CDE9020102F04AFAA06017
:1045D000A068002804DDA068A0F58030A06003E09A
:1045E000A06800F58030A0600020E0E538B5044602
:1045F000CC4890F82400A04201D1002038BD24B35B
:10460000C84890F8250010B94FF0FF30F6E70020B9
:10461000FEF75EFB0020FEF77DFCC249C88CFEF76A
:10462000DCFE00200090BF49496808786B460122F3
:104630002321FDF739F80121BA4880F82410012020
:10464000FEF746FBFEF70AFD13E00020FEF740FBF5
:10465000B448007C0090B349496808786B46012251
:104660002321FDF721F80021AE4880F82410FEF741
:10467000F5FC0020C2E72DE9F04F8DB083460F46D0
:1046800002200C90A74890F8240020B10020FFF7EA
:10469000ADFF012600E0002603A8FFF7E2F905A818
:1046A000FFF7FFF901A8FFF720FA02A8FFF742FA87
:1046B0009C4890F80AA004A8FFF796FA002407E0A7
:1046C000002239465846FFF759FD00B902E0641C44
:1046D000022CF5DB00BF022C01D1002528E00024CC
:1046E00007E0012206A909A8FFF748FD00B902E08A
:1046F000641C022CF5DB00BF022C01D1002517E061
:1047000006A93846FFF75CFC00F0FF0809A95846E7
:10471000FFF7A8FC00F0FF090025B9F1000F01D157
:1047200045F00105B8F1000F01D145F0020500BFC9
:10473000FF207C490872FF217A484172C1724FF60E
:10474000FF71C181FF218172017401210173BDF8E4
:104750000C00FEF7D0FE9DF81400FEF78AFEBDF8AF
:104760000400FEF78EFDBDF80800FEF736FE504649
:10477000FEF76BFB9DF81000FEF74EFD16B1012011
:10478000FFF734FF28460DB0BDE8F08FF8B50446BA
:104790000D46164616B94FF0FF30F8BD6148807AD5
:1047A00010B94FF0FF30F8E720128DF80000E0B2AA
:1047B0008DF801009DF8010028445A49496849894B
:1047C000884202DD4FF0FF30E7E7564A1268117E5B
:1047D000544A526810786B460222FCF765FF10B10C
:1047E0004FF0FF30D9E7EAB24E4B1B68597D4D4B75
:1047F0005B6818783346FCF757FF10B14FF0FF3075
:10480000CBE70020C9E7F8B504460D46164616B9B1
:104810004FF0FF30F8BD4348807A10B94FF0FF30B9
:10482000F8E720128DF80000E0B28DF801009DF845
:10483000010028443B4949684989884202DD4FF01C
:10484000FF30E7E7374A1268117E364A526810781F
:104850006B460222FCF728FF10B14FF0FF30D9E77A
:10486000EAB2304B1B68597D2E4B5B681878334693
:10487000FCF77CFF10B14FF0FF30CBE70020C9E719
:104880002DE9F04385B005460E46904699462548E9
:1048900090F8250020B14FF0FF3005B0BDE8F0835F
:1048A00016B94FF0FF30F8E7002423E0281B10284A
:1048B00001DD102000E0281B87B23219394620465E
:1048C000FFF764FF10B14FF0FF30E6E701AA394669
:1048D0002046FFF798FF10B14FF0FF30DDE73019A9
:1048E0003A4601A902F05CF910B16FF00100D4E77B
:1048F000E01984B2AC42D9DB4FEA28208DF80000E1
:1049000008F0FF008DF80100064A1268917E054A02
:10491000526810786B460222FCF7C6FE38B103E0FD
:10492000F49E0008E00000204FF0FF30B5E70121C1
:104930008A4880F82510A0F826900020ADE70146AF
:10494000864890F8240008700020704702464FF017
:10495000FF30704701464FF0FF307047F8B505460D
:104960000F461446002C70D0B5F5FF5F01DDFF2621
:1049700005E0202D01DA012601E0C5F3471607B94D
:104980000127282C02DD4FF0FF30F8BD7348407D31
:1049900028BB724890F8240038B10020FFF726FEAB
:1049A00001216E4880F8201003E000216B4880F858
:1049B00020106A481630FFF754F868481830FFF79F
:1049C00070F866481A30FFF790F864481C30FFF71B
:1049D000B1F86248817A81771F30FFF705F900202E
:1049E000FEF776F90020FEF78BFC00208DF8000022
:1049F0005A4A12689178594A526810786B460122D7
:104A0000FCF752FE10B14FF0FF30BEE740208DF8AA
:104A10000000524A1268D17B504A526810786B46A7
:104A20000122FCF741FE00B165E08DF800608DF8D1
:104A300001704A4A1268117A484A526810786B46E7
:104A40000222FCF731FE08B155E047E00520FBF7F4
:104A500075FC4248407A072101EBC000C0B28DF8D6
:104A600000003E4A1268D1793C4A526810786B4681
:104A70000122FCF719FE00B13DE020208DF8000076
:104A8000012C03D100208DF801000EE0052C03DC81
:104A900001208DF8010008E0142C03DC02208DF8C1
:104AA000010002E003208DF801009DF801000721BC
:104AB00001EB8010C0B28DF80100284A1268917C89
:104AC000264A526810786B460222FCF7EDFD00B1D1
:104AD00011E0012121484175002056E71F4A163296
:104AE000002103E0505C00B105E0491C0C29F9D31A
:104AF0004FF0FF3049E7FF2018490872FF2117489F
:104B00004172C1724FF6FF71C181FF218172017440
:104B1000012101730146887FFEF797F90F49C88A82
:104B2000FEF7E9FC0D49087EFEF7A3FC0B49488B14
:104B3000FEF7A7FB0949888BFEF74FFC0749C87FA2
:104B4000FEF76AFB054890F8200010B10120FFF73E
:104B50004DFD002101484175002016E7E0000020CE
:104B600010B5C8234FF48062F74940F6F630FFF7DE
:104B700087FE10BD10B586B00446F4A0006803900F
:104B8000F3A000680290F3A000680190F2A0006812
:104B9000009004F0030003A9085C8DF8140003A83A
:104BA000C4F3C101405C8DF8150003A8C4F3811162
:104BB000405C8DF8160004F0030002A9085C8DF833
:104BC000100002A8C4F3C101405C8DF8110002A8D6
:104BD000C4F38111405C8DF8120005AA032140F254
:104BE0002640FFF7D3FD18B14FF0FF3006B010BDDF
:104BF00004AA032140F22A40FFF7C8FD10B14FF08C
:104C0000FF30F3E7019805900098049004F0040049
:104C100058B19DF8140040F001008DF814009DF883
:104C2000100040F001008DF8100004F0200058B191
:104C30009DF8150040F001008DF815009DF8110059
:104C400040F001008DF8110004F4807058B19DF817
:104C5000160040F001008DF816009DF8120040F09B
:104C600001008DF8120005AA03214FF48860FFF7B8
:104C70008DFD10B14FF0FF30B8E704AA032140F2D8
:104C80003140FFF783FD10B14FF0FF30AEE7B3487E
:104C900004810020AAE71FB50446B048007A00F05E
:104CA000030054F820000190AC48007A00F00400A2
:104CB00010B1019840420190A848007AC0F3C100A9
:104CC00054F820000290A548007A00F0200010B1AE
:104CD000029840420290A148007AC0F3811054F833
:104CE000200003909D48008900F4807010B1039863
:104CF000404203909A49019880FB0101800F40EAED
:104D0000810001909649029880FB0110820042EADE
:104D1000917002909249039880FB0110820042EA50
:104D2000917003900198000E8DF800000198000C1E
:104D30008DF801000198000A8DF802000198C0B2B8
:104D40008DF803006A4604214FF47470FFF71EFDCE
:104D500018B14FF0FF3004B010BD0298000E8DF86E
:104D600000000298000C8DF801000298000A8DF8EE
:104D700002000298C0B28DF803006A4604214FF485
:104D80007570FFF703FD10B14FF0FF30E3E70398B4
:104D9000000E8DF800000398000C8DF801000398B8
:104DA000000A8DF802000398C0B28DF803006A462D
:104DB00004214FF47670FFF7E9FCCCE770B588B0BA
:104DC000064601A8FEF7E9FEBDF804000021C9036C
:104DD00041EA5045C4036148007A00F0030056F8E8
:104DE000200005905D48007A00F0040010B105989D
:104DF000404205905948007AC0F3C10056F820009F
:104E000006905648007A00F0200010B10698404203
:104E100006905248007AC0F3811056F8200007909F
:104E20004E48008900F4807010B107984042079006
:104E30000598C117A0FB042301FB043100FB0510FA
:104E4000810041EA927005900698C117A0FB0423E7
:104E500001FB043100FB0510810041EA92700690CD
:104E60000798C117A0FB042301FB043100FB0510C8
:104E7000810041EA927007900598000E8DF80800B5
:104E80000598000C8DF809000598000A8DF80A00B5
:104E90000598C0B28DF80B000698000E8DF80C0036
:104EA0000698000C8DF80D000698000A8DF80E008B
:104EB0000698C0B28DF80F000798000E8DF810000C
:104EC0000798000C8DF811000798000A8DF8120061
:104ED0000798C0B28DF8130002AA0C214FF4257078
:104EE000FFF754FC08B070BD30B585B004461DA274
:104EF00007CA02AB07C3C82C03DD4FF0FF3005B073
:104F000030BDC82090FBF4F0401E85B2280A8DF811
:104F10000000E8B28DF801006A46022140F2162036
:104F2000FFF734FC10B14FF0FF30E8E702AA0C2184
:104F300040F6C120FFF72AFC10B14FF0FF30DEE74A
:104F4000064884810020DAE71C9F00084CCD6C00E5
:104F50000CC92C003656760026466600000A002052
:104F600009E3CA02FEF2ABC4AAF1DFDFBBAFDFDFA9
:104F70000146FC4880890880002070472DE9FC47E5
:104F800006460F4606F0070010B1B7F5C86F03DDFF
:104F90004FF0FF30BDE8FC87384604F027F8814623
:104FA000F14903F0D9FE80466846FEF77AFD9DF888
:104FB0000000022806D0042816D0082826D0102881
:104FC00048D135E04FF08D41404604F057F8814616
:104FD00003F0D4FF84B2E549404604F04FF881461F
:104FE00003F0CCFF85B238E04FF08C41404604F02E
:104FF00045F8814603F0C2FF84B2DD49404604F023
:105000003DF8814603F0BAFF85B226E04FF08B41B0
:10501000404604F033F8814603F0B0FF84B2D5492E
:10502000404604F02BF8814603F0A8FF85B214E057
:105030004FF08A41404604F021F8814603F09EFF7C
:1050400084B2CD49404604F019F8814603F096FF3A
:1050500085B202E04FF0FF309CE700BF20128DF8D0
:105060000400E0B28DF8050028128DF80600E8B2C1
:105070008DF8070006F00100A0B101AA02214FF44B
:10508000EA70FFF783FB10B14FF0FF3082E70DF1BC
:10509000060202214FF49270FFF778FB10B14FF037
:1050A000FF3077E706F00200A0B101AA02214FF419
:1050B000EC70FFF76BFB10B14FF0FF306AE70DF1BA
:1050C000060202214FF49470FFF760FB10B14FF01D
:1050D000FF305FE706F00400A0B101AA02214FF4FF
:1050E000EE70FFF753FB10B14FF0FF3052E70DF1B8
:1050F000060202214FF49670FFF748FB10B14FF003
:10510000FF3047E7002045E738B50446002000900F
:1051100004F0010020B19DF8000040F03000009044
:1051200004F0020020B19DF8000040F00C00009057
:1051300004F0040020B19DF8000040F0030000904E
:105140006A4601214FF4A470FFF720FB38BD38B543
:105150000446012C01DA012402E0042C00DD0424C1
:10516000601EC0B200906A46012140F24F10FFF766
:105170000DFB38BD38B50446052094FBF0F085B230
:1051800028128DF80000E8B28DF801006A4602216D
:105190004FF4EF70FFF7FAFA38BD38B50446052032
:1051A00094FBF0F085B228128DF80000E8B28DF87B
:1051B00001006A4602214FF4ED70FFF7E7FA38BDAF
:1051C000F8B505460E464FF47A7095FBF0F000FBFB
:1051D00006F4200E8DF80000200C8DF80100200A46
:1051E0008DF80200E0B28DF803006A4604214FF406
:1051F000AE70FFF7CBFAF8BD38B50446052094FB36
:10520000F0F084B220128DF80000E0B28DF80100B9
:105210006A4602214FF4AD70FFF7B8FA38BD38B5D1
:105220000446052094FBF0F084B220128DF80000B3
:10523000E0B28DF801006A4602214FF4AC70FFF72E
:10524000A5FA38BD38B5044614B94FF0FF3038BD63
:105250006A4604214FF45870FFF7D5FA10B14FF0A9
:10526000FF30F4E79DF8000000069DF8011040EAC9
:1052700001409DF8021040EA01209DF80310084308
:1052800020600020E3E738B50446200E8DF80000CA
:10529000200C8DF80100200A8DF80200E0B28DF894
:1052A00003006A4604214FF45870FFF76FFA38BDC7
:1052B00038B5044614B94FF0FF3038BD6A460421B2
:1052C0004FF47170FFF79FFA10B14FF0FF30F4E721
:1052D0009DF8000000069DF8011040EA01409DF88D
:1052E000021040EA01209DF80310084300EB800003
:1052F000800020600020E0E738B504461420B4FBAD
:10530000F0F4200E8DF80000200C8DF80100200A2A
:105310008DF80200E0B28DF803006A4604214FF4D4
:105320007170FFF733FA38BD38B5044664B12020F8
:105330008DF8000028208DF8010030208DF8020043
:1053400038208DF8030004E0A3220421684601F010
:1053500053FC6A46042140F69E20FFF717FAFDF73A
:105360007DFE38BD000A0020000048430000404692
:105370000000C045000040450000C04438B5044668
:1053800064B1C0208DF80000C2208DF80100C42057
:105390008DF80200C6208DF8030004E08B22042162
:1053A000684601F029FC6A46042140F69820FFF780
:1053B000EDF9FDF753FE38BD3EB504466CB1FDA1D5
:1053C000D1E900208968CDE9002002916A460921CF
:1053D0004FF49760FFF7DAF93EBDF9A2D2E9001069
:1053E0009268CDE9010200916A4609214FF4976065
:1053F000FFF7CCF9F0E73EB5044602208DF8000037
:10540000CA208DF80100E3208DF8020009208DF8F4
:1054100003006A4604216820FFF7B8F9A3208DF83D
:10542000000004F0400048B1C0208DF80100C82001
:105430008DF80200C2208DF8030006E0A3208DF84D
:1054400001008DF802008DF8030004F4C07048B12B
:10545000C4208DF80400CC208DF80500C6208DF8FE
:10546000060006E0A3208DF804008DF805008DF8F5
:105470000600A3208DF807008DF808008DF80900BC
:105480006A460A2140F6A720FFF780F904F00300DE
:1054900018B120208DF8000002E0D8208DF800001F
:1054A0006A46012140F6B620FFF770F904F02000AB
:1054B00018B10120FFF780FF02E00020FFF77CFF1A
:1054C00004F4C07008B304F4807060B1B2208DF8A9
:1054D00000008B208DF80100B6208DF802009B2083
:1054E0008DF803000BE0B0208DF8000080208DF8CF
:1054F0000100B4208DF8020090208DF803006A4668
:10550000042140F6A220FFF741F904F0010020B386
:10551000F8208DF800006A4601214FF40B60FFF778
:1055200035F9FA210720FFF729FD0720FFF7ECFDE9
:105530000120FFF70CFE6420FFF71CFE4FF4FA7009
:10554000FFF72BFEC821A148FFF73AFE2820FFF7FE
:1055500053FE0A20FFF763FE08E0D8208DF8000014
:105560006A4601214FF40B60FFF710F904F00200C6
:1055700018B1D9208DF8000002E0D8208DF8000085
:105580006A46012140F23D70FFF700F904F0040083
:1055900018B10120FFF7F2FE02E00020FFF7EEFE57
:1055A00004F0100018B10120FFF7BEFE02E0002059
:1055B000FFF7BAFE44F0080085494881FDF74EFD2B
:1055C00000208349887304F0400018B10846807BAE
:1055D000801D887304F4C07020B17D48807B801DDD
:1055E0007B49887304F0140020B17948807B103027
:1055F0007749887304F0030020B17548807B001D53
:105600007349887300203EBD014671484089088077
:10561000002070472DE9F0410446E07800F0C00614
:10562000E07800F03F05607800F0010098B1EF10DD
:105630002846E91705EB5171C910A5EBC101491CBA
:1056400001F0FF086248006820B1614841460268E5
:105650003846904700BF607800F0080030B15C48E1
:10566000406818B1B0115A4A516888470020BDE817
:10567000F08110B586B0044656A207CA03AB07C333
:1056800057A207CA8DE80700012C09D0022C0ED1C1
:1056900003AA0B2140F68220FFF778F806B010BD70
:1056A0006A460B2140F68220FFF770F8F6E74FF0CC
:1056B000FF30F3E72DE9F04F8DB0074688461546D9
:1056C0009946DDE9166B0024002030804049887B34
:1056D0005A4605A9FEF7BDFB18B1601E0DB0BDE826
:1056E000F08F3B48807A00F01400002861D09DF8CC
:1056F000140000069DF8151040EA01409DF81610B0
:1057000040EA01209DF81710084328609DF8180012
:1057100000069DF8191040EA01409DF81A1040EA71
:1057200001209DF81B10084368609DF81C000006CE
:105730009DF81D1040EA01409DF81E1040EA01202E
:105740009DF81F100843A8609DF8200000069DF8F2
:10575000211040EA01409DF8221040EA01209DF806
:1057600023100843E86004F11000C4B22868001454
:105770000190686800140290A86800140390E8681B
:105780000014049001984043029901FB0100039921
:1057900001FB0100049901FB010ABAF1706F02DB01
:1057A000BAF1885F22DDFDF759FC00203080401EF1
:1057B00094E721E0B8AAB38DB4980D355D000000E0
:1057C000B8AAAAAAB088C3C5C700000009E3CA02E4
:1057D000000A0020D8B1B9F38BA391B609B4D9005F
:1057E000DAB1B9F38BA391B6DAB4DA00B6F90000F6
:1057F00040F48070308000BF3448807A00F0400070
:1058000020B305A9601C085C095D40EA012000B2D4
:10581000A8F8000005A9E01C095C05AAA01C105C02
:1058200041EA002000B2A8F8020005A9601D095C49
:10583000201D105C41EA002000B2A8F80400A01D61
:10584000C4B2B6F9000040F0080030801F4840891B
:1058500000F4C07008B305A9601C085C095D40EA4B
:10586000012000B2388005A9E01C095C05AAA01C33
:10587000105C41EA002000B2788005A9601D095C37
:10588000201D105C41EA002000B2B880A01DC4B207
:10589000B6F9000040F0700030800C48807A00F0CB
:1058A000030018B105A90819FFF7B4FE4846FDF733
:1058B00034FF002012E701460448016000207047D1
:1058C000014602484160002070470000000A0020A5
:1058D0002DE9F04105460C46AA480168204603F030
:1058E000D5FC0746A8480168384603F0C7FB0646C2
:1058F000A6480168304603F0C1F9A4490860A448ED
:105900004168A448006803F0C1FC0646A0488168CD
:10591000304603F0BBFCA04908609D48C06880F099
:10592000004048609A48C06880F0004088609B480A
:105930000068C86008689449096803F09FFB064640
:1059400093480168304603F099F9914908609249FB
:1059500048688D49096803F091FB06468C48416808
:10596000304603F08BF98A4948608B49886886493C
:10597000096803F083FB064685488168304603F0DA
:105980007DF9834988608449C8687F49096803F0C4
:1059900075FB06467E48C168304603F06FF97C49C6
:1059A000C8607A480168284603F070FC7C490860AA
:1059B0007C48007803F01AFB0646754801683046BB
:1059C00003F05CFB784908607648007803F00EFB32
:1059D00006466F488168304603F050FB7349086003
:1059E0007048007803F002FB07466F4801683846AC
:1059F00003F044FB06466E480168304603F03EF96A
:105A00006C490860084601686748006803F0A4F91B
:105A100069490860674801686448006803F09CF9B8
:105A20006649086060480068654908605D4800781C
:105A300003F0DCFA064656484168304603F01EFB88
:105A4000604908605E4801685B48006803F016FB27
:105A500006464F480168304603F00DFC4C4908608B
:105A6000584801685448006803F008FB0646484857
:105A70004168304603F0FFFB4549486050480168E3
:105A80004E48006803F0FAFA0646414881683046FD
:105A900003F0F1FB3E4988604A48016847480068C6
:105AA00003F0ECFA06463A48C168304603F0E3FBDF
:105AB0003749C8603A4801683F48006803F0DEFA99
:105AC000064632480168304603F0D8F82F4908608E
:105AD000334801683948006803F0D0FA064629487F
